:100000000C941A030C94C5170C9442030C944203ED
:100010000C9442030C9442030C9442030C9442034C
:100020000C9432180C9442030C9442030C94420337
:100030000C9442030C9442030C9442030C9442032C
:100040000C947B170C9442030C946E160C94481677
:100050000C9442030C9442030C9442030C9442030C
:100060000C941D0C0C944203EF03038002CF030099
:10007000C130ED0464031281E803850078CB0539B3
:100080002C003402F70120EA020000C00123C10164
:1000900010C5023E28C701863601483701003A01E3
:1000A00055B1020018B603088227F20100260101AB
:1000B000E00F0F312B0C0E084EF1370710030E091D
:1000C00000E10F000E1403110731C148080F0C3175
:1000D000360F118029800000000000003E5B4F5B5E
:1000E0003E3E6B4F6B3E1C3E7C3E1C183C7E3C18DB
:1000F0001C577D571C1C5E7F5E1C00183C1800FFBF
:10010000E7C3E7FF0018241800FFE7DBE7FF3048EC
:100110003A060E2629792926407F050507407F05E6
:10012000253F5A3CE73C5A7F3E1C1C08081C1C3EDD
:100130007F14227F22145F5F005F5F06097F017FCB
:10014000006689956A606060606094A2FFA294086E
:10015000047E040810207E201008082A1C08081CB1
:100160002A08081E101010100C1E0C1E0C30383EF1
:100170003830060E3E0E06000000000000005F0052
:10018000000007000700147F147F14242A7F2A121E
:100190002313086462364956205000080703000004
:1001A0001C2241000041221C002A1C7F1C2A080836
:1001B0003E08080080703000080808080800006049
:1001C000600020100804023E5149453E00427F4035
:1001D0000072494949462141494D331814127F1094
:1001E00027454545393C4A494931412111090736DE
:1001F00049494936464949291E000014000000407B
:100200003400000008142241141414141400412274
:10021000140802015909063E415D594E7C12111223
:100220007C7F494949363E414141227F4141413E1F
:100230007F494949417F090909013E414151737F85
:100240000808087F00417F41002040413F017F08AE
:100250001422417F404040407F021C027F7F0408FF
:10026000107F3E4141413E7F090909063E4151212F
:100270005E7F09192946264949493203017F010356
:100280003F4040403F1F2040201F3F4038403F63D9
:100290001408146303047804036159494D43007F33
:1002A0004141410204081020004141417F04020104
:1002B00002044040404040000307080020545478A6
:1002C000407F284444383844444428384444287FF4
:1002D000385454541800087E090218A4A49C787F4E
:1002E0000804047800447D40002040403D007F1019
:1002F00028440000417F40007C047804787C080496
:1003000004783844444438FC182424181824241849
:10031000FC7C08040408485454542404043F442436
:100320003C4040207C1C2040201C3C4030403C4451
:10033000281028444C9090907C4464544C4400080D
:10034000364100000077000000413608000201023B
:1003500004023C2623263C1EA1A161123A40402003
:100360007A3854545559215555794122545478427C
:10037000215554784020545579400C1E5272123940
:1003800055555559395454545939555454580000F9
:10039000457C410002457D420001457C407D1211B3
:1003A000127DF0282528F07C545545002054547CBB
:1003B000547C0A097F4932494949323A4444443A13
:1003C000324A4848303A4141217A3A424020780046
:1003D0009DA0A07D3D4242423D3D4040403D3C24E9
:1003E000FF2424487E4943662B2FFC2F2BFF09292D
:1003F000F620C0887E090320545479410000447DD2
:10040000413048484A32384040227A007A0A0A721B
:100410007D0D19317D2629292F28262929292630C5
:10042000484D4020380808080808080808382F10E8
:10043000C8ACBA2F102834FA00007B000008142A38
:10044000142222142A14085500550055AA55AA55FD
:10045000AAFF55FF55FF000000FF00101010FF001D
:10046000141414FF001010FF00FF1010F010F0140F
:100470001414FC001414F700FF0000FF00FF141414
:10048000F404FC141417101F10101F101F14141460
:100490001F00101010F0000000001F101010101F9F
:1004A00010101010F010000000FF101010101010AD
:1004B000101010FF10000000FF140000FF00FF00EC
:1004C000001F10170000FC04F41414171017141464
:1004D000F404F40000FF00F714141414141414F7B7
:1004E00000F7141414171410101F101F141414F410
:1004F000141010F010F000001F101F0000001F1457
:10050000000000FC140000F010F01010FF10FF14A9
:100510001414FF141010101F00000000F010FFFF53
:10052000FFFFFFF0F0F0F0F0FFFFFF000000000021
:10053000FFFF0F0F0F0F0F3844443844FC4A4A4A5C
:10054000347E02020606027E027E02635549416342
:100550003844443C04407E201E2006027E0202995C
:10056000A5E7A5991C2A492A1C4C7201724C304AF5
:100570004D4D303048784830BC625A463D3E49497E
:1005800049007E0101017E2A2A2A2A2A44445F4426
:100590004440514A444040444A51400000FF010356
:1005A000E080FF000008086B6B0836123624360620
:1005B0000F090F060000181800000010100030404E
:1005C000FF0101001F01011E00191D1712003C3C14
:1005D0003C3C000000000000000000230026002931
:1005E00000000000080002010000030407000000F2
:1005F00000000000000102040810204080010204F5
:100600000810200102040810200000000025002826
:10061000002B000404040404040404020202020285
:100620000203030303030300000000240027002A41
:100630000000692311241FBECFEFD8E0DEBFCDBF7D
:1006400013E0A0E0B1E0ECE7FEE402C005900D92FB
:10065000A830B107D9F726E0A8E0B3E001C01D92A9
:10066000A931B207E1F713E0CAE1D3E004C0219752
:10067000FE010E942A25C931D107C9F70E94B71986
:100680000C943C270C9400000895FC016370658B6A
:100690008481958126813781613039F0633029F07A
:1006A00091878087338722870895318720879387B2
:1006B000828708952F923F924F925F926F927F921E
:1006C0008F929F92AF92BF92CF92DF92EF92FF9262
:1006D0000F931F93CF93DF93CDB7DEB76C970FB611
:1006E000F894DEBF0FBECDBF9C8F8B8F5B011A01CC
:1006F0001F830E833701C982DC0158964D915C91AE
:1007000059974115510509F0E5C018968D919C91B6
:100710001997681779070CF0CAC11A968D919C91A8
:100720001B97281639060CF0C2C18C2C912CFB01AA
:1007300036E0C39EE00DF11D1124FB87EA871E16EB
:100740001F060CF0B4C1C40133E0880F991F3A951D
:10075000E1F79D878C87820D931D181619060CF002
:10076000A6C157968C91811103C0203B08F02F5FE2
:10077000AB8DBC8DED91FC9111970284F385E02D3A
:10078000CD012A8F09952A8DB5E02B9F9001112468
:10079000F5013596FF87EE87BB82AA822501A90164
:1007A0004A195B09598B488BC10108969B8B8A8B30
:1007B000E889F989E40DF51DE952FF4F9491988776
:1007C00061013D822C82A885A0FF13C0AB8DBC8D3A
:1007D000ED91FC91B981B13031F40484F585E02DBF
:1007E0002E813F8116C00684F785E02DEE80FF80C4
:1007F0001AC0EE81FF816E167F06F1F0AB8DBC8DC5
:10080000ED91FC91B981B13051F40484F585E02D6E
:100810009301A601B2018B8D9C8D09950DC00684B4
:10082000F785E02D7301840194014C815D816A811B
:100830007B818B8D9C8D0995E885E695E887FFEF98
:10084000CF1ADF0A2C813D81280D391D3D832C8371
:100850004A895B89C416D50609F0B5CF5FEF451A02
:10086000550A8A819B81880D991D9B838A83AE8559
:10087000BF854A165B0609F09BCFEE81FF816E169D
:100880007F0609F4F2C0EB8DFC8DA081B181F98166
:10089000F13079F4B5016B5F7F4F5096ED91FC918B
:1008A0005197830128E030E0A1018B8D9C8D099543
:1008B000DCC06A857B85681979091E96ED91FC91EB
:1008C0001F9773010C851D859401A1018B8D9C8D53
:1008D0000995CBC0FA013496949132976591749141
:1008E000291BCB01B7E02B9F800D911D1124FA012C
:1008F000259134913B8B2A8BFC01459154915B836C
:100900004A83FC013296C490319654915E873296A8
:1009100014913196D4908981823058F0612E012E45
:10092000000C7708AD2D0D2C000CBB0BB987A887E8
:1009300004C019861886612C712CAB8DBC8DED918D
:10094000FC9111970284F385E02DCD010995B981C1
:100950008B2E912C689CC001699C900D789C900D09
:100960001124FC01EA0DFB1DFD87EC871C82712C14
:10097000612CE12F110FFF0B95012E0F3F1F3B87BD
:100980002A87AC0CB11CA5014E0F5F1F5F8B4E8BED
:10099000C1018D0D911DD7FC9A95998F888F4E8539
:1009A000641608F062C0862D90E048855985480F8E
:1009B000591F489D9001499D300D589D300D1124BF
:1009C000D901A20DB31DB98BA88BAA84BB844C841A
:1009D0005D84DC80BA85DB1AE88DF98DE80FF91F9C
:1009E000FD8BEC8B8D2D8A0D2E893F89A216B306C7
:1009F000B9F1877061F48A819B810196EA89FB894C
:100A0000AA81BB81EA0FFB1F74909B838A8377FEC8
:100A100020C0AB8DBC8DED91FC91B981B13061F4FA
:100A20000484F585E02D2E813F814C895D89B501D7
:100A30008B8D9C8D09950DC00684F785E02DEE8089
:100A4000FF808401940148895989B2018B8D9C8D66
:100A50000995770CEFEFAE1ABE0A480C591CC2CFAD
:100A60003C813C0D3C8363949ACFAB8DBC8DED9162
:100A7000FC9111970688F789E02DCD016C960FB691
:100A8000F894DEBF0FBECDBFDF91CF911F910F91C4
:100A9000FF90EF90DF90CF90BF90AF909F908F909E
:100AA0007F906F905F904F903F902F9009946C963D
:100AB0000FB6F894DEBF0FBECDBFDF91CF911F916F
:100AC0000F91FF90EF90DF90CF90BF90AF909F90ED
:100AD0008F907F906F905F904F903F902F900895F0
:100AE000AF92BF92CF92EF92FF920F931F93CF934B
:100AF000DF93EC01262F888D998D009709F040C077
:100B00006A3059F41D861C862C898E859F8538E0B5
:100B1000239F800D911D112441C06D3009F4AAC09E
:100B20008E898823C1F03C898C859D8546E0349F61
:100B3000800D911D112448855985481759075CF48B
:100B40001D861C868E859F8548E0349F800D911DF3
:100B500011249F878E87EA88FB88088919894E852A
:100B60005F856C857D85CC88CE010E945A032C89D7
:100B70008C859D8536E0239F800D911D112442C0F8
:100B80006A3079F41D861C862C89FC013696E49126
:100B90008E859F852E9F800D911D11249F878E87A6
:100BA00069C06D3009F466C0FC0134963491631756
:100BB00008F460C03196E491E61708F45BC0FC01CC
:100BC0003296A590B490462F50E0431B510937E070
:100BD000349FB001359F700D1124A60EB71EF5018C
:100BE000329634913196E491332311F0E1110DC026
:100BF000F5013496E4912C898C859D85E29F800DCA
:100C0000911D11249D878C8735C0F501359644913F
:100C10005E89552311F16C89E32FF0E0E40FF11D9B
:100C200047FDFA956E9FD0016F9FB00D11244C8542
:100C30005D854A0F5B1FE885F985E417F5076CF4BD
:100C40001D861C86FC013696E4918E859F856E9FDD
:100C5000800D911D11249F878E87EA88FB88088963
:100C600019894E855F856C857D85CC88CE010E9473
:100C70005A03BECF81E090E0DF91CF911F910F9199
:100C8000FF90EF90CF90BF90AF9008956F927F92BA
:100C90008F929F92AF92BF92CF92DF92EF92FF928C
:100CA0000F931F93CF93DF93EC014B015A0169011E
:100CB0003801E881F9810284F385E02D0995E88106
:100CC000F9810288F389E02D87019601A501B4011D
:100CD000CE010995E881F981A501460D571D4150C6
:100CE00051090288F389E02D9601B401CE010995DE
:100CF000E881F9810088F189E02D9301A501B40113
:100D0000CE010995E881F981C80CD91CB601615062
:100D100071090088F189E02D9301A501CE010995A3
:100D2000E881F9810688F789E02DCE01DF91CF9126
:100D30001F910F91FF90EF90DF90CF90BF90AF90F9
:100D40009F908F907F906F900994CF92DF92EF9257
:100D5000FF920F931F93CF93DF9300D000D000D06A
:100D6000CDB7DEB76C01DC01ED91FC916217730722
:100D700089F4041715072CF4942F852FA801092F47
:100D8000182F041B150B98012F5F3F4F048CF58D16
:100D9000E02D12C04017510709F5261737072CF42C
:100DA000962F872FB901292F382F261B370B2F5F3E
:100DB0003F4F068CF78DE02D8701C60109952696D9
:100DC0000FB6F894DEBF0FBECDBFDF91CF911F915C
:100DD0000F91FF90EF90DF90CF9008950284F385FC
:100DE000E02D2D833E834B835C8369837A83099551
:100DF000D601ED91FC910488F589E02D2D813E818D
:100E00004B815C8169817A81C6010995D601ED919A
:100E1000FC910688F789E02DC60126960FB6F89456
:100E2000DEBF0FBECDBFDF91CF911F910F91FF901D
:100E3000EF90DF90CF900994EF92FF920F931F9362
:100E4000DC01ED91FC9111971A960D911C911B9765
:100E500018962D913C91199700A0F1A1E02D7B01EE
:100E600040E050E060E070E009951F910F91FF9025
:100E7000EF9008954F925F926F927F928F929F9220
:100E8000AF92BF92CF92DF92EF92FF920F931F9398
:100E9000CF93DF9300D0CDB7DEB76C015A01390193
:100EA0004801DC01ED91FC910284F385E02D69831A
:100EB0007A8309956981462E7A81572E640C751CB8
:100EC000D601ED91FC91461457046CF40088F18929
:100ED000E02D87019401A501B201C6010995BFEF7C
:100EE0004B1A5B0AEDCF0688F789E02DC6010F90FB
:100EF0000F90DF91CF911F910F91FF90EF90DF90B6
:100F0000CF90BF90AF909F908F907F906F905F90A9
:100F10004F900994AF92BF92CF92DF92EF92FF92DF
:100F20000F931F93CF93DF9300D000D0CDB7DEB7E0
:100F30005C016901DC01ED91FC910284F385E02DF7
:100F40004B835C8369837A830995D501ED91FC918C
:100F500069817A819B012C0D3D1D21503109048846
:100F6000F589E02D78014B815C818A01C5010995E5
:100F7000D501ED91FC910688F789E02DC5010F9010
:100F80000F900F900F90DF91CF911F910F91FF90D5
:100F9000EF90DF90CF90BF90AF900994AF92BF9247
:100FA000CF92DF92EF92FF920F931F93CF93DF9335
:100FB00000D000D0CDB7DEB75C016901DC01ED9156
:100FC000FC910284F385E02D4B835C8369837A83F3
:100FD0000995D501ED91FC914B815C81C40ED51E24
:100FE000B1E0CB1AD1080488F589E02D780186019B
:100FF00069817A819B01C5010995D501ED91FC912B
:101000000688F789E02DC5010F900F900F900F9083
:10101000DF91CF911F910F91FF90EF90DF90CF90D4
:10102000BF90AF9009940895EF92FF920F931F9392
:10103000DC01ED91FC9100A0F1A1E02D09951F913B
:101040000F91FF90EF9008950F931F93DC01ED91A6
:10105000FC91068CF78DE02D09951F910F91089555
:101060000F931F93DC01ED91FC91048CF58DE02D25
:1010700009951F910F910895DC01ED91FC91008479
:10108000F185E02D099408952F923F924F925F923F
:101090006F927F928F929F92AF92BF92CF92DF9288
:1010A000EF92FF920F931F93CF93DF9300D01F9285
:1010B000CDB7DEB74C017B836A836A015901170102
:1010C0009801241B350B37FF03C031952195310959
:1010D000C5014A815B81841B950B97FF03C09195E5
:1010E0008195910951E059838217930714F0198271
:1010F0000BC09A2D8B2D5801092F182F9A818B81A7
:10110000DB82CA82C92ED82E8A819B81A816B90695
:101110005CF49C2D8D2D6801092F182F9A818B81ED
:10112000BB82AA82A92EB82E2501AA81BB814A1AA8
:101130005B0A38016C187D0877FE03C071946194D6
:101140007108720157FE03C0BFEFEB1AFB0AF5945A
:10115000E794C016D1061CF00FEF1FEF1FC001E08F
:1011600010E01CC0D401ED91FC91B9810484F58597
:10117000E02D9101BB23C1F04A815B81B601C4011E
:101180000995E618F708F7FE04C0C00ED11EE40C5E
:10119000F51CEA81FB813196FB83EA834A815B81FE
:1011A000A416B506FCF604C0A6016A817B81E7CFD0
:1011B0000F900F900F90DF91CF911F910F91FF90A3
:1011C000EF90DF90CF90BF90AF909F908F907F90E7
:1011D0006F905F904F903F902F90089585ED809392
:1011E000BC008091BC0084FDFCCF109210040895D7
:1011F00040914F03262F30E0240F311D213231055D
:10120000DCF4209110042430C9F4FC0180E090E06B
:10121000861758F430914F032191DC01A35DBC4F38
:10122000A30FB11D2C930196F3CF80914F03680F4C
:1012300060934F0380E0089581E0089582E008956F
:101240000895E091BB038091BA03E81730F4F0E011
:10125000E454FC4F808190E008958FEF9FEF089554
:101260009091BB038091BA03981750F4E92FF0E0F6
:10127000E454FC4F208130E09F5F9093BB0302C099
:101280002FEF3FEFC90108958091BA0390E02091BC
:10129000BB03821B91090895CF92DF92EF92FF92D8
:1012A0000F931F93CF93DF937C01262F972F8A01F3
:1012B00080911104882391F0C62FD72F6E01C40EA0
:1012C000D51ECC15DD0571F06991D701ED91FC912A
:1012D0000190F081E02DC7010995F3CF642F822F93
:1012E0000E94F808C801DF91CF911F910F91FF90E4
:1012F000EF90DF90CF900895CF93DF931F92CDB7FB
:10130000DEB76983209111042223D1F020913304A8
:10131000203240F021E030E0FC013383228380E082
:1013200090E015C080911204E82FF0E0ED5EFB4FD5
:10133000998190838F5F809312048093330405C05A
:1013400061E0CE0101960E94F80881E090E00F90E4
:10135000DF91CF910895089580E090E008950F9374
:101360001F93CF93DF931F92CDB7DEB78C01DC01C3
:10137000ED91FC910284F385E02D698309956981E3
:10138000611102C060E201C061E2C8010E949318CD
:10139000D801ED91FC910688F789E02DC8010F90E6
:1013A000DF91CF911F910F910994CF93DF93FC01AF
:1013B00083A187FF05C06EBD0DB407FEFDCF2EC013
:1013C00028E030E040E8A6A1B7A1842F862321F0D1
:1013D00080A99C91892B0AC090A98C91C82FD0E03C
:1013E000892F90E0809590958C239D238C9392A9D2
:1013F000C2A5D3A58881A82FB0E0892F90E0809561
:1014000090958A239B23888382A9A2A5B3A59C914A
:10141000892B8C93469521503109A9F6DF91CF9104
:1014200008958F929F92AF92BF92CF92DF92EF92E8
:10143000FF920F931F93CF93DF93EC01490181E05B
:10144000881A9108860E971EC401A0E0B0E04B01F7
:10145000A12CB12C540199248824882A992AAA2ADB
:10146000BB2A680181E0C81AD108C40ED51EC60186
:10147000A0E0B0E06A01E12CF12C7601DD24CC245F
:10148000C82AD92AEA2AFB2A6AE2CE010E949318C6
:101490002BA16B2D77278827992727FF18C06EBDB2
:1014A0000DB407FEFDCFC501AA27BB278EBD0DB425
:1014B00007FEFDCFBB27AB2D9A2D892D8EBD0DB418
:1014C00007FEFDCF8EBC0DB407FEFDCF14C0CE01CC
:1014D0000E94D509B50188279927CE010E94D50918
:1014E00099278B2D7A2D692DCE010E94D509682D63
:1014F000CE010E94D5096BE2CE010E9493182BA168
:101500006F2D77278827992727FF18C06EBD0DB448
:1015100007FEFDCFC701AA27BB278EBD0DB407FE6E
:10152000FDCFBB27AF2D9E2D8D2D8EBD0DB407FE9B
:10153000FDCFCEBC0DB407FEFDCF14C0CE010E947E
:10154000D509B70188279927CE010E94D509992787
:101550008F2D7E2D6D2DCE010E94D5096C2DCE01D3
:101560000E94D5096CE2CE01DF91CF911F910F91BE
:10157000FF90EF90DF90CF90BF90AF909F908F90B3
:101580000C9493181F93CF93DF93EC0163706D8BD2
:101590006230C1F0633001F1613051F080EF90E0D2
:1015A0009987888780E491E09B878A8718E41DC02B
:1015B00080E491E09987888780EF90E09B878A8715
:1015C00018E213C080EF90E09987888780E491E06B
:1015D0009B878A8718E809C080E491E0998788870B
:1015E00080EF90E09B878A8718EEE881F98102847A
:1015F000F385E02DCE01099566E3CE010E94931894
:10160000612FCE010E94D509E881F9810688F7890A
:10161000E02DCE01DF91CF911F9109941F93CF93BD
:10162000DF93262FFC0133A137FF09C07EBD0DB427
:1016300007FEFDCF2EBD0DB407FEFDCF0CC0672FFA
:10164000122FEC010E94D509612FCE01DF91CF91BD
:101650001F910C94D509DF91CF911F910895CF93DD
:10166000CFB7F89480917403811127C0EDE1F6E0C3
:101670008491EFEFF5E09491E82FF0E0EE0FFF1F7B
:10168000E95DF94FA591B491EC91E92321F461E072
:101690008AE00E94C91661E08AE00E94F9168CB5C2
:1016A00080618CBD8CB580648CBD61E08DE00E9452
:1016B000F91661E08BE00E94F916809174038F5F48
:1016C00080937403CFBFCF910895BF92CF92DF92E2
:1016D000EF92FF920F931F93CF93DF93EC0141158D
:1016E00051056105710521F440E052E16AE770E0BF
:1016F0004C8F5D8F6E8F7F8F88A187FD07C061E063
:101700000E94F91661E088A10E94C91661E089A1D2
:101710000E94F91660E089A10E94C9168BA187FD7D
:1017200016C061E08CA10E94F91660E08CA10E94B5
:10173000C91661E08BA10E94F91661E08BA10E949D
:10174000C9168DA187FD03C060E00E94F9168BA128
:1017500087FD0E942F0B8AA187FD21C061E00E94B6
:10176000F91661E08AA10E94C91664E670E080E083
:1017700090E00E94351760E08AA10E94C91664E6D5
:1017800070E080E090E00E94351761E08AA10E943D
:10179000C91668EC70E080E090E00E943517E8819F
:1017A000F9810284F385E02DCE01099508E610E069
:1017B0007801EFEFEE1AFE0AF8016491662321F139
:1017C000CE010E9493180E5F1F4FF701E490FE2D8B
:1017D000FF77BF2E6801FF2EFA948FEFF81649F0BD
:1017E000F6016491CE010E94D509FFEFCF1ADF0AFE
:1017F000F3CF0B0D111DE7FEDBCF68E770E080E053
:1018000090E00E943517D4CFE881F9810688F789E6
:10181000E02DCE01099580EF90E09987888780E4DC
:1018200091E09B878A87DF91CF911F910F91FF9065
:10183000EF90DF90CF90BF9008951F920F920FB658
:101840000F9211242F933F934F935F936F937F9346
:101850008F939F93AF93BF93EF93FF938091B900C2
:10186000887F803609F49CC068F5883209F45BC033
:1018700090F4803109F454C038F4882309F4F6C098
:10188000883009F44DC0F6C0883109F44CC080326C
:1018900009F45DC0EFC0803409F468C048F48033B7
:1018A00009F455C0883309F0E5C080930E04D8C010
:1018B000803509F44FC0883509F45DC0883409F0DB
:1018C000D9C0D6C0883909F4C7C0A8F4883709F44C
:1018D00067C038F4883609F463C0803709F460C003
:1018E000C9C0883809F4B8C0803909F45FC08038AD
:1018F00009F0C0C05BC0803B09F486C038F4803A70
:1019000009F466C0883A09F47FC0B4C0803C09F489
:10191000A7C0883C09F4A4C0883B09F48AC0AAC0C7
:101920008091EB0310C090910D0480910C049817E6
:1019300070F5E0910D0481E08E0F80930D04F0E0CE
:10194000E451FC4F80818093BB0085EC86C080937E
:101950000E048EC0E0910D0481E08E0F80930D0483
:101960008091BB00F0E0E451FC4F808390910D0426
:1019700080910C046EC0E0910D0481E08E0F809385
:101980000D048091BB00F0E0E451FC4F8083809116
:101990000F0481116DC081E08093EA0384EA61C085
:1019A00083E08093100410927303CFCF8091730370
:1019B000803208F051C0E091730381E08E0F809374
:1019C00073038091BB00F0E0ED5AFC4F8083BDCFE4
:1019D00085EC8093BC0010921004809173038032D8
:1019E00030F4E0917303F0E0ED5AFC4F1082609107
:1019F000730370E0E0915103F091520383E593E0AB
:101A000009951092730336C084E0809310041092FD
:101A1000500310924F03E0914D03F0914E0309954E
:101A200080914F03811105C081E080934F03109294
:101A30002D03E091500381E08E0F80935003F0E07E
:101A4000E35DFC4F80818093BB00909150038091B7
:101A50004F03981708F479CF85E88093BC000AC03B
:101A600085EC8093BC001092100404C010920E0408
:101A70000E94EE08FF91EF91BF91AF919F918F91DE
:101A80007F916F915F914F913F912F910F900FBE7A
:101A90000F901F9018951092100481E080930F040E
:101AA0001092EA0361E082E10E94C91661E083E1DD
:101AB0000E94C916E9EBF0E080818E7F80838081EF
:101AC0008D7F808388E48093B80085E48093BC0098
:101AD000089508958CBD9DBD0895EF92FF920F93D8
:101AE0001F9386E090E09093110180931001809104
:101AF000F2009091F3000197B1F030EEE32EFF2455
:101B0000FA9404E110E024E130E04CEE5FEF60E095
:101B100070E080E395E00E94231487E090E09093CA
:101B2000F3008093F20080911201909113010197CC
:101B3000B1F020EEE22EFF24FA9404E110E024E15B
:101B400030E040E050E064E170E080E395E00E9426
:101B5000231487E090E09093130180931201809109
:101B60002E0190912F010197B1F090EEE92EFF2404
:101B7000FA9404E110E024E130E044E150E060E058
:101B800070E080E395E00E94231487E090E090935A
:101B90002F0180932E0180910E0190910F010197EA
:101BA000B1F080EEE82EFF24FA9404E110E024E185
:101BB00030E040E050E06CEE7FEF80E395E00E9483
:101BC000231487E090E090930F0180930E01109210
:101BD00008030E946F176093090370930A038093B0
:101BE0000B0390930C031F910F91FF90EF900895BA
:101BF00090933D0580933C0570933F0560933E05AF
:101C00001092430510924205109241051092400532
:101C1000411101C041E040934405F90144815581DF
:101C20006081718180E395E00E94D81867EC72E0D2
:101C300080E395E00C94A2192091330490917605ED
:101C4000213208F04AC0809110048111FCCF32E0AB
:101C50003093100431E030930F043FEF30930E04C3
:101C600010920D0420930C04A3E1B4E04CEE53E079
:101C7000FA013E2F341B321718F43D913193F9CFFE
:101C80001092EB032091EB03990F922B9093EB03AF
:101C90009091EA03913061F41092EA039091EB0382
:101CA0009093BB009091BC0093FDF8CF95EC01C0E0
:101CB00095EE9093BC00909110049230E1F39091D6
:101CC0000E049F3F79F080910E04803241F08091A4
:101CD0000E04803331F084E005C081E003C082E06F
:101CE00001C083E010921204109233041092110488
:101CF0000895909110049111FCCF91E090931004FD
:101D000090930F042FEF20930E0410920D04260FD2
:101D100020930C049093EB039091EB03880F892B95
:101D20008093EB038091EA03813061F41092EA031F
:101D30008091EB038093BB008091BC0083FDF8CFC2
:101D400085EC01C085EE8093BC0080911004813049
:101D5000E1F380910D04861710F460910D04ACEE50
:101D6000B3E02CEB33E0F9018E2F821B861718F4B9
:101D70008D918193F9CF862F0895EF92FF920F9363
:101D80001F93CF93DF93F0906E059FEFF91207C07A
:101D90008EBD00000DB407FEFDCF8EB51DC0E090D6
:101DA0006C0507E010E0C82FD0E0BE01002E02C095
:101DB000759567950A94E2F7617077278E2D0E94DA
:101DC000C91661E08F2D0E94C91660E08F2D0E9418
:101DD000C9160150110948F7DF91CF911F910F915A
:101DE000FF90EF900895CF93C82F81E08093110466
:101DF00082E580937605109212041092330489E1F3
:101E000095E00E947C096C2F89E195E00E947C0995
:101E10000E941C0E6AE070E080E090E0CF910C948C
:101E20003517EF92FF921F93CF93DF93CDB7DEB7B5
:101E30002C970FB6F894DEBF0FBECDBF66E082E5EB
:101E40000E94790E182F1092BB038093BA03CE0123
:101E500001967C018091BB03181749F089E195E058
:101E60000E943009F701819391937F01F3CF89811B
:101E70009A819093DD038093DC038B819C81909306
:101E8000DF038093DE038B859C859C013595279528
:101E900035952795A901437055272D813E81220F45
:101EA000331F220F331F242B352B3093E103209354
:101EB000E0039C0174E0359527957A95E1F7A90137
:101EC000437055272F813885220F331F220F331F70
:101ED000242B352B3093E3032093E2039C01F6E09F
:101EE00035952795FA95E1F7A9014370552729857E
:101EF0003A85220F331F220F331F242B352B3093AB
:101F0000E5032093E4039C0121703327F1E02F27A0
:101F10003093E7032093E60321E030E081FF02C025
:101F200020E030E03093E9032093E80360E080E0B4
:101F30002C960FB6F894DEBF0FBECDBFDF91CF91C8
:101F40001F91FF90EF900C94F30E8F929F92AF929F
:101F5000BF92CF92DF92EF92FF92CF93DF93809167
:101F6000B9038111FCCF20E030E0C12CD12C7601E7
:101F7000812C912C54018394A7E2B5E043E090E0DA
:101F8000F901EE0FFF1FEB58FC4FC081D181129673
:101F90006D917C911397C617D70748F4C081D18102
:101FA0006D917C9111976C177D0708F4492F9F5F05
:101FB0001296933051F7442389F0413011F5B50161
:101FC000A401082E04C0440F551F661F771F0A94F2
:101FD000D2F7C42AD52AE62AF72A12C0B501A401ED
:101FE000082E04C0440F551F661F771F0A94D2F7AE
:101FF0004095509560957095C422D522E622F7222F
:102000008F5F2F5F3F4F2232310509F0B5CF8F2D03
:102010009927AA27BB27B701A6014095509560953F
:102020007095861309C0809375058D2D90E090936F
:102030007405809373050CC06AEF72E084E394E04A
:102040000E94A21967EC72E084E394E00E94A21956
:10205000C701B601DF91CF91FF90EF90DF90CF9055
:10206000BF90AF909F908F9008958F929F92AF9264
:10207000BF92EF92FF920F931F93CF930E946F171F
:102080004B015C01CFE00E946F17DC01CB01881986
:102090009909AA09BB0984369105A105B10508F083
:1020A000BBC10E94A50F809175058E3109F4E0C077
:1020B00030F48A3061F0843109F46FC0E4CF8832A3
:1020C00009F43EC18233F9F60E946D0DDCCF809198
:1020D0005C0290915D02C89FF001C99FF00D112430
:1020E00080915A0290915B02E80FF91FEE0FFF1FDB
:1020F000E25FFE4F808191819C012B7F232B11F0A9
:10210000079709F640910E0150910F0160910C0163
:1021100070910D01645171091FE1E12EF12C04E170
:1021200010E024E130E080E395E00E9423148091E8
:102130005C0290915D02C89FF001C99FF00D1124CF
:1021400080915A0290915B02E80FF91FEE0FFF1F7A
:10215000E05FFE4F80819181039781F040910E01F5
:1021600050910F0160910C0170910D01E12CF12C47
:1021700024E130E080E395E00E94231480910C017B
:1021800090910D01449790930D0180930C018091E3
:102190005A0290915B02019766C080915C02909117
:1021A0005D02C89FF001C99FF00D112480915A0271
:1021B00090915B02E80FF91FEE0FFF1FEE5EFE4FDE
:1021C000808191819C012B7F232B19F0079709F0C7
:1021D0005ACF40910E0150910F0160910C01709106
:1021E0000D016C5E7F4FEFE1EE2EF12C04E110E06B
:1021F00024E130E080E395E00E94231480915C02AA
:1022000090915D02C89FF001C99FF00D112480914B
:102210005A0290915B02E80FF91FEE0FFF1FE05F7B
:10222000FE4F80819181039781F040910E01509182
:102230000F0160910C0170910D01E12CF12C24E152
:1022400030E080E395E00E94231480910C0190918E
:102250000D01449690930D0180930C0180915A02D8
:1022600090915B02019690935B0280935A020BCF90
:1022700080915C0290915D020197C89FF001C99F17
:10228000F00D112480915A0290915B02E80FF91F22
:10229000EE0FFF1FE05FFE4F808191819C012B7F3D
:1022A000232B19F0079709F0EECE40910E015091C3
:1022B0000F014451510960910C0170910D013FE1F2
:1022C000E32EF12C04E110E024E130E080E395E01E
:1022D0000E94231480915C0290915D02C89FF001DE
:1022E000C99FF00D112480915A0290915B02E80F72
:1022F000F91FEE0FFF1FE05FFE4F80819181039772
:1023000081F040910E0150910F0160910C0170918C
:102310000D01E12CF12C24E130E080E395E00E94F6
:10232000231480910E0190910F01449790930F0117
:1023300080930E0180915C0290915D02019767C0CD
:1023400080915C0290915D020196C89FF001C99F47
:10235000F00D112480915A0290915B02E80FF91F51
:10236000EE0FFF1FE05FFE4F808191819C012B7F6C
:10237000232B19F0079709F086CE40910E0150915A
:102380000F014C5E5F4F60910C0170910D018FE168
:10239000E82EF12C04E110E024E130E080E395E048
:1023A0000E94231480915C0290915D02C89FF0010D
:1023B000C99FF00D112480915A0290915B02E80FA1
:1023C000F91FEE0FFF1FE05FFE4F808191810397A1
:1023D00081F040910E0150910F0160910C017091BC
:1023E0000D01E12CF12C24E130E080E395E00E9426
:1023F000231480910E0190910F01449690930F0148
:1024000080930E0180915C0290915D020196909301
:102410005D0280935C0237CECF911F910F91FF90A8
:10242000EF90BF90AF909F908F900895CF93DF93E0
:10243000D82FC62F80916B058F3FC9F480916F050F
:1024400091E09093110480937605109212041092FB
:1024500033046D2F89E195E00E947C096C2F89E19E
:1024600095E00E947C09DF91CF910C941C0E809125
:102470006E058F3F31F480912505909126050E94CD
:102480006A0D60E080916B050E94C9168D2F0E9435
:10249000BD0E8C2F0E94BD0E61E080916B050E94E5
:1024A000C91680916E058F3F21F4DF91CF910C9476
:1024B000690DDF91CF9108958F929F92AF92BF9255
:1024C000CF92DF92EF92FF920F931F93CF93DF9300
:1024D000C82F80916B058F3F59F580916F05D1E032
:1024E000D093110480937605109212041092330455
:1024F0006C2F89E195E00E947C090E941C0E80915E
:102500006F05D093110480937605109212041092F7
:10251000330461E00E94790E1092BB038093BA03EA
:1025200089E195E00E943009B82E0E941C0E6BC014
:1025300080916E058F3F31F480912505909126059D
:102540000E946A0D60E080916B050E94C9168C2F75
:1025500080680E94BD0E80E00E94BD0EA0906E05B6
:102560008FEFA81207C01EBC00000DB407FEFDCF00
:10257000BEB43EC0C0916D0507E010E0B12CD0E0C4
:10258000FE01EF51FA4F7F01CE018B509A4F6C0143
:10259000CD5ED94F61E08A2D0E94C916F701849162
:1025A000F6018490FE019490992099F081110E9487
:1025B000A016292D30E0220F331F29523A4FF9017E
:1025C000A591B4918C91882231E009F430E0832FF9
:1025D00002C080E090E0002E01C0880F0A94EAF764
:1025E000B82A60E08A2D0E94C9160150110990F6A0
:1025F00061E080916B050E94C91680916E058F3F46
:1026000011F40E94690D8B2DDF91CF911F910F91D5
:10261000FF90EF90DF90CF90BF90AF909F908F9002
:102620000895CF93DF9380E00E945C12C82FD0E022
:10263000DC2FCC2781E00E945C129E01282BC9016F
:10264000DF91CF910895FC01538D448D252F30E00B
:10265000842F90E0821B930B541710F0CF960895AF
:1026600001970895FC01918D828D981761F0828DFC
:10267000DF01A80FB11D5D968C91928D9F5F9F73B6
:10268000928F90E008958FEF9FEF0895FC01918D58
:10269000828D981731F0828DE80FF11D858D90E0C5
:1026A00008958FEF9FEF0895FC01918D228D892F62
:1026B00090E0805C9F4F821B91098F73992708954A
:1026C00084E394E00E94541321E0892B09F420E074
:1026D000822F0895FC01848DDF01A80FB11DA35A3C
:1026E000BF4F2C91848D90E001968F739927848F32
:1026F000A689B7892C93A089B1898C9180648C9329
:10270000938D848D981306C00288F389E02D808113
:102710008F7D80830895EF92FF920F931F93CF9345
:10272000DF93EC0181E0888F9B8D8C8D981305C021
:10273000E889F989808185FD24C0F62E0B8D10E093
:102740000F5F1F4F0F731127E02E8C8DE8120CC006
:102750000FB607FCFACFE889F989808185FFF5CFAC
:10276000CE010E946A13F1CF8B8DFE01E80FF11D9F
:10277000E35AFF4FF0820B8FEA89FB8980818062E8
:1027800007C0EE89FF896083E889F98980818064C8
:10279000808381E090E0DF91CF911F910F91FF90B6
:1027A000EF900895CF93DF93EC01888D8823C9F0D3
:1027B000EA89FB89808185FD05C0A889B9898C914A
:1027C00086FD0FC00FB607FCF5CF808185FFF2CFE5
:1027D000A889B9898C9185FFEDCFCE010E946A133B
:1027E000E7CFDF91CF91089580E090E0892B29F029
:1027F0000E94601381110C94000008953FB7F89473
:102800008091880590918905A0918A05B0918B05EA
:1028100026B5A89B05C02F3F19F00196A11DB11D3B
:102820003FBFBA2FA92F982F8827820F911DA11D76
:10283000B11DBC01CD0142E0660F771F881F991FB3
:102840004A95D1F70895CF92DF92EF92FF920F93BE
:102850001F93CF93DF9300D000D000D0CDB7DEB769
:102860006C01DC01ED91FC910284F385E02D2D8358
:102870003E834B835C8369837A830995D601ED910E
:10288000FC910684F785E02D2D813E814B815C8192
:1028900069817A81C6010995D601ED91FC9106887E
:1028A000F789E02DC60126960FB6F894DEBF0FBE5D
:1028B000CDBFDF91CF911F910F91FF90EF90DF90EF
:1028C000CF900994EF92FF920F931F93CF93DF93D2
:1028D00000D000D000D0CDB7DEB77C01DC01ED9197
:1028E000FC910284F385E02D2D833E834B835C8332
:1028F00069837A830995D701ED91FC910288F38968
:10290000E02D2D813E814B815C8169817A81C701F7
:102910000995D701ED91FC910688F789E02DC70153
:1029200026960FB6F894DEBF0FBECDBFDF91CF91D4
:102930001F910F91FF90EF900994EF92FF920F93E8
:102940001F93CF93DF9300D000D000D0CDB7DEB778
:102950007C01DC01ED91FC910284F385E02D2D8357
:102960003E834B835C8369837A830995D701ED911C
:10297000FC910088F189E02D2D813E814B815C81A5
:1029800069817A81C7010995D701ED91FC9106888B
:10299000F789E02DC70126960FB6F894DEBF0FBE6B
:1029A000CDBFDF91CF911F910F91FF90EF900994D0
:1029B000EF92FF920F931F93DC01ED91FC9106843F
:1029C000F785E02D780101E010E009951F910F9146
:1029D000FF90EF900895EF92FF920F931F93DC0109
:1029E000ED91FC910684F785E02D7801890121E0C5
:1029F00030E009951F910F91FF90EF9008950E948C
:102A00002727AF92BF92CF92DF92EF92FF920F9360
:102A10001F93CF93DF93EC0177FD38C088859985AC
:102A2000681779079CF557FD31C08A859B85481743
:102A3000590764F569015A017B01E881F981028433
:102A4000F385E02DCE010995E881F98102A4F3A573
:102A5000E02D01E010E021E030E0A501B701CE015A
:102A60000995B601CE010E940E0BE881F981068816
:102A7000F789E02DCE01DF91CF911F910F91FF904B
:102A8000EF90DF90CF90BF90AF900994DF91CF91FE
:102A90001F910F91FF90EF90DF90CF90BF90AF907C
:102AA0000895EF92FF920F931F93CF93DF93EC0162
:102AB00077FD22C08885998568177907ECF457FD62
:102AC0001BC08A859B8548175907B4F47901E881B2
:102AD000F98102A4F3A5E02D01E010E021E030E04F
:102AE000CE010995B701CE01DF91CF911F910F91D2
:102AF000FF90EF900C940E0BDF91CF911F910F91EF
:102B0000FF90EF9008958F929F92AF92BF92CF92D5
:102B1000DF92EF92FF920F931F93CF93DF93EC011D
:102B200069015801470128853985621773070CF040
:102B30005EC08A859B85481759070CF058C07B01F9
:102B4000EC0CFD1CD70111978A010A0D1B1DF80121
:102B50003197B7FD4CC0F7FD4AC077FF03C067014E
:102B600060E070E057FF03C0580140E050E0A2175A
:102B7000B3071CF06901C61AD70AE817F9071CF059
:102B80005C01A41AB50AE881F98102A4F3A5E02D3D
:102B900085019601CE0109959601D5010E941B255C
:102BA000611571058105910511F12BA127FD0AC061
:102BB0006B017C010EC00DB407FEFDCF8EBC0DB4C1
:102BC00007FEFDCF615071098109910980F09EBC1B
:102BD000F2CF692DCE010E94D509682DCE010E9449
:102BE000D50981E0C81AD108E108F10891F7DF9111
:102BF000CF911F910F91FF90EF90DF90CF90BF90FA
:102C0000AF909F908F900895FC0183A9A6A5B7A5CA
:102C10009C91892B8C9383A187FD0C94690D089559
:102C20000F931F93CF93DF93EC018BA187FF1EC0FF
:102C30000C8D1D8D2E8D3F8D90E040E052E16AE7B6
:102C400070E0041715072607370740F47695679557
:102C5000579547959F5F9630A1F797E081E09827B9
:102C6000892F806A869591700E946A0D9BA9EEA5B6
:102C7000FFA58081282F30E0892F90E080959095E6
:102C8000822393238083DF91CF911F910F91089529
:102C90001F920F920FB60F9211242F933F934F93D1
:102CA0005F936F937F938F939F93AF93BF93EF93B4
:102CB000FF9384E394E00E946A13FF91EF91BF9128
:102CC000AF919F918F917F916F915F914F913F91C4
:102CD0002F910F900FBE0F901F9018951F920F927B
:102CE0000FB60F9211242F938F939F93EF93FF931F
:102CF000E0914404F09145048081E0914A04F09110
:102D00004B0482FD12C0908180914D048F5F8F73C0
:102D100020914E04821751F0E0914D04F0E0EC5CFC
:102D2000FB4F958F80934D0401C08081FF91EF91FF
:102D30009F918F912F910F900FBE0F901F9018951C
:102D4000833081F028F4813099F08230A1F0089529
:102D50008730A9F08830B9F08430D1F480918000B8
:102D60008F7D03C0809180008F77809380000895CD
:102D700084B58F7702C084B58F7D84BD089580911E
:102D8000B0008F7703C08091B0008F7D8093B0003A
:102D900008951F93CF93DF93282F30E0F901EF516F
:102DA000FA4F8491F901EB50FA4FD491F901ED5E9D
:102DB000F94FC491CC23C9F0162F81110E94A0169F
:102DC000EC2FF0E0EE0FFF1FE75FF94FA591B491F4
:102DD0008FB7F894111105C09C91ED2FE095E92370
:102DE00002C0EC91ED2BEC938FBFDF91CF911F913F
:102DF0000895CF93DF9390E0FC01EB50FA4F2491BC
:102E0000FC01ED5EF94F8491882361F190E0880F19
:102E1000991FFC01E95DF94FC591D491FC01E75F71
:102E2000F94FA591B491611109C09FB7F8948881B9
:102E3000209582238883EC912E230BC0623061F4AD
:102E40009FB7F8943881822F809583238883EC91F3
:102E50002E2B2C939FBF06C08FB7F894E8812E2BA2
:102E600028838FBFDF91CF9108958F929F92AF9269
:102E7000BF92CF92DF92EF92FF926B017C010E9492
:102E8000FE134B015C01C114D104E104F104F1F023
:102E90000E94FE13DC01CB0188199909AA09BB091C
:102EA000883E9340A105B10570F321E0C21AD10814
:102EB000E108F10888EE880E83E0981EA11CB11C81
:102EC000C114D104E104F10419F7DDCFFF90EF90B4
:102ED000DF90CF90BF90AF909F908F9008952FB7C5
:102EE000F894609184057091850580918605909194
:102EF00087052FBF08951F920F920FB60F921124CE
:102F00002F933F938F939F93AF93BF9380918405AB
:102F100090918505A0918605B09187053091830534
:102F200023E0230F2D3720F40196A11DB11D05C00C
:102F300026E8230F0296A11DB11D209383058093DF
:102F4000840590938505A0938605B09387058091AD
:102F5000880590918905A0918A05B0918B0501960D
:102F6000A11DB11D8093880590938905A0938A05C2
:102F7000B0938B05BF91AF919F918F913F912F910E
:102F80000F900FBE0F901F9018951F920F920FB6C3
:102F90000F9211242F933F938F939F93EF93FF935F
:102FA000809181059091820520917F053091800567
:102FB000821B930B20917E052F5F20937E0520912D
:102FC0007E05203218F05D981092B90320912B05F0
:102FD00030912C0528173907A8F420912D05309140
:102FE0002E058217930770F45D9A21E02093B903B0
:102FF000109282051092810510927D0510927C0539
:1030000010927E05E0917C05F0917D05EE0FFF1F8B
:10301000EB58FC4F9183808380917C0590917D05D6
:10302000019690937D0580937C0580917C0590911D
:103030007D05829720F010927D0510927C0580918D
:103040008105909182059093800580937F05FF9183
:10305000EF919F918F913F912F910F900FBE0F9005
:103060001F9018951F920F920FB60F9211242F9355
:103070003F938F939F93EF93FF931092B2008091B1
:103080008105909182050196909382058093810538
:1030900080917A0590917B05019690937B058093B2
:1030A0007A0580911406882399F120917A05309150
:1030B0007B05E0917905F0E0EE0FFF1FE457FA4F32
:1030C000808191812817390719F580917805882327
:1030D00031F0109278058091B0008F7E06C081E0BB
:1030E000809378058091B00080618093B0008091DA
:1030F000B0008F7D8093B000809179058F5F84341C
:1031000018F48093790504C0109279051092140682
:10311000FF91EF919F918F913F912F910F900FBE53
:103120000F901F901895CF93DF93EC019CA9ECA50D
:10313000FDA52081422F50E0292F30E020953095C9
:10314000242335232083CE010E94D5098CA9ECA528
:10315000FDA59081892B8083DF91CF9108950F93F6
:103160001F93CF93DF931F92CDB7DEB78C01DC01A5
:10317000ED91FC910284F385E02D698309956981C5
:10318000662319F0F80165A903C0D801D6966C91A1
:10319000C8010E949318D801ED91FC910688F78927
:1031A000E02DC8010F90DF91CF911F910F910994ED
:1031B000CF92DF92EF92FF920F931F93CF93DF9303
:1031C0006C017A018B01C0E0D0E0CE15DF0589F0FB
:1031D000D8016D918D01D601ED91FC910190F081A6
:1031E000E02DC6010995892B11F47E0102C02196BC
:1031F000ECCFC701DF91CF911F910F91FF90EF901E
:10320000DF90CF9008958F929F92AF92BF92EF92EE
:10321000FF92209114062111FCCF10928D0510927F
:103220008C0528EE33E030938F0520938E0528E03F
:1032300037E03093910520939005ECE8F5E044E009
:10324000A0E0B0E04B015C010A2E04C0B694A79444
:10325000979487940A94D2F7790180FE05C050E7CD
:10326000E51A5EEFF50A03C058ECE50EF11CF78293
:10327000E682970128533F4F3187208711964E5F92
:1032800034964434F9F6C70188519C4F9093130645
:1032900080931206FF90EF90BF90AF909F908F9019
:1032A0000895FC01808191810C94C525EF92FF92D5
:1032B0000F931F93CF93DF93EC01198218821B8227
:1032C0001A821D821C8261157105A9F17B01FB0127
:1032D00001900020E9F731978F01061B170BB80109
:1032E0006F5F7F4F80E090E00E945D26009759F06D
:1032F000998388831B830A832C813D81232B81F44E
:10330000FC0110820DC088819981009711F00E9404
:10331000C525198218821D821C821B821A820BC04D
:103320001D830C83B701DF91CF911F910F91FF9007
:10333000EF900C943527DF91CF911F910F91FF9063
:10334000EF9008956115710579F0FB01019000205F
:10335000E9F73197AF01461B570BDC01ED91FC916A
:103360000280F381E02D099480E090E00895CF93EE
:10337000DF93CDB7DEB729970FB6F894DEBF0FBE47
:10338000CDBF789484B5826084BD84B5816084BDEE
:1033900085B5826085BD85B5816085BD80916E00F3
:1033A000816080936E001092810080918100826024
:1033B0008093810080918100816080938100809161
:1033C00080008160809380008091B1008460809350
:1033D000B1008091B00081608093B00080917A004C
:1033E000846080937A0080917A00826080937A0072
:1033F00080917A00816080937A0080917A00806861
:1034000080937A001092C100109215051092160553
:1034100010921705109218051092D3041092D4043C
:103420001092D5041092D6040E946F174B015C01D4
:103430002B013C0128EB420E2BE0521E611C711C3B
:103440000E946F17681579058A059B0528F04616B6
:10345000570668067906A0F784E394E09093140574
:1034600080931305E0914404F091450482E0808349
:10347000E0914004F09141041082E0914204F09107
:10348000430480E1808310924C04E0914804F09161
:10349000490486E08083E0914604F09147048081EE
:1034A00080618083E0914604F091470480818860C8
:1034B0008083E0914604F091470480818068808396
:1034C000E0914604F091470480818F7D80830E94C3
:1034D0006F176093D3047093D4048093D5049093B2
:1034E000D60468EB72E080911305909114050E9458
:1034F000A2190E946F174B015C012B013C018AE06D
:10350000480E511C611C711C0E946F1768157905CB
:103510008A059B0528F04616570668067906A0F727
:1035200081E08093E704529A5D9852985A98E89AFD
:10353000809169008260809369007894539A8091A9
:10354000B0008E7F8093B0008091B0008D7F80931B
:10355000B0008091B100877F8093B1008091B1006D
:1035600081608093B1008091B1008D7F8093B10024
:103570008091B1008B7F8093B10080912F058823CB
:1035800011F088E701C089EB8093B400809170004E
:1035900084608093700078948091B0008F7E8093D7
:1035A000B0008091B0008F7D8093B0006BEF74E02D
:1035B0008FEF90E00E94031940E050E0BA0180E3F1
:1035C00095E00E94650B61E080E395E00E94C20AED
:1035D0003A9A3B9A439A0E9435101092BB0310927C
:1035E000BA0310921204109233040E944B0D60EF44
:1035F00085E50E94F30E6BEF80E00E94F30E0E94BF
:10360000110F90916B059F3F59F180916E0561E01C
:103610008F3FA1F4892F0E94F91661E080916B051C
:103620000E94C9160E942F0B81E5809325051092F8
:10363000260510927105109270051FC00E94F916A0
:1036400061E080916B050E94F91661E080916C0544
:103650000E94F91660E080916D050E94F9160DC078
:103660001092BB031092BA0310921204109233040A
:103670000E944B0D81E480936F050E9411138131EC
:10368000984061F462E083E00E9416126AE070E004
:1036900080E090E00E94351710E01CC080916B051F
:1036A0008F3F09F45CC080916E058F3F09F057C0D1
:1036B00085E5809325051092260584E090E090939F
:1036C0007105809370050E9411138131984009F0B3
:1036D00046C0D8CF812F0E945C121F5F1134D1F7F2
:1036E00060E084E00E94161261E080E40E941612FD
:1036F00061E08AE00E94161260E680E20E941612E3
:1037000062E081E20E94161264EA81E40E941612CD
:1037100066E086E50E94161261E08AE40E941612B5
:1037200061E08BE40E94161260E08BE40E941612A6
:1037300061E088E50E9416126FEF8BE00E9416127E
:1037400065E089E00E941612109224031092230370
:10375000CE0101961C0194E0920D998795C0FFCF90
:103760000E946F178090250390902603A090270356
:10377000B0902803F8EE8F0EF3E09F1EA11CB11C41
:10378000681579058A059B0550F00E946F176093B4
:1037900025037093260380932703909328038BE4DB
:1037A0000E945C1285FD6EC0610187ED0E945C1273
:1037B000F60181936F01F985FC11F7CFA98020E113
:1037C000A29EA00111248A81A82EB12C94E0B59468
:1037D000A7949A95E1F7A42AB52A8F70C82ED12C08
:1037E000DC2CCC248B81C82A9C808BE40E945C1248
:1037F00085FF04C06FEF8BE00E941612892D90E0C8
:103800000B978D3D934060F5C501A0E0B0E09C01B1
:10381000AD012659310941095109A0913805B091EE
:1038200039050E94CD2422E43EE040E050E00E94B1
:10383000A3245901C601A0E0B0E09C01AD012258CB
:10384000310941095109A0913A05B0913B050E9407
:10385000CD242EE13FE040E050E00E94A324690126
:103860008090230390902403F2E08F16910409F4D2
:1038700022C17CF581149104C9F181E0881691047C
:1038800009F49AC00E94F4130E946F1780902903D4
:1038900090902A03A0902B03B0902C03E4E68E0EA8
:1038A000911CA11CB11C681579058A059B0508F4BB
:1038B00057CF81E0809314060E94A50F0E946F17D6
:1038C0006093290370932A0380932B0390932C0316
:1038D00047CF94E08916910409F466C60CF46DC1D3
:1038E000F5E08F16910409F498C6CCCF809121039E
:1038F00090912203892B61F460E070E080E395E011
:103900000E941C0781E090E09093220380932103A2
:1039100080EEE82EFF24FA9408E210E02AE530E079
:1039200042E650E066E470E080E395E00E942314F4
:103930006AEC72E0C1010E945619910141E050E029
:1039400063E770E085E590E00E94F80DC1010E94F8
:10395000511925E530E042E650E065EA70E080E389
:1039600095E00E94231466ED72E0C1010E94561991
:10397000910141E050E063E770E082EB90E00E944B
:10398000F80DC1010E9451192CE8A21AB1088EE26B
:10399000A816B10408F076CFC601C297CD9708F0FB
:1039A00085C681E090E090932403809323031092D6
:1039B0002203109221037AC6809121039091220361
:1039C000892B51F460E070E080E395E00E941C07D1
:1039D000909222038092210300EEE02EFF24FA94BD
:1039E0000EE510E02CE430E045E550E06CE070E0DE
:1039F00080E395E00E94231461EE72E0C1010E9411
:103A00005619910143E050E068E770E08EE190E0E4
:103A10000E94F80DC1010E94511900E210E02CE44F
:103A200030E046EB50E06CE070E080E395E00E940F
:103A3000231465EE72E0C1010E945619910141E024
:103A400050E063EC70E088E290E00E94F80DC10164
:103A50000E945119C5018A5591098F36910570F45C
:103A6000C6010F978E9750F41092220310922103F3
:103A700083E090E09093240380932303FDE2AF1A48
:103A8000B1082AE1A216B10408F0FCCE8FE0C81AF2
:103A9000D1089EE2C916D10408F0F4CE1092220398
:103AA000109221031092200310920B011092240314
:103AB00010922303E7CE8091210390912203892B5A
:103AC00061F460E070E080E395E00E941C0781E013
:103AD00090E0909322038093210310EEE12EFF24C7
:103AE000FA940EE510E02CE430E045E550E06CE09F
:103AF00070E080E395E00E94231461EE72E0C10162
:103B00000E945619910143E050E068E770E08EE1B1
:103B100090E00E94F80DC1010E94511900E210E0EE
:103B20002CE430E046EB50E06CE070E080E395E0A0
:103B30000E94231465EE72E0C1010E9456199101A2
:103B400041E050E063EC70E088E290E00E94F80D04
:103B5000C1010E945119C5018A5591098F369105FD
:103B600070F4C6010F978E9750F4109222031092B2
:103B7000210383E090E09093240380932303EDE2FC
:103B8000AE1AB108FAE1AF16B10408F07BCE2FE00F
:103B9000C21AD1088EE2C816D10408F073CE109272
:103BA00022031092210310922403109223031092F7
:103BB000200381E080930B0165CE60E070E080E33C
:103BC00095E00E941C074091090150910A01609103
:103BD000070170910801E0EEEE2EE7E0FE2E04E111
:103BE00010E024E130E080E395E00E94231440914E
:103BF0000E0150910F0160910C0170910D01FFE1D8
:103C0000EF2EF12C24E130E080E395E00E942314B4
:103C1000A0E18A2EA1E09A2EB4E1AB2EB12C2AE0CD
:103C2000422E512CC12CD12C34016C0C7D1CF30183
:103C300080819181019769F4E12C58EFF52E04E120
:103C400010E024E130E0A501B20180E395E00E949C
:103C50002314F30180819181029771F4EE24EA9498
:103C600047E0F42E04E110E024E130E0A501B201C8
:103C700080E395E00E942314F2E0CF0ED11C24E1F2
:103C8000420E511C8EE1C816D10471F69EE1890ED8
:103C9000911CE4E1AE0EB11CFAE58F16F2E09F062E
:103CA00009F0BDCF34E0C32ED12CEFE07E2E662488
:103CB000639480910001882309F4E4CD0E943510BB
:103CC0000E94110F8091DE039091DF032091DC03AD
:103CD0003091DD03853B91055CF0A9014556510902
:103CE0004F34510588F4109206011092050129C045
:103CF000813491054CF4A901455651094F345105C1
:103D000018F482E090E019C0253B310564F0855637
:103D100091098F349105A8F4E1E0F0E0F0930601F9
:103D2000E09305010EC0213431055CF485569109FC
:103D30008F34910530F483E090E0909306018093F6
:103D400005018091050190910601892B09F077C04A
:103D50000E94110F80910301909104010197789EB8
:103D6000F001799EF00D11248091010190910201E2
:103D7000E80FF91FEE0FFF1FE05FFE4F808191817A
:103D80008B7F892B09F04FC04091090150910A01A6
:103D900044515109609107017091080110EEE12E24
:103DA00017E0F12E04E110E024E130E080E395E03B
:103DB0000E9423148091030190910401789EF001E8
:103DC000799EF00D11248091010190910201E80F7C
:103DD000F91FEE0FFF1FE05FFE4F80819181039777
:103DE00081F04091090150910A01609107017091A1
:103DF0000801E12CF12C24E130E080E395E00E9401
:103E000023148091090190910A01449790930A012B
:103E1000809309018091030190910401019790938F
:103E2000040180930301D0920601C09205016FEF57
:103E300070E081EE9EE10E94031960921406809169
:103E4000050190910601029709F077C00E94110FB9
:103E500080910301909104010196789EF001799E72
:103E6000F00D11248091010190910201E80FF91FDA
:103E7000EE0FFF1FE05FFE4F808191818B7F892BCA
:103E800009F04FC04091090150910A014C5E5F4F0B
:103E90006091070170910801E0EEEE2EE7E0FE2E42
:103EA00004E110E024E130E080E395E00E94231477
:103EB0008091030190910401789EF001799EF00DAC
:103EC00011248091010190910201E80FF91FEE0F7A
:103ED000FF1FE05FFE4F80819181039781F0409149
:103EE000090150910A016091070170910801E12CCC
:103EF000F12C24E130E080E395E00E9423148091CE
:103F0000090190910A01449690930A018093090156
:103F10008091030190910401019690930401809394
:103F20000301D0920601C09205016FEF70E087EDAA
:103F300098E20E9403196092140680910501909105
:103F40000601019709F076C00E94110F80910301CC
:103F500090910401789EF001799EF00D11248091DA
:103F6000010190910201E80FF91FEE0FFF1FEE5EB5
:103F7000FE4F808191818B7F892B09F04FC040914A
:103F8000090150910A0160910701709108016C5E6E
:103F90007F4F30EEE32E37E0F32E04E110E024E112
:103FA00030E080E395E00E9423148091030190911A
:103FB0000401789EF001799EF00D11248091010199
:103FC00090910201E80FF91FEE0FFF1FE05FFE4F17
:103FD00080819181039781F04091090150910A01FC
:103FE0006091070170910801E12CF12C24E130E08F
:103FF00080E395E00E9423148091070190910801CD
:10400000449690930801809307018091010190915B
:10401000020101969093020180930101D092060162
:10402000C09205016FEF70E08BEE94E10E940319DE
:10403000609214068091050190910601039709F0A2
:1040400076C00E94110F8091030190910401789E27
:10405000F001799EF00D11248091010190910201EF
:10406000E80FF91FEE0FFF1FE25FFE4F8081918185
:104070008B7F892B09F04FC04091090150910A01B3
:1040800060910701709108016451710980EEE82E7A
:1040900087E0F82E04E110E024E130E080E395E0D1
:1040A0000E9423148091030190910401789EF001F5
:1040B000799EF00D11248091010190910201E80F89
:1040C000F91FEE0FFF1FE05FFE4F80819181039784
:1040D00081F04091090150910A01609107017091AE
:1040E0000801E12CF12C24E130E080E395E00E940E
:1040F000231480910701909108014497909308013F
:1041000080930701809101019091020101979093A2
:10411000020180930101D0920601C09205016FEF68
:1041200070E085EF9AE00E94031960921406809077
:104130001B0390901C03A0901D03B0901E0390EDF4
:10414000890E97E0991EA11CB11C0E946F1768157B
:1041500079058A059B0508F42BC180911A038823F1
:1041600009F426C120911803309119038091160398
:1041700090911703729EF001739EF00D1124E80FC9
:10418000F91FEE0FFF1FE05FFE4FD182C08221506A
:104190003109729EF001739EF00D1124E80FF91F92
:1041A000EE0FFF1FE05FFE4F80819181019761F16B
:1041B0004091140350911503445151096091120329
:1041C0007091130310EEE12EFF24FA9404E110E045
:1041D00024E130E080E395E00E94231480911803ED
:1041E000909119030197789EF001799EF00D1124AA
:1041F0008091160390911703E80FF91FEE0FFF1F30
:10420000E05FFE4FD182C082809118039091190324
:10421000789EF001799EF00D112480911603909103
:104220001703E80FF91FEE0FFF1FEE5EFE4F8081B0
:104230009181019759F140911403509115036091B8
:104240001203709113036C5E7F4FE0EEEE2EFF249D
:10425000FA9404E110E024E130E080E395E00E946C
:1042600023148091180390911903789EF001799E90
:10427000F00D11248091160390911703E80FF91F98
:10428000EE0FFF1FEE5EFE4FD182C08280911803B9
:10429000909119030196789EF001799EF00D1124FA
:1042A0008091160390911703E80FF91FEE0FFF1F7F
:1042B000E05FFE4F80819181019761F1409114038D
:1042C000509115034C5E5F4F609112037091130380
:1042D00030EEE32EFF24FA9404E110E024E130E014
:1042E00080E395E00E9423148091180390911903B4
:1042F0000196789EF001799EF00D112480911603AD
:1043000090911703E80FF91FEE0FFF1FE05FFE4FBC
:10431000D182C0828091180390911903789EF00198
:10432000799EF00D11248091160390911703E80FE8
:10433000F91FEE0FFF1FE25FFE4F80819181019711
:1043400059F140911403509115036091120370913B
:1043500013036451710980EEE82EFF24FA9404E1FE
:1043600010E024E130E080E395E00E942314809186
:10437000180390911903789EF001799EF00D112495
:104380008091160390911703E80FF91FEE0FFF1F9E
:10439000E25FFE4FD182C08210921A030E946F1713
:1043A00060930E0370930F03809310039093110397
:1043B0008091030190910401789EF001799EF00DA7
:1043C00011248091010190910201E80FF91FEE0F75
:1043D000FF1FE05FFE4F808191818430910511F0D5
:1043E000079741F4E5E0F0E0F0932403E093230322
:1043F0001092000180900E0390900F03A090100384
:10440000B0901103FCED8F0EF5E09F1EA11CB11CB6
:104410000E946F17681579058A059B0508F43FC04F
:1044200080911A0381113BC010E1412E11E0512E01
:10443000812C912C24E1820E911C8AE090E09887D7
:104440008F83A12CB12CF201EA0DFB1D808191819B
:104450000397029778F411821082E12CF12C04E189
:1044600010E024E130E0A4016F81788580E395E0DD
:104470000E94231422E0A20EB11C8F8198854496DD
:1044800098878F839EE1A916B104E9F6EEE14E0EFE
:10449000511CFCED8F16910469F610921F03809059
:1044A000090390900A03A0900B03B0900C039CEDBD
:1044B000890E95E0991EA11CB11C0E946F1768150A
:1044C00079058A059B0508F43FC080910803811196
:1044D0003BC0B0E14B2EB1E05B2EA12CB12C24E10E
:1044E000A20EB11C8AE090E098878F83812C912CDA
:1044F000F201E80DF91D808191810697029778F409
:1045000011821082E12CF12C04E110E024E130E072
:10451000A5016F81788580E395E00E942314E2E095
:104520008E0E911C8F819885449698878F839EE18B
:1045300089169104E9F6EEE14E0E511CFCEDAF1622
:10454000B10469F610920D0380915C0290915D02B6
:10455000789EF001799EF00D112480915A0290917D
:104560005B02E80FF91FEE0FFF1FE05FFE4F808137
:1045700091818430910511F0079731F4D092240392
:10458000C0922303109200010E946F17603D774094
:104590008105910508F48DCB80910803882309F4E7
:1045A00088CB0E946D0D81CB6FE178EF80E395E0C1
:1045B0000E941C0770EEE72EFF24FA9400E210E040
:1045C0002CE430E046EB50E06CE070E080E395E0F6
:1045D0000E94231465EE72E0C1010E9456199101F8
:1045E00041E050E063EC70E088E290E00E94F80D5A
:1045F000C1010E9451196AEE72E0C1010E94561970
:10460000910144E050E060E570E08AE590E00E94AE
:10461000F80DC1010E94511931CA60E078EF80E3C2
:1046200095E00E941C0760EEE62EFF24FA9400E25B
:1046300010E02CE430E046EB50E06CE070E080E30A
:1046400095E00E94231465EE72E0C1010E945619A4
:10465000910141E050E063EC70E088E290E00E945C
:10466000F80DC1010E94511961EF72E0C1010E9471
:104670005619910144E050E060E570E08CE390E071
:104680000E94F80DC1010E945119EDE2AE1AB10865
:10469000FAE1AF16B10408F0F5C82FE0C21AD1084C
:1046A0008EE2C816D10408F4F9C9ECC898E7C91A13
:1046B000D108EDE3CE16D10408F0E4C8E2E0F0E062
:1046C000F0932403E093230310922203109221031A
:1046D000D9C8E4E3F4E01382128288EE93E0A0E00C
:1046E000B0E084839583A683B78328E632E03183E4
:1046F000208325EC30E03587248724EC30E03787B1
:10470000268720EC30E0318B208B21EC30E0338B9E
:10471000228B22EC30E0358B248B26EC30E0378B7B
:10472000268B118E128E138E148EE1EDF4E016821C
:1047300017821086118612861386148615861686B1
:104740001786108A118A128A138A148A158AE9E157
:10475000F5E01382128284839583A683B7838AE768
:1047600092E091838083E5E2F5E080E58083118229
:1047700091E090932F05E7E2F5E02CE231E0318300
:1047800020832CEB32E03383228320ED37E0358326
:10479000248328EB3BE037832683EBE6F5E088E0D3
:1047A00080838FEF838382838183A0E3B5E01396B8
:1047B0001C921E92129740EF50E015965C934E9318
:1047C000149720E431E017963C932E931697199690
:1047D0005C934E9318971B963C932E931A9755967D
:1047E0001C9255971D961C921E921C971F961C9208
:1047F0001E921E9754969C9354972FEF3FEF53961B
:104800003C932E93529751963C932E9350975696E5
:104810009C93569757961C92579759961C921E92A6
:104820005897D5961C92D597D6961C92D697D8961F
:104830001C921E92D797DA961C921E92D9979AE0F4
:1048400090969C93909799E091969C9391979296CD
:104850008C93929727E735E05B963C932E935A977B
:1048600093968C93939794968C93949795968C9318
:1048700095975C961D921D921D921C925F979B9638
:104880001C921E929A97D2961C92D29797961C923F
:104890001E929697D0961C92D09799961C921E9233
:1048A0009897D1961C92D197ECE1F6E0E491F0E074
:1048B000EE0FFF1FE75FF94F859194919D969C93B2
:1048C0008E939C97EEEFF5E0E491D496EC93D49719
:1048D000EDE1F6E0E491F0E0EE0FFF1FE75FF94F46
:1048E000859194919F969C938E939E97EFEFF5E020
:1048F000E491D396EC93D3978CE892E08D939C93BC
:104900000895A1E21A2EAA1BBB1BFD010DC0AA1F10
:10491000BB1FEE1FFF1FA217B307E407F50720F028
:10492000A21BB30BE40BF50B661F771F881F991FA3
:104930001A9469F760957095809590959B01AC01EC
:10494000BD01CF010895052E97FB1EF400940E942F
:10495000BA2457FD07D00E94812407FC03D04EF4EF
:104960000C94BA2450954095309521953F4F4F4F68
:104970005F4F089590958095709561957F4F8F4F0B
:104980009F4F08950E940C25A59F900DB49F900DF8
:10499000A49F800D911D11240895B7FF0C94C2248B
:1049A0000E94C224821B930B08952F923F924F9234
:1049B0005F926F927F928F929F92AF92BF92CF92AF
:1049C000DF92EF92FF920F931F93CF93DF93CDB7B8
:1049D000DEB7CA1BDB0B0FB6F894DEBF0FBECDBF30
:1049E00009942A88398848885F846E847D848C8401
:1049F0009B84AA84B984C884DF80EE80FD800C810A
:104A00001B81AA81B981CE0FD11D0FB6F894DEBFEC
:104A10000FBECDBFED010895A29FB001B39FC001AD
:104A2000A39F700D811D1124911DB29F700D811DDA
:104A30001124911D08950E940C25332312F48A1B22
:104A40009B0B0C9425250E940C25B7FF0895821B13
:104A5000930B0895EE0FFF1F0590F491E02D09943C
:104A6000CF93DF938230910510F482E090E0E091E3
:104A70001706F091180620E030E0C0E0D0E0309753
:104A800011F14081518148175907C0F04817590763
:104A900061F482819381209719F09B838A832BC0D4
:104AA000909318068093170626C02115310519F03A
:104AB0004217530718F49A01BE01DF01EF0102808B
:104AC000F381E02DDCCF2115310509F1281B390BCD
:104AD0002430310590F412968D919C9113976115B5
:104AE000710521F0FB019383828304C09093180623
:104AF00080931706FD01329644C0FD01E20FF31FBB
:104B000081939193225031092D933C933AC0209187
:104B1000150630911606232B41F420916002309146
:104B20006102309316062093150620915E023091A3
:104B30005F022115310541F42DB73EB74091620265
:104B400050916302241B350BE0911506F091160677
:104B5000E217F307A0F42E1B3F0B2817390778F054
:104B6000AC014E5F5F4F2417350748F04E0F5F1FB3
:104B700050931606409315068193919302C0E0E08E
:104B8000F0E0CF01DF91CF9108950F931F93CF9362
:104B9000DF93009709F48CC0FC01329713821282D4
:104BA00000911706109118060115110581F4208156
:104BB0003181820F931F2091150630911606281718
:104BC000390779F5F0931606E093150671C0D80100
:104BD00040E050E0AE17BF0750F412962D913C9183
:104BE0001397AD012115310509F1D901F3CF9D01CD
:104BF000DA013383228360817181860F971F8217C8
:104C0000930769F4EC0128813981260F371F2E5F45
:104C10003F4F318320838A819B8193838283452BFD
:104C200029F4F0931806E093170642C01396FC93FC
:104C3000EE931297ED01499159919E01240F351F72
:104C4000E217F30771F480819181840F951F02961A
:104C500011969C938E938281938113969C938E934D
:104C60001297E0E0F0E0D80112968D919C91139795
:104C7000009719F0F8018C01F6CF8D919C91980165
:104C80002E5F3F4F820F931F20911506309116061D
:104C90002817390769F4309729F4109218061092F2
:104CA000170602C01382128210931606009315068F
:104CB000DF91CF911F910F910895A0E0B0E0E3E65E
:104CC000F6E20C94D924EC01009721F4CB010E9468
:104CD0003025B8C0FC01E60FF71F9C0122503109B6
:104CE000E217F30708F4ACC0D9010D911C9111979C
:104CF00006171707B0F00530110508F49FC0C8016A
:104D000004978617970708F499C002501109061BEB
:104D1000170B019311936D937C93CF010E94C525CE
:104D20008DC05B01A01AB10A4C01800E911EA091AA
:104D30001706B091180640E050E0E12CF12C1097D6
:104D400009F44AC0A815B905D1F56D907C9011976A
:104D5000630182E0C80ED11CCA14DB0480F1A301F8
:104D60004A195B096A0182E0C80ED11C1296BC90F8
:104D700012971396AC91B5E0CB16D10440F0B282F5
:104D8000A38351834083D9016D937C930AC00E5F46
:104D90001F4FC301800F911FF90191838083EB2D79
:104DA000FA2FE114F10431F0D7011396FC93EE933E
:104DB000129744C0F0931806E09317063FC08D91F8
:104DC0009C9111974817590708F4AC017D01129680
:104DD0000D90BC91A02DB3CF809115069091160631
:104DE00088159905E1F446175707C8F480915E02CB
:104DF00090915F02009741F48DB79EB74091620297
:104E000050916302841B950BE817F907C8F4F093DF
:104E10001606E0931506F901718360830FC0CB017C
:104E20000E9430257C01009759F0A801BE010E9424
:104E30002C27CE010E94C525C70104C0CE0102C0A7
:104E400080E090E0CDB7DEB7EEE00C94F52481E091
:104E500090E0F8940C943C27FB01DC0102C0019027
:104E60000D9241505040D8F70895FB01DC010190AC
:0C4E70000D920020E1F70895F894FFCFA8
:104E7C00010D00090004000E01C800011E002800ED
:104E8C00010001000100010001000100010001000E
:104E9C0001000100010001000100010001000100FE
:104EAC0000000000020000000200000002000000F0
:104EBC0002000000020000000000010001000000E0
:104ECC0001000000010000000100000001000000D2
:104EDC0001000000010000000100010002000000C0
:104EEC0002000000020000000200000002000000AE
:104EFC00020000000200010001000000010000009F
:104F0C000100000001000000010000000100000091
:104F1C00010000000100010002000000020000007E
:104F2C00020000000200000002000000020000006D
:104F3C00020001000100000001000000010000005F
:104F4C000100000001000000010000000100000051
:104F5C00010001000200000002000000020000003D
:104F6C00020000000200000002000000020001002C
:104F7C000100000001000000010000000100000021
:104F8C000100000001000000010000000100010010
:104F9C0000000000020000000200000002000000FF
:104FAC0002000000020000000000010001000100EE
:104FBC0001000100010001000100010001000100DD
:104FCC0001000100010001000100010001000000CE
:104FDC0019068000000000008B13D8182313D2137D
:104FEC00541332134613000000007C094C09AC0921
:104FFC002009440930092109000000007005D81867
:10500C00AC09AB090115101651158315EB14D81406
:10501C0044080416C20AAF099D14621423141C0719
:10502C00A5064606650B110A564D4450565F317C59
:10503C00315F564D4450560D0A0053746172742002
:10504C004C6F626279004A6F696E204C6F626279B4
:10505C0000474F21004261636B0057494E4E455249
:10506C0000594F55204C4F53450072656369657666
:08507C0065206661696C2100EA
:107E0000112484B714BE81FFF0D085E080938100F7
:107E100082E08093C00088E18093C10086E0809377
:107E2000C20080E18093C4008EE0C9D0259A86E02C
:107E300020E33CEF91E0309385002093840096BBD3
:107E4000B09BFECF1D9AA8958150A9F7CC24DD24C4
:107E500088248394B5E0AB2EA1E19A2EF3E0BF2EE7
:107E6000A2D0813461F49FD0082FAFD0023811F036
:107E7000013811F484E001C083E08DD089C08234E0
:107E800011F484E103C0853419F485E0A6D080C0E4
:107E9000853579F488D0E82EFF2485D0082F10E0AE
:107EA000102F00270E291F29000F111F8ED06801E7
:107EB0006FC0863521F484E090D080E0DECF843638
:107EC00009F040C070D06FD0082F6DD080E0C81688
:107ED00080E7D80618F4F601B7BEE895C0E0D1E017
:107EE00062D089930C17E1F7F0E0CF16F0E7DF06D8
:107EF00018F0F601B7BEE89568D007B600FCFDCFD4
:107F0000A601A0E0B1E02C9130E011968C91119780
:107F100090E0982F8827822B932B1296FA010C0160
:107F200087BEE89511244E5F5F4FF1E0A038BF0790
:107F300051F7F601A7BEE89507B600FCFDCF97BE46
:107F4000E89526C08437B1F42ED02DD0F82E2BD052
:107F50003CD0F601EF2C8F010F5F1F4F84911BD097
:107F6000EA94F801C1F70894C11CD11CFA94CF0C13
:107F7000D11C0EC0853739F428D08EE10CD085E9AC
:107F80000AD08FE07ACF813511F488E018D01DD067
:107F900080E101D065CF982F8091C00085FFFCCF94
:107FA0009093C60008958091C00087FFFCCF809118
:107FB000C00084FD01C0A8958091C6000895E0E648
:107FC000F0E098E1908380830895EDDF803219F02E
:107FD00088E0F5DFFFCF84E1DECF1F93182FE3DFCA
:107FE0001150E9F7F2DF1F91089580E0E8DFEE27F6
:047FF000FF270994CA
:027FFE00040479
:0400000300007E007B
:00000001FF