:100000000C941A030C9442030C9442030C94420384
:100010000C9442030C9442030C9442030C9442034C
:100020000C9442030C9442030C9442030C9442033C
:100030000C9442030C9442030C9442030C9442032C
:100040000C9453140C9442030C9446130C942013F8
:100050000C9442030C9442030C9442030C9442030C
:100060000C94E10B0C944203EF03038002CF0300D6
:10007000C130ED0464031281E803850078CB0539B3
:100080002C003402F70120EA020000C00123C10164
:1000900010C5023E28C701863601483701003A01E3
:1000A00055B1020018B603088227F20100260101AB
:1000B000E00F0F312B0C0E084EF1370710030E091D
:1000C00000E10F000E1403110731C148080F0C3175
:1000D000360F118029800000000000003E5B4F5B5E
:1000E0003E3E6B4F6B3E1C3E7C3E1C183C7E3C18DB
:1000F0001C577D571C1C5E7F5E1C00183C1800FFBF
:10010000E7C3E7FF0018241800FFE7DBE7FF3048EC
:100110003A060E2629792926407F050507407F05E6
:10012000253F5A3CE73C5A7F3E1C1C08081C1C3EDD
:100130007F14227F22145F5F005F5F06097F017FCB
:10014000006689956A606060606094A2FFA294086E
:10015000047E040810207E201008082A1C08081CB1
:100160002A08081E101010100C1E0C1E0C30383EF1
:100170003830060E3E0E06000000000000005F0052
:10018000000007000700147F147F14242A7F2A121E
:100190002313086462364956205000080703000004
:1001A0001C2241000041221C002A1C7F1C2A080836
:1001B0003E08080080703000080808080800006049
:1001C000600020100804023E5149453E00427F4035
:1001D0000072494949462141494D331814127F1094
:1001E00027454545393C4A494931412111090736DE
:1001F00049494936464949291E000014000000407B
:100200003400000008142241141414141400412274
:10021000140802015909063E415D594E7C12111223
:100220007C7F494949363E414141227F4141413E1F
:100230007F494949417F090909013E414151737F85
:100240000808087F00417F41002040413F017F08AE
:100250001422417F404040407F021C027F7F0408FF
:10026000107F3E4141413E7F090909063E4151212F
:100270005E7F09192946264949493203017F010356
:100280003F4040403F1F2040201F3F4038403F63D9
:100290001408146303047804036159494D43007F33
:1002A0004141410204081020004141417F04020104
:1002B00002044040404040000307080020545478A6
:1002C000407F284444383844444428384444287FF4
:1002D000385454541800087E090218A4A49C787F4E
:1002E0000804047800447D40002040403D007F1019
:1002F00028440000417F40007C047804787C080496
:1003000004783844444438FC182424181824241849
:10031000FC7C08040408485454542404043F442436
:100320003C4040207C1C2040201C3C4030403C4451
:10033000281028444C9090907C4464544C4400080D
:10034000364100000077000000413608000201023B
:1003500004023C2623263C1EA1A161123A40402003
:100360007A3854545559215555794122545478427C
:10037000215554784020545579400C1E5272123940
:1003800055555559395454545939555454580000F9
:10039000457C410002457D420001457C407D1211B3
:1003A000127DF0282528F07C545545002054547CBB
:1003B000547C0A097F4932494949323A4444443A13
:1003C000324A4848303A4141217A3A424020780046
:1003D0009DA0A07D3D4242423D3D4040403D3C24E9
:1003E000FF2424487E4943662B2FFC2F2BFF09292D
:1003F000F620C0887E090320545479410000447DD2
:10040000413048484A32384040227A007A0A0A721B
:100410007D0D19317D2629292F28262929292630C5
:10042000484D4020380808080808080808382F10E8
:10043000C8ACBA2F102834FA00007B000008142A38
:10044000142222142A14085500550055AA55AA55FD
:10045000AAFF55FF55FF000000FF00101010FF001D
:10046000141414FF001010FF00FF1010F010F0140F
:100470001414FC001414F700FF0000FF00FF141414
:10048000F404FC141417101F10101F101F14141460
:100490001F00101010F0000000001F101010101F9F
:1004A00010101010F010000000FF101010101010AD
:1004B000101010FF10000000FF140000FF00FF00EC
:1004C000001F10170000FC04F41414171017141464
:1004D000F404F40000FF00F714141414141414F7B7
:1004E00000F7141414171410101F101F141414F410
:1004F000141010F010F000001F101F0000001F1457
:10050000000000FC140000F010F01010FF10FF14A9
:100510001414FF141010101F00000000F010FFFF53
:10052000FFFFFFF0F0F0F0F0FFFFFF000000000021
:10053000FFFF0F0F0F0F0F3844443844FC4A4A4A5C
:10054000347E02020606027E027E02635549416342
:100550003844443C04407E201E2006027E0202995C
:10056000A5E7A5991C2A492A1C4C7201724C304AF5
:100570004D4D303048784830BC625A463D3E49497E
:1005800049007E0101017E2A2A2A2A2A44445F4426
:100590004440514A444040444A51400000FF010356
:1005A000E080FF000008086B6B0836123624360620
:1005B0000F090F060000181800000010100030404E
:1005C000FF0101001F01011E00191D1712003C3C14
:1005D0003C3C000000000000000000230026002931
:1005E00000000000080002010000030407000000F2
:1005F00000000000000102040810204080010204F5
:100600000810200102040810200000000025002826
:10061000002B000404040404040404020202020285
:100620000203030303030300000000240027002A41
:100630000000C31F11241FBECFEFD8E0DEBFCDBF27
:1006400013E0A0E0B1E0E8E0F7E402C005900D920D
:10065000AE33B107D9F725E0AEE3B3E001C01D9298
:10066000A136B207E1F713E0CAE1D3E004C0219755
:10067000FE010E947021C931D107C9F70E949F1560
:100680000C9482230C9400000895FC016370658B28
:100690008481958126813781613039F0633029F07A
:1006A00091878087338722870895318720879387B2
:1006B000828708952F923F924F925F926F927F921E
:1006C0008F929F92AF92BF92CF92DF92EF92FF9262
:1006D0000F931F93CF93DF93CDB7DEB76C970FB611
:1006E000F894DEBF0FBECDBF9C8F8B8F5B011A01CC
:1006F0001F830E833701C982DC0158964D915C91AE
:1007000059974115510509F0E5C018968D919C91B6
:100710001997681779070CF0CAC11A968D919C91A8
:100720001B97281639060CF0C2C18C2C912CFB01AA
:1007300036E0C39EE00DF11D1124FB87EA871E16EB
:100740001F060CF0B4C1C40133E0880F991F3A951D
:10075000E1F79D878C87820D931D181619060CF002
:10076000A6C157968C91811103C0203B08F02F5FE2
:10077000AB8DBC8DED91FC9111970284F385E02D3A
:10078000CD012A8F09952A8DB5E02B9F9001112468
:10079000F5013596FF87EE87BB82AA822501A90164
:1007A0004A195B09598B488BC10108969B8B8A8B30
:1007B000E889F989E40DF51DE952FF4F9491988776
:1007C00061013D822C82A885A0FF13C0AB8DBC8D3A
:1007D000ED91FC91B981B13031F40484F585E02DBF
:1007E0002E813F8116C00684F785E02DEE80FF80C4
:1007F0001AC0EE81FF816E167F06F1F0AB8DBC8DC5
:10080000ED91FC91B981B13051F40484F585E02D6E
:100810009301A601B2018B8D9C8D09950DC00684B4
:10082000F785E02D7301840194014C815D816A811B
:100830007B818B8D9C8D0995E885E695E887FFEF98
:10084000CF1ADF0A2C813D81280D391D3D832C8371
:100850004A895B89C416D50609F0B5CF5FEF451A02
:10086000550A8A819B81880D991D9B838A83AE8559
:10087000BF854A165B0609F09BCFEE81FF816E169D
:100880007F0609F4F2C0EB8DFC8DA081B181F98166
:10089000F13079F4B5016B5F7F4F5096ED91FC918B
:1008A0005197830128E030E0A1018B8D9C8D099543
:1008B000DCC06A857B85681979091E96ED91FC91EB
:1008C0001F9773010C851D859401A1018B8D9C8D53
:1008D0000995CBC0FA013496949132976591749141
:1008E000291BCB01B7E02B9F800D911D1124FA012C
:1008F000259134913B8B2A8BFC01459154915B836C
:100900004A83FC013296C490319654915E873296A8
:1009100014913196D4908981823058F0612E012E45
:10092000000C7708AD2D0D2C000CBB0BB987A887E8
:1009300004C019861886612C712CAB8DBC8DED918D
:10094000FC9111970284F385E02DCD010995B981C1
:100950008B2E912C689CC001699C900D789C900D09
:100960001124FC01EA0DFB1DFD87EC871C82712C14
:10097000612CE12F110FFF0B95012E0F3F1F3B87BD
:100980002A87AC0CB11CA5014E0F5F1F5F8B4E8BED
:10099000C1018D0D911DD7FC9A95998F888F4E8539
:1009A000641608F062C0862D90E048855985480F8E
:1009B000591F489D9001499D300D589D300D1124BF
:1009C000D901A20DB31DB98BA88BAA84BB844C841A
:1009D0005D84DC80BA85DB1AE88DF98DE80FF91F9C
:1009E000FD8BEC8B8D2D8A0D2E893F89A216B306C7
:1009F000B9F1877061F48A819B810196EA89FB894C
:100A0000AA81BB81EA0FFB1F74909B838A8377FEC8
:100A100020C0AB8DBC8DED91FC91B981B13061F4FA
:100A20000484F585E02D2E813F814C895D89B501D7
:100A30008B8D9C8D09950DC00684F785E02DEE8089
:100A4000FF808401940148895989B2018B8D9C8D66
:100A50000995770CEFEFAE1ABE0A480C591CC2CFAD
:100A60003C813C0D3C8363949ACFAB8DBC8DED9162
:100A7000FC9111970688F789E02DCD016C960FB691
:100A8000F894DEBF0FBECDBFDF91CF911F910F91C4
:100A9000FF90EF90DF90CF90BF90AF909F908F909E
:100AA0007F906F905F904F903F902F9009946C963D
:100AB0000FB6F894DEBF0FBECDBFDF91CF911F916F
:100AC0000F91FF90EF90DF90CF90BF90AF909F90ED
:100AD0008F907F906F905F904F903F902F900895F0
:100AE000AF92BF92CF92EF92FF920F931F93CF934B
:100AF000DF93EC01262F888D998D009709F040C077
:100B00006A3059F41D861C862C898E859F8538E0B5
:100B1000239F800D911D112441C06D3009F4AAC09E
:100B20008E898823C1F03C898C859D8546E0349F61
:100B3000800D911D112448855985481759075CF48B
:100B40001D861C868E859F8548E0349F800D911DF3
:100B500011249F878E87EA88FB88088919894E852A
:100B60005F856C857D85CC88CE010E945A032C89D7
:100B70008C859D8536E0239F800D911D112442C0F8
:100B80006A3079F41D861C862C89FC013696E49126
:100B90008E859F852E9F800D911D11249F878E87A6
:100BA00069C06D3009F466C0FC0134963491631756
:100BB00008F460C03196E491E61708F45BC0FC01CC
:100BC0003296A590B490462F50E0431B510937E070
:100BD000349FB001359F700D1124A60EB71EF5018C
:100BE000329634913196E491332311F0E1110DC026
:100BF000F5013496E4912C898C859D85E29F800DCA
:100C0000911D11249D878C8735C0F501359644913F
:100C10005E89552311F16C89E32FF0E0E40FF11D9B
:100C200047FDFA956E9FD0016F9FB00D11244C8542
:100C30005D854A0F5B1FE885F985E417F5076CF4BD
:100C40001D861C86FC013696E4918E859F856E9FDD
:100C5000800D911D11249F878E87EA88FB88088963
:100C600019894E855F856C857D85CC88CE010E9473
:100C70005A03BECF81E090E0DF91CF911F910F9199
:100C8000FF90EF90CF90BF90AF9008956F927F92BA
:100C90008F929F92AF92BF92CF92DF92EF92FF928C
:100CA0000F931F93CF93DF93EC014B015A0169011E
:100CB0003801E881F9810284F385E02D0995E88106
:100CC000F9810288F389E02D87019601A501B4011D
:100CD000CE010995E881F981A501460D571D4150C6
:100CE00051090288F389E02D9601B401CE010995DE
:100CF000E881F9810088F189E02D9301A501B40113
:100D0000CE010995E881F981C80CD91CB601615062
:100D100071090088F189E02D9301A501CE010995A3
:100D2000E881F9810688F789E02DCE01DF91CF9126
:100D30001F910F91FF90EF90DF90CF90BF90AF90F9
:100D40009F908F907F906F900994CF92DF92EF9257
:100D5000FF920F931F93CF93DF9300D000D000D06A
:100D6000CDB7DEB76C01DC01ED91FC916217730722
:100D700089F4041715072CF4942F852FA801092F47
:100D8000182F041B150B98012F5F3F4F048CF58D16
:100D9000E02D12C04017510709F5261737072CF42C
:100DA000962F872FB901292F382F261B370B2F5F3E
:100DB0003F4F068CF78DE02D8701C60109952696D9
:100DC0000FB6F894DEBF0FBECDBFDF91CF911F915C
:100DD0000F91FF90EF90DF90CF9008950284F385FC
:100DE000E02D2D833E834B835C8369837A83099551
:100DF000D601ED91FC910488F589E02D2D813E818D
:100E00004B815C8169817A81C6010995D601ED919A
:100E1000FC910688F789E02DC60126960FB6F89456
:100E2000DEBF0FBECDBFDF91CF911F910F91FF901D
:100E3000EF90DF90CF900994EF92FF920F931F9362
:100E4000DC01ED91FC9111971A960D911C911B9765
:100E500018962D913C91199700A0F1A1E02D7B01EE
:100E600040E050E060E070E009951F910F91FF9025
:100E7000EF9008954F925F926F927F928F929F9220
:100E8000AF92BF92CF92DF92EF92FF920F931F9398
:100E9000CF93DF9300D0CDB7DEB76C015A01390193
:100EA0004801DC01ED91FC910284F385E02D69831A
:100EB0007A8309956981462E7A81572E640C751CB8
:100EC000D601ED91FC91461457046CF40088F18929
:100ED000E02D87019401A501B201C6010995BFEF7C
:100EE0004B1A5B0AEDCF0688F789E02DC6010F90FB
:100EF0000F90DF91CF911F910F91FF90EF90DF90B6
:100F0000CF90BF90AF909F908F907F906F905F90A9
:100F10004F900994AF92BF92CF92DF92EF92FF92DF
:100F20000F931F93CF93DF9300D000D0CDB7DEB7E0
:100F30005C016901DC01ED91FC910284F385E02DF7
:100F40004B835C8369837A830995D501ED91FC918C
:100F500069817A819B012C0D3D1D21503109048846
:100F6000F589E02D78014B815C818A01C5010995E5
:100F7000D501ED91FC910688F789E02DC5010F9010
:100F80000F900F900F90DF91CF911F910F91FF90D5
:100F9000EF90DF90CF90BF90AF900994AF92BF9247
:100FA000CF92DF92EF92FF920F931F93CF93DF9335
:100FB00000D000D0CDB7DEB75C016901DC01ED9156
:100FC000FC910284F385E02D4B835C8369837A83F3
:100FD0000995D501ED91FC914B815C81C40ED51E24
:100FE000B1E0CB1AD1080488F589E02D780186019B
:100FF00069817A819B01C5010995D501ED91FC912B
:101000000688F789E02DC5010F900F900F900F9083
:10101000DF91CF911F910F91FF90EF90DF90CF90D4
:10102000BF90AF9009940895EF92FF920F931F9392
:10103000DC01ED91FC9100A0F1A1E02D09951F913B
:101040000F91FF90EF9008950F931F93DC01ED91A6
:10105000FC91068CF78DE02D09951F910F91089555
:101060000F931F93DC01ED91FC91048CF58DE02D25
:1010700009951F910F910895DC01ED91FC91008479
:10108000F185E02D099408952F923F924F925F923F
:101090006F927F928F929F92AF92BF92CF92DF9288
:1010A000EF92FF920F931F93CF93DF9300D01F9285
:1010B000CDB7DEB74C017B836A836A015901170102
:1010C0009801241B350B37FF03C031952195310959
:1010D000C5014A815B81841B950B97FF03C09195E5
:1010E0008195910951E059838217930714F0198271
:1010F0000BC09A2D8B2D5801092F182F9A818B81A7
:10110000DB82CA82C92ED82E8A819B81A816B90695
:101110005CF49C2D8D2D6801092F182F9A818B81ED
:10112000BB82AA82A92EB82E2501AA81BB814A1AA8
:101130005B0A38016C187D0877FE03C071946194D6
:101140007108720157FE03C0BFEFEB1AFB0AF5945A
:10115000E794C016D1061CF00FEF1FEF1FC001E08F
:1011600010E01CC0D401ED91FC91B9810484F58597
:10117000E02D9101BB23C1F04A815B81B601C4011E
:101180000995E618F708F7FE04C0C00ED11EE40C5E
:10119000F51CEA81FB813196FB83EA834A815B81FE
:1011A000A416B506FCF604C0A6016A817B81E7CFD0
:1011B0000F900F900F90DF91CF911F910F91FF90A3
:1011C000EF90DF90CF90BF90AF909F908F907F90E7
:1011D0006F905F904F903F902F90089585ED809392
:1011E000BC008091BC0084FDFCCF1092F9030895EF
:1011F00040917D03262F30E0240F311D213231052F
:10120000DCF42091F9032430C9F4FC0180E090E083
:10121000861758F430917D032191DC01A55ABC4F0B
:10122000A30FB11D2C930196F3CF80917D03680F1E
:1012300060937D0380E0089581E0089582E0089541
:101240000895E091B2038091B103E81730F4F0E023
:10125000ED54FC4F808190E008958FEF9FEF08954B
:101260009091B2038091B103981750F4E92FF0E008
:10127000ED54FC4F208130E09F5F9093B20302C099
:101280002FEF3FEFC90108958091B10390E02091C5
:10129000B203821B91090895CF92DF92EF92FF92E1
:1012A0000F931F93CF93DF937C01262F972F8A01F3
:1012B0008091FA03882391F0C62FD72F6E01C40EB8
:1012C000D51ECC15DD0571F06991D701ED91FC912A
:1012D0000190F081E02DC7010995F3CF642F822F93
:1012E0000E94F808C801DF91CF911F910F91FF90E4
:1012F000EF90DF90CF900895CF93DF931F92CDB7FB
:10130000DEB769832091FA032223D1F020911C04D7
:10131000203240F021E030E0FC013383228380E082
:1013200090E015C08091FB03E82FF0E0E450FC4F03
:10133000998190838F5F8093FB0380931C0405C089
:1013400061E0CE0101960E94F80881E090E00F90E4
:10135000DF91CF910895089580E090E008958F92F5
:101360009F92AF92BF92CF92DF92EF92FF920F9334
:101370001F93CF93DF93EC01490181E0881A910814
:10138000860E971EC401A0E0B0E04B01A12CB12C49
:10139000540199248824882A992AAA2ABB2A6801F8
:1013A00081E0C81AD108C40ED51EC601A0E0B0E085
:1013B0006A01E12CF12C7601DD24CC24C82AD92A3B
:1013C000EA2AFB2A6AE2CE010E945A152BA16B2D54
:1013D00077278827992727FF18C06EBD0DB407FE11
:1013E000FDCFC501AA27BB278EBD0DB407FEFDCFDB
:1013F000BB27AB2D9A2D892D8EBD0DB407FEFDCFD9
:101400008EBC0DB407FEFDCF14C0CE010E949D140A
:10141000B50188279927CE010E949D1499278B2D0D
:101420007A2D692DCE010E949D14682DCE010E9457
:101430009D146BE2CE010E945A152BA16F2D7727C8
:101440008827992727FF18C06EBD0DB407FEFDCF72
:10145000C701AA27BB278EBD0DB407FEFDCFBB2752
:10146000AF2D9E2D8D2D8EBD0DB407FEFDCFCEBCB4
:101470000DB407FEFDCF14C0CE010E949D14B7012C
:1014800088279927CE010E949D1499278F2D7E2DA4
:101490006D2DCE010E949D146C2DCE010E949D14D5
:1014A0006CE2CE01DF91CF911F910F91FF90EF90F1
:1014B000DF90CF90BF90AF909F908F900C945A1573
:1014C0000F931F93CF93DF931F92CDB7DEB78C019D
:1014D000DC01ED91FC910284F385E02D698309958F
:1014E0006981611102C060E201C061E2C8010E942D
:1014F0005A15D801ED91FC910688F789E02DC801B5
:101500000F90DF91CF911F910F9109941F93CF936B
:10151000DF93EC0163706D8B6230C1F0633001F1D9
:10152000613051F080EF90E09987888780E491E006
:101530009B878A8718E41DC080E491E0998788879B
:1015400080EF90E09B878A8718E213C080EF90E0DD
:101550009987888780E491E09B878A8718E809C08B
:1015600080E491E09987888780EF90E09B878A8765
:1015700018EEE881F9810284F385E02DCE0109950A
:1015800066E3CE010E945A15612FCE010E949D1480
:10159000E881F9810688F789E02DCE01DF91CF91AE
:1015A0001F9109941F93CF93DF93262FFC0133A142
:1015B00037FF09C07EBD0DB407FEFDCF2EBD0DB4B3
:1015C00007FEFDCF0CC0672F122FEC010E949D1467
:1015D000612FCE01DF91CF911F910C949D14DF916B
:1015E000CF911F910895CF93CFB7F8948091A20324
:1015F000811127C0EDE1F6E08491EFEFF5E09491E1
:10160000E82FF0E0EE0FFF1FE95DF94FA591B491CF
:10161000EC91E92321F461E08AE00E94A11361E0EA
:101620008AE00E94D1138CB580618CBD8CB580643A
:101630008CBD61E08DE00E94D11361E08BE00E94DF
:10164000D1138091A2038F5F8093A203CFBFCF916C
:101650000895BF92CF92DF92EF92FF920F931F9364
:10166000CF93DF93EC01411551056105710521F41C
:1016700040E052E16AE770E04C8F5D8F6E8F7F8FA4
:1016800088A187FD07C061E00E94D11361E088A1B5
:101690000E94A11361E089A10E94D11360E089A199
:1016A0000E94A1138BA187FD16C061E08CA10E944E
:1016B000D11360E08CA10E94A11361E08BA10E9474
:1016C000D11361E08BA10E94A1138DA187FD03C0FE
:1016D00060E00E94D1138BA187FD0E94F30A8AA1CA
:1016E00087FD21C061E00E94D11361E08AA10E94C0
:1016F000A11364E670E080E090E00E940D1460E0C9
:101700008AA10E94A11364E670E080E090E00E944C
:101710000D1461E08AA10E94A11368EC70E080E0E2
:1017200090E00E940D14E881F9810284F385E02D98
:10173000CE01099508E610E07801EFEFEE1AFE0AF7
:10174000F8016491662321F1CE010E945A150E5FC3
:101750001F4FF701E490FE2DFF77BF2E6801FF2E8B
:10176000FA948FEFF81649F0F6016491CE010E94C9
:101770009D14FFEFCF1ADF0AF3CF0B0D111DE7FE0B
:10178000DBCF68E770E080E090E00E940D14D4CFDA
:10179000E881F9810688F789E02DCE01099580EF6F
:1017A00090E09987888780E491E09B878A87DF9122
:1017B000CF911F910F91FF90EF90DF90CF90BF904E
:1017C00008951F920F920FB60F9211242F933F93FB
:1017D0004F935F936F937F938F939F93AF93BF9339
:1017E000EF93FF938091B900887F803609F49CC005
:1017F00068F5883209F45BC090F4803109F454C074
:1018000038F4882309F4F6C0883009F44DC0F6C0D6
:10181000883109F44CC0803209F45DC0EFC08034D7
:1018200009F468C048F4803309F455C0883309F0DE
:10183000E5C08093F703D8C0803509F44FC08835E0
:1018400009F45DC0883409F0D9C0D6C0883909F4DC
:10185000C7C0A8F4883709F467C038F4883609F49B
:1018600063C0803709F460C0C9C0883809F4B8C0C3
:10187000803909F45FC0803809F0C0C05BC0803B8C
:1018800009F486C038F4803A09F466C0883A09F44D
:101890007FC0B4C0803C09F4A7C0883C09F4A4C050
:1018A000883B09F48AC0AAC08091D40310C09091EB
:1018B000F6038091F503981770F5E091F60381E047
:1018C0008E0F8093F603F0E0EB52FC4F8081809303
:1018D000BB0085EC86C08093F7038EC0E091F603D1
:1018E00081E08E0F8093F6038091BB00F0E0EB5215
:1018F000FC4F80839091F6038091F5036EC0E091D8
:10190000F60381E08E0F8093F6038091BB00F0E038
:10191000EB52FC4F80838091F80381116DC081E010
:101920008093D30384EA61C083E08093F90310922B
:10193000A103CFCF8091A103803208F051C0E09184
:10194000A10381E08E0F8093A1038091BB00F0E0A2
:10195000EF57FC4F8083BDCF85EC8093BC00109285
:10196000F9038091A103803230F4E091A103F0E00B
:10197000EF57FC4F10826091A10370E0E0917F036C
:10198000F091800381E893E009951092A10336C09D
:1019900084E08093F90310927E0310927D03E0911E
:1019A0007B03F0917C03099580917D03811105C033
:1019B00081E080937D0310925B03E0917E0381E0E0
:1019C0008E0F80937E03F0E0E55AFC4F8081809378
:1019D000BB0090917E0380917D03981708F479CF26
:1019E00085E88093BC000AC085EC8093BC0010920F
:1019F000F90304C01092F7030E94EE08FF91EF91E3
:101A0000BF91AF919F918F917F916F915F914F9116
:101A10003F912F910F900FBE0F901F90189510922D
:101A2000F90381E08093F8031092D30361E082E12F
:101A30000E94A11361E083E10E94A113E9EBF0E0B1
:101A400080818E7F808380818D7F808388E48093F6
:101A5000B80085E48093BC00089508958CBD9DBDB9
:101A6000089590931D0580931C0570931F05609346
:101A70001E05109223051092220510922105109246
:101A80002005411101C041E040932405F901448142
:101A900055816081718180E195E00E94F60D6FEBC8
:101AA00072E080E195E00C94671020911C04909105
:101AB0005205213208F04AC08091F9038111FCCF10
:101AC00032E03093F90331E03093F8033FEF309385
:101AD000F7031092F6032093F503ACEFB3E045ED66
:101AE00053E0FA013E2F341B321718F43D91319325
:101AF000F9CF1092D4032091D403990F922B909395
:101B0000D4039091D303913061F41092D303909158
:101B1000D4039093BB009091BC0093FDF8CF95EC5B
:101B200001C095EE9093BC009091F9039230E1F3DF
:101B30009091F7039F3F79F08091F703803241F055
:101B40008091F703803331F084E005C081E003C069
:101B500082E001C083E01092FB0310921C041092FB
:101B6000FA0308959091F9039111FCCF91E09093BD
:101B7000F9039093F8032FEF2093F7031092F603E5
:101B8000260F2093F5039093D4039091D403880FEC
:101B9000892B8093D4038091D303813061F4109218
:101BA000D3038091D4038093BB008091BC0083FD5C
:101BB000F8CF85EC01C085EE8093BC008091F903DD
:101BC0008130E1F38091F603861710F46091F603FB
:101BD000A5EDB3E023EB33E0F9018E2F821B8617CE
:101BE00018F48D918193F9CF862F0895CF92DF92CB
:101BF000EF92FF920F931F93CF93DF936C017A01C3
:101C00008B01C0E0D0E0CE15DF0589F0D8016D91E1
:101C10008D01D601ED91FC910190F081E02DC6017E
:101C20000995892B11F47E0102C02196ECCFC701E2
:101C3000DF91CF911F910F91FF90EF90DF90CF90A8
:101C40000895EF92FF920F931F93CF93DF93F0903D
:101C50004E059FEFF91207C08EBD00000DB407FEC0
:101C6000FDCF8EB51DC0E0904C0507E010E0C82FF9
:101C7000D0E0BE01002E02C0759567950A94E2F788
:101C8000617077278E2D0E94A11361E08F2D0E9435
:101C9000A11360E08F2D0E94A1130150110948F794
:101CA000DF91CF911F910F91FF90EF900895CF9307
:101CB000DF93D82FC62F80914B058F3FC9F48091B9
:101CC0004F0591E09093FA03809352051092FB0325
:101CD00010921C046D2F82E095E00E947C096C2F0D
:101CE00082E095E00E947C09DF91CF910C94550D24
:101CF00080914E058F3F31F480910E0590910F0534
:101D00000E942E0D60E080914B050E94A1138D2F43
:101D10000E94210E8C2F0E94210E61E080914B05C4
:101D20000E94A11380914E058F3F21F4DF91CF9146
:101D30000C942D0DDF91CF9108958F929F92AF92C9
:101D4000BF92CF92DF92EF92FF920F931F93CF93A8
:101D5000DF93C82F80914B058F3F59F580914F0538
:101D6000D1E0D093FA03809352051092FB031092B6
:101D70001C046C2F82E095E00E947C090E94550DA6
:101D800080914F05D093FA03809352051092FB0384
:101D900010921C0461E00E94B20D1092B203809375
:101DA000B10382E095E00E943009B82E0E94550DE3
:101DB0006BC080914E058F3F31F480910E0590915C
:101DC0000F050E942E0D60E080914B050E94A1132B
:101DD0008C2F80680E94210E80E00E94210EA0902E
:101DE0004E058FEFA81207C01EBC00000DB407FE01
:101DF000FDCFBEB43EC0C0914D0507E010E0B12C50
:101E0000D0E0FE01EF51FA4F7F01CE018B509A4F87
:101E10006C01CD5ED94F61E08A2D0E94A113F701BC
:101E20008491F6018490FE019490992099F081119B
:101E30000E947813292D30E0220F331F29523A4F88
:101E4000F901A591B4918C91882231E009F430E038
:101E5000832F02C080E090E0002E01C0880F0A941A
:101E6000EAF7B82A60E08A2D0E94A11301501109F7
:101E700090F661E080914B050E94A11380914E0580
:101E80008F3F11F40E942D0D8B2DDF91CF911F916B
:101E90000F91FF90EF90DF90CF90BF90AF909F9009
:101EA0008F900895CF93DF9380E00E949D0EC82FFE
:101EB000D0E0DC2FCC2781E00E949D0E9E01282BD4
:101EC000C901DF91CF910895CF93C82F81E080930E
:101ED000FA0382E5809352051092FB0310921C04D2
:101EE00082E095E00E947C096C2F82E095E00E94E0
:101EF0007C090E94550D6AE070E080E090E0CF918F
:101F00000C940D14EF92FF921F93CF93DF93CDB7F4
:101F1000DEB72C970FB6F894DEBF0FBECDBF66E0DC
:101F200082E50E94B20D182F1092B2038093B10384
:101F3000CE0101967C018091B203181749F082E02E
:101F400095E00E943009F701819391937F01F3CFCF
:101F500089819A819093A4038093A3038B819C81B0
:101F60009093A6038093A5038B859C859C01359552
:101F7000279535952795A901437055272D813E81D9
:101F8000220F331F220F331F242B352B3093A8032E
:101F90002093A7039C0174E0359527957A95E1F786
:101FA000A901437055272F813885220F331F220F37
:101FB000331F242B352B3093AA032093A9039C01B4
:101FC000F6E035952795FA95E1F7A9014370552775
:101FD00029853A85220F331F220F331F242B352BDF
:101FE0003093AC032093AB039C0121703327F1E0C5
:101FF0002F273093AE032093AD0321E030E081FF23
:1020000002C020E030E03093B0032093AF0360E0E3
:1020100080E02C960FB6F894DEBF0FBECDBFDF91E7
:10202000CF911F91FF90EF900C94640FFC01808181
:1020300091810C940B22EF92FF920F931F93CF93F9
:10204000DF93EC01198218821B821A821D821C8286
:1020500061157105A9F17B01FB0101900020E9F7F1
:1020600031978F01061B170BB8016F5F7F4F80E020
:1020700090E00E94A322009759F0998388831B83E4
:102080000A832C813D81232B81F4FC0110820DC039
:1020900088819981009711F00E940B221982188281
:1020A0001D821C821B821A820BC01D830C83B70108
:1020B000DF91CF911F910F91FF90EF900C947B23B4
:1020C000DF91CF911F910F91FF90EF9008956115CF
:1020D000710579F0FB0101900020E9F73197AF011C
:1020E000461B570BDC01ED91FC910280F381E02D42
:1020F000099480E090E00895FC01538D448D252FD4
:1021000030E0842F90E0821B930B541710F0CF9691
:10211000089501970895FC01918D828D981761F0C3
:10212000828DDF01A80FB11D5D968C91928D9F5F0E
:102130009F73928F90E008958FEF9FEF0895FC01B9
:10214000918D828D981731F0828DE80FF11D858D6C
:1021500090E008958FEF9FEF0895FC01918D228DFF
:10216000892F90E0805C9F4F821B91098F73992784
:1021700008958DE194E00E94AD1021E0892B09F4CF
:1021800020E0822F0895FC01848DDF01A80FB11D8E
:10219000A35ABF4F2C91848D90E001968F7399279D
:1021A000848FA689B7892C93A089B1898C9180648A
:1021B0008C93938D848D981306C00288F389E02D4B
:1021C00080818F7D80830895EF92FF920F931F93FC
:1021D000CF93DF93EC0181E0888F9B8D8C8D9813DA
:1021E00005C0E889F989808185FD24C0F62E0B8D14
:1021F00010E00F5F1F4F0F731127E02E8C8DE81238
:102200000CC00FB607FCFACFE889F989808185FFF9
:10221000F5CFCE010E94C310F1CF8B8DFE01E80FE8
:10222000F11DE35AFF4FF0820B8FEA89FB89808111
:10223000806207C0EE89FF896083E889F98980811F
:102240008064808381E090E0DF91CF911F910F91B6
:10225000FF90EF900895CF93DF93EC01888D882352
:10226000C9F0EA89FB89808185FD05C0A889B98903
:102270008C9186FD0FC00FB607FCF5CF808185FFDE
:10228000F2CFA889B9898C9185FFEDCFCE010E944C
:10229000C310E7CFDF91CF91089580E090E0892BC4
:1022A00029F00E94B91081110C94000008953FB7E5
:1022B000F8948091590590915A05A0915B05B091D1
:1022C0005C0526B5A89B05C02F3F19F00196A11DFE
:1022D000B11D3FBFBA2FA92F982F8827820F911DBC
:1022E000A11DB11DBC01CD0142E0660F771F881F03
:1022F000991F4A95D1F70895CF92DF92EF92FF92FE
:102300000F931F93CF93DF9300D000D000D0CDB7B1
:10231000DEB76C01DC01ED91FC910284F385E02DC8
:102320002D833E834B835C8369837A830995D60131
:10233000ED91FC910684F785E02D2D813E814B8146
:102340005C8169817A81C6010995D601ED91FC9184
:102350000688F789E02DC60126960FB6F894DEBFF1
:102360000FBECDBFDF91CF911F910F91FF90EF90E6
:10237000DF90CF900994EF92FF920F931F93CF932A
:10238000DF9300D000D000D0CDB7DEB77C01DC01F8
:10239000ED91FC910284F385E02D2D833E834B83E8
:1023A0005C8369837A830995D701ED91FC9102885A
:1023B000F389E02D2D813E814B815C8169817A8199
:1023C000C7010995D701ED91FC910688F789E02DA9
:1023D000C70126960FB6F894DEBF0FBECDBFDF91C2
:1023E000CF911F910F91FF90EF900994EF92FF9280
:1023F0000F931F93CF93DF9300D000D000D0CDB7C1
:10240000DEB77C01DC01ED91FC910284F385E02DC7
:102410002D833E834B835C8369837A830995D7013F
:10242000ED91FC910088F189E02D2D813E814B8159
:102430005C8169817A81C7010995D701ED91FC9191
:102440000688F789E02DC70126960FB6F894DEBFFF
:102450000FBECDBFDF91CF911F910F91FF90EF90F5
:102460000994EF92FF920F931F93DC01ED91FC9181
:102470000684F785E02D780101E010E009951F91B1
:102480000F91FF90EF900895EF92FF920F931F939B
:10249000DC01ED91FC910684F785E02D780189013E
:1024A00021E030E009951F910F91FF90EF90089582
:1024B0000E946D23AF92BF92CF92DF92EF92FF9274
:1024C0000F931F93CF93DF93EC0177FD38C088857E
:1024D0009985681779079CF557FD31C08A859B85DA
:1024E0004817590764F569015A017B01E881F981B0
:1024F0000284F385E02DCE010995E881F98102A4DB
:10250000F3A5E02D01E010E021E030E0A501B701E6
:10251000CE010995B601CE010E94D20AE881F98167
:102520000688F789E02DCE01DF91CF911F910F91A1
:10253000FF90EF90DF90CF90BF90AF900994DF9124
:10254000CF911F910F91FF90EF90DF90CF90BF90B0
:10255000AF900895EF92FF920F931F93CF93DF9365
:10256000EC0177FD22C08885998568177907ECF41E
:1025700057FD1BC08A859B8548175907B4F479011C
:10258000E881F98102A4F3A5E02D01E010E021E04B
:1025900030E0CE010995B701CE01DF91CF911F91B7
:1025A0000F91FF90EF900C94D20ADF91CF911F9181
:1025B0000F91FF90EF900895FC0183A9A6A5B7A500
:1025C0009C91892B8C9383A187FD0C942D0D0895EC
:1025D0000F931F93CF93DF93EC018BA187FF1EC056
:1025E0000C8D1D8D2E8D3F8D90E040E052E16AE70D
:1025F00070E0041715072607370740F476956795AE
:10260000579547959F5F9630A1F797E081E098270F
:10261000892F806A869591700E942E0D9BA9EEA548
:10262000FFA58081282F30E0892F90E0809590953C
:10263000822393238083DF91CF911F910F9108957F
:102640001F920F920FB60F9211242F933F934F9327
:102650005F936F937F938F939F93AF93BF93EF930A
:10266000FF938DE194E00E94C310FF91EF91BF9121
:10267000AF919F918F917F916F915F914F913F911A
:102680002F910F900FBE0F901F9018951F920F92D1
:102690000FB60F9211242F938F939F93EF93FF9375
:1026A000E0912D04F0912E048081E0913304F091AB
:1026B000340482FD12C09081809136048F5F8F7345
:1026C00020913704821751F0E0913604F0E0E35E88
:1026D000FB4F958F8093360401C08081FF91EF916D
:1026E0009F918F912F910F900FBE0F901F90189573
:1026F000833081F028F4813099F08230A1F0089580
:102700008730A9F08830B9F08430D1F4809180000E
:102710008F7D03C0809180008F7780938000089523
:1027200084B58F7702C084B58F7D84BD0895809174
:10273000B0008F7703C08091B0008F7D8093B00090
:1027400008951F93CF93DF93282F30E0F901EF51C5
:10275000FA4F8491F901EB50FA4FD491F901ED5EF3
:10276000F94FC491CC23C9F0162F81110E94781320
:10277000EC2FF0E0EE0FFF1FE75FF94FA591B4914A
:102780008FB7F894111105C09C91ED2FE095E923C6
:1027900002C0EC91ED2BEC938FBFDF91CF911F9195
:1027A0000895CF93DF9390E0FC01EB50FA4F249112
:1027B000FC01ED5EF94F8491882361F190E0880F70
:1027C000991FFC01E95DF94FC591D491FC01E75FC8
:1027D000F94FA591B491611109C09FB7F894888110
:1027E000209582238883EC912E230BC0623061F404
:1027F0009FB7F8943881822F809583238883EC914A
:102800002E2B2C939FBF06C08FB7F894E8812E2BF8
:1028100028838FBFDF91CF9108958F929F92AF92BF
:10282000BF92CF92DF92EF92FF926B017C010E94E8
:1028300057114B015C01C114D104E104F104F1F022
:102840000E945711DC01CB0188199909AA09BB091B
:10285000883E9340A105B10570F321E0C21AD1086A
:10286000E108F10888EE880E83E0981EA11CB11CD7
:10287000C114D104E104F10419F7DDCFFF90EF900A
:10288000DF90CF90BF90AF909F908F9008952FB71B
:10289000F894609155057091560580915705909177
:1028A00058052FBF08951F920F920FB60F92112453
:1028B0002F933F938F939F93AF93BF938091550531
:1028C00090915605A0915705B09158053091540547
:1028D00023E0230F2D3720F40196A11DB11D05C063
:1028E00026E8230F0296A11DB11D20935405809365
:1028F000550590935605A0935705B09358058091C0
:10290000590590915A05A0915B05B0915C0501961F
:10291000A11DB11D8093590590935A05A0935B05A5
:10292000B0935C05BF91AF919F918F913F912F9193
:102930000F900FBE0F901F901895CF93DF93FC015F
:1029400083A187FF05C06EBD0DB407FEFDCF2EC06D
:1029500028E030E040E8A6A1B7A1842F862321F02B
:1029600080A99C91892B0AC090A98C91C82FD0E096
:10297000892F90E0809590958C239D238C9392A92C
:10298000C2A5D3A58881A82FB0E0892F90E08095BB
:1029900090958A239B23888382A9A2A5B3A59C91A5
:1029A000892B8C93469521503109A9F6DF91CF915F
:1029B00008958F929F92AF92BF92CF92DF92EF9243
:1029C000FF920F931F93CF93DF93EC01690158019E
:1029D000470128853985621773070CF05EC08A8528
:1029E0009B85481759070CF058C07B01EC0CFD1C67
:1029F000D70111978A010A0D1B1DF8013197B7FD08
:102A00004CC0F7FD4AC077FF03C0670160E070E08B
:102A100057FF03C0580140E050E0A217B3071CF075
:102A20006901C61AD70AE817F9071CF05C01A41A55
:102A3000B50AE881F98102A4F3A5E02D850196018C
:102A4000CE0109959601D5010E946121611571059C
:102A50008105910511F12BA127FD0AC06B017C01B5
:102A60000EC00DB407FEFDCF8EBC0DB407FEFDCF2A
:102A7000615071098109910980F09EBCF2CF692DE6
:102A8000CE010E949D14682DCE010E949D1481E00C
:102A9000C81AD108E108F10891F7DF91CF911F9191
:102AA0000F91FF90EF90DF90CF90BF90AF909F90ED
:102AB0008F900895CF93DF93EC019CA9ECA5FDA521
:102AC0002081422F50E0292F30E02095309524239B
:102AD00035232083CE010E949D148CA9ECA5FDA571
:102AE0009081892B8083DF91CF9108950F931F935D
:102AF000CF93DF931F92CDB7DEB78C01DC01ED9150
:102B0000FC910284F385E02D698309956981662330
:102B100019F0F80165A903C0D801D6966C91C801D7
:102B20000E945A15D801ED91FC910688F789E02D95
:102B3000C8010F90DF91CF911F910F910994CF930E
:102B4000DF93CDB7DEB729970FB6F894DEBF0FBE7F
:102B5000CDBF789484B5826084BD84B5816084BD26
:102B600085B5826085BD85B5816085BD80916E002B
:102B7000816080936E00109281008091810082605C
:102B80008093810080918100816080938100809199
:102B900080008160809380008091B1008460809388
:102BA000B1008091B00081608093B00080917A0084
:102BB000846080937A0080917A00826080937A00AA
:102BC00080917A00816080937A0080917A00806899
:102BD00080937A001092C1001092FE041092FF04BC
:102BE00010920005109201051092BC041092BD04D1
:102BF0001092BE041092BF040E9447144B015C0166
:102C00002B013C0128EB420E2BE0521E611C711C73
:102C10000E944714681579058A059B0528F0461619
:102C2000570668067906A0F78DE194E09093FD04BD
:102C30008093FC04E0912D04F0912E0482E08083C7
:102C4000E0912904F0912A041082E0912B04F09184
:102C50002C0480E1808310923504E0913104F091DE
:102C6000320486E08083E0912F04F091300480816B
:102C700080618083E0912F04F0913004808188602E
:102C80008083E0912F04F0913004808180688083FC
:102C9000E0912F04F091300480818F7D80830E9429
:102CA00047146093BC047093BD048093BE0490935A
:102CB000BF0460EB72E08091FC049091FD040E94DF
:102CC00067100E9447144B015C012B013C018AE014
:102CD000480E511C611C711C0E944714681579052F
:102CE0008A059B0528F04616570668067906A0F760
:102CF00081E08093D00440E050E0BA0180E195E0AB
:102D00000E94290B61E080E195E00E94860A3A9AD0
:102D10003B9A439A0E9447144B015C010E9447145E
:102D2000DC01CB0188199909AA09BB0984369105F0
:102D3000A105B10598F31092B2031092B10310925D
:102D4000FB0310921C040E940F0D60EF85E50E94AA
:102D5000640F6BEF80E00E94640F0E94820F9091DD
:102D60004B059F3F59F180914E0561E08F3FA1F4E3
:102D7000892F0E94D11361E080914B050E94A1131D
:102D80000E94F30A81E580930E0510920F051092C0
:102D90005105109250051FC00E94D11361E080912F
:102DA0004B050E94D11361E080914C050E94D11324
:102DB00060E080914D050E94D1130DC01092B203C6
:102DC0001092B1031092FB0310921C040E940F0D8D
:102DD00081E480934F050E94520F8131984061F445
:102DE00062E083E00E94570E6AE070E080E090E0CD
:102DF0000E940D1410E01CC080914B058F3F09F418
:102E00005CC080914E058F3F09F057C085E58093E7
:102E10000E0510920F0584E090E090935105809389
:102E200050050E94520F8131984009F046C0D8CF1A
:102E3000812F0E949D0E1F5F1134D1F760E084E066
:102E40000E94570E61E080E40E94570E61E08AE024
:102E50000E94570E60E680E20E94570E62E081E217
:102E60000E94570E64EA81E40E94570E66E086E5F0
:102E70000E94570E61E08AE40E94570E61E08BE4E5
:102E80000E94570E60E08BE40E94570E61E088E5D7
:102E90000E94570E6FEF8BE00E94570E65E089E0AD
:102EA0000E94570E10925A0310925903CE010196B8
:102EB0001C0194E0920D998770C0FFCF87ED0E94AE
:102EC0009D0EF60181936F01F985FC11F7CFA98062
:102ED00020E1A29EA00111248A81A82EB12CF4E049
:102EE000B594A794FA95E1F7A42AB52A8F70C82E55
:102EF000D12CDC2CCC248B81C82A9C808BE40E94B2
:102F00009D0E85FF04C06FEF8BE00E94570E892D48
:102F100090E00B978D3D934060F5C501A0E0B0E0D7
:102F20009C01AD012659310941095109A0911805AB
:102F3000B09119050E94132122E43EE040E050E0E8
:102F40000E94E9205901C601A0E0B0E09C01AD015A
:102F50002258310941095109A0911A05B0911B0568
:102F60000E9413212EE13FE040E050E00E94E92062
:102F700069018090590390905A03F2E08F169104F2
:102F800009F410C18CF481149104D9F081E0881601
:102F9000910409F488C00E944D118BE40E949D0E9B
:102FA00085FDF9CF61018ACF94E08916910409F477
:102FB000B4C60CF479C1F5E08F16910409F4E6C6A5
:102FC000EACF8091570390915803892B61F460E018
:102FD00070E080E195E00E941C0781E090E0909312
:102FE000580380935703E0EEEE2EFF24FA9408E294
:102FF00010E02AE530E042E650E066E470E080E16F
:1030000095E00E947C1162EC72E0C1010E941B10ED
:10301000910141E050E063E770E085E590E00E94B7
:10302000310DC1010E94161025E530E042E650E066
:1030300065EA70E080E195E00E947C116EEC72E040
:10304000C1010E941B10910141E050E063E770E074
:1030500082EB90E00E94310DC1010E9416102CE815
:10306000A21AB1088EE2A816B10408F094CFC601E6
:10307000C297CD9708F0D3C669ED72E08DE194E078
:103080000E9467106FEB72E08DE194E00E94671080
:1030900081E090E090935A03809359031092580373
:1030A00010925703BCC68091570390915803892B07
:1030B00051F460E070E080E195E00E941C0790927E
:1030C00058038092570370EEE72EFF24FA940EE522
:1030D00010E02CE430E045E550E06CE070E080E189
:1030E00095E00E947C1162E073E0C1010E941B1018
:1030F000910143E050E068E770E08EE190E00E94CB
:10310000310DC1010E94161000E210E02CE430E005
:1031100046EB50E06CE070E080E195E00E947C11AD
:1031200066E073E0C1010E941B10910141E050E094
:1031300063EC70E088E290E00E94310DC1010E94D2
:103140001610C5018A5591098F36910570F4C60194
:103150000F978E9750F4109258031092570383E004
:1031600090E090935A0380935903FDE2AF1AB1089F
:103170002AE1A216B10408F00ECF8FE0C81AD108D8
:103180009EE2C916D10408F006CF1092580310929F
:103190005703109256031092550210925A03109240
:1031A0005903F9CE8091570390915803892B61F40C
:1031B00060E070E080E195E00E941C0781E090E013
:1031C000909358038093570360EEE62EFF24FA9401
:1031D0000EE510E02CE430E045E550E06CE070E0F6
:1031E00080E195E00E947C1162E073E0C1010E94E1
:1031F0001B10910143E050E068E770E08EE190E041
:103200000E94310DC1010E94161000E210E02CE472
:1032100030E046EB50E06CE070E080E195E00E9429
:103220007C1166E073E0C1010E941B10910141E036
:1032300050E063EC70E088E290E00E94310DC10143
:103240000E941610C5018A5591098F36910570F4B8
:10325000C6010F978E9750F410925803109257039F
:1032600083E090E090935A0380935903EDE2AE1A05
:10327000B108FAE1AF16B10408F08DCE2FE0C21A02
:10328000D1088EE2C816D10408F085CE10925803FA
:103290001092570310925A0310925903109256033A
:1032A00081E08093550277CE60E070E080E195E0A8
:1032B0000E941C07409153025091540260915102A8
:1032C0007091520220EEE22E27E0F22E04E110E08F
:1032D00024E130E080E195E00E947C113FE1E32EA3
:1032E000F12C24E130E048EC50E06EE071E080E148
:1032F00095E00E947C1147E0842E41E0942E54E139
:10330000A52EB12C1AE0412E512CC12CD12C340108
:103310006C0C7D1CF30180819181019769F4E12C93
:1033200098EFF92E04E110E024E130E0A501B201AC
:1033300080E195E00E947C11F301808191810297E8
:1033400071F4EE24EA9487E0F82E04E110E024E121
:1033500030E0A501B20180E195E00E947C11F2E02D
:10336000CF0ED11C24E1420E511C8EE1C816D104AF
:1033700071F69EE1890E911CE4E1AE0EB11CF1E5FF
:103380008F16F2E09F0609F0BDCF04E0C02ED12CCD
:10339000EFE07E2E6624639480910001882309F477
:1033A000FACD0E9447144B015C010E944714DC01D6
:1033B000CB0188199909AA09BB0984369105A10591
:1033C000B10598F30E94820F8091A5039091A60306
:1033D0002091A3033091A403853B91055CF0A901E2
:1033E000455651094F34510588F410920601109248
:1033F000050129C0813491054CF4A90145565109B4
:103400004F34510518F482E090E019C0253B310596
:1034100064F0855691098F349105A8F4E1E0F0E05D
:10342000F0930601E09305010EC0213431055CF4F0
:10343000855691098F34910530F483E090E09093A4
:103440000601809305018091050190910601892B69
:1034500009F06FC00E94820F8091030190910401D6
:103460000197789EF001799EF00D11248091010161
:1034700090910201E80FF91FEE0FFF1FE95FFE4F69
:10348000808191818B7F892B09F04FC0409153023D
:10349000509154024451510960915102709152026D
:1034A000E0EEEE2EE7E0FE2E04E110E024E130E055
:1034B00080E195E00E947C118091030190910401CC
:1034C000789EF001799EF00D112480910101909178
:1034D0000201E80FF91FEE0FFF1FE95FFE4F808129
:1034E0009181039781F04091530250915402609171
:1034F000510270915202E12CF12C24E130E080E184
:1035000095E00E947C11809153029091540244975F
:10351000909354028093530280910301909104018F
:1035200001979093040180930301D0920601C09209
:1035300005018091050190910601029709F06FC085
:103540000E94820F80910301909104010196789E60
:10355000F001799EF00D11248091010190910201FA
:10356000E80FF91FEE0FFF1FE95FFE4F8081918189
:103570008B7F892B09F04FC0409153025091540228
:103580004C5E5F4F609151027091520220EEE22E2C
:1035900027E0F22E04E110E024E130E080E195E044
:1035A0000E947C118091030190910401789EF001AA
:1035B000799EF00D11248091010190910201E80F94
:1035C000F91FEE0FFF1FE95FFE4F80819181039786
:1035D00081F04091530250915402609151027091D8
:1035E0005202E12CF12C24E130E080E195E00E94D0
:1035F0007C1180915302909154024496909354020E
:10360000809353028091030190910401019690935D
:10361000040180930301D0920601C09205018091BC
:10362000050190910601019709F06EC00E94820F7A
:103630008091030190910401789EF001799EF00D34
:1036400011248091010190910201E80FF91FEE0F02
:10365000FF1FE75FFE4F808191818B7F892B09F0EF
:103660004FC04091530250915402609151027091A9
:1036700052026C5E7F4F10EEE12E17E0F12E04E156
:1036800010E024E130E080E195E00E947C1180911F
:10369000030190910401789EF001799EF00D1124B0
:1036A0008091010190910201E80FF91FEE0FFF1FB9
:1036B000E95FFE4F80819181039781F04091530231
:1036C000509154026091510270915202E12CF12C00
:1036D00024E130E080E195E00E947C11809151026C
:1036E000909152024496909352028093510280919D
:1036F00001019091020101969093020180930101D2
:10370000D0920601C09205018091050190910601B9
:10371000039709F06EC00E94820F8091030190917F
:103720000401789EF001799EF00D11248091010131
:1037300090910201E80FF91FEE0FFF1FEB5FFE4FA4
:10374000808191818B7F892B09F04FC0409153027A
:10375000509154026091510270915202645171096A
:10376000F0EEEF2EF7E0FF2E04E110E024E130E070
:1037700080E195E00E947C11809103019091040109
:10378000789EF001799EF00D1124809101019091B5
:103790000201E80FF91FEE0FFF1FE95FFE4F808166
:1037A0009181039781F040915302509154026091AE
:1037B000510270915202E12CF12C24E130E080E1C1
:1037C00095E00E947C1180915102909152024497A1
:1037D00090935202809351028091010190910201D5
:1037E00001979093020180930101D0920601C0924B
:1037F00005018091AD039091AE03019709F05DC082
:1038000080915503811159C0809103019091040169
:10381000789EF001799EF00D112480910101909124
:103820000201E80FF91FEE0FFF1FE95FFE4F83E073
:1038300090E09183808340915302509154026091B3
:10384000510270915202E0EEEE2EFF24FA9404E150
:1038500010E024E130E080E195E00E947C110E94BC
:1038600047146093510370935203809353039093D2
:10387000540360925003809103019091040190934E
:103880004F0380934E038091010190910201909328
:103890004D0380934C038091530290915402909376
:1038A0004B0380934A03809151029091520290936E
:1038B0004903809348036092550380905103909090
:1038C0005203A0905303B090540390ED890E97E0FB
:1038D000991EA11CB11C0E944714681579058A0520
:1038E0009B0508F431C180915003882309F42CC151
:1038F00064E273E08DE194E00E94671020914E0332
:1039000030914F0380914C0390914D03729EF001D2
:10391000739EF00D1124E80FF91FEE0FFF1FE95FF2
:10392000FE4FD182C08221503109729EF001739EF8
:10393000F00D1124E80FF91FEE0FFF1FE95FFE4F96
:1039400080819181019761F140914A0350914B032D
:1039500044515109609148037091490390EEE92E5A
:10396000FF24FA9404E110E024E130E080E195E0E6
:103970000E947C1180914E0390914F030197789E95
:10398000F001799EF00D112480914C0390914D032C
:10399000E80FF91FEE0FFF1FE95FFE4FD182C082D3
:1039A00080914E0390914F03789EF001799EF00D27
:1039B000112480914C0390914D03E80FF91FEE0FF5
:1039C000FF1FE75FFE4F80819181019759F1409180
:1039D0004A0350914B0360914803709149036C5E18
:1039E0007F4F10EEE12EFF24FA9404E110E024E171
:1039F00030E080E195E00E947C1180914E0390912F
:103A00004F03789EF001799EF00D112480914C03B4
:103A100090914D03E80FF91FEE0FFF1FE75FFE4F78
:103A2000D182C08280914E0390914F030196789E7F
:103A3000F001799EF00D112480914C0390914D037B
:103A4000E80FF91FEE0FFF1FE95FFE4F80819181A4
:103A5000019761F140914A0350914B034C5E5F4FD7
:103A60006091480370914903E0EEEE2EFF24FA9432
:103A700004E110E024E130E080E195E00E947C1157
:103A800080914E0390914F030196789EF001799EAC
:103A9000F00D112480914C0390914D03E80FF91F14
:103AA000EE0FFF1FE95FFE4FD182C08280914E036F
:103AB00090914F03789EF001799EF00D1124809132
:103AC0004C0390914D03E80FF91FEE0FFF1FEB5FC2
:103AD000FE4F80819181019759F140914A035091A5
:103AE0004B0360914803709149036451710920EEC2
:103AF000E22EFF24FA9404E110E024E130E080E1BA
:103B000095E00E947C1180914E0390914F03789E26
:103B1000F001799EF00D112480914C0390914D039A
:103B2000E80FF91FEE0FFF1FEB5FFE4FD182C0823F
:103B3000109250030E94471460934403709345030E
:103B40008093460390934703809103019091040171
:103B5000789EF001799EF00D1124809101019091E1
:103B60000201E80FF91FEE0FFF1FE95FFE4F808192
:103B700091818430910511F0079741F4E5E0F0E080
:103B8000F0935A03E093590310920001809044038C
:103B900090904503A0904603B0904703FCED8F0E34
:103BA000F5E09F1EA11CB11C0E9447146815790501
:103BB0008A059B0508F43FC08091500381113BC0EA
:103BC00087E0482E81E0582E812C912C24E1820E32
:103BD000911C8AE090E098878F83A12CB12CF20190
:103BE000EA0DFB1D808191810397029778F4118281
:103BF0001082E12CF12C04E110E024E130E0A4017A
:103C00006F81788580E195E00E947C1122E0A20E10
:103C1000B11C8F819885449698878F839EE1A91661
:103C2000B104E9F6EEE14E0E511CFCED8F16910445
:103C300069F6109255038090400390904103A09044
:103C40004203B09043039CED890E95E0991EA11CA0
:103C5000B11C0E944714681579058A059B0508F474
:103C60003FC080913F0381113BC007E0402E01E03F
:103C7000502EA12CB12C24E1A20EB11C8AE090E0C0
:103C800098878F83812C912CF201E80DF91D80819A
:103C900091810697029778F411821082E12CF12C21
:103CA00004E110E024E130E0A5016F81788580E136
:103CB00095E00E947C11E2E08E0E911C8F81988528
:103CC000449698878F839EE189169104E9F6EEE188
:103CD0004E0E511CFCEDAF16B10469F610923E0376
:103CE00080912F02909130028430910511F0079756
:103CF00031F4D0925A03C0925903109200010E94ED
:103D00004714603D77408105910508F445CB8091CB
:103D10003F03882309F440CBA1C06FE178EF80E135
:103D200095E00E941C0770EEE72EFF24FA9400E253
:103D300010E02CE430E046EB50E06CE070E080E115
:103D400095E00E947C1166E073E0C1010E941B10A7
:103D5000910141E050E063EC70E088E290E00E9465
:103D6000310DC1010E94161064E173E0C1010E948F
:103D70001B10910144E050E060E570E08AE590E0BE
:103D80000E94310DC1010E941610EFC960E078EF6A
:103D900080E195E00E941C0760EEE62EFF24FA9475
:103DA00000E210E02CE430E046EB50E06CE070E024
:103DB00080E195E00E947C1166E073E0C1010E9401
:103DC0001B10910141E050E063EC70E088E290E06C
:103DD0000E94310DC1010E9416106BE173E0C10118
:103DE0000E941B10910144E050E060E570E08CE31C
:103DF00090E00E94310DC1010E941610EDE2AE1A52
:103E0000B108FAE1AF16B10408F0C5C82FE0C21A34
:103E1000D1088EE2C816D10408F4B7C9BCC898E727
:103E2000C91AD108EDE3CE16D10408F0B4C86EEE7D
:103E300072E08DE194E00E9467106FEB72E08DE11B
:103E400094E00E946710E2E0F0E0F0935A03E09300
:103E5000590310925803109257039DC86AE273E009
:103E60008DE194E00E94671061E373E08DE194E0DE
:103E70000E94671086E090E090930801809307010C
:103E80008091E9009091EA000197E1F06BE073E026
:103E90008DE194E00E94671010EEE12EFF24FA9469
:103EA00004E110E024E130E04CEE5FEF60E070E010
:103EB00080E195E00E947C1187E090E09093EA0019
:103EC0008093E9008091090190910A010197B1F076
:103ED000B0EEEB2EFF24FA9404E110E024E130E090
:103EE00040E050E064E170E080E195E00E947C11E8
:103EF00087E090E090930A01809309018091250169
:103F0000909126010197B1F0A0EEEA2EFF24FA94D9
:103F100004E110E024E130E044E150E060E070E0D2
:103F200080E195E00E947C1187E090E0909326016B
:103F30008093250180910501909106010197B1F0D0
:103F4000F0EEEF2EFF24FA9404E110E024E130E0DB
:103F500040E050E06CEE7FEF80E195E00E947C1144
:103F600087E090E0909306018093050110923F0353
:103F70000E9447146093400370934103809342036F
:103F80009093430305CAEDE1F4E01382128288EEB8
:103F900093E0A0E0B0E084839583A683B78320E616
:103FA00032E03183208325EC30E03587248724EC10
:103FB00030E03787268720EC30E0318B208B21ECF6
:103FC00030E0338B228B22EC30E0358B248B26ECD7
:103FD00030E0378B268B118E128E138E148EEAEB07
:103FE000F4E01682178210861186128613861486D4
:103FF000158616861786108A118A128A138A148AE1
:10400000158AE2E0F5E01382128284839583A68309
:10401000B78382E792E091838083EEE0F5E080E56C
:1040200080831182EBE4F5E088E080838FEF838367
:1040300082838183A0E1B5E013961C921E921297B1
:1040400040EF50E015965C934E93149720E431E0D6
:1040500017963C932E93169719965C934E93189748
:104060001B963C932E931A9755961C9255971D9626
:104070001C921E921C971F961C921E921E9791E0F6
:1040800054969C9354972FEF3FEF53963C932E9367
:10409000529751963C932E93509756969C935697D1
:1040A00057961C92579759961C921E925897D596E0
:1040B0001C92D597D6961C92D697D8961C921E9293
:1040C000D797DA961C921E92D9979AE090969C9375
:1040D000909799E091969C93919792968C93929752
:1040E00023E535E05B963C932E935A9793968C93F9
:1040F000939794968C93949795968C9395975C96BA
:104100001D921D921D921C925F979B961C921E926F
:104110009A97D2961C92D29797961C921E92969737
:10412000D0961C92D09799961C921E929897D196F1
:104130001C92D197ECE1F6E0E491F0E0EE0FFF1F66
:10414000E75FF94F859194919D969C938E939C97F0
:10415000EEEFF5E0E491D496EC93D497EDE1F6E040
:10416000E491F0E0EE0FFF1FE75FF94F8591949126
:104170009F969C938E939E97EFEFF5E0E491D396F4
:10418000EC93D39784E892E08D939C930895A1E2F9
:104190001A2EAA1BBB1BFD010DC0AA1FBB1FEE1FC1
:1041A000FF1FA217B307E407F50720F0A21BB30B0C
:1041B000E40BF50B661F771F881F991F1A9469F788
:1041C00060957095809590959B01AC01BD01CF01E4
:1041D0000895052E97FB1EF400940E94002157FDC0
:1041E00007D00E94C72007FC03D04EF40C94002196
:1041F00050954095309521953F4F4F4F5F4F089513
:1042000090958095709561957F4F8F4F9F4F089542
:104210000E945221A59F900DB49F900DA49F800DE8
:10422000911D11240895B7FF0C9408210E940821C4
:10423000821B930B08952F923F924F925F926F9241
:104240007F928F929F92AF92BF92CF92DF92EF9226
:10425000FF920F931F93CF93DF93CDB7DEB7CA1BA7
:10426000DB0B0FB6F894DEBF0FBECDBF09942A88D2
:10427000398848885F846E847D848C849B84AA847A
:10428000B984C884DF80EE80FD800C811B81AA8107
:10429000B981CE0FD11D0FB6F894DEBF0FBECDBFD2
:1042A000ED010895A29FB001B39FC001A39F700DBF
:1042B000811D1124911DB29F700D811D1124911D2E
:1042C00008950E945221332312F48A1B9B0B0C94F5
:1042D0006B210E945221B7FF0895821B930B089512
:1042E000EE0FFF1F0590F491E02D0994CF93DF931B
:1042F0008230910510F482E090E0E0915F05F0914A
:10430000600520E030E0C0E0D0E0309711F140815E
:10431000518148175907C0F04817590761F4828145
:104320009381209719F09B838A832BC0909360051B
:1043300080935F0526C02115310519F042175307F8
:1043400018F49A01BE01DF01EF010280F381E02D34
:10435000DCCF2115310509F1281B390B243031053B
:1043600090F412968D919C9113976115710521F02F
:10437000FB019383828304C09093600580935F0563
:10438000FD01329644C0FD01E20FF31F819391932A
:10439000225031092D933C933AC020915D05309114
:1043A0005E05232B41F4209158023091590230933D
:1043B0005E0520935D05209156023091570221152C
:1043C000310541F42DB73EB740915A0250915B023E
:1043D000241B350BE0915D05F0915E05E217F307B4
:1043E000A0F42E1B3F0B2817390778F0AC014E5F65
:1043F0005F4F2417350748F04E0F5F1F50935E053F
:1044000040935D058193919302C0E0E0F0E0CF011D
:10441000DF91CF9108950F931F93CF93DF93009770
:1044200009F48CC0FC0132971382128200915F055F
:10443000109160050115110581F420813181820FF1
:10444000931F20915D0530915E052817390779F596
:10445000F0935E05E0935D0571C0D80140E050E047
:10446000AE17BF0750F412962D913C911397AD01F2
:104470002115310509F1D901F3CF9D01DA0133830B
:10448000228360817181860F971F8217930769F4D9
:10449000EC0128813981260F371F2E5F3F4F318372
:1044A00020838A819B8193838283452B29F4F09317
:1044B0006005E0935F0542C01396FC93EE9312975C
:1044C000ED01499159919E01240F351FE217F30721
:1044D00071F480819181840F951F029611969C93AF
:1044E0008E938281938113969C938E931297E0E032
:1044F000F0E0D80112968D919C911397009719F0D6
:10450000F8018C01F6CF8D919C9198012E5F3F4F61
:10451000820F931F20915D0530915E0528173907A2
:1045200069F4309729F41092600510925F0502C07B
:104530001382128210935E0500935D05DF91CF9187
:104540001F910F910895A0E0B0E0E9EAF2E20C9427
:104550001F21EC01009721F4CB010E947621B8C005
:10456000FC01E60FF71F9C0122503109E217F30707
:1045700008F4ACC0D9010D911C91119706171707CB
:10458000B0F00530110508F49FC0C80104978617E4
:10459000970708F499C002501109061B170B0193E5
:1045A00011936D937C93CF010E940B228DC05B0110
:1045B000A01AB10A4C01800E911EA0915F05B09126
:1045C000600540E050E0E12CF12C109709F44AC05E
:1045D000A815B905D1F56D907C901197630182E023
:1045E000C80ED11CCA14DB0480F1A3014A195B096F
:1045F0006A0182E0C80ED11C1296BC9012971396E5
:10460000AC91B5E0CB16D10440F0B282A3835183C4
:104610004083D9016D937C930AC00E5F1F4FC30185
:10462000800F911FF90191838083EB2DFA2FE11404
:10463000F10431F0D7011396FC93EE93129744C026
:10464000F0936005E0935F053FC08D919C911197B9
:104650004817590708F4AC017D0112960D90BC91E2
:10466000A02DB3CF80915D0590915E0588159905C9
:10467000E1F446175707C8F480915602909157020B
:10468000009741F48DB79EB740915A0250915B025A
:10469000841B950BE817F907C8F4F0935E05E093C7
:1046A0005D05F901718360830FC0CB010E94762103
:1046B0007C01009759F0A801BE010E947223CE012F
:1046C0000E940B22C70104C0CE0102C080E090E02E
:1046D000CDB7DEB7EEE00C943B2181E090E0F8949A
:1046E0000C948223FB01DC0102C001900D92415029
:1046F0005040D8F70895FB01DC0101900D92002095
:08470000E1F70895F894FFCFE2
:104708000101000100040001000100010001000195
:104718000001000100010001000100010001000189
:10472800000100010001000000000002000000027A
:10473800000000020000000200000002000000006B
:10474800000100010000000100000001000000015C
:10475800000000010000000100000001000000014D
:104768000001000200000002000000020000000238
:104778000000000200000002000000020001000129
:10478800000000010000000100000001000000011D
:10479800000000010000000100000001000100020B
:1047A80000000002000000020000000200000002F9
:1047B80000000002000000020001000100000001EA
:1047C80000000001000000010000000100000001DD
:1047D80000000001000000010001000200000002CA
:1047E80000000002000000020000000200000002B9
:1047F80000000002000100010000000100000001AB
:10480800000000010000000100000001000000019C
:10481800000000010001000000000002000000028A
:10482800000000020000000200000002000000007A
:104838000001000100010001000100010001000168
:104848000001000100010001000100010001000158
:10485800001E002800010000610580000000000023
:10486800E410F60D7C102B11AD108B109F1000007A
:1048780000007C094C09AC092009440930092109C8
:10488800000000007005F60DAC09AB095A12E812D9
:10489800AA12D914441231124408DC12860A600A9A
:1048A800F611BB117C111C07A5064606290BAF099A
:1048B800564D4450565F317C315F564D4450560D2D
:1048C8000A005374617274204C6F626279004A6FF7
:1048D800696E204C6F6262790020204E4558542042
:1048E8005354415445203D20537461727400202074
:1048F8004E455854205354415445203D204A6F6931
:104908006E00474F21004261636B0066696C6C5210
:104918006563740057494E4E455200594F55204C17
:104928004F5345007374617274007032626F6D6228
:0E493800002F6E206578706C6F73696500004B
:107E0000112484B714BE81FFF0D085E080938100F7
:107E100082E08093C00088E18093C10086E0809377
:107E2000C20080E18093C4008EE0C9D0259A86E02C
:107E300020E33CEF91E0309385002093840096BBD3
:107E4000B09BFECF1D9AA8958150A9F7CC24DD24C4
:107E500088248394B5E0AB2EA1E19A2EF3E0BF2EE7
:107E6000A2D0813461F49FD0082FAFD0023811F036
:107E7000013811F484E001C083E08DD089C08234E0
:107E800011F484E103C0853419F485E0A6D080C0E4
:107E9000853579F488D0E82EFF2485D0082F10E0AE
:107EA000102F00270E291F29000F111F8ED06801E7
:107EB0006FC0863521F484E090D080E0DECF843638
:107EC00009F040C070D06FD0082F6DD080E0C81688
:107ED00080E7D80618F4F601B7BEE895C0E0D1E017
:107EE00062D089930C17E1F7F0E0CF16F0E7DF06D8
:107EF00018F0F601B7BEE89568D007B600FCFDCFD4
:107F0000A601A0E0B1E02C9130E011968C91119780
:107F100090E0982F8827822B932B1296FA010C0160
:107F200087BEE89511244E5F5F4FF1E0A038BF0790
:107F300051F7F601A7BEE89507B600FCFDCF97BE46
:107F4000E89526C08437B1F42ED02DD0F82E2BD052
:107F50003CD0F601EF2C8F010F5F1F4F84911BD097
:107F6000EA94F801C1F70894C11CD11CFA94CF0C13
:107F7000D11C0EC0853739F428D08EE10CD085E9AC
:107F80000AD08FE07ACF813511F488E018D01DD067
:107F900080E101D065CF982F8091C00085FFFCCF94
:107FA0009093C60008958091C00087FFFCCF809118
:107FB000C00084FD01C0A8958091C6000895E0E648
:107FC000F0E098E1908380830895EDDF803219F02E
:107FD00088E0F5DFFFCF84E1DECF1F93182FE3DFCA
:107FE0001150E9F7F2DF1F91089580E0E8DFEE27F6
:047FF000FF270994CA
:027FFE00040479
:0400000300007E007B
:00000001FF