:100000000C941A030C9442030C9442030C94420384
:100010000C9442030C9442030C9442030C9442034C
:100020000C9442030C9442030C9442030C9442033C
:100030000C9442030C9442030C9442030C9442032C
:100040000C9453140C9442030C9446130C942013F8
:100050000C9442030C9442030C9442030C9442030C
:100060000C94E10B0C944203EF03038002CF0300D6
:10007000C130ED0464031281E803850078CB0539B3
:100080002C003402F70120EA020000C00123C10164
:1000900010C5023E28C701863601483701003A01E3
:1000A00055B1020018B603088227F20100260101AB
:1000B000E00F0F312B0C0E084EF1370710030E091D
:1000C00000E10F000E1403110731C148080F0C3175
:1000D000360F118029800000000000003E5B4F5B5E
:1000E0003E3E6B4F6B3E1C3E7C3E1C183C7E3C18DB
:1000F0001C577D571C1C5E7F5E1C00183C1800FFBF
:10010000E7C3E7FF0018241800FFE7DBE7FF3048EC
:100110003A060E2629792926407F050507407F05E6
:10012000253F5A3CE73C5A7F3E1C1C08081C1C3EDD
:100130007F14227F22145F5F005F5F06097F017FCB
:10014000006689956A606060606094A2FFA294086E
:10015000047E040810207E201008082A1C08081CB1
:100160002A08081E101010100C1E0C1E0C30383EF1
:100170003830060E3E0E06000000000000005F0052
:10018000000007000700147F147F14242A7F2A121E
:100190002313086462364956205000080703000004
:1001A0001C2241000041221C002A1C7F1C2A080836
:1001B0003E08080080703000080808080800006049
:1001C000600020100804023E5149453E00427F4035
:1001D0000072494949462141494D331814127F1094
:1001E00027454545393C4A494931412111090736DE
:1001F00049494936464949291E000014000000407B
:100200003400000008142241141414141400412274
:10021000140802015909063E415D594E7C12111223
:100220007C7F494949363E414141227F4141413E1F
:100230007F494949417F090909013E414151737F85
:100240000808087F00417F41002040413F017F08AE
:100250001422417F404040407F021C027F7F0408FF
:10026000107F3E4141413E7F090909063E4151212F
:100270005E7F09192946264949493203017F010356
:100280003F4040403F1F2040201F3F4038403F63D9
:100290001408146303047804036159494D43007F33
:1002A0004141410204081020004141417F04020104
:1002B00002044040404040000307080020545478A6
:1002C000407F284444383844444428384444287FF4
:1002D000385454541800087E090218A4A49C787F4E
:1002E0000804047800447D40002040403D007F1019
:1002F00028440000417F40007C047804787C080496
:1003000004783844444438FC182424181824241849
:10031000FC7C08040408485454542404043F442436
:100320003C4040207C1C2040201C3C4030403C4451
:10033000281028444C9090907C4464544C4400080D
:10034000364100000077000000413608000201023B
:1003500004023C2623263C1EA1A161123A40402003
:100360007A3854545559215555794122545478427C
:10037000215554784020545579400C1E5272123940
:1003800055555559395454545939555454580000F9
:10039000457C410002457D420001457C407D1211B3
:1003A000127DF0282528F07C545545002054547CBB
:1003B000547C0A097F4932494949323A4444443A13
:1003C000324A4848303A4141217A3A424020780046
:1003D0009DA0A07D3D4242423D3D4040403D3C24E9
:1003E000FF2424487E4943662B2FFC2F2BFF09292D
:1003F000F620C0887E090320545479410000447DD2
:10040000413048484A32384040227A007A0A0A721B
:100410007D0D19317D2629292F28262929292630C5
:10042000484D4020380808080808080808382F10E8
:10043000C8ACBA2F102834FA00007B000008142A38
:10044000142222142A14085500550055AA55AA55FD
:10045000AAFF55FF55FF000000FF00101010FF001D
:10046000141414FF001010FF00FF1010F010F0140F
:100470001414FC001414F700FF0000FF00FF141414
:10048000F404FC141417101F10101F101F14141460
:100490001F00101010F0000000001F101010101F9F
:1004A00010101010F010000000FF101010101010AD
:1004B000101010FF10000000FF140000FF00FF00EC
:1004C000001F10170000FC04F41414171017141464
:1004D000F404F40000FF00F714141414141414F7B7
:1004E00000F7141414171410101F101F141414F410
:1004F000141010F010F000001F101F0000001F1457
:10050000000000FC140000F010F01010FF10FF14A9
:100510001414FF141010101F00000000F010FFFF53
:10052000FFFFFFF0F0F0F0F0FFFFFF000000000021
:10053000FFFF0F0F0F0F0F3844443844FC4A4A4A5C
:10054000347E02020606027E027E02635549416342
:100550003844443C04407E201E2006027E0202995C
:10056000A5E7A5991C2A492A1C4C7201724C304AF5
:100570004D4D303048784830BC625A463D3E49497E
:1005800049007E0101017E2A2A2A2A2A44445F4426
:100590004440514A444040444A51400000FF010356
:1005A000E080FF000008086B6B0836123624360620
:1005B0000F090F060000181800000010100030404E
:1005C000FF0101001F01011E00191D1712003C3C14
:1005D0003C3C000000000000000000230026002931
:1005E00000000000080002010000030407000000F2
:1005F00000000000000102040810204080010204F5
:100600000810200102040810200000000025002826
:10061000002B000404040404040404020202020285
:100620000203030303030300000000240027002A41
:100630000000AC2011241FBECFEFD8E0DEBFCDBF3D
:1006400013E0A0E0B1E0EAEDF8E402C005900D92FD
:10065000A031B107D9F725E0A0E1B3E001C01D92B8
:10066000A134B207E1F713E0CAE1D3E004C0219757
:10067000FE010E945922C931D107C9F70E949F1576
:100680000C946B240C9400000895FC016370658B3E
:100690008481958126813781613039F0633029F07A
:1006A00091878087338722870895318720879387B2
:1006B000828708952F923F924F925F926F927F921E
:1006C0008F929F92AF92BF92CF92DF92EF92FF9262
:1006D0000F931F93CF93DF93CDB7DEB76C970FB611
:1006E000F894DEBF0FBECDBF9C8F8B8F5B011A01CC
:1006F0001F830E833701C982DC0158964D915C91AE
:1007000059974115510509F0E5C018968D919C91B6
:100710001997681779070CF0CAC11A968D919C91A8
:100720001B97281639060CF0C2C18C2C912CFB01AA
:1007300036E0C39EE00DF11D1124FB87EA871E16EB
:100740001F060CF0B4C1C40133E0880F991F3A951D
:10075000E1F79D878C87820D931D181619060CF002
:10076000A6C157968C91811103C0203B08F02F5FE2
:10077000AB8DBC8DED91FC9111970284F385E02D3A
:10078000CD012A8F09952A8DB5E02B9F9001112468
:10079000F5013596FF87EE87BB82AA822501A90164
:1007A0004A195B09598B488BC10108969B8B8A8B30
:1007B000E889F989E40DF51DE952FF4F9491988776
:1007C00061013D822C82A885A0FF13C0AB8DBC8D3A
:1007D000ED91FC91B981B13031F40484F585E02DBF
:1007E0002E813F8116C00684F785E02DEE80FF80C4
:1007F0001AC0EE81FF816E167F06F1F0AB8DBC8DC5
:10080000ED91FC91B981B13051F40484F585E02D6E
:100810009301A601B2018B8D9C8D09950DC00684B4
:10082000F785E02D7301840194014C815D816A811B
:100830007B818B8D9C8D0995E885E695E887FFEF98
:10084000CF1ADF0A2C813D81280D391D3D832C8371
:100850004A895B89C416D50609F0B5CF5FEF451A02
:10086000550A8A819B81880D991D9B838A83AE8559
:10087000BF854A165B0609F09BCFEE81FF816E169D
:100880007F0609F4F2C0EB8DFC8DA081B181F98166
:10089000F13079F4B5016B5F7F4F5096ED91FC918B
:1008A0005197830128E030E0A1018B8D9C8D099543
:1008B000DCC06A857B85681979091E96ED91FC91EB
:1008C0001F9773010C851D859401A1018B8D9C8D53
:1008D0000995CBC0FA013496949132976591749141
:1008E000291BCB01B7E02B9F800D911D1124FA012C
:1008F000259134913B8B2A8BFC01459154915B836C
:100900004A83FC013296C490319654915E873296A8
:1009100014913196D4908981823058F0612E012E45
:10092000000C7708AD2D0D2C000CBB0BB987A887E8
:1009300004C019861886612C712CAB8DBC8DED918D
:10094000FC9111970284F385E02DCD010995B981C1
:100950008B2E912C689CC001699C900D789C900D09
:100960001124FC01EA0DFB1DFD87EC871C82712C14
:10097000612CE12F110FFF0B95012E0F3F1F3B87BD
:100980002A87AC0CB11CA5014E0F5F1F5F8B4E8BED
:10099000C1018D0D911DD7FC9A95998F888F4E8539
:1009A000641608F062C0862D90E048855985480F8E
:1009B000591F489D9001499D300D589D300D1124BF
:1009C000D901A20DB31DB98BA88BAA84BB844C841A
:1009D0005D84DC80BA85DB1AE88DF98DE80FF91F9C
:1009E000FD8BEC8B8D2D8A0D2E893F89A216B306C7
:1009F000B9F1877061F48A819B810196EA89FB894C
:100A0000AA81BB81EA0FFB1F74909B838A8377FEC8
:100A100020C0AB8DBC8DED91FC91B981B13061F4FA
:100A20000484F585E02D2E813F814C895D89B501D7
:100A30008B8D9C8D09950DC00684F785E02DEE8089
:100A4000FF808401940148895989B2018B8D9C8D66
:100A50000995770CEFEFAE1ABE0A480C591CC2CFAD
:100A60003C813C0D3C8363949ACFAB8DBC8DED9162
:100A7000FC9111970688F789E02DCD016C960FB691
:100A8000F894DEBF0FBECDBFDF91CF911F910F91C4
:100A9000FF90EF90DF90CF90BF90AF909F908F909E
:100AA0007F906F905F904F903F902F9009946C963D
:100AB0000FB6F894DEBF0FBECDBFDF91CF911F916F
:100AC0000F91FF90EF90DF90CF90BF90AF909F90ED
:100AD0008F907F906F905F904F903F902F900895F0
:100AE000AF92BF92CF92EF92FF920F931F93CF934B
:100AF000DF93EC01262F888D998D009709F040C077
:100B00006A3059F41D861C862C898E859F8538E0B5
:100B1000239F800D911D112441C06D3009F4AAC09E
:100B20008E898823C1F03C898C859D8546E0349F61
:100B3000800D911D112448855985481759075CF48B
:100B40001D861C868E859F8548E0349F800D911DF3
:100B500011249F878E87EA88FB88088919894E852A
:100B60005F856C857D85CC88CE010E945A032C89D7
:100B70008C859D8536E0239F800D911D112442C0F8
:100B80006A3079F41D861C862C89FC013696E49126
:100B90008E859F852E9F800D911D11249F878E87A6
:100BA00069C06D3009F466C0FC0134963491631756
:100BB00008F460C03196E491E61708F45BC0FC01CC
:100BC0003296A590B490462F50E0431B510937E070
:100BD000349FB001359F700D1124A60EB71EF5018C
:100BE000329634913196E491332311F0E1110DC026
:100BF000F5013496E4912C898C859D85E29F800DCA
:100C0000911D11249D878C8735C0F501359644913F
:100C10005E89552311F16C89E32FF0E0E40FF11D9B
:100C200047FDFA956E9FD0016F9FB00D11244C8542
:100C30005D854A0F5B1FE885F985E417F5076CF4BD
:100C40001D861C86FC013696E4918E859F856E9FDD
:100C5000800D911D11249F878E87EA88FB88088963
:100C600019894E855F856C857D85CC88CE010E9473
:100C70005A03BECF81E090E0DF91CF911F910F9199
:100C8000FF90EF90CF90BF90AF9008956F927F92BA
:100C90008F929F92AF92BF92CF92DF92EF92FF928C
:100CA0000F931F93CF93DF93EC014B015A0169011E
:100CB0003801E881F9810284F385E02D0995E88106
:100CC000F9810288F389E02D87019601A501B4011D
:100CD000CE010995E881F981A501460D571D4150C6
:100CE00051090288F389E02D9601B401CE010995DE
:100CF000E881F9810088F189E02D9301A501B40113
:100D0000CE010995E881F981C80CD91CB601615062
:100D100071090088F189E02D9301A501CE010995A3
:100D2000E881F9810688F789E02DCE01DF91CF9126
:100D30001F910F91FF90EF90DF90CF90BF90AF90F9
:100D40009F908F907F906F900994CF92DF92EF9257
:100D5000FF920F931F93CF93DF9300D000D000D06A
:100D6000CDB7DEB76C01DC01ED91FC916217730722
:100D700089F4041715072CF4942F852FA801092F47
:100D8000182F041B150B98012F5F3F4F048CF58D16
:100D9000E02D12C04017510709F5261737072CF42C
:100DA000962F872FB901292F382F261B370B2F5F3E
:100DB0003F4F068CF78DE02D8701C60109952696D9
:100DC0000FB6F894DEBF0FBECDBFDF91CF911F915C
:100DD0000F91FF90EF90DF90CF9008950284F385FC
:100DE000E02D2D833E834B835C8369837A83099551
:100DF000D601ED91FC910488F589E02D2D813E818D
:100E00004B815C8169817A81C6010995D601ED919A
:100E1000FC910688F789E02DC60126960FB6F89456
:100E2000DEBF0FBECDBFDF91CF911F910F91FF901D
:100E3000EF90DF90CF900994EF92FF920F931F9362
:100E4000DC01ED91FC9111971A960D911C911B9765
:100E500018962D913C91199700A0F1A1E02D7B01EE
:100E600040E050E060E070E009951F910F91FF9025
:100E7000EF9008954F925F926F927F928F929F9220
:100E8000AF92BF92CF92DF92EF92FF920F931F9398
:100E9000CF93DF9300D0CDB7DEB76C015A01390193
:100EA0004801DC01ED91FC910284F385E02D69831A
:100EB0007A8309956981462E7A81572E640C751CB8
:100EC000D601ED91FC91461457046CF40088F18929
:100ED000E02D87019401A501B201C6010995BFEF7C
:100EE0004B1A5B0AEDCF0688F789E02DC6010F90FB
:100EF0000F90DF91CF911F910F91FF90EF90DF90B6
:100F0000CF90BF90AF909F908F907F906F905F90A9
:100F10004F900994AF92BF92CF92DF92EF92FF92DF
:100F20000F931F93CF93DF9300D000D0CDB7DEB7E0
:100F30005C016901DC01ED91FC910284F385E02DF7
:100F40004B835C8369837A830995D501ED91FC918C
:100F500069817A819B012C0D3D1D21503109048846
:100F6000F589E02D78014B815C818A01C5010995E5
:100F7000D501ED91FC910688F789E02DC5010F9010
:100F80000F900F900F90DF91CF911F910F91FF90D5
:100F9000EF90DF90CF90BF90AF900994AF92BF9247
:100FA000CF92DF92EF92FF920F931F93CF93DF9335
:100FB00000D000D0CDB7DEB75C016901DC01ED9156
:100FC000FC910284F385E02D4B835C8369837A83F3
:100FD0000995D501ED91FC914B815C81C40ED51E24
:100FE000B1E0CB1AD1080488F589E02D780186019B
:100FF00069817A819B01C5010995D501ED91FC912B
:101000000688F789E02DC5010F900F900F900F9083
:10101000DF91CF911F910F91FF90EF90DF90CF90D4
:10102000BF90AF9009940895EF92FF920F931F9392
:10103000DC01ED91FC9100A0F1A1E02D09951F913B
:101040000F91FF90EF9008950F931F93DC01ED91A6
:10105000FC91068CF78DE02D09951F910F91089555
:101060000F931F93DC01ED91FC91048CF58DE02D25
:1010700009951F910F910895DC01ED91FC91008479
:10108000F185E02D099408952F923F924F925F923F
:101090006F927F928F929F92AF92BF92CF92DF9288
:1010A000EF92FF920F931F93CF93DF9300D01F9285
:1010B000CDB7DEB74C017B836A836A015901170102
:1010C0009801241B350B37FF03C031952195310959
:1010D000C5014A815B81841B950B97FF03C09195E5
:1010E0008195910951E059838217930714F0198271
:1010F0000BC09A2D8B2D5801092F182F9A818B81A7
:10110000DB82CA82C92ED82E8A819B81A816B90695
:101110005CF49C2D8D2D6801092F182F9A818B81ED
:10112000BB82AA82A92EB82E2501AA81BB814A1AA8
:101130005B0A38016C187D0877FE03C071946194D6
:101140007108720157FE03C0BFEFEB1AFB0AF5945A
:10115000E794C016D1061CF00FEF1FEF1FC001E08F
:1011600010E01CC0D401ED91FC91B9810484F58597
:10117000E02D9101BB23C1F04A815B81B601C4011E
:101180000995E618F708F7FE04C0C00ED11EE40C5E
:10119000F51CEA81FB813196FB83EA834A815B81FE
:1011A000A416B506FCF604C0A6016A817B81E7CFD0
:1011B0000F900F900F90DF91CF911F910F91FF90A3
:1011C000EF90DF90CF90BF90AF909F908F907F90E7
:1011D0006F905F904F903F902F90089585ED809392
:1011E000BC008091BC0084FDFCCF1092D90308950F
:1011F00040915D03262F30E0240F311D213231054F
:10120000DCF42091D9032430C9F4FC0180E090E0A3
:10121000861758F430915D032191DC01A55CBC4F29
:10122000A30FB11D2C930196F3CF80915D03680F3E
:1012300060935D0380E0089581E0089582E0089561
:101240000895E091920380919103E81730F4F0E063
:10125000ED56FC4F808190E008958FEF9FEF089549
:101260009091920380919103981750F4E92FF0E048
:10127000ED56FC4F208130E09F5F9093920302C0B7
:101280002FEF3FEFC90108958091910390E02091E5
:101290009203821B91090895CF92DF92EF92FF9201
:1012A0000F931F93CF93DF937C01262F972F8A01F3
:1012B0008091DA03882391F0C62FD72F6E01C40ED8
:1012C000D51ECC15DD0571F06991D701ED91FC912A
:1012D0000190F081E02DC7010995F3CF642F822F93
:1012E0000E94F808C801DF91CF911F910F91FF90E4
:1012F000EF90DF90CF900895CF93DF931F92CDB7FB
:10130000DEB769832091DA032223D1F02091FC0318
:10131000203240F021E030E0FC013383228380E082
:1013200090E015C08091DB03E82FF0E0E452FC4F21
:10133000998190838F5F8093DB038093FC0305C0CA
:1013400061E0CE0101960E94F80881E090E00F90E4
:10135000DF91CF910895089580E090E008958F92F5
:101360009F92AF92BF92CF92DF92EF92FF920F9334
:101370001F93CF93DF93EC01490181E0881A910814
:10138000860E971EC401A0E0B0E04B01A12CB12C49
:10139000540199248824882A992AAA2ABB2A6801F8
:1013A00081E0C81AD108C40ED51EC601A0E0B0E085
:1013B0006A01E12CF12C7601DD24CC24C82AD92A3B
:1013C000EA2AFB2A6AE2CE010E945A152BA16B2D54
:1013D00077278827992727FF18C06EBD0DB407FE11
:1013E000FDCFC501AA27BB278EBD0DB407FEFDCFDB
:1013F000BB27AB2D9A2D892D8EBD0DB407FEFDCFD9
:101400008EBC0DB407FEFDCF14C0CE010E949D140A
:10141000B50188279927CE010E949D1499278B2D0D
:101420007A2D692DCE010E949D14682DCE010E9457
:101430009D146BE2CE010E945A152BA16F2D7727C8
:101440008827992727FF18C06EBD0DB407FEFDCF72
:10145000C701AA27BB278EBD0DB407FEFDCFBB2752
:10146000AF2D9E2D8D2D8EBD0DB407FEFDCFCEBCB4
:101470000DB407FEFDCF14C0CE010E949D14B7012C
:1014800088279927CE010E949D1499278F2D7E2DA4
:101490006D2DCE010E949D146C2DCE010E949D14D5
:1014A0006CE2CE01DF91CF911F910F91FF90EF90F1
:1014B000DF90CF90BF90AF909F908F900C945A1573
:1014C0000F931F93CF93DF931F92CDB7DEB78C019D
:1014D000DC01ED91FC910284F385E02D698309958F
:1014E0006981611102C060E201C061E2C8010E942D
:1014F0005A15D801ED91FC910688F789E02DC801B5
:101500000F90DF91CF911F910F9109941F93CF936B
:10151000DF93EC0163706D8B6230C1F0633001F1D9
:10152000613051F080EF90E09987888780E491E006
:101530009B878A8718E41DC080E491E0998788879B
:1015400080EF90E09B878A8718E213C080EF90E0DD
:101550009987888780E491E09B878A8718E809C08B
:1015600080E491E09987888780EF90E09B878A8765
:1015700018EEE881F9810284F385E02DCE0109950A
:1015800066E3CE010E945A15612FCE010E949D1480
:10159000E881F9810688F789E02DCE01DF91CF91AE
:1015A0001F9109941F93CF93DF93262FFC0133A142
:1015B00037FF09C07EBD0DB407FEFDCF2EBD0DB4B3
:1015C00007FEFDCF0CC0672F122FEC010E949D1467
:1015D000612FCE01DF91CF911F910C949D14DF916B
:1015E000CF911F910895CF93CFB7F8948091820344
:1015F000811127C0EDE1F6E08491EFEFF5E09491E1
:10160000E82FF0E0EE0FFF1FE95DF94FA591B491CF
:10161000EC91E92321F461E08AE00E94A11361E0EA
:101620008AE00E94D1138CB580618CBD8CB580643A
:101630008CBD61E08DE00E94D11361E08BE00E94DF
:10164000D113809182038F5F80938203CFBFCF91AC
:101650000895BF92CF92DF92EF92FF920F931F9364
:10166000CF93DF93EC01411551056105710521F41C
:1016700040E052E16AE770E04C8F5D8F6E8F7F8FA4
:1016800088A187FD07C061E00E94D11361E088A1B5
:101690000E94A11361E089A10E94D11360E089A199
:1016A0000E94A1138BA187FD16C061E08CA10E944E
:1016B000D11360E08CA10E94A11361E08BA10E9474
:1016C000D11361E08BA10E94A1138DA187FD03C0FE
:1016D00060E00E94D1138BA187FD0E94F30A8AA1CA
:1016E00087FD21C061E00E94D11361E08AA10E94C0
:1016F000A11364E670E080E090E00E940D1460E0C9
:101700008AA10E94A11364E670E080E090E00E944C
:101710000D1461E08AA10E94A11368EC70E080E0E2
:1017200090E00E940D14E881F9810284F385E02D98
:10173000CE01099508E610E07801EFEFEE1AFE0AF7
:10174000F8016491662321F1CE010E945A150E5FC3
:101750001F4FF701E490FE2DFF77BF2E6801FF2E8B
:10176000FA948FEFF81649F0F6016491CE010E94C9
:101770009D14FFEFCF1ADF0AF3CF0B0D111DE7FE0B
:10178000DBCF68E770E080E090E00E940D14D4CFDA
:10179000E881F9810688F789E02DCE01099580EF6F
:1017A00090E09987888780E491E09B878A87DF9122
:1017B000CF911F910F91FF90EF90DF90CF90BF904E
:1017C00008951F920F920FB60F9211242F933F93FB
:1017D0004F935F936F937F938F939F93AF93BF9339
:1017E000EF93FF938091B900887F803609F49CC005
:1017F00068F5883209F45BC090F4803109F454C074
:1018000038F4882309F4F6C0883009F44DC0F6C0D6
:10181000883109F44CC0803209F45DC0EFC08034D7
:1018200009F468C048F4803309F455C0883309F0DE
:10183000E5C08093D703D8C0803509F44FC0883500
:1018400009F45DC0883409F0D9C0D6C0883909F4DC
:10185000C7C0A8F4883709F467C038F4883609F49B
:1018600063C0803709F460C0C9C0883809F4B8C0C3
:10187000803909F45FC0803809F0C0C05BC0803B8C
:1018800009F486C038F4803A09F466C0883A09F44D
:101890007FC0B4C0803C09F4A7C0883C09F4A4C050
:1018A000883B09F48AC0AAC08091B40310C090910B
:1018B000D6038091D503981770F5E091D60381E0A7
:1018C0008E0F8093D603F0E0EB54FC4F8081809321
:1018D000BB0085EC86C08093D7038EC0E091D60311
:1018E00081E08E0F8093D6038091BB00F0E0EB5433
:1018F000FC4F80839091D6038091D5036EC0E09118
:10190000D60381E08E0F8093D6038091BB00F0E078
:10191000EB54FC4F80838091D80381116DC081E02E
:101920008093B30384EA61C083E08093D90310926B
:101930008103CFCF80918103803208F051C0E091C4
:10194000810381E08E0F809381038091BB00F0E0E2
:10195000EF59FC4F8083BDCF85EC8093BC00109283
:10196000D90380918103803230F4E0918103F0E06B
:10197000EF59FC4F10826091810370E0E0915F03AA
:10198000F091600381E693E009951092810336C0DF
:1019900084E08093D90310925E0310925D03E0917E
:1019A0005B03F0915C03099580915D03811105C093
:1019B00081E080935D0310923B03E0915E0381E040
:1019C0008E0F80935E03F0E0E55CFC4F8081809396
:1019D000BB0090915E0380915D03981708F479CF66
:1019E00085E88093BC000AC085EC8093BC0010920F
:1019F000D90304C01092D7030E94EE08FF91EF9123
:101A0000BF91AF919F918F917F916F915F914F9116
:101A10003F912F910F900FBE0F901F90189510922D
:101A2000D90381E08093D8031092B30361E082E18F
:101A30000E94A11361E083E10E94A113E9EBF0E0B1
:101A400080818E7F808380818D7F808388E48093F6
:101A5000B80085E48093BC00089508958CBD9DBDB9
:101A600008959093FD048093FC047093FF046093A9
:101A7000FE041092030510920205109201051092C7
:101A80000005411101C041E040930405F901448182
:101A900055816081718180EF94E00E94F60D6DEBBD
:101AA00072E080EF94E00C9467102091FC03909119
:101AB0003205213208F04AC08091D9038111FCCF50
:101AC00032E03093D90331E03093D8033FEF3093C5
:101AD000D7031092D6032093D503ACEDB3E045EBCA
:101AE00053E0FA013E2F341B321718F43D91319325
:101AF000F9CF1092B4032091B403990F922B9093D5
:101B0000B4039091B303913061F41092B3039091B8
:101B1000B4039093BB009091BC0093FDF8CF95EC7B
:101B200001C095EE9093BC009091D9039230E1F3FF
:101B30009091D7039F3F79F08091D703803241F095
:101B40008091D703803331F084E005C081E003C089
:101B500082E001C083E01092DB031092FC0310923C
:101B6000DA0308959091D9039111FCCF91E09093FD
:101B7000D9039093D8032FEF2093D7031092D60365
:101B8000260F2093D5039093B4039091B403880F4C
:101B9000892B8093B4038091B303813061F4109258
:101BA000B3038091B4038093BB008091BC0083FD9C
:101BB000F8CF85EC01C085EE8093BC008091D903FD
:101BC0008130E1F38091D603861710F46091D6033B
:101BD000A5EBB3E023E933E0F9018E2F821B8617D2
:101BE00018F48D918193F9CF862F0895CF92DF92CB
:101BF000EF92FF920F931F93CF93DF936C017A01C3
:101C00008B01C0E0D0E0CE15DF0589F0D8016D91E1
:101C10008D01D601ED91FC910190F081E02DC6017E
:101C20000995892B11F47E0102C02196ECCFC701E2
:101C3000DF91CF911F910F91FF90EF90DF90CF90A8
:101C40000895EF92FF920F931F93CF93DF93F0903D
:101C50002E059FEFF91207C08EBD00000DB407FEE0
:101C6000FDCF8EB51DC0E0902C0507E010E0C82F19
:101C7000D0E0BE01002E02C0759567950A94E2F788
:101C8000617077278E2D0E94A11361E08F2D0E9435
:101C9000A11360E08F2D0E94A1130150110948F794
:101CA000DF91CF911F910F91FF90EF900895CF9307
:101CB000DF93D82FC62F80912B058F3FC9F48091D9
:101CC0002F0591E09093DA03809332051092DB03A5
:101CD0001092FC036D2F82EE94E00E947C096C2F21
:101CE00082EE94E00E947C09DF91CF910C94550D17
:101CF00080912E058F3F31F48091EE049091EF0496
:101D00000E942E0D60E080912B050E94A1138D2F63
:101D10000E94210E8C2F0E94210E61E080912B05E4
:101D20000E94A11380912E058F3F21F4DF91CF9166
:101D30000C942D0DDF91CF9108958F929F92AF92C9
:101D4000BF92CF92DF92EF92FF920F931F93CF93A8
:101D5000DF93C82F80912B058F3F59F580912F0578
:101D6000D1E0D093DA03809332051092DB03109216
:101D7000FC036C2F82EE94E00E947C090E94550DBA
:101D800080912F05D093DA03809332051092DB0304
:101D90001092FC0361E00E94B20D109292038093B6
:101DA000910382EE94E00E943009B82E0E94550DF6
:101DB0006BC080912E058F3F31F48091EE0490919D
:101DC000EF040E942E0D60E080912B050E94A1136C
:101DD0008C2F80680E94210E80E00E94210EA0902E
:101DE0002E058FEFA81207C01EBC00000DB407FE21
:101DF000FDCFBEB43EC0C0912D0507E010E0B12C70
:101E0000D0E0FE01EF51FA4F7F01CE018B509A4F87
:101E10006C01CD5ED94F61E08A2D0E94A113F701BC
:101E20008491F6018490FE019490992099F081119B
:101E30000E947813292D30E0220F331F29523A4F88
:101E4000F901A591B4918C91882231E009F430E038
:101E5000832F02C080E090E0002E01C0880F0A941A
:101E6000EAF7B82A60E08A2D0E94A11301501109F7
:101E700090F661E080912B050E94A11380912E05C0
:101E80008F3F11F40E942D0D8B2DDF91CF911F916B
:101E90000F91FF90EF90DF90CF90BF90AF909F9009
:101EA0008F900895CF93DF9380E00E949D0EC82FFE
:101EB000D0E0DC2FCC2781E00E949D0E9E01282BD4
:101EC000C901DF91CF910895CF93C82F81E080930E
:101ED000DA0382E5809332051092DB031092FC0353
:101EE00082EE94E00E947C096C2F82EE94E00E94C6
:101EF0007C090E94550D6AE070E080E090E0CF918F
:101F00000C940D14EF92FF921F93CF93DF93CDB7F4
:101F1000DEB72C970FB6F894DEBF0FBECDBF66E0DC
:101F200082E50E94B20D182F1092920380939103C4
:101F3000CE0101967C0180919203181749F082EE40
:101F400094E00E943009F701819391937F01F3CFD0
:101F500089819A8190938403809383038B819C81F0
:101F600090938603809385038B859C859C01359592
:101F7000279535952795A901437055272D813E81D9
:101F8000220F331F220F331F242B352B309388034E
:101F9000209387039C0174E0359527957A95E1F7A6
:101FA000A901437055272F813885220F331F220F37
:101FB000331F242B352B30938A03209389039C01F4
:101FC000F6E035952795FA95E1F7A9014370552775
:101FD00029853A85220F331F220F331F242B352BDF
:101FE00030938C0320938B039C0121703327F1E005
:101FF0002F2730938E0320938D0321E030E081FF63
:1020000002C020E030E03093900320938F0360E023
:1020100080E02C960FB6F894DEBF0FBECDBFDF91E7
:10202000CF911F91FF90EF900C94640FFC01808181
:1020300091810C94F422EF92FF920F931F93CF9310
:10204000DF93EC01198218821B821A821D821C8286
:1020500061157105A9F17B01FB0101900020E9F7F1
:1020600031978F01061B170BB8016F5F7F4F80E020
:1020700090E00E948C23009759F0998388831B83FA
:102080000A832C813D81232B81F4FC0110820DC039
:1020900088819981009711F00E94F4221982188298
:1020A0001D821C821B821A820BC01D830C83B70108
:1020B000DF91CF911F910F91FF90EF900C946424CA
:1020C000DF91CF911F910F91FF90EF9008956115CF
:1020D000710579F0FB0101900020E9F73197AF011C
:1020E000461B570BDC01ED91FC910280F381E02D42
:1020F000099480E090E00895FC01538D448D252FD4
:1021000030E0842F90E0821B930B541710F0CF9691
:10211000089501970895FC01918D828D981761F0C3
:10212000828DDF01A80FB11D5D968C91928D9F5F0E
:102130009F73928F90E008958FEF9FEF0895FC01B9
:10214000918D828D981731F0828DE80FF11D858D6C
:1021500090E008958FEF9FEF0895FC01918D228DFF
:10216000892F90E0805C9F4F821B91098F73992784
:1021700008958DEF93E00E94AD1021E0892B09F4C2
:1021800020E0822F0895FC01848DDF01A80FB11D8E
:10219000A35ABF4F2C91848D90E001968F7399279D
:1021A000848FA689B7892C93A089B1898C9180648A
:1021B0008C93938D848D981306C00288F389E02D4B
:1021C00080818F7D80830895EF92FF920F931F93FC
:1021D000CF93DF93EC0181E0888F9B8D8C8D9813DA
:1021E00005C0E889F989808185FD24C0F62E0B8D14
:1021F00010E00F5F1F4F0F731127E02E8C8DE81238
:102200000CC00FB607FCFACFE889F989808185FFF9
:10221000F5CFCE010E94C310F1CF8B8DFE01E80FE8
:10222000F11DE35AFF4FF0820B8FEA89FB89808111
:10223000806207C0EE89FF896083E889F98980811F
:102240008064808381E090E0DF91CF911F910F91B6
:10225000FF90EF900895CF93DF93EC01888D882352
:10226000C9F0EA89FB89808185FD05C0A889B98903
:102270008C9186FD0FC00FB607FCF5CF808185FFDE
:10228000F2CFA889B9898C9185FFEDCFCE010E944C
:10229000C310E7CFDF91CF91089580E090E0892BC4
:1022A00029F00E94B91081110C94000008953FB7E5
:1022B000F8948091390590913A05A0913B05B09131
:1022C0003C0526B5A89B05C02F3F19F00196A11D1E
:1022D000B11D3FBFBA2FA92F982F8827820F911DBC
:1022E000A11DB11DBC01CD0142E0660F771F881F03
:1022F000991F4A95D1F70895CF92DF92EF92FF92FE
:102300000F931F93CF93DF9300D000D000D0CDB7B1
:10231000DEB76C01DC01ED91FC910284F385E02DC8
:102320002D833E834B835C8369837A830995D60131
:10233000ED91FC910684F785E02D2D813E814B8146
:102340005C8169817A81C6010995D601ED91FC9184
:102350000688F789E02DC60126960FB6F894DEBFF1
:102360000FBECDBFDF91CF911F910F91FF90EF90E6
:10237000DF90CF900994EF92FF920F931F93CF932A
:10238000DF9300D000D000D0CDB7DEB77C01DC01F8
:10239000ED91FC910284F385E02D2D833E834B83E8
:1023A0005C8369837A830995D701ED91FC9102885A
:1023B000F389E02D2D813E814B815C8169817A8199
:1023C000C7010995D701ED91FC910688F789E02DA9
:1023D000C70126960FB6F894DEBF0FBECDBFDF91C2
:1023E000CF911F910F91FF90EF900994EF92FF9280
:1023F0000F931F93CF93DF9300D000D000D0CDB7C1
:10240000DEB77C01DC01ED91FC910284F385E02DC7
:102410002D833E834B835C8369837A830995D7013F
:10242000ED91FC910088F189E02D2D813E814B8159
:102430005C8169817A81C7010995D701ED91FC9191
:102440000688F789E02DC70126960FB6F894DEBFFF
:102450000FBECDBFDF91CF911F910F91FF90EF90F5
:102460000994EF92FF920F931F93DC01ED91FC9181
:102470000684F785E02D780101E010E009951F91B1
:102480000F91FF90EF900895EF92FF920F931F939B
:10249000DC01ED91FC910684F785E02D780189013E
:1024A00021E030E009951F910F91FF90EF90089582
:1024B0000E945624AF92BF92CF92DF92EF92FF928A
:1024C0000F931F93CF93DF93EC0177FD38C088857E
:1024D0009985681779079CF557FD31C08A859B85DA
:1024E0004817590764F569015A017B01E881F981B0
:1024F0000284F385E02DCE010995E881F98102A4DB
:10250000F3A5E02D01E010E021E030E0A501B701E6
:10251000CE010995B601CE010E94D20AE881F98167
:102520000688F789E02DCE01DF91CF911F910F91A1
:10253000FF90EF90DF90CF90BF90AF900994DF9124
:10254000CF911F910F91FF90EF90DF90CF90BF90B0
:10255000AF900895EF92FF920F931F93CF93DF9365
:10256000EC0177FD22C08885998568177907ECF41E
:1025700057FD1BC08A859B8548175907B4F479011C
:10258000E881F98102A4F3A5E02D01E010E021E04B
:1025900030E0CE010995B701CE01DF91CF911F91B7
:1025A0000F91FF90EF900C94D20ADF91CF911F9181
:1025B0000F91FF90EF900895FC0183A9A6A5B7A500
:1025C0009C91892B8C9383A187FD0C942D0D0895EC
:1025D0000F931F93CF93DF93EC018BA187FF1EC056
:1025E0000C8D1D8D2E8D3F8D90E040E052E16AE70D
:1025F00070E0041715072607370740F476956795AE
:10260000579547959F5F9630A1F797E081E098270F
:10261000892F806A869591700E942E0D9BA9EEA548
:10262000FFA58081282F30E0892F90E0809590953C
:10263000822393238083DF91CF911F910F9108957F
:102640001F920F920FB60F9211242F933F934F9327
:102650005F936F937F938F939F93AF93BF93EF930A
:10266000FF938DEF93E00E94C310FF91EF91BF9114
:10267000AF919F918F917F916F915F914F913F911A
:102680002F910F900FBE0F901F9018951F920F92D1
:102690000FB60F9211242F938F939F93EF93FF9375
:1026A000E0910D04F0910E048081E0911304F0910B
:1026B000140482FD12C09081809116048F5F8F7385
:1026C00020911704821751F0E0911604F0E0E350D6
:1026D000FC4F958F8093160401C08081FF91EF918C
:1026E0009F918F912F910F900FBE0F901F90189573
:1026F000833081F028F4813099F08230A1F0089580
:102700008730A9F08830B9F08430D1F4809180000E
:102710008F7D03C0809180008F7780938000089523
:1027200084B58F7702C084B58F7D84BD0895809174
:10273000B0008F7703C08091B0008F7D8093B00090
:1027400008951F93CF93DF93282F30E0F901EF51C5
:10275000FA4F8491F901EB50FA4FD491F901ED5EF3
:10276000F94FC491CC23C9F0162F81110E94781320
:10277000EC2FF0E0EE0FFF1FE75FF94FA591B4914A
:102780008FB7F894111105C09C91ED2FE095E923C6
:1027900002C0EC91ED2BEC938FBFDF91CF911F9195
:1027A0000895CF93DF9390E0FC01EB50FA4F249112
:1027B000FC01ED5EF94F8491882361F190E0880F70
:1027C000991FFC01E95DF94FC591D491FC01E75FC8
:1027D000F94FA591B491611109C09FB7F894888110
:1027E000209582238883EC912E230BC0623061F404
:1027F0009FB7F8943881822F809583238883EC914A
:102800002E2B2C939FBF06C08FB7F894E8812E2BF8
:1028100028838FBFDF91CF9108958F929F92AF92BF
:10282000BF92CF92DF92EF92FF926B017C010E94E8
:1028300057114B015C01C114D104E104F104F1F022
:102840000E945711DC01CB0188199909AA09BB091B
:10285000883E9340A105B10570F321E0C21AD1086A
:10286000E108F10888EE880E83E0981EA11CB11CD7
:10287000C114D104E104F10419F7DDCFFF90EF900A
:10288000DF90CF90BF90AF909F908F9008952FB71B
:10289000F8946091350570913605809137059091D7
:1028A00038052FBF08951F920F920FB60F92112473
:1028B0002F933F938F939F93AF93BF938091350551
:1028C00090913605A0913705B091380530913405C7
:1028D00023E0230F2D3720F40196A11DB11D05C063
:1028E00026E8230F0296A11DB11D20933405809385
:1028F000350590933605A0933705B0933805809140
:10290000390590913A05A0913B05B0913C0501969F
:10291000A11DB11D8093390590933A05A0933B0505
:10292000B0933C05BF91AF919F918F913F912F91B3
:102930000F900FBE0F901F901895CF93DF93FC015F
:1029400083A187FF05C06EBD0DB407FEFDCF2EC06D
:1029500028E030E040E8A6A1B7A1842F862321F02B
:1029600080A99C91892B0AC090A98C91C82FD0E096
:10297000892F90E0809590958C239D238C9392A92C
:10298000C2A5D3A58881A82FB0E0892F90E08095BB
:1029900090958A239B23888382A9A2A5B3A59C91A5
:1029A000892B8C93469521503109A9F6DF91CF915F
:1029B00008958F929F92AF92BF92CF92DF92EF9243
:1029C000FF920F931F93CF93DF93EC01690158019E
:1029D000470128853985621773070CF05EC08A8528
:1029E0009B85481759070CF058C07B01EC0CFD1C67
:1029F000D70111978A010A0D1B1DF8013197B7FD08
:102A00004CC0F7FD4AC077FF03C0670160E070E08B
:102A100057FF03C0580140E050E0A217B3071CF075
:102A20006901C61AD70AE817F9071CF05C01A41A55
:102A3000B50AE881F98102A4F3A5E02D850196018C
:102A4000CE0109959601D5010E944A2261157105B2
:102A50008105910511F12BA127FD0AC06B017C01B5
:102A60000EC00DB407FEFDCF8EBC0DB407FEFDCF2A
:102A7000615071098109910980F09EBCF2CF692DE6
:102A8000CE010E949D14682DCE010E949D1481E00C
:102A9000C81AD108E108F10891F7DF91CF911F9191
:102AA0000F91FF90EF90DF90CF90BF90AF909F90ED
:102AB0008F900895CF93DF93EC019CA9ECA5FDA521
:102AC0002081422F50E0292F30E02095309524239B
:102AD00035232083CE010E949D148CA9ECA5FDA571
:102AE0009081892B8083DF91CF9108950F931F935D
:102AF000CF93DF931F92CDB7DEB78C01DC01ED9150
:102B0000FC910284F385E02D698309956981662330
:102B100019F0F80165A903C0D801D6966C91C801D7
:102B20000E945A15D801ED91FC910688F789E02D95
:102B3000C8010F90DF91CF911F910F910994CF930E
:102B4000DF93CDB7DEB72B970FB6F894DEBF0FBE7D
:102B5000CDBF789484B5826084BD84B5816084BD26
:102B600085B5826085BD85B5816085BD80916E002B
:102B7000816080936E00109281008091810082605C
:102B80008093810080918100816080938100809199
:102B900080008160809380008091B1008460809388
:102BA000B1008091B00081608093B00080917A0084
:102BB000846080937A0080917A00826080937A00AA
:102BC00080917A00816080937A0080917A00806899
:102BD00080937A001092C1001092DE041092DF04FC
:102BE0001092E0041092E10410929C0410929D0453
:102BF00010929E0410929F040E9447144B015C01A6
:102C00002B013C0128EB420E2BE0521E611C711C73
:102C10000E944714681579058A059B0528F0461619
:102C2000570668067906A0F78DEF93E09093DD04D0
:102C30008093DC04E0910D04F0910E0482E0808327
:102C4000E0910904F0910A041082E0910B04F091E4
:102C50000C0480E1808310921504E0911104F0913E
:102C6000120486E08083E0910F04F09110048081CB
:102C700080618083E0910F04F0911004808188606E
:102C80008083E0910F04F09110048081806880833C
:102C9000E0910F04F091100480818F7D80830E9469
:102CA000471460939C0470939D0480939E049093BA
:102CB0009F046EEA72E08091DC049091DD040E9432
:102CC00067100E9447144B015C012B013C018AE014
:102CD000480E511C611C711C0E944714681579052F
:102CE0008A059B0528F04616570668067906A0F760
:102CF00081E08093B00440E050E0BA0180EF94E0BE
:102D00000E94290B61E080EF94E00E94860A3A9AC3
:102D10003B9A439A0E9447144B015C010E9447145E
:102D2000DC01CB0188199909AA09BB0984369105F0
:102D3000A105B10598F3109292031092910310929D
:102D4000DB031092FC030E940F0D60EF85E50E94EB
:102D5000640F6BEF80E00E94640F0E94820F9091DD
:102D60002B059F3F59F180912E0561E08F3FA1F423
:102D7000892F0E94D11361E080912B050E94A1133D
:102D80000E94F30A81E58093EE041092EF04109202
:102D90003105109230051FC00E94D11361E080916F
:102DA0002B050E94D11361E080912C050E94D11364
:102DB00060E080912D050E94D1130DC01092920306
:102DC000109291031092DB031092FC030E940F0DEE
:102DD00081E480932F050E94520F8131984061F465
:102DE00062E083E00E94570E6AE070E080E090E0CD
:102DF0000E940D1410E01CC080912B058F3F09F438
:102E00005FC080912E058F3F09F05AC085E5809301
:102E1000EE041092EF0484E090E0909331058093EB
:102E200030050E94520F8131984009F049C0D8CF37
:102E3000812F0E949D0E1F5F1134D1F760E084E066
:102E40000E94570E61E080E40E94570E61E08AE024
:102E50000E94570E60E680E20E94570E62E081E217
:102E60000E94570E64EA81E40E94570E66E086E5F0
:102E70000E94570E61E08AE40E94570E61E08BE4E5
:102E80000E94570E60E08BE40E94570E61E088E5D7
:102E90000E94570E6FEF8BE00E94570E65E089E0AD
:102EA0000E94570E10923A0310923903CE010196F8
:102EB0001C0194E0920D9B87F4E06F2E712C70C082
:102EC000FFCF87ED0E949D0EF60181936F01FB8578
:102ED000FC11F7CFA98020E1A29EA00111248A81D4
:102EE000A82EB12C74E0B594A7947A95E1F7A42AA2
:102EF000B52A8F70C82ED12CDC2CCC248B81C82A0B
:102F00009C808BE40E949D0E85FF04C06FEF8BE0D8
:102F10000E94570E892D90E00B978D3D934060F5F0
:102F2000C501A0E0B0E09C01AD012659310941097D
:102F30005109A091F804B091F9040E94FC2122E407
:102F40003EE040E050E00E94D2215901C601A0E0DD
:102F5000B0E09C01AD012258310941095109A0910D
:102F6000FA04B091FB040E94FC212EE13FE040E016
:102F700050E00E94D22169018090390390903A0379
:102F8000F2E08F16910409F414C18CF481149104B9
:102F9000E9F081E08816910409F48CC00E944D117B
:102FA0008BE40E949D0E85FDF9CF61018ACF94E0EC
:102FB0008916910411F40C9417200CF47CC1F5E0EF
:102FC0008F16910411F40C945120E8CF80913703AF
:102FD00090913803892B61F460E070E080EF94E019
:102FE0000E941C0781E090E09093380380933703A0
:102FF00060EEE62EFF24FA9408E210E02AE530E0C5
:1030000042E650E066E470E080EF94E00E947C11BC
:1030100060EC72E0C1010E941B10910141E050E0A0
:1030200063E770E085E590E00E94310DC1010E94E8
:10303000161025E530E042E650E065EA70E080EFEA
:1030400094E00E947C116CEC72E0C1010E941B10A4
:10305000910141E050E063E770E082EB90E00E9474
:10306000310DC1010E9416102CE8A21AB1088EE29F
:10307000A816B10408F092CFC601C297CD9710F000
:103080000C948B2067ED72E08DEF93E00E94671047
:103090006DEB72E08DEF93E00E94671081E090E0AD
:1030A00090933A03809339031092380310923703B8
:1030B0000C948B208091370390913803892B51F425
:1030C00060E070E080EF94E00E941C07909238036B
:1030D0008092370350EEE52EFF24FA940EE510E0BF
:1030E0002CE430E045E550E06CE070E080EF94E0E7
:1030F0000E947C1160E073E0C1010E941B109101ED
:1031000043E050E068E770E08EE190E00E94310D0E
:10311000C1010E94161000E210E02CE430E046EB02
:1031200050E06CE070E080EF94E00E947C1164E07D
:1031300073E0C1010E941B10910141E050E063EC7B
:1031400070E088E290E00E94310DC1010E941610EB
:10315000C5018A5591098F36910570F4C6010F9704
:103160008E9750F4109238031092370383E090E06A
:1031700090933A03809339039DE2A91AB108EAE1DA
:10318000AE16B10408F00ACFFFE0CF1AD1082EE244
:10319000C216D10408F002CF109238031092370300
:1031A000109236031092530210923A031092390390
:1031B000F5CE8091370390913803892B61F460E05C
:1031C00070E080EF94E00E941C0781E090E0909313
:1031D00038038093370340EEE42EFF24FA940EE583
:1031E00010E02CE430E045E550E06CE070E080EF6A
:1031F00094E00E947C1160E073E0C1010E941B100A
:10320000910143E050E068E770E08EE190E00E94B9
:10321000310DC1010E94161000E210E02CE430E0F4
:1032200046EB50E06CE070E080EF94E00E947C118F
:1032300064E073E0C1010E941B10910141E050E085
:1032400063EC70E088E290E00E94310DC1010E94C1
:103250001610C5018A5591098F36910570F4C60183
:103260000F978E9750F4109238031092370383E033
:1032700090E090933A03809339038DE2A81AB10845
:103280009AE1A916B10408F089CEEFE0CE1AD10870
:10329000FEE2CF16D10408F081CE109238031092CE
:1032A000370310923A03109239031092360381E0EB
:1032B0008093530273CE60E070E080EF94E00E9450
:1032C0001C07409151025091520260914F0270913F
:1032D000500290EEE92E97E0F92E04E110E024E18F
:1032E00030E080EF94E00E947C112FE1E22EF12C7F
:1032F00024E130E048EC50E06EE071E080EF94E0D3
:103300000E947C1185E091E098878F835C0134E115
:10331000832E912C1AE0412E512CC12CD12CF50179
:10332000EC0DFD1DFA87E98780819181019769F491
:10333000E12C88EFF82E04E110E024E130E0A40154
:10334000B20180EF94E00E947C11E985FA858081CA
:103350009181029771F4EE24EA9407E0F02E04E1E3
:1033600010E024E130E0A401B20180EF94E00E947B
:103370007C11F2E0CF0ED11C24E1420E511C8EE1F3
:10338000C816D10461F69EE1A90EB11CE4E18E0ECF
:10339000911CFFE4AF16F2E0BF0609F0BBCF1FE0BF
:1033A000D12ECC24C39480910001882309F44CC40D
:1033B0000E9447144B015C010E944714DC01CB01C1
:1033C00088199909AA09BB0984369105A105B10597
:1033D00098F30E94820F809185039091860320913B
:1033E000830330918403853B91055CF0A901455628
:1033F00051094F34510588F410923503109234036B
:1034000029C0813491054CF4A901455651094F3426
:10341000510518F482E090E019C0253B310564F0B5
:10342000855691098F349105A8F4E1E0F0E0F0931E
:103430003503E09334030EC0213431055CF4855626
:1034400091098F34910530F483E090E09093350337
:10345000809334038091340390913503892B09F0D4
:1034600071C00E94820F8091030190910401019725
:10347000D89EF001D99EF00D112480910101909108
:103480000201E80FF91FEE0FFF1FEB5FFE4F808177
:1034900091818B7F892B09F04FC04091510250914F
:1034A00052024451510960914F0270915002E0EE76
:1034B000EE2EE7E0FE2E04E110E024E130E080EFA4
:1034C00094E00E947C118091030190910401D89EA8
:1034D000F001D99EF00D112480910101909102011B
:1034E000E80FF91FEE0FFF1FEB5FFE4F8081918108
:1034F000039781F0409151025091520260914F0226
:1035000070915002E12CF12C24E130E080EF94E046
:103510000E947C11809151029091520244979093A5
:10352000520280935102809103019091040101970E
:103530009093040180930301E4E0F0E0F0933503FD
:10354000E09334038091340390913503029709F09E
:1035500071C00E94820F8091030190910401019635
:10356000D89EF001D99EF00D112480910101909117
:103570000201E80FF91FEE0FFF1FEB5FFE4F808186
:1035800091818B7F892B09F04FC04091510250915E
:1035900052024C5E5F4F60914F027091500220EEDC
:1035A000E22E27E0F22E04E110E024E130E080EF8B
:1035B00094E00E947C118091030190910401D89EB7
:1035C000F001D99EF00D112480910101909102012A
:1035D000E80FF91FEE0FFF1FEB5FFE4F8081918117
:1035E000039781F0409151025091520260914F0235
:1035F00070915002E12CF12C24E130E080EF94E056
:103600000E947C11809151029091520244969093B5
:10361000520280935102809103019091040101961E
:10362000909304018093030184E090E0909335032C
:10363000809334038091340390913503019709F00E
:1036400070C00E94820F8091030190910401D89E66
:10365000F001D99EF00D1124809101019091020199
:10366000E80FF91FEE0FFF1FE95FFE4F8081918188
:103670008B7F892B09F04FC040915102509152022B
:1036800060914F02709150026C5E7F4F10EEE12E00
:1036900017E0F12E04E110E024E130E080EF94E047
:1036A0000E947C118091030190910401D89EF00149
:1036B000D99EF00D11248091010190910201E80F33
:1036C000F91FEE0FFF1FEB5FFE4F80819181039783
:1036D00081F0409151025091520260914F027091DD
:1036E0005002E12CF12C24E130E080EF94E00E94C4
:1036F0007C1180914F029091500244969093500219
:1037000080934F0280910101909102010196909364
:10371000020180930101E4E0F0E0F0933503E093CF
:1037200034038091340390913503039709F070C0FE
:103730000E94820F8091030190910401D89EF001B4
:10374000D99EF00D11248091010190910201E80FA2
:10375000F91FEE0FFF1FED5FFE4F808191818B7F80
:10376000892B09F04FC04091510250915202609153
:103770004F027091500264517109F0EEEF2EF7E0A4
:10378000FF2E04E110E024E130E080EF94E00E949D
:103790007C118091030190910401D89EF001D99E83
:1037A000F00D11248091010190910201E80FF91FA1
:1037B000EE0FFF1FEB5FFE4F80819181039781F039
:1037C000409151025091520260914F02709150020B
:1037D000E12CF12C24E130E080EF94E00E947C1198
:1037E00080914F02909150024497909350028093A1
:1037F0004F02809101019091020101979093020183
:103800008093010184E090E090933503809334032A
:1038100080918D0390918E03019709F05DC0809196
:103820003303811159C08091030190910401D89E06
:10383000F001D99EF00D11248091010190910201B7
:10384000E80FF91FEE0FFF1FEB5FFE4F83E090E0E4
:1038500091838083409151025091520260914F02B6
:1038600070915002E0EEEE2EFF24FA9404E110E095
:1038700024E130E080EF94E00E947C110E94471424
:1038800060932F037093300380933103909332033E
:10389000C0922E03809103019091040190932D0317
:1038A00080932C03809101019091020190932B034E
:1038B00080932A03809151029091520290932903A0
:1038C0008093280380914F02909150029093270398
:1038D00080932603C092330380902F03909030038F
:1038E000A0903103B090320390ED890E97E0991EBD
:1038F000A11CB11C0E944714681579058A059B0517
:1039000008F431C180912E03882309F42CC169E0A9
:1039100073E08DEF93E00E94671020912C033091AB
:103920002D0380912A0390912B03D29EF001D39E08
:10393000F00D1124E80FF91FEE0FFF1FEB5FFE4F94
:103940007182608221503109D29EF001D39EF00D28
:103950001124E80FF91FEE0FFF1FEB5FFE4F808170
:103960009181019761F140912803509129034451BD
:103970005109609126037091270390EEE92EFF24F0
:10398000FA9404E110E024E130E080EF94E00E943A
:103990007C1180912C0390912D030197D89EF0010A
:1039A000D99EF00D112480912A0390912B03E80FEA
:1039B000F91FEE0FFF1FEB5FFE4F71826082809157
:1039C0002C0390912D03D89EF001D99EF00D112467
:1039D00080912A0390912B03E80FF91FEE0FFF1F30
:1039E000E95FFE4F80819181019759F14091280351
:1039F0005091290360912603709127036C5E7F4FDD
:103A000010EEE12EFF24FA9404E110E024E130E00E
:103A100080EF94E00E947C1180912C0390912D0303
:103A2000D89EF001D99EF00D112480912A03909127
:103A30002B03E80FF91FEE0FFF1FE95FFE4F7182A6
:103A4000608280912C0390912D030196D89EF00105
:103A5000D99EF00D112480912A0390912B03E80F39
:103A6000F91FEE0FFF1FEB5FFE4F808191810197E1
:103A700061F140912803509129034C5E5F4F6091A2
:103A8000260370912703E0EEEE2EFF24FA9404E162
:103A900010E024E130E080EF94E00E947C118091FE
:103AA0002C0390912D030196D89EF001D99EF00D24
:103AB000112480912A0390912B03E80FF91FEE0F38
:103AC000FF1FEB5FFE4F7182608280912C0390910B
:103AD0002D03D89EF001D99EF00D112480912A0368
:103AE00090912B03E80FF91FEE0FFF1FED5FFE4FC4
:103AF00080819181019759F14091280350912903C8
:103B000060912603709127036451710920EEE22E23
:103B1000FF24FA9404E110E024E130E080EF94E027
:103B20000E947C1180912C0390912D03D89EF0016E
:103B3000D99EF00D112480912A0390912B03E80F58
:103B4000F91FEE0FFF1FED5FFE4F71826082109232
:103B50002E030E9447146093100370931103809307
:103B60001203909313038091030190910401D89E56
:103B7000F001D99EF00D1124809101019091020174
:103B8000E80FF91FEE0FFF1FEB5FFE4F8081918161
:103B9000049741F410920001E5E0F0E0F0933A035D
:103BA000E09339038090100390901103A0901203CA
:103BB000B0901303FCED8F0EF5E09F1EA11CB11C0D
:103BC0000E944714681579058A059B0508F4EBCB1C
:103BD00080912E038111E7CB85E0882E81E0982E1D
:103BE000A12CB12C24E1A20EB11C0AE0402E512CD4
:103BF000C12CD12CF401EC0DFD1D80819181039726
:103C0000029770F411821082E12CF12C04E110E093
:103C100024E130E0A501B20180EF94E00E947C1124
:103C200022E0C20ED11C84E1480E511C9EE1C9164F
:103C3000D10401F7EEE18E0E911CFCEDAF16B1043C
:103C400089F610923303ABCB80912503811145C0D7
:103C500083E090E090932E0280932D02B0EEEB2E45
:103C6000FF24FA9404E110E024E130E048EC50E055
:103C70006EE071E080EF94E00E947C110E94471496
:103C80006093210370932203809323039093240372
:103C900081E080932003209103013091040130934F
:103CA0001F0320931E0320910101309102013093E4
:103CB0001D0320931C032091510230915202309336
:103CC0001B0320931A0320914F023091500230932E
:103CD000190320931803809325038090210390906B
:103CE0002203A0902303B090240380ED880E87E088
:103CF000981EA11CB11C0E944714681579058A05FD
:103D00009B0508F433C180912E03882309F42EC14A
:103D100020911E0330911F0380911C0390911D037D
:103D20004FE0D42ED29EF001D39EF00D1124E80F67
:103D3000F91FEE0FFF1FEB5FFE4F71826082215073
:103D40003109D29EF001D39EF00D1124E80FF91F26
:103D5000EE0FFF1FEB5FFE4F80819181019761F1B4
:103D600040911A0350911B0344515109609118036B
:103D700070911903E0EEEE2EFF24FA9404E110E0B6
:103D800024E130E080EF94E00E947C1180911E03DA
:103D900090911F030197D89EF001D99EF00D112438
:103DA00080911C0390911D03E80FF91FEE0FFF1F78
:103DB000EB5FFE4F7182608280911E0390911F0322
:103DC0002FE0D22ED89EF001D99EF00D11248091C3
:103DD0001C0390911D03E80FF91FEE0FFF1FE95F11
:103DE000FE4F80819181019759F140911A035091C2
:103DF0001B0360911803709119036C5E7F4F00EEF6
:103E0000E02EFF24FA9404E110E024E130E080EF9A
:103E100094E00E947C1180911E0390911F03D89E14
:103E2000F001D99EF00D112480911C0390911D0387
:103E3000E80FF91FEE0FFF1FE95FFE4F71826082EE
:103E400080911E0390911F030196BFE0DB2ED89E48
:103E5000F001D99EF00D112480911C0390911D0357
:103E6000E80FF91FEE0FFF1FEB5FFE4F808191817E
:103E7000019761F140911A0350911B034C5E5F4F13
:103E80006091180370911903E0EEEE2EFF24FA946E
:103E900004E110E024E130E080EF94E00E947C1126
:103EA00080911E0390911F030196D89EF001D99E28
:103EB000F00D112480911C0390911D03E80FF91F50
:103EC000EE0FFF1FEB5FFE4F7182608280911E0339
:103ED00090911F032FE0D22ED89EF001D99EF00DB5
:103EE000112480911C0390911D03E80FF91FEE0F20
:103EF000FF1FED5FFE4F80819181019759F1409145
:103F00001A0350911B0360911803709119036451B7
:103F1000710980EEE82EFF24FA9404E110E024E118
:103F200030E080EF94E00E947C1180911E0390911C
:103F30001F03D89EF001D99EF00D112480911C031F
:103F400090911D03E80FF91FEE0FFF1FED5FFE4F6D
:103F500071826082109220030E94471460931403C0
:103F600070931503809316039093170380912D028D
:103F700090912E028430910531F4109200019093BB
:103F80003A03809339038090140390901503A09016
:103F90001603B09017039CED890E95E0991EA11CA5
:103FA000B11C0E944714681579058A059B0510F419
:103FB0000C94CE178091200381110C94CE17A12C64
:103FC000B12CE4E1AE0EB11C0AE0802E912CC12C84
:103FD000D12CEF81F885EC0DFD1D80819181039737
:103FE000029770F411821082E12CF12C04E110E0B0
:103FF00024E130E0A501B40180EF94E00E947C113F
:10400000E2E0CE0ED11CF4E18F0E911C2EE1C2161F
:10401000D104F9F68F8198854E9698878F839CED11
:10402000A916B10471F6109225030C94CE176FE116
:1040300078EF80EF94E00E941C0710EEE12EFF2441
:10404000FA9400E210E02CE430E046EB50E06CE043
:1040500070E080EF94E00E947C1164E073E0C101A5
:104060000E941B10910141E050E063EC70E088E297
:1040700090E00E94310DC1010E941610FDE2AF1ABE
:10408000B1082AE1A216B10410F00C94CE178FE00B
:10409000C81AD1089EE2C916D10408F47DC80C9450
:1040A000CE1760E078EF80EF94E00E941C07B0EE3E
:1040B000EB2EFF24FA9400E210E02CE430E046EB13
:1040C00050E06CE070E080EF94E00E947C1164E0CE
:1040D00073E0C1010E941B10910141E050E063ECCC
:1040E00070E088E290E00E94310DC1010E9416103C
:1040F000EDE2AE1AB108FAE1AF16B10410F00C947B
:10410000CE172FE0C21AD1088EE2C816D10408F4E7
:1041100043C80C94CE1798E7C91AD108EDE3CE1620
:10412000D10410F00C94CE176CEE72E08DEF93E09A
:104130000E9467106DEB72E08DEF93E00E946710B4
:1041400082E090E090933A03809339031092380311
:10415000109237030C94CE17EDEFF3E01382128226
:1041600088EE93E0A0E0B0E084839583A683B783D4
:104170002EE532E03183208325EC30E0358724873B
:1041800024EC30E03787268720EC30E0318B208B21
:1041900021EC30E0338B228B22EC30E0358B248B0A
:1041A00026EC30E0378B268B118E128E138E148EF8
:1041B000EAE9F4E0168217821086118612861386C9
:1041C0001486158616861786108A118A128A138A13
:1041D000148A158AE2EEF4E01382128284839583B6
:1041E000A683B78380E792E091838083EEEEF4E0CC
:1041F00080E580831182EBE2F5E088E080838FEF39
:10420000838382838183A0EFB4E013961C921E9275
:10421000129740EF50E015965C934E93149720E46C
:1042200031E017963C932E93169719965C934E9314
:1042300018971B963C932E931A9755961C92559758
:104240001D961C921E921C971F961C921E921E97E2
:1042500091E054969C9354972FEF3FEF53963C93E5
:104260002E93529751963C932E93509756969C932B
:10427000569757961C92579759961C921E9258978C
:10428000D5961C92D597D6961C92D697D8961C9206
:104290001E92D797DA961C921E92D9979AE0909622
:1042A0009C93909799E091969C93919792968C937A
:1042B000929723E335E05B963C932E935A9793961F
:1042C0008C93939794968C93949795968C939597BB
:1042D0005C961D921D921D921C925F979B961C925C
:1042E0001E929A97D2961C92D29797961C921E92E3
:1042F0009697D0961C92D09799961C921E9298975A
:10430000D1961C92D197ECE1F6E0E491F0E0EE0F4B
:10431000FF1FE75FF94F859194919D969C938E9333
:104320009C97EEEFF5E0E491D496EC93D497EDE111
:10433000F6E0E491F0E0EE0FFF1FE75FF94F8591A3
:1043400094919F969C938E939E97EFEFF5E0E49166
:10435000D396EC93D39782E892E08D939C93089543
:10436000A1E21A2EAA1BBB1BFD010DC0AA1FBB1F79
:10437000EE1FFF1FA217B307E407F50720F0A21BEB
:10438000B30BE40BF50B661F771F881F991F1A9458
:1043900069F760957095809590959B01AC01BD0182
:1043A000CF010895052E97FB1EF400940E94E92189
:1043B00057FD07D00E94B02107FC03D04EF40C94A7
:1043C000E92150954095309521953F4F4F4F5F4FD4
:1043D000089590958095709561957F4F8F4F9F4F71
:1043E00008950E943B22A59F900DB49F900DA49F1D
:1043F000800D911D11240895B7FF0C94F1210E94A6
:10440000F121821B930B08952F923F924F925F925E
:104410006F927F928F929F92AF92BF92CF92DF92D4
:10442000EF92FF920F931F93CF93DF93CDB7DEB739
:10443000CA1BDB0B0FB6F894DEBF0FBECDBF0994CD
:104440002A88398848885F846E847D848C849B8424
:10445000AA84B984C884DF80EE80FD800C811B8132
:10446000AA81B981CE0FD11D0FB6F894DEBF0FBE61
:10447000CDBFED010895A29FB001B39FC001A39FDE
:10448000700D811D1124911DB29F700D811D11248D
:10449000911D08950E943B22332312F48A1B9B0B2B
:1044A0000C9454220E943B22B7FF0895821B930B69
:1044B0000895EE0FFF1F0590F491E02D0994CF931E
:1044C000DF938230910510F482E090E0E0913F05A7
:1044D000F091400520E030E0C0E0D0E0309711F1ED
:1044E0004081518148175907C0F04817590761F4B6
:1044F00082819381209719F09B838A832BC09093AC
:10450000400580933F0526C02115310519F042175B
:10451000530718F49A01BE01DF01EF010280F38115
:10452000E02DDCCF2115310509F1281B390B243092
:10453000310590F412968D919C9113976115710538
:1045400021F0FB019383828304C090934005809304
:104550003F05FD01329644C0FD01E20FF31F819338
:104560009193225031092D933C933AC020913D05FF
:1045700030913E05232B41F4209156023091570291
:1045800030933E0520933D05209154023091550211
:104590002115310541F42DB73EB740915802509195
:1045A0005902241B350BE0913D05F0913E05E217C1
:1045B000F307A0F42E1B3F0B2817390778F0AC0146
:1045C0004E5F5F4F2417350748F04E0F5F1F509323
:1045D0003E0540933D058193919302C0E0E0F0E0F9
:1045E000CF01DF91CF9108950F931F93CF93DF9366
:1045F000009709F48CC0FC0132971382128200915B
:104600003F05109140050115110581F4208131818C
:10461000820F931F20913D0530913E0528173907E1
:1046200079F5F0933E05E0933D0571C0D80140E077
:1046300050E0AE17BF0750F412962D913C9113979E
:10464000AD012115310509F1D901F3CF9D01DA0141
:104650003383228360817181860F971F82179307AE
:1046600069F4EC0128813981260F371F2E5F3F4FF7
:10467000318320838A819B8193838283452B29F414
:10468000F0934005E0933F0542C01396FC93EE93F0
:104690001297ED01499159919E01240F351FE217A0
:1046A000F30771F480819181840F951F0296119612
:1046B0009C938E938281938113969C938E931297F1
:1046C000E0E0F0E0D80112968D919C91139700974D
:1046D00019F0F8018C01F6CF8D919C9198012E5F15
:1046E0003F4F820F931F20913D0530913E052817C3
:1046F000390769F4309729F41092400510923F056C
:1047000002C01382128210933E0500933D05DF9193
:10471000CF911F910F910895A0E0B0E0E2E9F3E29C
:104720000C940822EC01009721F4CB010E945F2237
:10473000B8C0FC01E60FF71F9C0122503109E217B7
:10474000F30708F4ACC0D9010D911C91119706171D
:104750001707B0F00530110508F49FC0C801049791
:104760008617970708F499C002501109061B170B0A
:10477000019311936D937C93CF010E94F4228DC01D
:104780005B01A01AB10A4C01800E911EA0913F0559
:10479000B091400540E050E0E12CF12C109709F475
:1047A0004AC0A815B905D1F56D907C9011976301A9
:1047B00082E0C80ED11CCA14DB0480F1A3014A199F
:1047C0005B096A0182E0C80ED11C1296BC90129758
:1047D0001396AC91B5E0CB16D10440F0B282A3831E
:1047E00051834083D9016D937C930AC00E5F1F4FA4
:1047F000C301800F911FF90191838083EB2DFA2F64
:10480000E114F10431F0D7011396FC93EE93129763
:1048100044C0F0934005E0933F053FC08D919C91CB
:1048200011974817590708F4AC017D0112960D90B5
:10483000BC91A02DB3CF80913D0590913E05881588
:104840009905E1F446175707C8F4809154029091F6
:104850005502009741F48DB79EB740915802509190
:104860005902841B950BE817F907C8F4F0933E052D
:10487000E0933D05F901718360830FC0CB010E9475
:104880005F227C01009759F0A801BE010E945B24C1
:10489000CE010E94F422C70104C0CE0102C080E014
:1048A00090E0CDB7DEB7EEE00C94242281E090E0FA
:1048B000F8940C946B24FB01DC0102C001900D9272
:1048C00041505040D8F70895FB01DC0101900D9252
:0A48D0000020E1F70895F894FFCFEF
:1048DA0001010001000100010001000100010001C5
:1048EA0000010001000100010001000100010001B6
:1048FA0000010001000000000002000000020000A8
:10490A000002000000020000000200000000000196
:10491A000001000000010000000100000001000089
:10492A000001000000010000000100000001000178
:10493A000002000000020000000200000002000065
:10494A000002000000020000000200010001000055
:10495A000001000000010000000100000001000049
:10496A000001000000010000000100010002000037
:10497A000002000000020000000200000002000025
:10498A000002000000020001000100000001000016
:10499A000001000000010000000100000001000009
:1049AA0000010000000100010002000000020000F6
:1049BA0000020000000200000002000000020000E5
:1049CA0000020001000100000001000000010000D7
:1049DA0000010000000100000001000000010000C9
:1049EA0000010001000000000002000000020000B7
:1049FA0000020000000200000002000000000001A6
:104A0A000001000100010001000100010001000194
:104A1A000001000100010001000100010001001E67
:104A2A000028000100004105800000000000E41099
:104A3A00F60D7C102B11AD108B109F10000000009A
:104A4A007C094C09AC0920094409300921090000F4
:104A5A0000007005F60DAC09AB095A12E812AA1249
:104A6A00D914441231124408DC12860A600AF6117B
:104A7A00BB117C111C07A5064606290BAF09564D2A
:104A8A004450565F317C315F564D4450560D0A00F2
:104A9A005374617274204C6F626279004A6F696E56
:104AAA00204C6F6262790020204E4558542053549E
:104ABA00415445203D2053746172740020204E45B4
:104ACA005854205354415445203D204A6F696E0082
:104ADA00474F21004261636B007374617274000076
:00000001FF
