:100000000C94E2020C94A10A0C940A030C940A03C7
:100010000C940A030C940A030C940A030C940A032C
:100020000C940E0B0C940A030C940A030C940A0310
:100030000C940A030C940A030C940A030C940A030C
:100040000C94570A0C940A030C944B090C94250940
:100050000C940A030C940A030C940A030C940A03EC
:100060000C941F0D0C940A030000000024002700CC
:100070002A000000000023002600290000000008DC
:10008000000201000003040700000000000000005F
:10009000010204081020408001020408102001021F
:1000A0000408102000000000250028002B00040494
:1000B0000404040404040202020202020303030310
:1000C000030300000000003E5B4F5B3E3E6B4F6B46
:1000D0003E1C3E7C3E1C183C7E3C181C577D571C29
:1000E0001C5E7F5E1C00183C1800FFE7C3E7FF00A2
:1000F00018241800FFE7DBE7FF30483A060E2629F0
:10010000792926407F050507407F05253F5A3CE7B2
:100110003C5A7F3E1C1C08081C1C3E7F14227F2278
:10012000145F5F005F5F06097F017F006689956A43
:10013000606060606094A2FFA29408047E040810CE
:10014000207E201008082A1C08081C2A08081E10F7
:100150001010100C1E0C1E0C30383E3830060E3EAF
:100160000E06000000000000005F0000000700070E
:1001700000147F147F14242A7F2A12231308646238
:1001800036495620500008070300001C2241000099
:1001900041221C002A1C7F1C2A08083E08080080F7
:1001A000703000080808080800006060002010088F
:1001B00004023E5149453E00427F40007249494990
:1001C000462141494D331814127F102745454539C2
:1001D0003C4A4949314121110907364949493646C6
:1001E0004949291E000014000000403400000008A6
:1001F0001422411414141414004122140802015949
:1002000009063E415D594E7C1211127C7F494949D5
:10021000363E414141227F4141413E7F494949416A
:100220007F090909013E414151737F0808087F0099
:10023000417F41002040413F017F081422417F401F
:100240004040407F021C027F7F0408107F3E4141F6
:10025000413E7F090909063E4151215E7F09192966
:1002600046264949493203017F01033F4040403F50
:100270001F2040201F3F4038403F63140814630391
:10028000047804036159494D43007F414141020410
:10029000081020004141417F040201020440404017
:1002A0004040000307080020545478407F2844440D
:1002B000383844444428384444287F385454541827
:1002C00000087E090218A4A49C787F080404780022
:1002D000447D40002040403D007F10284400004104
:1002E0007F40007C047804787C0804047838444417
:1002F0004438FC1824241818242418FC7C0804040E
:1003000008485454542404043F44243C4040207C76
:100310001C2040201C3C4030403C44281028444CC9
:100320009090907C4464544C440008364100000096
:10033000770000004136080002010204023C262337
:10034000263C1EA1A161123A4040207A38545455EF
:1003500059215555794122545478422155547840B9
:1003600020545579400C1E52721239555555593941
:100370005454545939555454580000457C41000296
:10038000457D420001457C407D1211127DF02825FB
:1003900028F07C545545002054547C547C0A097F35
:1003A0004932494949323A4444443A324A48483049
:1003B0003A4141217A3A42402078009DA0A07D3DFB
:1003C0004242423D3D4040403D3C24FF2424487E83
:1003D0004943662B2FFC2F2BFF0929F620C0887E6E
:1003E000090320545479410000447D413048484A73
:1003F00032384040227A007A0A0A727D0D19317D26
:100400002629292F28262929292630484D402038F9
:100410000808080808080808382F10C8ACBA2F10B8
:100420002834FA00007B000008142A142222142A1F
:1004300014085500550055AA55AA55AAFF55FF5551
:10044000FF000000FF00101010FF00141414FF0044
:100450001010FF00FF1010F010F0141414FC001422
:1004600014F700FF0000FF00FF1414F404FC141440
:1004700017101F10101F101F1414141F001010103D
:10048000F0000000001F101010101F10101010F0CE
:1004900010000000FF101010101010101010FF10AE
:1004A000000000FF140000FF00FF00001F101700F5
:1004B00000FC04F414141710171414F404F40000CE
:1004C000FF00F714141414141414F700F714141480
:1004D000171410101F101F141414F4141010F0101F
:1004E000F000001F101F0000001F14000000FC148B
:1004F0000000F010F01010FF10FF141414FF14107F
:1005000010101F00000000F010FFFFFFFFFFF0F0D1
:10051000F0F0F0FFFFFF0000000000FFFF0F0F0FE3
:100520000F0F3844443844FC4A4A4A347E020206DB
:1005300006027E027E0263554941633844443C040E
:10054000407E201E2006027E020299A5E7A5991C86
:100550002A492A1C4C7201724C304A4D4D303048A9
:10056000784830BC625A463D3E494949007E010107
:10057000017E2A2A2A2A2A44445F444440514A449C
:100580004040444A51400000FF0103E080FF00006A
:1005900008086B6B083612362436060F090F060062
:1005A0000018180000001010003040FF0101001F6B
:1005B00001011E00191D1712003C3C3C3C000000CC
:1005C0000000E22211241FBECFEFD8E0DEBFCDBF76
:1005D00013E0A0E0B1E0E6E2FDE402C005900D9278
:1005E000A835B107D9F726E0A8E5B3E001C01D9210
:1005F000AE35B207E1F712E0C2EED2E004C02197B7
:10060000FE010E948F24C13ED107C9F70E942E151A
:100610000C9491260C940000FC01538D448D252FE1
:1006200030E0842F90E0821B930B541710F0CF968C
:10063000089501970895FC01918D828D981761F0BE
:10064000828DDF01A80FB11D5D968C91928D9F5F09
:100650009F73928F90E008958FEF9FEF0895FC01B4
:10066000918D828D981731F0828DE80FF11D858D67
:1006700090E008958FEF9FEF0895FC01918D228DFA
:10068000892F90E0805C9F4F821B91098F7399277F
:10069000089582E295E00E943D0321E0892B09F450
:1006A00020E0822F0895FC01848DDF01A80FB11D89
:1006B000A35ABF4F2C91848D90E001968F73992798
:1006C000848FA689B7892C93A089B1898C91837076
:1006D00080648C93938D848D981306C00288F3896F
:1006E000E02D80818F7D80830895EF92FF920F939C
:1006F0001F93CF93DF93EC0181E0888F9B8D8C8DCE
:10070000981305C0E889F989808185FD26C0F62EF9
:100710000B8D10E00F5F1F4F0F731127E02E8C8D94
:10072000E8120CC00FB607FCFACFE889F98980817E
:1007300085FFF5CFCE010E945303F1CF8B8DFE01D3
:10074000E80FF11DE35AFF4FF0829FB7F8940B8F2B
:10075000EA89FB89808180620AC09FB7F894EE899C
:10076000FF896083E889F989808183708064808350
:100770009FBF81E090E0DF91CF911F910F91FF909B
:10078000EF900895CF93DF93EC01888D8823C9F013
:10079000EA89FB89808185FD05C0A889B9898C918A
:1007A00086FD0FC00FB607FCF5CF808185FFF2CF25
:1007B000A889B9898C9185FFEDCFCE010E945303A2
:1007C000E7CFDF91CF91089580E090E0892B29F069
:1007D0000E94490381110C94000008953FB7F894DA
:1007E0008091A0049091A104A091A204B091A304CF
:1007F00026B5A89B05C02F3F19F00196A11DB11D7C
:100800003FBFBA2FA92F982F8827820F911DA11DB6
:10081000B11DBC01CD0142E0660F771F881F991FF3
:100820004A95D1F708950895FC016370658B848122
:10083000958126813781613039F0633029F09187C5
:10084000808733872287089531872087938782871F
:1008500008956F927F928F929F92AF92BF92CF92A4
:10086000DF92EF92FF920F931F93CF93DF93EC01F0
:100870004B015A0169013801E881F9810284F3854D
:10088000E02D0995E881F9810288F389E02D87013F
:100890009601A501B401CE010995A501460D571D8C
:1008A00041505109E881F9810288F389E02D9601D0
:1008B000B401CE010995E881F9810088F189E02D24
:1008C0009301A501B401CE010995C80CD91CB6014C
:1008D00061507109E881F9810088F189E02D930167
:1008E000A501CE010995E881F9810688F789E02DF7
:1008F000CE01DF91CF911F910F91FF90EF90DF908C
:10090000CF90BF90AF909F908F907F906F90099401
:100910008F929F92AF92BF92CF92DF92EF92FF920F
:100920000F931F93CF93DF934C016B015A01E901A1
:10093000DC01ED91FC916217730781F40417150730
:1009400024F48B2D5801042F182F0A191B09980124
:100950002F5F3F4F048CF58DE02D12C040175107DB
:1009600009F52617370724F48D2D6901C62FD82FD6
:100970009E012C193D092F5F3F4F068CF78DE02D0E
:100980008701A501B601C4010995DF91CF911F919F
:100990000F91FF90EF90DF90CF90BF90AF909F901E
:1009A0008F9008950284F385E02D0995D401ED918F
:1009B000FC910488F589E02D9E01A501B601C401D2
:1009C0000995D401ED91FC910688F789E02DC401C9
:1009D000DF91CF911F910F91FF90EF90DF90CF901B
:1009E000BF90AF909F908F900994EF92FF920F93DA
:1009F0001F93DC011A960D911C911B9718962D914F
:100A00003C911997ED91FC9100A0F1A1E02D7B01A3
:100A100040E050E060E070E009951F910F91FF9079
:100A2000EF9008954F925F926F927F928F929F9274
:100A3000AF92BF92CF92DF92EF92FF920F931F93EC
:100A4000CF93DF936C012B015A0139014801DC017E
:100A5000ED91FC910284F385E02D0995E201640C8F
:100A6000751CD601ED91FC91C615D7055CF4008884
:100A7000F189E02D87019401A501BE01C601099508
:100A80002196EFCF0688F789E02DC601DF91CF913F
:100A90001F910F91FF90EF90DF90CF90BF90AF909C
:100AA0009F908F907F906F905F904F9009948F925E
:100AB0009F92AF92BF92CF92DF92EF92FF920F93ED
:100AC0001F93CF93DF93EC015B014A016901E88139
:100AD000F9810284F385E02D099595012C0D3D1DCA
:100AE00021503109E881F9810488F589E02D7801E8
:100AF0008401A401B501CE010995E881F981068838
:100B0000F789E02DCE01DF91CF911F910F91FF90DA
:100B1000EF90DF90CF90BF90AF909F908F9009940F
:100B20008F929F92AF92BF92CF92DF92EF92FF92FD
:100B30000F931F93CF93DF93EC015B014A0169018F
:100B40007801E881F9810284F385E02D0995C80CCC
:100B5000D91C860101501109E881F9810488F589C1
:100B6000E02D9501A401B501CE010995E881F98137
:100B70000688F789E02DCE01DF91CF911F910F916B
:100B8000FF90EF90DF90CF90BF90AF909F908F90AD
:100B900009940895EF92FF920F931F93DC01ED915A
:100BA000FC9100A0F1A1E02D09951F910F91FF90FC
:100BB000EF9008950F931F93DC01ED91FC91068C4B
:100BC000F78DE02D09951F910F9108950F931F93B5
:100BD000DC01ED91FC91048CF58DE02D09951F91C0
:100BE0000F910895DC01ED91FC910084F185E02DD9
:100BF00009942F923F924F925F926F927F928F92C1
:100C00009F92AF92BF92CF92DF92EF92FF920F939B
:100C10001F93CF93DF9300D000D000D0CDB7DEB7C5
:100C20002C017E836D836A015901C801FC82EB822D
:100C30004801841A950A97FE03C091948194910803
:100C400035012D813E81621A730A77FE03C07194CB
:100C500061947108681479045CF43A2D2B2D5C01C1
:100C6000832F922F3D812E81DE82CD82C32ED22E04
:100C7000AD81BE81AA16BB065CF43C2D2D2D6C0106
:100C8000832F922F3D812E81BE82AD82A32EB22E64
:100C900085012D813E81021B130B1C012C183D0880
:100CA00037FE03C0319421943108780117FF03C047
:100CB0003FEFE31AF30AF594E794C816D9062CF02F
:100CC0008FEF9FEF9A83898304C0A1E0B0E0BA83DD
:100CD000A9832D813E81A216B30624F1D201ED91A4
:100CE000FC910484F585E02D2B813C816814790406
:100CF00024F44D815E81B60103C0A6016D817E8121
:100D0000C2010995E218F308F7FE06C029813A816D
:100D1000C20ED31EE00EF11E8D819E8101969E8330
:100D20008D83D7CF26960FB6F894DEBF0FBECDBF0A
:100D3000DF91CF911F910F91FF90EF90DF90CF90B7
:100D4000BF90AF909F908F907F906F905F904F90EB
:100D50003F902F9008958F929F92AF92BF92CF9223
:100D6000DF92EF92FF920F931F93CF93DF93EC01EB
:100D70006B015A014901E881F9810284F385E02D74
:100D80000995E881F9810684F785E02D9401A50194
:100D9000B601CE010995E881F9810688F789E02D31
:100DA000CE01DF91CF911F910F91FF90EF90DF90D7
:100DB000CF90BF90AF909F908F900994AF92BF92C9
:100DC000CF92DF92EF92FF920F931F93CF93DF9317
:100DD000EC017B016A015901E881F9810284F38504
:100DE000E02D0995E881F9810288F389E02D9501CC
:100DF000A601B701CE010995E881F9810688F78936
:100E0000E02DCE01DF91CF911F910F91FF90EF90D8
:100E1000DF90CF90BF90AF900994AF92BF92CF92E6
:100E2000DF92EF92FF920F931F93CF93DF93EC012A
:100E30007B016A015901E881F9810284F385E02D83
:100E40000995E881F9810088F189E02D9501A601D5
:100E5000B701CE010995E881F9810688F789E02D6F
:100E6000CE01DF91CF911F910F91FF90EF90DF9016
:100E7000CF90BF90AF900994CF92DF92EF92FF9204
:100E80000F931F93CF93DF93EC018B017A016901DC
:100E9000E881F9810284F385E02D0995E881F981E3
:100EA0000484F585E02D9601A701B801CE010995CE
:100EB000E881F9810688F789E02DCE01DF91CF9195
:100EC0001F910F91FF90EF90DF90CF900994EF92D8
:100ED000FF920F931F93DC01ED91FC910684F7853F
:100EE000E02D780101E010E009951F910F91FF902E
:100EF000EF900895EF92FF920F931F93DC01ED9115
:100F0000FC910684F785E02D7801890121E030E02D
:100F100009951F910F91FF90EF90089585ED8093B3
:100F2000BC008091BC0084FDFCCF1092FE040895AB
:100F300040916C04262F30E0240F311D2132310501
:100F4000DCF42091FE042430C9F4FC0180E090E040
:100F5000861758F430916C042191DC01A45BBB4FDF
:100F6000A30FB11D2C930196F3CF80916C04680FF1
:100F700060936C0480E0089581E0089582E0089514
:100F800008950895E091B7048091B604E81730F40D
:100F9000F0E0E854FB4F808190E008958FEF9FEFE1
:100FA00008959091B7048091B604981750F4E92FF2
:100FB000F0E0E854FB4F208130E09F5F9093B7044E
:100FC00002C02FEF3FEFC90108958091B60490E071
:100FD0002091B704821B91090895CF92DF92EF927E
:100FE000FF920F931F93CF93DF937C01CB018A0174
:100FF0002091FF04222389F0EB016B01C40ED51E62
:10100000CC15DD0569F06991D701ED91FC91019056
:10101000F081E02DC7010995F3CF642F0E94980756
:10102000C801DF91CF911F910F91FF90EF90DF905A
:10103000CF900895CF93DF931F92CDB7DEB769832A
:101040002091FF042223D1F020912105203240F08D
:1010500021E030E0FC013383228380E090E015C082
:1010600080910005E82FF0E0EF5FFA4F99819083BF
:101070008F5F809300058093210505C061E0CE015C
:1010800001960E94980781E090E00F90DF91CF9148
:101090000895089580E090E008950E947C26AF9224
:1010A000BF92CF92EF92FF920F931F93CF93DF9354
:1010B000EC01262F888D998D009709F040C06A3089
:1010C00059F41D861C862C898E859F8538E0239FC8
:1010D000800D911D112441C06D3009F4AAC08E8984
:1010E0008823C1F03C898C859D8546E0349F800D26
:1010F000911D112448855985481759075CF41D86B0
:101100001C868E859F8548E0349F800D911D11249B
:101110009F878E87EA88FB88088919894E855F85B5
:101120006C857D85CC88CE010E9468122C898C85C7
:101130009D8536E0239F800D911D112442C06A30A9
:1011400079F41D861C862C89FC013696E4918E85E7
:101150009F852E9F800D911D11249F878E8769C0CA
:101160006D3009F466C0FC0134963491631708F4BD
:1011700060C03196E491E61708F45BC0FC0132963A
:1011800065917491422F50E0431B510937E0349F21
:101190005001359FB00C1124A60EB71EF5013296F2
:1011A00034913196E491332311F0E1110DC0F50132
:1011B0003496E4912C898C859D85E29F800D911D4C
:1011C00011249D878C8735C0F501359644915E8941
:1011D000552311F16C89E32FF0E0E40FF11D47FD79
:1011E000FA956E9FD0016F9FB00D11244C855D85DF
:1011F0004A0F5B1FE885F985E417F5076CF41D8637
:101200001C86FC013696E4918E859F856E9F800D2D
:10121000911D11249F878E87EA88FB880889198988
:101220004E855F856C857D85CC88CE010E946812D5
:10123000BECF81E090E0DF91CF911F910F91FF90A1
:10124000EF90CF90BF90AF9008951F920F920FB67E
:101250000F9211242F933F934F935F936F937F933C
:101260008F939F93AF93BF93EF93FF9382E295E0A9
:101270000E945303FF91EF91BF91AF919F918F9186
:101280007F916F915F914F913F912F910F900FBE82
:101290000F901F9018951F920F920FB60F92112466
:1012A0002F938F939F93EF93FF93E0913205F091EB
:1012B00033058081E0913805F091390582FD12C037
:1012C000908180913B058F5F8F7320913C05821741
:1012D00051F0E0913B05F0E0EE5DFA4F958F809381
:1012E0003B0501C08081FF91EF919F918F912F91DC
:1012F0000F900FBE0F901F901895833081F028F447
:10130000813099F08230A1F008958730A9F08830BB
:10131000B9F08430D1F4809180008F7D03C080913A
:1013200080008F7780938000089584B58F7702C006
:1013300084B58F7D84BD08958091B0008F7703C000
:101340008091B0008F7D8093B00008951F93CF935C
:10135000DF93282F30E0F901E458FF4F8491F90121
:10136000E057FF4FD491F901E255FF4FC491CC23D0
:10137000C1F0162F81110E947D09EC2FF0E0EE0FD5
:10138000FF1FEC55FF4FA591B4919FB7F894111131
:1013900004C08C91D095D82302C0EC91DE2BDC9355
:1013A0009FBFDF91CF911F910895CF93DF9390E07E
:1013B000FC01E057FF4F2491FC01E255FF4F84915F
:1013C000882361F190E0880F991FFC01E859FF4FD5
:1013D000C591D491FC01EC55FF4FA591B4916111D9
:1013E00009C09FB7F8948881209582238883EC9167
:1013F0002E230BC0623061F49FB7F8948881322F9E
:10140000309583238883EC912E2B2C939FBF06C0AD
:101410008FB7F894E8812E2B28838FBFDF91CF916F
:1014200008958F929F92AF92BF92CF92DF92EF92E8
:10143000FF926B017C010E94EE034B015C01C11421
:10144000D104E104F104F1F00E94EE03DC01CB01D0
:1014500088199909AA09BB09883E9340A105B105DD
:1014600070F321E0C21AD108E108F10888EE880E75
:1014700083E0981EA11CB11CC114D104E104F10445
:1014800019F7DDCFFF90EF90DF90CF90BF90AF9036
:101490009F908F9008952FB7F89460919C0470915D
:1014A0009D0480919E0490919F042FBF08951F92E8
:1014B0000F920FB60F9211242F933F938F939F9308
:1014C000AF93BF9380919C0490919D04A0919E0442
:1014D000B0919F0430919B0423E0230F2D3720F41B
:1014E0000196A11DB11D05C026E8230F0296A11D7E
:1014F000B11D20939B0480939C0490939D04A09322
:101500009E04B0939F048091A0049091A104A091A7
:10151000A204B091A3040196A11DB11D8093A00463
:101520009093A104A093A204B093A304BF91AF91A0
:101530009F918F913F912F910F900FBE0F901F9011
:1015400018951F920F920FB60F9211242F933F936D
:101550008F939F93EF93FF938091990490919A04B6
:101560002091970430919804821B930B209196044C
:101570002F5F2093960420919604203218F05D98F6
:10158000109225042091190630911A062817390760
:10159000A8F420911B0630911C068217930770F463
:1015A0005D9A21E02093250410929A0410929904E8
:1015B000109295041092940410929604E091940471
:1015C000F0919504EE0FFF1FEF51FC4F9183808344
:1015D0008091940490919504019690939504809342
:1015E00094048091940490919504829720F0109235
:1015F0009504109294048091990490919A04909388
:10160000980480939704FF91EF919F918F913F9160
:101610002F910F900FBE0F901F9018951F920F9251
:101620000FB60F9211242F933F938F939F93EF93B5
:10163000FF931092B2008091990490919A040196C0
:1016400090939A04809399048091920490919304CA
:10165000019690939304809392048091E0038823F1
:1016600099F18091920490919304E0919104F0E0BB
:10167000EE0FFF1FE85AFC4F2081318128173907F0
:1016800019F580919004882331F010929004809194
:10169000B0008F7E06C081E0809390048091B000FE
:1016A00080618093B0008091B0008F7D8093B00006
:1016B000809191048F5F843418F48093910404C066
:1016C000109291041092E003FF91EF919F918F91FE
:1016D0003F912F910F900FBE0F901F901895CF93B1
:1016E000CFB7F89480918F04811127C0E8EBF0E028
:1016F0008491EAE9F0E09491E82FF0E0EE0FFF1F0B
:10170000E859FF4FA591B491EC91E92321F461E0F0
:101710008AE00E94A60961E08AE00E94D5098CB5A2
:1017200080618CBD8CB580648CBD61E08DE00E94D1
:10173000D50961E08BE00E94D50980918F048F5F0D
:1017400080938F04CFBFCF910895FC0181A187FFC3
:1017500005C06EBD0DB407FEFDCF089528E030E052
:1017600090E8A4A1B5A186A5462F492319F04C9174
:10177000842B03C04C91809584238C93A0A5B1A5A4
:101780004C9180A9809584238C93A0A5B1A54C9100
:1017900080A9842B8C9396952150310911F70895D7
:1017A0004F925F926F927F928F929F92AF92BF9271
:1017B000CF92DF92EF92FF920F931F93CF93DF931D
:1017C0005C01FB01E9014701DC0118962D913C9178
:1017D0001997621773070CF063C01A968D919C914C
:1017E0001B97481759070CF05BC06B01CC0EDD1E30
:1017F000D60111977A01E00EF11EB701615071090F
:10180000B7FD4EC077FD4CC0F7FF03C0E601E0E036
:10181000F0E057FF03C0870140E050E0A217B30794
:101820001CF0E901CE1BDF0B681779071CF08C0157
:10183000041B150B9E01D8010E9480246B017C01C2
:10184000BF01C5010E948D1126013701F50181A15B
:1018500087FF13C0411451046104710409F19EBC57
:101860000DB407FEFDCF8EBC0DB407FEFDCFF1E039
:101870004F1A510861087108EDCF411451046104F9
:10188000710471F0692DC5010E94A50B682DC50179
:101890000E94A50B81E0481A510861087108EDCF3C
:1018A000DF91CF911F910F91FF90EF90DF90CF903C
:1018B000BF90AF909F908F907F906F905F904F9070
:1018C0000895EF92FF920F931F93CF93DF93EC0154
:1018D00077FD2FC0888599856817790754F557FDDE
:1018E00028C08A859B85481759071CF5E32EF22EE0
:1018F00001E010E021E030E0CE010E948D1189A1CD
:1019000087FF09C0EEBC0DB407FEFDCFFEBC0DB4D1
:1019100007FEFDCF0EC06E2DCE010E94A50B6F2DD0
:10192000CE01DF91CF911F910F91FF90EF900C941A
:10193000A50BDF91CF911F910F91FF90EF9008952C
:10194000CF93DF93EC01EAA5FBA590818AA980954E
:1019500089238083CE010E94A50BEAA5FBA5908177
:101960008AA9892B8083DF91CF9108951F93CF930C
:10197000DF93EC01162FE881F9810284F385E02DD5
:101980000995111102C060E201C061E2CE010E941E
:10199000A00CE881F9810688F789E02DCE01DF915E
:1019A000CF911F9109941F93CF93DF93EC01637044
:1019B0006D8B6230C1F0633001F1613051F080EF26
:1019C00090E09987888780E491E09B878A8718E474
:1019D0001DC080E491E09987888780EF90E09B8725
:1019E0008A8718E213C080EF90E09987888780E4A7
:1019F00091E09B878A8718E809C080E491E0998785
:101A0000888780EF90E09B878A8718EEE881F981CC
:101A10000284F385E02DCE01099566E3CE010E9494
:101A2000A00C612FCE010E94A50BE881F9810688E8
:101A3000F789E02DCE01DF91CF911F9109941F927C
:101A40000F920FB60F9211242F933F934F935F93F2
:101A50006F937F938F939F93AF93BF93EF93FF9376
:101A60008091B900887F803609F49CC068F588327F
:101A700009F45BC090F4803109F454C038F4882331
:101A800009F4F6C0883009F44DC0F6C0883109F475
:101A90004CC0803209F45DC0EFC0803409F468C0E6
:101AA00048F4803309F455C0883309F0E5C08093C9
:101AB000FC04D8C0803509F44FC0883509F45DC0F6
:101AC000883409F0D9C0D6C0883909F4C7C0A8F451
:101AD000883709F467C038F4883609F463C0803762
:101AE00009F460C0C9C0883809F4B8C0803909F465
:101AF0005FC0803809F0C0C05BC0803B09F486C07D
:101B000038F4803A09F466C0883A09F47FC0B4C05A
:101B1000803C09F4A7C0883C09F4A4C0883B09F4C0
:101B20008AC0AAC08091D90410C09091FB04809112
:101B3000FA04981770F5E091FB0481E08E0F809312
:101B4000FB04F0E0E652FB4F80818093BB0085EC04
:101B500086C08093FC048EC0E091FB0481E08E0F70
:101B60008093FB048091BB00F0E0E652FB4F808342
:101B70009091FB048091FA046EC0E091FB0481E037
:101B80008E0F8093FB048091BB00F0E0E652FB4F88
:101B900080838091FD0481116DC081E08093D80421
:101BA00084EA61C083E08093FE0410928E04CFCF5C
:101BB00080918E04803208F051C0E0918E0481E063
:101BC0008E0F80938E048091BB00F0E0E259FB4FB2
:101BD0008083BDCF85EC8093BC001092FE04809181
:101BE0008E04803230F4E0918E04F0E0E259FB4F35
:101BF000108260918E0470E0E091B204F091B30421
:101C00008EE694E0099510928E0436C084E08093AD
:101C1000FE0410926D0410926C04E091B404F091F3
:101C2000B504099580916C04811105C081E0809311
:101C30006C0410924C04E0916D0481E08E0F80934F
:101C40006D04F0E0E45BFB4F80818093BB009091DA
:101C50006D0480916C04981708F479CF85E880931F
:101C6000BC000AC085EC8093BC001092FE0404C046
:101C70001092FC040E948E07FF91EF91BF91AF91EB
:101C80009F918F917F916F915F914F913F912F9194
:101C90000F900FBE0F901F9018950895DC019C9631
:101CA000ED91FC919D979081D1968C91892B8083A9
:101CB00008958CBD9DBD08950F931F93CF93DF931F
:101CC000EC0189A187FF1EC00A8D1B8D2C8D3D8DD7
:101CD00040E052E16AE770E090E00417150726073C
:101CE000370740F476956795579547959F5F9630EF
:101CF000A1F797E081E09827892F806A86959170F7
:101D00000E94590EECA5FDA5908189A98095892393
:101D10008083DF91CF911F910F910895309121051C
:101D2000313208F04BC08091FE048111FCCF9091BC
:101D3000590622E02093FE0421E02093FD042FEFBA
:101D40002093FC041092FB043093FA04E1E0F5E0E8
:101D5000AAEDB4E020E0321721F041914D932F5FBE
:101D6000FACF1092D9042091D904990F922B909315
:101D7000D9049091D804913061F41092D8049091D4
:101D8000D9049093BB009091BC0093FDF8CF95ECE3
:101D900001C095EE9093BC009091FE049230E1F367
:101DA0009091FC049F3F79F08091FC04803241F0D7
:101DB0008091FC04803331F084E005C081E003C0F1
:101DC00082E001C083E0109200051092210510927C
:101DD000FF0408959091FE049111FCCF91E090933F
:101DE000FE049093FD042FEF2093FC041092FB045B
:101DF000260F2093FA049093D9049091D904880F68
:101E0000892B8093D9048091D804813061F4109299
:101E1000D8048091D9048093BB008091BC0083FDDD
:101E2000F8CF85EC01C085EE8093BC008091FE0464
:101E30008130E1F38091FB04861710F46091FB047C
:101E4000AAEDB4E0E8EBF4E080E0861721F09D9184
:101E500091938F5FFACF0895EF92FF920F931F93A4
:101E6000CF93DF93F09054069FEFF91207C08EBD19
:101E700000000DB407FEFDCF8EB51CC0E0905206E9
:101E800007E010E0C82FD0E0BE01002E02C075951B
:101E900067950A94E2F761708E2D0E94A60961E0B1
:101EA0008F2D0E94A60960E08F2D0E94A609015087
:101EB000110950F7DF91CF911F910F91FF90EF9093
:101EC000089590932B0680932A0670932D066093B5
:101ED0002C06109231061092300610922F061092A6
:101EE0002E06411101C041E040933206F9014481C0
:101EF0005581608171818EE196E00E943E126AEB0D
:101F000072E08EE196E00C94D014CF93DF93D82F3B
:101F1000C62F809151068F3FC9F48091550691E0FC
:101F20009093FF04809359061092000510922105AA
:101F30006D2F87E096E00E941A086C2F87E096E0EC
:101F40000E941A08DF91CF910C948E0E8091540656
:101F50008F3F31F480911306909114060E94590E20
:101F600060E0809151060E94A6098D2F0E942C0FDF
:101F70008C2F0E942C0F61E0809151060E94A609CF
:101F8000809154068F3F21F4DF91CF910C944D0E38
:101F9000DF91CF9108958F929F92AF92BF92CF928F
:101FA000DF92EF92FF920F931F93CF93DF93C82F8F
:101FB000809151068F3F59F580915506D1E0D0931D
:101FC000FF048093590610920005109221056C2F92
:101FD00087E096E00E941A080E948E0E80915506B6
:101FE000D093FF04809359061092000510922105AA
:101FF00061E00E94EA0E1092B7048093B60487E075
:1020000096E00E94D107B82E0E948E0E6AC0809181
:1020100054068F3F31F480911306909114060E946C
:10202000590E60E0809151060E94A6098C2F8068AD
:102030000E942C0F80E00E942C0FA09054068FEF7E
:10204000A81207C01EBC00000DB407FEFDCFBEB431
:102050003DC0C091530607E010E0B12CD0E0FE0176
:10206000E458FF4F7F01CE0180579F4F6C01C2554E
:10207000DF4F61E08A2D0E94A609F7018491F601E5
:102080009490FE018490882091F081110E947D0936
:10209000E82DF0E0EE0FFF1FEE58FF4FA591B49131
:1020A0008C91982231E009F430E0832F02C080E067
:1020B00090E0002E01C0880F0A94EAF7B82A60E089
:1020C0008A2D0E94A6090150110998F661E08091BD
:1020D00051060E94A609809154068F3F11F40E9478
:1020E0004D0E8B2DDF91CF911F910F91FF90EF90AF
:1020F000DF90CF90BF90AF909F908F900895CF9337
:10210000DF9380E00E94CB0FC82FD0E0DC2FCC27DC
:1021100081E00E94CB0F9E01282BC901DF91CF9156
:1021200008951092B7041092B60410920005109210
:1021300021051092FE0481E08093FD041092D804E2
:1021400061E082E10E94A60961E083E10E94A609A4
:10215000E9EBF0E080818E7F808380818D7F8083BA
:1021600088E48093B80085E48093BC0080EC97E01D
:102170009093B5048093B40481EC97E09093B304FA
:102180008093B2040895CF93C82F81E08093FF0419
:1021900082E580935906109200051092210587E090
:1021A00096E00E941A086C2F87E096E00E941A08B9
:1021B0000E948E0E6AE070E080E090E0CF910C9477
:1021C000110AFF920F931F93CF93DF93CDB7DEB722
:1021D0002C970FB6F894DEBF0FBECDBF66E082E548
:1021E0000E94EA0EF82E1092B7048093B6048E0176
:1021F0000F5F1F4F8091B704F81649F087E096E013
:102200000E94D107F801819391938F01F3CF8981C7
:102210009A819093A5048093A4048B819C819093D0
:10222000A7048093A6048B859C852D813E81A901FE
:10223000440F551F440F551F9C0135952795359523
:10224000279523703327242B352B3093A904209313
:10225000A8042F813885A901440F551F440F551F2D
:102260009C01E4E035952795EA95E1F72370332743
:10227000242B352B3093AB042093AA0429853A856F
:10228000A901440F551F440F551F9C01A6E0359529
:102290002795AA95E1F723703327242B352B30930C
:1022A000AD042093AC049C0121703327F1E02F276B
:1022B0003093AF042093AE0421E030E081FF02C0F0
:1022C00020E030E03093B1042093B00460E080E07F
:1022D0002C960FB6F894DEBF0FBECDBFDF91CF9125
:1022E0001F910F91FF900C94C310FC01808191818C
:1022F0000C942D25CF93DF93BC0182E295E00E94E0
:10230000D014EC016AEB72E082E295E00E94D014F6
:102310008C0F9D1FDF91CF9108958F929F92AF9266
:10232000BF92CF92DF92EF92FF920F931F93CF93C2
:10233000DF93EC01490181E0881A9108860E971E0F
:10234000C401A0E0B0E04B01A12CB12C54019924B0
:102350008824882A992AAA2ABB2A680181E0C81AF7
:10236000D108C40ED51EC601A0E0B0E06A01E12C80
:10237000F12C7601DD24CC24C82AD92AEA2AFB2AAA
:102380006AE2CE010E94A00C29A16B2D7727882735
:10239000992727FF18C06EBD0DB407FEFDCFC501FC
:1023A000AA27BB278EBD0DB407FEFDCFBB27AB2DE3
:1023B0009A2D892D8EBD0DB407FEFDCF8EBC0DB4B8
:1023C00007FEFDCF14C0CE010E94A50BB5018827E2
:1023D0009927CE010E94A50B99278B2D7A2D692D67
:1023E000CE010E94A50B682DCE010E94A50B6BE2C9
:1023F000CE010E94A00C29A16F2D7727882799274D
:1024000027FF18C06EBD0DB407FEFDCFC701AA2778
:10241000BB278EBD0DB407FEFDCFBB27AF2D9E2D74
:102420008D2D8EBD0DB407FEFDCFCEBC0DB407FEC5
:10243000FDCF14C0CE010E94A50BB70188279927B4
:10244000CE010E94A50B99278F2D7E2D6D2DCE01DB
:102450000E94A50B6C2DCE010E94A50B6CE2CE0153
:10246000DF91CF911F910F91FF90EF90DF90CF9070
:10247000BF90AF909F908F900C94A00CCF92DF9262
:10248000EF92FF920F931F93CF93DF936C017A012A
:102490008B01C0E0D0E0CE15DF0581F0D8016D9151
:1024A0008D01D601ED91FC910190F081E02DC601E6
:1024B0000995892B11F02196EECF7E01C701DF919E
:1024C000CF911F910F91FF90EF90DF90CF900895E3
:1024D0002F923F924F925F926F927F928F929F9234
:1024E000AF92BF92CF92DF92EF92FF920F931F9322
:1024F000CF93DF93CDB7DEB76B970FB6F894DEBFFF
:102500000FBECDBF9B8F8A8F5B011A01D22E1F8316
:102510000E833701C982DC0158962D913C91599761
:102520002115310509F0E6C018968D919C911997F7
:10253000681779070CF0CDC11A968D919C911B9765
:10254000481759070CF0C5C18C2C912CFB0126E0D3
:10255000C29EE00DF11D1124FB87EA871E161F069F
:102560000CF0B7C1A40183E0440F551F8A95E1F731
:102570005D874C87CA01820D931D181619060CF051
:10258000A8C157968C91811104C05FEA5D1508F4CB
:10259000D394AA8DBB8DED91FC9111970284F385A4
:1025A000E02DCD010995B5E0DB9EC0011124F501B8
:1025B0003596FF87EE87BB82AA8225019C012A19E6
:1025C0003B09398B288BA101485F5F4F5B8B4A8B9E
:1025D000E889F989E40DF51DEE53FF4F54915887B2
:1025E00061013D822C82888580FF13C0AA8DBB8D3E
:1025F000ED91FC91B981B13031F40484F585E02D81
:102600002E813F8116C00684F785E02DEE80FF8085
:102610001AC0EE81FF81E615F705F1F0AA8DBB8D9A
:10262000ED91FC91B981B13051F40484F585E02D30
:102630009301A601B2018A8D9B8D09950DC0068478
:10264000F785E02D7301840194014C815D816A81DD
:102650007B818A8D9B8D0995E885E695E887FFEF5C
:10266000CF1ADF0A2C813D81280D391D3D832C8333
:102670004A895B89C416D50609F0B5CF5FEF451AC4
:10268000550A8A819B81880D991D9B838A83AE851B
:10269000BF854A165B0609F09BCFEE81FF81E615E8
:1026A000F70509F4F4C0EA8DFB8DA081B181F981B1
:1026B000F13079F4B5016B5F7F4F5096ED91FC914D
:1026C0005197830128E030E0A1018A8D9B8D099507
:1026D000DEC06A857B85681979091E96ED91FC91AB
:1026E0001F9773010C851D859401A1018A8D9B8D17
:1026F0000995CDC0F9013496E491DE1AF9013296BC
:1027000085919491B7E0DB9E800D911D1124F90114
:10271000259134913B8B2A8BFC0125913491290121
:10272000FC013296C490319634913E8732961491D2
:102730003196D4904981423058F0612E012E000C20
:1027400077088D2D0D2C000C990B9987888704C074
:1027500019861886612C712CAA8DBB8DED91FC9188
:1027600011970284F385E02DCD010995B9818B2E57
:10277000912C689CC001699C900D789C900D11244F
:10278000FC01EA0DFB1DFD87EC871A82712C612C80
:10279000E12F110FFF0B95012E0F3F1F3B872A875B
:1027A000AC0CB11CA5014E0F5F1F5F8B4E8BC1019E
:1027B0008D0D911DD7FC9A95998F888F9E856916EE
:1027C00008F065C0862D90E048855985480F591F4F
:1027D000489D9001499D300D589D300D1124D10127
:1027E000A20FB31FB98BA88BEC85FD85FD83EC830D
:1027F000AA84BB84DA80FA85DF1A288D398D280FE8
:10280000391F3D8B2C8B8D2D8A0D4E895F89A41627
:10281000B506C1F1877041F4C2010196EA89FB89CE
:10282000E40DF51D74902C0177FE21C0AA8DBB8D9F
:10283000ED91FC91B981B13061F40484F585E02D0E
:102840002E813F814C895D89B5018A8D9B8D0995CB
:102850000EC00684F785E02DEE80FF808401940190
:10286000488959896C817D818A8D9B8D0995770C6A
:10287000EFEFAE1ABE0A2C813D81280D391D3D8334
:102880002C83C1CF3A813C0D3A83639497CFAA8DB4
:10289000BB8DED91FC9111970688F789E02DCD0154
:1028A0006B960FB6F894DEBF0FBECDBFDF91CF9110
:1028B0001F910F91FF90EF90DF90CF90BF90AF905E
:1028C0009F908F907F906F905F904F903F902F9050
:1028D00009946B960FB6F894DEBF0FBECDBFDF91A3
:1028E000CF911F910F91FF90EF90DF90CF90BF900D
:1028F000AF909F908F907F906F905F904F903F90A0
:102900002F900895EF92FF920F931F93CF93DF9331
:10291000EC01198218821B821A821D821C826115A9
:102920007105B9F17B01FB0101900020E9F73197B6
:102930008F01061B170BB8016F5F7F4F80E090E09F
:102940000E94B625009759F0998388831B830A83D8
:102950002C813D81232B81F4FC0110820DC08881E4
:102960009981009711F00E942D25198218821D82ED
:102970001C821B821A820DC01D830C83B7018881C3
:102980009981DF91CF911F910F91FF90EF900C945F
:102990008A26DF91CF911F910F91FF90EF900895BC
:1029A0006115710579F0FB0101900020E9F731977D
:1029B000AF01461B570BDC01ED91FC910280F381C6
:1029C000E02D099480E090E008958F929F92AF925D
:1029D000BF92EF92FF920F931F93CF93DF93CDB7E8
:1029E000DEB7A1970FB6F894DEBF0FBECDBF7C0156
:1029F000FA01CB0119A2223008F42AE08E010F5D02
:102A00001F4F822E912CA12CB12CBF01A501940146
:102A10000E94E623F901CA01015011096A3014F439
:102A2000605D01C0695CD8016C93232B242B252B9E
:102A300061F7B801C7010E94D014A1960FB6F894AF
:102A4000DEBF0FBECDBFDF91CF911F910F91FF90E1
:102A5000EF90BF90AF909F908F900895CF93DF93AA
:102A600000D000D000D0CDB7DEB7789484B58260B6
:102A700084BD84B5816084BD85B5826085BD85B522
:102A8000816085BD80916E00816080936E001092A0
:102A9000810080918100826080938100809181001B
:102AA00081608093810080918000816080938000AC
:102AB0008091B10084608093B1008091B00081600A
:102AC0008093B00080917A00846080937A00809136
:102AD0007A00826080937A0080917A00816080938E
:102AE0007A0080917A00806880937A001092C10009
:102AF0001092030610920406109205061092060624
:102B00001092C1051092C2051092C3051092C4051F
:102B10000E944B0A4B015C012B013C0128EB420E49
:102B20002BE0521E611C711C0E944B0A681579052E
:102B30008A059B0528F04616570668067906A0F711
:102B400082E295E09093020680930106E0913205BF
:102B5000F091330582E08083E0912E05F0912F05FE
:102B60001082E0913005F091310580E18083109270
:102B70003A05E0913605F091370586E08083E091D3
:102B80003405F0913505808180618083E0913405C2
:102B9000F0913505808188608083E0913405F09163
:102BA0003505808180688083E0913405F09135059A
:102BB00080818F7D80830E944B0A6093C105709352
:102BC000C2058093C3059093C4056BEA72E08091BF
:102BD0000106909102060E94D0140E944B0A4B01FC
:102BE0005C012B013C014AE0440E511C611C711C2C
:102BF0000E944B0A681579058A059B0528F0461640
:102C0000570668067906A0F781E08093D505529AA9
:102C10005D9852985A98E89A8091690082608093F2
:102C200069007894539A8091B0008E7F8093B000B1
:102C30008091B0008D7F8093B0008091B100877F3C
:102C40008093B1008091B10081608093B100809148
:102C5000B1008D7F8093B1008091B1008B7F809314
:102C6000B10080911D06882311F088E701C089EB2F
:102C70008093B40080917000846080937000789499
:102C80008091B0008F7E8093B0008091B0008F7DE6
:102C90008093B0008091E0038111FCCF1092590322
:102CA0001092580388EE93E090935B0380935A034D
:102CB00088E097E090935D0380935C03E8E5F3E0A0
:102CC00048E057E020E030E06BEF862E64E0962E7F
:102CD000AA24AA94B12CD501C401022E04C0B69531
:102CE000A795979587950A94D2F780FF04C0CA01EB
:102CF00080579E4F03C0CA0188539F4F9783868396
:102D0000AC0148535F4F518740872F5F3F4F349648
:102D10002032310501F788519C4F9093DF03809357
:102D2000DE0380E092E1AAE7B0E08093380690935A
:102D30003906A0933A06B0933B0661E080913D06C8
:102D40000E94D50960E080913D060E94A60961E0DD
:102D500080913C060E94D50961E080913C060E946A
:102D6000A60980913F0687FD1EC061E08091400664
:102D70000E94D50960E0809140060E94A60961E0AA
:102D800080913F060E94D50961E080913F060E9434
:102D9000A6098091410687FD03C060E00E94D50925
:102DA00080913F0687FD0E946F0B80913E0687FD54
:102DB00024C061E00E94D50961E080913E060E9436
:102DC000A60964E670E080E090E00E94110A60E0ED
:102DD00080913E060E94A60964E670E080E090E0E3
:102DE0000E94110A61E080913E060E94A60968ECEB
:102DF00070E080E090E00E94110A8EE196E00E946F
:102E00005C0E6FEE8EE196E00E94A00C63E08EE116
:102E100096E00E94A50B60E88EE196E00E94A50B6B
:102E200062E08EE196E00E94A50B6FEC8EE196E0E9
:102E30000E94A00C60E08EE196E00E94A50B61EC80
:102E40008EE196E00E94A50B60E38EE196E00E9481
:102E5000A50B6DEE8EE196E00E94A00C64E68EE17B
:102E600096E00E94A50B63E08EE196E00E94A50B20
:102E700062E18EE196E00E94A50B61E88EE196E0AA
:102E80000E94A50B68EE8EE196E00E94A00C65E81A
:102E90008EE196E00E94A50B60E08EE196E00E9434
:102EA000A50B68E78EE196E00E94A50B6BEC8EE126
:102EB00096E00E94A00C69E38EE196E00E94A50BCB
:102EC0006CE28EE196E00E94A50B60E08EE196E058
:102ED0000E94A50B64E38EE196E00E94A50B62E0E0
:102EE0008EE196E00E94A50B67EF8EE196E00E94CE
:102EF000A00C60E28EE196E00E94A50B6AEE8EE1E6
:102F000096E00E94A00C60E08EE196E00E94A50B86
:102F100060E08EE196E00E94A50B60EC8EE196E009
:102F20000E94A00C63E28EE196E00E94A50B61EC8A
:102F30008EE196E00E94A00C60E18EE196E00E9496
:102F4000A50B65EC8EE196E00E94A00C6EE38EE18D
:102F500096E00E94A50B68E28EE196E00E94A50B28
:102F600067EC8EE196E00E94A00C66E88EE196E0A8
:102F70000E94A50B66E38EE196E00E94A00C68E437
:102F80008EE196E00E94A50B67E38EE196E00E9439
:102F9000A00C80913F0687FF09C01EBC0DB407FE40
:102FA000FDCF1EBC0DB407FEFDCF0AC060E08EE170
:102FB00096E00E94A50B60E08EE196E00E94A50BD2
:102FC0006AE38EE196E00E94A00C65E58EE196E052
:102FD0000E94A50B61EB8EE196E00E94A00C60E0E0
:102FE0008EE196E00E94A50B68E18EE196E00E94DA
:102FF000A50B66EB8EE196E00E94A00C68E08EE1E6
:1030000096E00E94A50B62E88EE196E00E94A50B77
:1030100067E28EE196E00E94A50B62EF8EE196E0FA
:103020000E94A00C60E08EE196E00E94A50B66E293
:103030008EE196E00E94A00C61E08EE196E00E9495
:10304000A50B60EE8EE196E00E94A00C6FE08EE191
:1030500096E00E94A50B61E38EE196E00E94A50B2D
:103060006BE28EE196E00E94A50B6CE08EE196E0AB
:103070000E94A50B6EE08EE196E00E94A50B68E031
:103080008EE196E00E94A50B6EE48EE196E00E9430
:10309000A50B61EF8EE196E00E94A50B67E38EE140
:1030A00096E00E94A50B67E08EE196E00E94A50BDA
:1030B00060E18EE196E00E94A50B63E08EE196E070
:1030C0000E94A50B6EE08EE196E00E94A50B69E0E0
:1030D0008EE196E00E94A50B60E08EE196E00E94F2
:1030E000A50B61EE8EE196E00E94A00C60E08EE1FF
:1030F00096E00E94A50B6EE08EE196E00E94A50B83
:1031000064E18EE196E00E94A50B63E08EE196E01B
:103110000E94A50B61E18EE196E00E94A50B67E09D
:103120008EE196E00E94A50B61E38EE196E00E949D
:10313000A50B61EC8EE196E00E94A50B68E48EE1A0
:1031400096E00E94A50B68E08EE196E00E94A50B38
:103150006FE08EE196E00E94A50B6CE08EE196E0B8
:103160000E94A50B61E38EE196E00E94A50B66E349
:103170008EE196E00E94A50B6FE08EE196E00E9442
:10318000A50B61E18EE196E00E94A00C68E770E07B
:1031900080E090E00E94110A69E28EE196E00E94D0
:1031A000A00C68E770E080E090E00E94110A8EE1D8
:1031B00096E00E944E0E80EF90E090932706809359
:1031C000260680E491E0909329068093280661E02A
:1031D0008EE196E00E94D30C3A9A3B9A439A0E9461
:1031E0004B0A4B015C010E944B0ADC01CB018819A0
:1031F0009909AA09BB0984369105A105B10598F37F
:103200000E94911060EF85E50E94C3106BEF80E093
:103210000E94C3100E94E110909151069F3F59F106
:103220008091540661E08F3FA1F4892F0E94D50957
:1032300061E0809151060E94A6090E946F0B81E512
:103240008093130610921406109257061092560699
:1032500017C00E94D50961E0809151060E94D509EE
:1032600061E0809152060E94D50960E0809153068A
:103270000E94D50905C00E94911081E480935506F3
:103280000E947F108131984061F462E083E00E94E7
:10329000850F6AE070E080E090E00E94110A10E083
:1032A0001CC0809151068F3F09F459C0809154068B
:1032B0008F3F09F054C085E58093130610921406E1
:1032C00084E090E090935706809356060E947F100A
:1032D0008131984009F043C0D8CF812F0E94CB0F95
:1032E0001F5F1134D1F760E084E00E94850F61E038
:1032F00080E40E94850F61E08AE00E94850F60E60D
:1033000080E20E94850F62E081E20E94850F64EAFC
:1033100081E40E94850F66E086E50E94850F61E0EA
:103320008AE40E94850F61E08BE40E94850F60E0D3
:103330008BE40E94850F61E088E50E94850F6FEFA6
:103340008BE00E94850F65E089E00E94850F109256
:1033500043041092420454E0252E312C1AC1FFCFB1
:10336000809125048111FCCF80E090E0812C912C8C
:10337000540160E0E5E1F6E013E070E0DC01AA0F43
:10338000BB1FAF51BC4F4D915C911197228133818E
:103390004217530708F415C17F5F3296733099F7CF
:1033A00011111AC101E010E020E030E0062E04C047
:1033B000000F111F221F331F0A94D2F7009510959A
:1033C0002095309580229122A222B3226F5F019630
:1033D0008232910579F68B2D9927AA27BB27B50153
:1033E000A4014095509560957095861309C180930E
:1033F0002604892D90E090932804809327040E944E
:103400004B0A609348047093490480934A04909354
:103410004B040E944B0A00914404109145042091F2
:1034200046043091470408511C4F2F4F3F4F6017FF
:1034300071078207930788F16BEC72E082E295E0F6
:103440000E94D0144091260450E060E070E020E13A
:1034500082E295E00E94E51464ED72E082E295E07C
:103460000E94D014409127045091280460E070E03D
:1034700020E182E295E00E94E5146AEB72E082E2CC
:1034800095E00E94D0140E944B0A6093440470930C
:10349000450480934604909347048BE40E94CB0F2D
:1034A00085FD75C08E010F5F1F4F6E01F5E0CF0ED9
:1034B000D11C480187ED0E94CB0FF80181938F0149
:1034C000CE16DF06B9F7A980F0E1AF9EA001112466
:1034D0008A81A82EB12C94E0B594A7949A95E1F72F
:1034E000A42AB52A8F70C82ED12CDC2CCC248B8139
:1034F000C82A1C818BE40E94CB0F85FF04C06FEFAC
:103500008BE00E94850F812F90E00B978D3D9340BB
:1035100060F5A0912606B0912706A50160E070E055
:103520009A01AB0126593109410951090E943224FF
:1035300022E43EE040E050E00E9408245901A091BE
:103540002806B0912906A60160E070E09A01AB015F
:1035500022583109410951090E9432242EE13FE0ED
:1035600040E050E00E94082469010091420410915B
:1035700043040230110509F438C108F046C00115B2
:10358000110509F44DC00130110509F4B3C00E94C2
:10359000E4030E944B0A00914804109149042091D1
:1035A0004A0430914B040C591F4F2F4F3F4F601767
:1035B00071078207930708F42CCF81E08093E00322
:1035C000CFCE4D915C911197208131812417350721
:1035D00008F0E2CE172FE0CE113009F0F8CE01E06E
:1035E00010E020E030E0062E04C0000F111F221F63
:1035F000331F0A94D2F7802A912AA22AB32AE6CE50
:103600008DEB92E00E947A11FACE0430110509F494
:103610009BC608F45FC10530110509F4DEC6B7CFBB
:103620008091400490914104892B61F460E070E046
:103630008EE196E00E94F50481E090E090934104D1
:103640008093400480EEE82EFF24FA9408E210E014
:103650002AE530E042E650E066E470E08EE196E074
:103660000E94AB066DED72E0C4010E9482149401C9
:1036700041E050E063E770E085E590E00E94610F73
:10368000C4010E94751125E530E042E650E065EA8C
:1036900070E08EE196E00E94AB0669EE72E0C40134
:1036A0000E948214940141E050E063E770E082EBF5
:1036B00090E00E94610FC4010E9475114CE8A41AA9
:1036C000B1085EE2A516B10408F061CFC601C29749
:1036D000CD9708F0CBC684EF92E00E947A1181E08A
:1036E00090E090934304809342041092410410921E
:1036F0004004BCC68091400490914104892B51F450
:1037000060E070E08EE196E00E94F50410934104C1
:103710000093400400EEE02EFF24FA940EE510E042
:103720002CE430E045E550E06CE070E08EE196E09E
:103730000E94AB066DE173E0C4010E948214940103
:1037400043E050E068E770E08EE190E00E94610F96
:10375000C4010E94751100E210E02CE430E046EB59
:1037600050E06CE070E08EE196E00E94AB0661E212
:1037700073E0C4010E948214940141E050E063ECC4
:1037800070E088E290E00E94610FC4010E94751110
:10379000C5018A5591098F36910570F4C6010F97BE
:1037A0008E9750F4109241041092400483E090E010
:1037B00090934304809342049DE2A91AB108EAE180
:1037C000AE16B10408F0E3CEFFE0CF1AD1082EE226
:1037D000C216D10408F0DBCE1092410410924004CE
:1037E0001092430410924204D2CE809140049091F2
:1037F0004104892B61F460E070E08EE196E00E9464
:10380000F50481E090E0909341048093400410EE31
:10381000E12EFF24FA940EE510E02CE430E045E5BB
:1038200050E06CE070E08EE196E00E94AB066DE146
:1038300073E0C4010E948214940143E050E068E701
:1038400070E08EE190E00E94610FC4010E9475114A
:1038500000E210E02CE430E046EB50E06CE070E079
:103860008EE196E00E94AB0661E273E0C4010E9423
:103870008214940141E050E063EC70E088E290E053
:103880000E94610FC4010E947511C5018A559109FA
:103890008F36910570F4C6010F978E9750F41092F1
:1038A00041041092400483E090E09093430480939D
:1038B00042044DE2A41AB1085AE1A516B10408F079
:1038C00066CE8FE0C81AD1089EE2C916D10408F46A
:1038D00083CF5DCE60E070E08EE196E00E94F5045B
:1038E00040915302509154026091510270915202E2
:1038F000E0EEEE2EE7E0FE2E04E110E024E130E001
:103900008EE196E00E94AB06FFE1EF2EF12C24E160
:1039100030E048EC50E06EE071E08EE196E00E940D
:10392000AB06A7E04A2EA1E05A2EB4E1CB2ED12C53
:1039300042015AE0A52EB12C3401F401808191811D
:10394000019769F4E12C48EFF42E04E110E024E142
:1039500030E0A601B5018EE196E00E94AB06F2E0F0
:103960008F0E911CF30180819181029771F4EE24F6
:10397000EA9437E0F32E04E110E024E130E0A60100
:10398000B5018EE196E00E94AB06F4E1AF0EB11CEA
:1039900026E3A21621E0B20679F644E1C40ED11C5A
:1039A0005EE1450E511C80EFC816D10409F62FE0E8
:1039B000522E4424439480910601882309F4E7CDD4
:1039C0000E944B0A4B015C010E944B0ADC01CB01B7
:1039D00088199909AA09BB0984369105A105B10581
:1039E00098F30E94E1108091A6049091A704209181
:1039F000A4043091A504853B91055CF0A9014556CE
:103A000051094F345105A8F4109205011092040198
:103A10002DC0813491056CF4A901455651094F34EC
:103A2000510538F4E2E0F0E0F0930501E093040181
:103A30001DC0253B310564F0855691098F349105F1
:103A4000A8F441E050E050930501409304010EC0FA
:103A5000213431055CF4855691098F34910530F499
:103A600083E090E09093050180930401809104012C
:103A700090910501892B09F06FC00E94E11080919F
:103A80000201909103010197589EF001599EF00D9B
:103A900011248091000190910101E80FF91FEE0FB0
:103AA000FF1FE95FFE4F808191818B7F892B09F099
:103AB0004FC04091530250915402445151096091BA
:103AC00051027091520210EEE12E17E0F12E04E146
:103AD00010E024E130E08EE196E00E94AB06809198
:103AE000020190910301589EF001599EF00D11249E
:103AF0008091000190910101E80FF91FEE0FFF1F67
:103B0000E95FFE4F80819181039781F040915302DC
:103B1000509154026091510270915202E12CF12CAB
:103B200024E130E08EE196E00E94AB0680915302E2
:103B30009091540244979093540280935302809141
:103B40000201909103010197909303018093020178
:103B500030920501209204018091040190910501A9
:103B6000029709F06FC00E94E110809102019091CC
:103B700003010196589EF001599EF00D1124809189
:103B8000000190910101E80FF91FEE0FFF1FE95F9F
:103B9000FE4F808191818B7F892B09F04FC040912E
:103BA0005302509154024C5E5F4F609151027091EC
:103BB0005202E0EEEE2EE7E0FE2E04E110E024E1FA
:103BC00030E08EE196E00E94AB0680910201909178
:103BD0000301589EF001599EF00D112480910001BF
:103BE00090910101E80FF91FEE0FFF1FE95FFE4FF3
:103BF00080819181039781F040915302509154024A
:103C00006091510270915202E12CF12C24E130E0DC
:103C10008EE196E00E94AB0680915302909154028F
:103C200044969093540280935302809102019091A4
:103C300003010196909303018093020130920501E4
:103C4000209204018091040190910501019709F0EF
:103C50006FC00E94E1102091020130910301529E39
:103C6000C001539E900D1124E0910001F0910101DB
:103C70003196E80FF91FEE0FFF1FE95FFE4F8081BD
:103C800091818B7F892B09F04FC040915302509155
:103C9000540260915102709152026C5E7F4F20EE8F
:103CA000E22E27E0F22E04E110E024E130E08EE184
:103CB00096E00E94AB068091020190910301589E0C
:103CC000F001599EF00D11248091000190910101A5
:103CD000E80FF91FEE0FFF1FE95FFE4F8081918112
:103CE000039781F040915302509154026091510228
:103CF00070915202E12CF12C24E130E08EE196E04B
:103D00000E94AB068091510290915202449690938A
:103D1000520280935102809100019091010101961D
:103D200090930101809300013092050120920401DB
:103D30008091040190910501039709F06FC00E94E2
:103D4000E1102091020130910301529EC001539E67
:103D5000900D1124E0910001F09101013197E80FDD
:103D6000F91FEE0FFF1FE95FFE4F808191818B7F6E
:103D7000892B09F04FC04091530250915402609139
:103D80005102709152026451710900EEE02E07E079
:103D9000F02E04E110E024E130E08EE196E00E9494
:103DA000AB068091020190910301589EF001599E4B
:103DB000F00D11248091000190910101E80FF91F8D
:103DC000EE0FFF1FE95FFE4F80819181039781F025
:103DD00040915302509154026091510270915202ED
:103DE000E12CF12C24E130E08EE196E00E94AB065C
:103DF0008091510290915202449790935202809385
:103E0000510280910001909101010197909301016D
:103E10008093000130920501209204018091AE044C
:103E20009091AF04019709F05DC080913F0481112A
:103E300059C08091020190910301589EF001599E52
:103E4000F00D11248091000190910101E80FF91FFC
:103E5000EE0FFF1FE95FFE4F43E050E051834083C8
:103E6000409153025091540260915102709152025C
:103E700010EEE12EFF24FA9404E110E024E130E09A
:103E80008EE196E00E94AB060E944B0A60933B04D1
:103E900070933C0480933D0490933E0440923A0416
:103EA000809102019091030190933904809338042A
:103EB0008091000190910101909337048093360422
:103EC000809153029091540290933504809334046E
:103ED0008091510290915202909333048093320466
:103EE00040923F0480903B0490903C04A0903D049D
:103EF000B0903E0450ED850E57E0951EA11CB11CFC
:103F00000E944B0A681579058A059B0508F43FC194
:103F100080913A04882309F43AC16FE373E082E2A6
:103F200095E00E94D014209138043091390480919A
:103F3000360490913704529EF001539EF00D1124E7
:103F4000E80FF91FEE0FFF1FE95FFE4F44E050E05E
:103F50005183408321503109529EF001539EF00D50
:103F60001124E80FF91FEE0FFF1FE95FFE4F80815C
:103F70009181019771F1409134045091350444517D
:103F800051096091320470913304E0EEEE2EFF246B
:103F9000FA9404E110E024E130E08EE196E00E9422
:103FA000AB0680913804909139040197589EF00136
:103FB000599EF00D11248091360490913704E80F3A
:103FC000F91FEE0FFF1FE95FFE4F84E090E0918341
:103FD00080832091380430913904529EC001539E51
:103FE000900D1124E0913604F09137043196E80FDA
:103FF000F91FEE0FFF1FE95FFE4F8081918101974E
:1040000071F1409134045091350460913204709103
:1040100033046C5E7F4F90EEE92EFF24FA9404E1A6
:1040200010E024E130E08EE196E00E94AB062091A2
:10403000380430913904529EC001539E900D1124D2
:10404000E0913604F09137043196E80FF91FEE0F36
:10405000FF1FE95FFE4F44E050E0518340838091B1
:104060003804909139040196589EF001599EF00D44
:1040700011248091360490913704E80FF91FEE0F58
:10408000FF1FE95FFE4F80819181019771F140919F
:104090003404509135044C5E5F4F6091320470914E
:1040A000330410EEE12EFF24FA9404E110E024E141
:1040B00030E08EE196E00E94AB068091380490914A
:1040C00039040196589EF001599EF00D11248091FB
:1040D000360490913704E80FF91FEE0FFF1FE95FD8
:1040E000FE4F84E090E091838083209138043091EA
:1040F0003904529EC001539E900D1124E091360464
:10410000F09137043197E80FF91FEE0FFF1FE95FB9
:10411000FE4F80819181019771F14091340450915B
:104120003504609132047091330464517109E0EEFA
:10413000EE2EFF24FA9404E110E024E130E08EE159
:1041400096E00E94AB062091380430913904529ECB
:10415000C001539E900D1124E0913604F091370474
:104160003197E80FF91FEE0FFF1FE95FFE4F44E0A4
:1041700050E05183408310923A040E944B0A6093AE
:104180002E0470932F048093300490933104809117
:10419000020190910301589EF001599EF00D1124E7
:1041A0008091000190910101E80FF91FEE0FFF1FB0
:1041B000E95FFE4F808191818430910511F007976E
:1041C00041F485E090E09093430480934204109280
:1041D000060180902E0490902F04A0903004B0909F
:1041E00031049CED890E95E0991EA11CB11C0E9422
:1041F0004B0A681579058A059B05D0F180913A0430
:10420000811136C027E0622E21E0722E34E1C32EE8
:10421000D12C43019AE0A92EB12CF4018081918127
:104220000397029770F411821082E12CF12C04E1C3
:1042300010E024E130E0A601B5018EE196E00E9495
:10424000AB06F2E08F0E911C24E1A20EB11C46E3F6
:10425000A41641E0B40609F75EE1650E711C84E125
:10426000C80ED11C90EFC916D10499F610923F04E4
:1042700080902A0490902B04A0902C04B0902D04E0
:10428000ECED8E0EE5E09E1EA11CB11C0E944B0AB7
:10429000681579058A059B0540F480912F0290915D
:1042A000300284309105D1F53BC080912904811101
:1042B000F4CF07E0602E01E0702E84E1C82ED12CEF
:1042C00043011AE0A12EB12CF4018081918106975F
:1042D000029770F411821082E12CF12C04E110E0BD
:1042E00024E130E0A601B5018EE196E00E94AB0624
:1042F000F2E08F0E911C24E1A20EB11C46E3A4163D
:1043000041E0B40609F75EE1650E711C84E1C80E58
:10431000D11C90EFC916D10499F6BFCF079731F49D
:104320003092430420924204109206010E944B0AEC
:10433000603D77408105910508F43DCB80912904CB
:10434000882309F438CBA9C06FE178EF8EE196E0BD
:104350000E94F50470EEE72EFF24FA9400E210E0CC
:104360002CE430E046EB50E06CE070E08EE196E04B
:104370000E94AB0661E273E0C4010E9482149401C2
:1043800041E050E063EC70E088E290E00E94610F51
:10439000C4010E9475116FE273E0C4010E9482148F
:1043A000940144E050E060E570E08AE590E00E940E
:1043B000610FC4010E947511FDE2AF1AB1082AE134
:1043C000A216B10408F0E3C84FE0C41AD1085EE2B7
:1043D000C516D10408F400CADAC860E078EF8EE1AF
:1043E00096E00E94F50460EEE62EFF24FA9400E2C7
:1043F00010E02CE430E046EB50E06CE070E08EE141
:1044000096E00E94AB0661E273E0C4010E94821450
:10441000940141E050E063EC70E088E290E00E949B
:10442000610FC4010E94751166E373E0C4010E942C
:104430008214940144E050E060E570E08CE390E089
:104440000E94610FC4010E9475118DE2A81AB10883
:104450009AE1A916B10408F09AC8EFE0CE1AD10883
:10446000FEE2CF16D10408F4B7C991C828E7C21AF2
:10447000D1084DE3C416D10408F089C889E093E05F
:104480000E947A1182E090E090934304809342046A
:1044900010924104109240047AC865E473E082E20D
:1044A00095E00E94D0146CE473E082E295E00E94F3
:1044B000D01486E090E090930801809307018091EA
:1044C000E9009091EA000197E1F066E273E082E290
:1044D00095E00E94D014B0EEEB2EFF24FA9404E194
:1044E00010E024E130E04CEE5FEF60E070E08EE140
:1044F00096E00E94AB0687E090E09093EA008093FC
:10450000E9008091090190910A010197B1F0A0EEB4
:10451000EA2EFF24FA9404E110E024E130E040E0C8
:1045200050E064E170E08EE196E00E94AB0687E027
:1045300090E090930A018093090180912501909168
:1045400026010197B1F0F0EEEF2EFF24FA9404E17A
:1045500010E024E130E044E150E060E070E08EE102
:1045600096E00E94AB0687E090E09093260180934E
:10457000250180910501909106010197B1F0E0EECF
:10458000EE2EFF24FA9404E110E024E130E040E054
:1045900050E06CEE7FEF8EE196E00E94AB0687E084
:1045A00090E09093060180930501109229040E94E7
:1045B0004B0A60932A0470932B0480932C049093ED
:1045C0002D04F7C9E2E2F5E01382128288EE93E04F
:1045D000A0E0B0E084839583A683B7832FE532E023
:1045E0003183208325EC30E03587248724EC30E0CC
:1045F0003787268720EC30E0318B208B21EC30E0B0
:10460000338B228B22EC30E0358B248B26EC30E090
:10461000378B268B118E128E138E148EEFEBF5E0F6
:1046200016821782108611861286138614861586C6
:1046300016861786108A118A128A138A148A158A96
:10464000E7E0F6E01382128284839583A683B78322
:1046500081E792E091838083E3E1F6E080E5808367
:10466000118291E090931D06E5E1F6E02CE231E045
:10467000318320832CEB32E03383228320ED37E03B
:104680003583248328EB3BE037832683E1E5F6E09E
:1046900088E080838FEF838382838183AEE1B6E0FD
:1046A00013961C921E92129740EF50E015965C9361
:1046B0004E93149720E431E017963C932E9316976F
:1046C00019965C934E9318971B963C932E931A97CA
:1046D00055961C9255971D961C921E921C971F96DC
:1046E0001C921E921E9754969C9354972FEF3FEF67
:1046F00053963C932E93529751963C932E935097FA
:1047000056969C93569757961C92579759961C927B
:104710001E92589723E832E011963C932E939AE02C
:104720005E969C935E9799E05F969C935F979096B8
:104730008C93909791968C93919792968C93929755
:1047400093968C9393975A961D921D921D921C924C
:104750005D97E8EBF0E0E491F0E0EE0FFF1FEC5521
:10476000FF4F859194919D969C938E939C97EAE937
:10477000F0E0E491D196EC93D197E7EBF0E0E4918F
:10478000F0E0EE0FFF1FEC55FF4F859194919B9643
:104790009C938E939A97E9E9F0E0E491D296EC939A
:1047A000D29799961C921E929897D0961C92D09769
:1047B00095961C921E9294979E961C929E97979601
:1047C0001C921E9296979F961C920895A1E21A2E13
:1047D000AA1BBB1BFD010DC0AA1FBB1FEE1FFF1FA5
:1047E000A217B307E407F50720F0A21BB30BE40BF5
:1047F000F50B661F771F881F991F1A9469F760953C
:104800007095809590959B01AC01BD01CF010895F5
:10481000052E97FB1EF400940E941F2457FD07D01D
:104820000E94E62307FC03D04EF40C941F245095FD
:104830004095309521953F4F4F4F5F4F089590958C
:104840008095709561957F4F8F4F9F4F08950E947F
:104850007124A59F900DB49F900DA49F800D911D74
:1048600011240895B7FF0C9427240E942724821B4B
:10487000930B08952F923F924F925F926F927F9287
:104880008F929F92AF92BF92CF92DF92EF92FF9260
:104890000F931F93CF93DF93CDB7DEB7CA1BDB0B0C
:1048A0000FB6F894DEBF0FBECDBF09942A883988B1
:1048B00048885F846E847D848C849B84AA84B984B8
:1048C000C884DF80EE80FD800C811B81AA81B981C4
:1048D000CE0FD11D0FB6F894DEBF0FBECDBFED01D8
:1048E0000895A29FB001B39FC001A39F700D811DC9
:1048F0001124911DB29F700D811D1124911D0895E9
:104900000E947124332312F48A1B9B0B0C948A247B
:104910000E947124B7FF0895821B930B0895EE0F38
:10492000FF1F0590F491E02D09940F931F93CF93EF
:10493000DF938230910510F482E090E0E0915C0614
:10494000F0915D0620E030E0A0E0B0E0309719F192
:10495000408151810281138148175907C8F084179B
:10496000950769F4109731F012960C9312971396ED
:104970001C9327C000935C0610935D0622C021158E
:10498000310519F04217530718F49A01BD01EF01E0
:10499000DF01F801DBCF21153105F9F0281B390BB8
:1049A0002430310580F48A819B816115710521F0E5
:1049B000FB019383828304C090935D0680935C0621
:1049C000FE01329644C0FE01E20FF31F81939193E2
:1049D00022503109398328833AC020915A063091F8
:1049E0005B06232B41F420915702309158023093FB
:1049F0005B0620935A0620915502309156022115EC
:104A0000310541F42DB73EB74091590250915A02F9
:104A1000241B350BE0915A06F0915B06E217F30771
:104A2000A0F42E1B3F0B2817390778F0AC014E5F1E
:104A30005F4F2417350748F04E0F5F1F50935B06FA
:104A400040935A068193919302C0E0E0F0E0CF01D9
:104A5000DF91CF911F910F910895CF93DF9300972E
:104A600009F481C0FC01329713821282A0915C0686
:104A7000B0915D06109781F420813181820F931FE0
:104A800020915A0630915B062817390751F5F093AB
:104A90005B06E0935A0667C0ED0120E030E0CE17D8
:104AA000DF0740F44A815B819E0141155105F1F019
:104AB000EA01F5CFD383C28340815181840F951FD2
:104AC000C817D90759F488819981840F951F0296D8
:104AD000918380838A819B81938382832115310511
:104AE00029F4F0935D06E0935C063DC0E901FB8389
:104AF000EA8349915991C40FD51FEC17FD0761F462
:104B000080819181840F951F0296E90199838883A2
:104B1000828193819B838A83E0E0F0E012968D91FD
:104B20009C911397009719F0FD01DC01F7CF8D914F
:104B30009C9111979D012E5F3F4F820F931F2091F3
:104B40005A0630915B062817390769F4309729F423
:104B500010925D0610925C0602C013821282B0931E
:104B60005B06A0935A06DF91CF910895A0E0B0E0D4
:104B7000ECEBF5E20C943E24EC01009721F4CB0120
:104B80000E949524B4C0FC01E60FF71F9C0122503F
:104B90003109E217F30708F4A8C0D9010D911C915F
:104BA000119706171707B0F00530110508F49BC0E0
:104BB000C80104978617970708F495C00250110999
:104BC000061B170B019311936D937C93CF010E94E9
:104BD0002D2589C05B01A01AB10A4C01800E911EDF
:104BE000A0915C06B0915D06612C712CE12CF12C3A
:104BF000109709F446C08D919C911197A815B9059D
:104C0000B1F56C0142E0C40ED11CCA14DB0478F18A
:104C10004C018A189B08640142E0C40ED11C129614
:104C2000BC9012971396AC91B5E0CB16D10440F02E
:104C3000B282A38391828082D9016D937C9309C053
:104C40000E5F1F4F800F911FF90191838083EB2D21
:104C5000FA2FE114F10431F0D7011396FC93EE938F
:104C6000129741C0F0935D06E0935C063CC0681665
:104C7000790608F43C017D0112960D90BC91A02D9F
:104C8000B7CF80915A0690915B0688169906E1F499
:104C900066167706C8F480915502909156020097E7
:104CA00041F48DB79EB74091590250915A02841B2E
:104CB000950BE817F907C8F4F0935B06E0935A06E2
:104CC000F901718360830FC0CB010E9495247C01A0
:104CD000009759F0A801BE010E948126CE010E94D2
:104CE0002D25C70104C0CE0102C080E090E0CDB701
:104CF000DEB7EEE00C945A2481E090E0F8940C9436
:104D00009126FB01DC0102C001900D924150504000
:104D1000D8F70895FB01DC0101900D920020E1F726
:064D20000895F894FFCF96
:104D26000100010004000101000100010001000171
:104D36000001000100010001000100010001000165
:104D46000001000100010000000000020000000256
:104D56000000000200000002000000020000000047
:104D66000001000100000001000000010000000138
:104D76000000000100000001000000010000000129
:104D86000001000200000002000000020000000214
:104D96000000000200000002000000020001000105
:104DA60000000001000000010000000100000001F9
:104DB60000000001000000010000000100010002E7
:104DC60000000002000000020000000200000002D5
:104DD60000000002000000020001000100000001C6
:104DE60000000001000000010000000100000001B9
:104DF60000000001000000010001000200000002A6
:104E06000000000200000002000000020000000294
:104E16000000000200010001000000010000000186
:104E26000000000100000001000000010000000178
:104E36000000000100010000000000020000000266
:104E46000000000200000002000000020000000056
:104E56000001000100010001000100010001000144
:104E66000001000100010001000100010001000134
:104E7600001E00280000005E06800000000000758D
:104E8600033E120C03C2033D031B032F0300000065
:104E9600001A08ED074A08C905E507D107C2070049
:104EA6000000004F083E124A0849083C075C0E61A4
:104EB6000CD00B7A076707F9054E0ED30CB60C0D0E
:104EC60007DE06AB06F50488042904564D44505601
:104ED6005F317C315F564D4450560D0A0072656352
:104EE60069657665206661696C2100636F6D616E28
:104EF600646F2000207761617264652000537461DD
:104F06007274204C6F626279004A6F696E204C6F32
:104F16006262790020204E4558542053544154452E
:104F2600203D2053746172740020204E4558542051
:104F36005354415445203D204A6F696E00474F2126
:104F4600004261636B0066696C6C5265637400575E
:104F5600494E4E455200594F55204C4F534500730C
:104F660074617274007032626F6D62002F6E20651C
:084F760078706C6F736965002F
:107E0000112484B714BE81FFF0D085E080938100F7
:107E100082E08093C00088E18093C10086E0809377
:107E2000C20080E18093C4008EE0C9D0259A86E02C
:107E300020E33CEF91E0309385002093840096BBD3
:107E4000B09BFECF1D9AA8958150A9F7CC24DD24C4
:107E500088248394B5E0AB2EA1E19A2EF3E0BF2EE7
:107E6000A2D0813461F49FD0082FAFD0023811F036
:107E7000013811F484E001C083E08DD089C08234E0
:107E800011F484E103C0853419F485E0A6D080C0E4
:107E9000853579F488D0E82EFF2485D0082F10E0AE
:107EA000102F00270E291F29000F111F8ED06801E7
:107EB0006FC0863521F484E090D080E0DECF843638
:107EC00009F040C070D06FD0082F6DD080E0C81688
:107ED00080E7D80618F4F601B7BEE895C0E0D1E017
:107EE00062D089930C17E1F7F0E0CF16F0E7DF06D8
:107EF00018F0F601B7BEE89568D007B600FCFDCFD4
:107F0000A601A0E0B1E02C9130E011968C91119780
:107F100090E0982F8827822B932B1296FA010C0160
:107F200087BEE89511244E5F5F4FF1E0A038BF0790
:107F300051F7F601A7BEE89507B600FCFDCF97BE46
:107F4000E89526C08437B1F42ED02DD0F82E2BD052
:107F50003CD0F601EF2C8F010F5F1F4F84911BD097
:107F6000EA94F801C1F70894C11CD11CFA94CF0C13
:107F7000D11C0EC0853739F428D08EE10CD085E9AC
:107F80000AD08FE07ACF813511F488E018D01DD067
:107F900080E101D065CF982F8091C00085FFFCCF94
:107FA0009093C60008958091C00087FFFCCF809118
:107FB000C00084FD01C0A8958091C6000895E0E648
:107FC000F0E098E1908380830895EDDF803219F02E
:107FD00088E0F5DFFFCF84E1DECF1F93182FE3DFCA
:107FE0001150E9F7F2DF1F91089580E0E8DFEE27F6
:047FF000FF270994CA
:027FFE00040479
:0400000300007E007B
:00000001FF