:100000000C941A030C9442030C9442030C94420384
:100010000C9442030C9442030C9442030C9442034C
:100020000C9442030C9442030C9442030C9442033C
:100030000C9442030C9442030C9442030C9442032C
:100040000C9410150C9442030C9403140C94DD13BF
:100050000C9442030C9442030C9442030C9442030C
:100060000C941D0C0C944203EF03038002CF030099
:10007000C130ED0464031281E803850078CB0539B3
:100080002C003402F70120EA020000C00123C10164
:1000900010C5023E28C701863601483701003A01E3
:1000A00055B1020018B603088227F20100260101AB
:1000B000E00F0F312B0C0E084EF1370710030E091D
:1000C00000E10F000E1403110731C148080F0C3175
:1000D000360F118029800000000000003E5B4F5B5E
:1000E0003E3E6B4F6B3E1C3E7C3E1C183C7E3C18DB
:1000F0001C577D571C1C5E7F5E1C00183C1800FFBF
:10010000E7C3E7FF0018241800FFE7DBE7FF3048EC
:100110003A060E2629792926407F050507407F05E6
:10012000253F5A3CE73C5A7F3E1C1C08081C1C3EDD
:100130007F14227F22145F5F005F5F06097F017FCB
:10014000006689956A606060606094A2FFA294086E
:10015000047E040810207E201008082A1C08081CB1
:100160002A08081E101010100C1E0C1E0C30383EF1
:100170003830060E3E0E06000000000000005F0052
:10018000000007000700147F147F14242A7F2A121E
:100190002313086462364956205000080703000004
:1001A0001C2241000041221C002A1C7F1C2A080836
:1001B0003E08080080703000080808080800006049
:1001C000600020100804023E5149453E00427F4035
:1001D0000072494949462141494D331814127F1094
:1001E00027454545393C4A494931412111090736DE
:1001F00049494936464949291E000014000000407B
:100200003400000008142241141414141400412274
:10021000140802015909063E415D594E7C12111223
:100220007C7F494949363E414141227F4141413E1F
:100230007F494949417F090909013E414151737F85
:100240000808087F00417F41002040413F017F08AE
:100250001422417F404040407F021C027F7F0408FF
:10026000107F3E4141413E7F090909063E4151212F
:100270005E7F09192946264949493203017F010356
:100280003F4040403F1F2040201F3F4038403F63D9
:100290001408146303047804036159494D43007F33
:1002A0004141410204081020004141417F04020104
:1002B00002044040404040000307080020545478A6
:1002C000407F284444383844444428384444287FF4
:1002D000385454541800087E090218A4A49C787F4E
:1002E0000804047800447D40002040403D007F1019
:1002F00028440000417F40007C047804787C080496
:1003000004783844444438FC182424181824241849
:10031000FC7C08040408485454542404043F442436
:100320003C4040207C1C2040201C3C4030403C4451
:10033000281028444C9090907C4464544C4400080D
:10034000364100000077000000413608000201023B
:1003500004023C2623263C1EA1A161123A40402003
:100360007A3854545559215555794122545478427C
:10037000215554784020545579400C1E5272123940
:1003800055555559395454545939555454580000F9
:10039000457C410002457D420001457C407D1211B3
:1003A000127DF0282528F07C545545002054547CBB
:1003B000547C0A097F4932494949323A4444443A13
:1003C000324A4848303A4141217A3A424020780046
:1003D0009DA0A07D3D4242423D3D4040403D3C24E9
:1003E000FF2424487E4943662B2FFC2F2BFF09292D
:1003F000F620C0887E090320545479410000447DD2
:10040000413048484A32384040227A007A0A0A721B
:100410007D0D19317D2629292F28262929292630C5
:10042000484D4020380808080808080808382F10E8
:10043000C8ACBA2F102834FA00007B000008142A38
:10044000142222142A14085500550055AA55AA55FD
:10045000AAFF55FF55FF000000FF00101010FF001D
:10046000141414FF001010FF00FF1010F010F0140F
:100470001414FC001414F700FF0000FF00FF141414
:10048000F404FC141417101F10101F101F14141460
:100490001F00101010F0000000001F101010101F9F
:1004A00010101010F010000000FF101010101010AD
:1004B000101010FF10000000FF140000FF00FF00EC
:1004C000001F10170000FC04F41414171017141464
:1004D000F404F40000FF00F714141414141414F7B7
:1004E00000F7141414171410101F101F141414F410
:1004F000141010F010F000001F101F0000001F1457
:10050000000000FC140000F010F01010FF10FF14A9
:100510001414FF141010101F00000000F010FFFF53
:10052000FFFFFFF0F0F0F0F0FFFFFF000000000021
:10053000FFFF0F0F0F0F0F3844443844FC4A4A4A5C
:10054000347E02020606027E027E02635549416342
:100550003844443C04407E201E2006027E0202995C
:10056000A5E7A5991C2A492A1C4C7201724C304AF5
:100570004D4D303048784830BC625A463D3E49497E
:1005800049007E0101017E2A2A2A2A2A44445F4426
:100590004440514A444040444A51400000FF010356
:1005A000E080FF000008086B6B0836123624360620
:1005B0000F090F060000181800000010100030404E
:1005C000FF0101001F01011E00191D1712003C3C14
:1005D0003C3C000000000000000000230026002931
:1005E00000000000080002010000030407000000F2
:1005F00000000000000102040810204080010204F5
:100600000810200102040810200000000025002826
:10061000002B000404040404040404020202020285
:100620000203030303030300000000240027002A41
:100630000000791E11241FBECFEFD8E0DEBFCDBF72
:1006400013E0A0E0B1E0E4E7F4E402C005900D920D
:10065000A031B107D9F725E0A0E1B3E001C01D92B8
:10066000AF32B207E1F713E0CAE1D3E004C021974B
:10067000FE010E942620C931D107C9F70E949F15AB
:100680000C9438220C9400000895FC016370658B73
:100690008481958126813781613039F0633029F07A
:1006A00091878087338722870895318720879387B2
:1006B000828708952F923F924F925F926F927F921E
:1006C0008F929F92AF92BF92CF92DF92EF92FF9262
:1006D0000F931F93CF93DF93CDB7DEB76C970FB611
:1006E000F894DEBF0FBECDBF9C8F8B8F5B011A01CC
:1006F0001F830E833701C982DC0158964D915C91AE
:1007000059974115510509F0E5C018968D919C91B6
:100710001997681779070CF0CAC11A968D919C91A8
:100720001B97281639060CF0C2C18C2C912CFB01AA
:1007300036E0C39EE00DF11D1124FB87EA871E16EB
:100740001F060CF0B4C1C40133E0880F991F3A951D
:10075000E1F79D878C87820D931D181619060CF002
:10076000A6C157968C91811103C0203B08F02F5FE2
:10077000AB8DBC8DED91FC9111970284F385E02D3A
:10078000CD012A8F09952A8DB5E02B9F9001112468
:10079000F5013596FF87EE87BB82AA822501A90164
:1007A0004A195B09598B488BC10108969B8B8A8B30
:1007B000E889F989E40DF51DE952FF4F9491988776
:1007C00061013D822C82A885A0FF13C0AB8DBC8D3A
:1007D000ED91FC91B981B13031F40484F585E02DBF
:1007E0002E813F8116C00684F785E02DEE80FF80C4
:1007F0001AC0EE81FF816E167F06F1F0AB8DBC8DC5
:10080000ED91FC91B981B13051F40484F585E02D6E
:100810009301A601B2018B8D9C8D09950DC00684B4
:10082000F785E02D7301840194014C815D816A811B
:100830007B818B8D9C8D0995E885E695E887FFEF98
:10084000CF1ADF0A2C813D81280D391D3D832C8371
:100850004A895B89C416D50609F0B5CF5FEF451A02
:10086000550A8A819B81880D991D9B838A83AE8559
:10087000BF854A165B0609F09BCFEE81FF816E169D
:100880007F0609F4F2C0EB8DFC8DA081B181F98166
:10089000F13079F4B5016B5F7F4F5096ED91FC918B
:1008A0005197830128E030E0A1018B8D9C8D099543
:1008B000DCC06A857B85681979091E96ED91FC91EB
:1008C0001F9773010C851D859401A1018B8D9C8D53
:1008D0000995CBC0FA013496949132976591749141
:1008E000291BCB01B7E02B9F800D911D1124FA012C
:1008F000259134913B8B2A8BFC01459154915B836C
:100900004A83FC013296C490319654915E873296A8
:1009100014913196D4908981823058F0612E012E45
:10092000000C7708AD2D0D2C000CBB0BB987A887E8
:1009300004C019861886612C712CAB8DBC8DED918D
:10094000FC9111970284F385E02DCD010995B981C1
:100950008B2E912C689CC001699C900D789C900D09
:100960001124FC01EA0DFB1DFD87EC871C82712C14
:10097000612CE12F110FFF0B95012E0F3F1F3B87BD
:100980002A87AC0CB11CA5014E0F5F1F5F8B4E8BED
:10099000C1018D0D911DD7FC9A95998F888F4E8539
:1009A000641608F062C0862D90E048855985480F8E
:1009B000591F489D9001499D300D589D300D1124BF
:1009C000D901A20DB31DB98BA88BAA84BB844C841A
:1009D0005D84DC80BA85DB1AE88DF98DE80FF91F9C
:1009E000FD8BEC8B8D2D8A0D2E893F89A216B306C7
:1009F000B9F1877061F48A819B810196EA89FB894C
:100A0000AA81BB81EA0FFB1F74909B838A8377FEC8
:100A100020C0AB8DBC8DED91FC91B981B13061F4FA
:100A20000484F585E02D2E813F814C895D89B501D7
:100A30008B8D9C8D09950DC00684F785E02DEE8089
:100A4000FF808401940148895989B2018B8D9C8D66
:100A50000995770CEFEFAE1ABE0A480C591CC2CFAD
:100A60003C813C0D3C8363949ACFAB8DBC8DED9162
:100A7000FC9111970688F789E02DCD016C960FB691
:100A8000F894DEBF0FBECDBFDF91CF911F910F91C4
:100A9000FF90EF90DF90CF90BF90AF909F908F909E
:100AA0007F906F905F904F903F902F9009946C963D
:100AB0000FB6F894DEBF0FBECDBFDF91CF911F916F
:100AC0000F91FF90EF90DF90CF90BF90AF909F90ED
:100AD0008F907F906F905F904F903F902F900895F0
:100AE000AF92BF92CF92EF92FF920F931F93CF934B
:100AF000DF93EC01262F888D998D009709F040C077
:100B00006A3059F41D861C862C898E859F8538E0B5
:100B1000239F800D911D112441C06D3009F4AAC09E
:100B20008E898823C1F03C898C859D8546E0349F61
:100B3000800D911D112448855985481759075CF48B
:100B40001D861C868E859F8548E0349F800D911DF3
:100B500011249F878E87EA88FB88088919894E852A
:100B60005F856C857D85CC88CE010E945A032C89D7
:100B70008C859D8536E0239F800D911D112442C0F8
:100B80006A3079F41D861C862C89FC013696E49126
:100B90008E859F852E9F800D911D11249F878E87A6
:100BA00069C06D3009F466C0FC0134963491631756
:100BB00008F460C03196E491E61708F45BC0FC01CC
:100BC0003296A590B490462F50E0431B510937E070
:100BD000349FB001359F700D1124A60EB71EF5018C
:100BE000329634913196E491332311F0E1110DC026
:100BF000F5013496E4912C898C859D85E29F800DCA
:100C0000911D11249D878C8735C0F501359644913F
:100C10005E89552311F16C89E32FF0E0E40FF11D9B
:100C200047FDFA956E9FD0016F9FB00D11244C8542
:100C30005D854A0F5B1FE885F985E417F5076CF4BD
:100C40001D861C86FC013696E4918E859F856E9FDD
:100C5000800D911D11249F878E87EA88FB88088963
:100C600019894E855F856C857D85CC88CE010E9473
:100C70005A03BECF81E090E0DF91CF911F910F9199
:100C8000FF90EF90CF90BF90AF9008956F927F92BA
:100C90008F929F92AF92BF92CF92DF92EF92FF928C
:100CA0000F931F93CF93DF93EC014B015A0169011E
:100CB0003801E881F9810284F385E02D0995E88106
:100CC000F9810288F389E02D87019601A501B4011D
:100CD000CE010995E881F981A501460D571D4150C6
:100CE00051090288F389E02D9601B401CE010995DE
:100CF000E881F9810088F189E02D9301A501B40113
:100D0000CE010995E881F981C80CD91CB601615062
:100D100071090088F189E02D9301A501CE010995A3
:100D2000E881F9810688F789E02DCE01DF91CF9126
:100D30001F910F91FF90EF90DF90CF90BF90AF90F9
:100D40009F908F907F906F900994CF92DF92EF9257
:100D5000FF920F931F93CF93DF9300D000D000D06A
:100D6000CDB7DEB76C01DC01ED91FC916217730722
:100D700089F4041715072CF4942F852FA801092F47
:100D8000182F041B150B98012F5F3F4F048CF58D16
:100D9000E02D12C04017510709F5261737072CF42C
:100DA000962F872FB901292F382F261B370B2F5F3E
:100DB0003F4F068CF78DE02D8701C60109952696D9
:100DC0000FB6F894DEBF0FBECDBFDF91CF911F915C
:100DD0000F91FF90EF90DF90CF9008950284F385FC
:100DE000E02D2D833E834B835C8369837A83099551
:100DF000D601ED91FC910488F589E02D2D813E818D
:100E00004B815C8169817A81C6010995D601ED919A
:100E1000FC910688F789E02DC60126960FB6F89456
:100E2000DEBF0FBECDBFDF91CF911F910F91FF901D
:100E3000EF90DF90CF900994EF92FF920F931F9362
:100E4000DC01ED91FC9111971A960D911C911B9765
:100E500018962D913C91199700A0F1A1E02D7B01EE
:100E600040E050E060E070E009951F910F91FF9025
:100E7000EF9008954F925F926F927F928F929F9220
:100E8000AF92BF92CF92DF92EF92FF920F931F9398
:100E9000CF93DF9300D0CDB7DEB76C015A01390193
:100EA0004801DC01ED91FC910284F385E02D69831A
:100EB0007A8309956981462E7A81572E640C751CB8
:100EC000D601ED91FC91461457046CF40088F18929
:100ED000E02D87019401A501B201C6010995BFEF7C
:100EE0004B1A5B0AEDCF0688F789E02DC6010F90FB
:100EF0000F90DF91CF911F910F91FF90EF90DF90B6
:100F0000CF90BF90AF909F908F907F906F905F90A9
:100F10004F900994AF92BF92CF92DF92EF92FF92DF
:100F20000F931F93CF93DF9300D000D0CDB7DEB7E0
:100F30005C016901DC01ED91FC910284F385E02DF7
:100F40004B835C8369837A830995D501ED91FC918C
:100F500069817A819B012C0D3D1D21503109048846
:100F6000F589E02D78014B815C818A01C5010995E5
:100F7000D501ED91FC910688F789E02DC5010F9010
:100F80000F900F900F90DF91CF911F910F91FF90D5
:100F9000EF90DF90CF90BF90AF900994AF92BF9247
:100FA000CF92DF92EF92FF920F931F93CF93DF9335
:100FB00000D000D0CDB7DEB75C016901DC01ED9156
:100FC000FC910284F385E02D4B835C8369837A83F3
:100FD0000995D501ED91FC914B815C81C40ED51E24
:100FE000B1E0CB1AD1080488F589E02D780186019B
:100FF00069817A819B01C5010995D501ED91FC912B
:101000000688F789E02DC5010F900F900F900F9083
:10101000DF91CF911F910F91FF90EF90DF90CF90D4
:10102000BF90AF9009940895EF92FF920F931F9392
:10103000DC01ED91FC9100A0F1A1E02D09951F913B
:101040000F91FF90EF9008950F931F93DC01ED91A6
:10105000FC91068CF78DE02D09951F910F91089555
:101060000F931F93DC01ED91FC91048CF58DE02D25
:1010700009951F910F910895DC01ED91FC91008479
:10108000F185E02D099408952F923F924F925F923F
:101090006F927F928F929F92AF92BF92CF92DF9288
:1010A000EF92FF920F931F93CF93DF9300D01F9285
:1010B000CDB7DEB74C017B836A836A015901170102
:1010C0009801241B350B37FF03C031952195310959
:1010D000C5014A815B81841B950B97FF03C09195E5
:1010E0008195910951E059838217930714F0198271
:1010F0000BC09A2D8B2D5801092F182F9A818B81A7
:10110000DB82CA82C92ED82E8A819B81A816B90695
:101110005CF49C2D8D2D6801092F182F9A818B81ED
:10112000BB82AA82A92EB82E2501AA81BB814A1AA8
:101130005B0A38016C187D0877FE03C071946194D6
:101140007108720157FE03C0BFEFEB1AFB0AF5945A
:10115000E794C016D1061CF00FEF1FEF1FC001E08F
:1011600010E01CC0D401ED91FC91B9810484F58597
:10117000E02D9101BB23C1F04A815B81B601C4011E
:101180000995E618F708F7FE04C0C00ED11EE40C5E
:10119000F51CEA81FB813196FB83EA834A815B81FE
:1011A000A416B506FCF604C0A6016A817B81E7CFD0
:1011B0000F900F900F90DF91CF911F910F91FF90A3
:1011C000EF90DF90CF90BF90AF909F908F907F90E7
:1011D0006F905F904F903F902F90089585ED809392
:1011E000BC008091BC0084FDFCCF1092C703089521
:1011F00040913203262F30E0240F311D213231057A
:10120000DCF42091C7032430C9F4FC0180E090E0B5
:10121000861758F4309132032191DC01A05FBC4F56
:10122000A30FB11D2C930196F3CF80913203680F69
:101230006093320380E0089581E0089582E008958C
:101240000895E091800380917F03E81730F4F0E087
:10125000EF57FC4F808190E008958FEF9FEF089546
:101260009091800380917F03981750F4E92FF0E06C
:10127000EF57FC4F208130E09F5F9093800302C0C6
:101280002FEF3FEFC901089580917F0390E02091F7
:101290008003821B91090895CF92DF92EF92FF9213
:1012A0000F931F93CF93DF937C01262F972F8A01F3
:1012B0008091C803882391F0C62FD72F6E01C40EEA
:1012C000D51ECC15DD0571F06991D701ED91FC912A
:1012D0000190F081E02DC7010995F3CF642F822F93
:1012E0000E94F808C801DF91CF911F910F91FF90E4
:1012F000EF90DF90CF900895CF93DF931F92CDB7FB
:10130000DEB769832091C8032223D1F02091EA033C
:10131000203240F021E030E0FC013383228380E082
:1013200090E015C08091C903E82FF0E0E653FC4F30
:10133000998190838F5F8093C9038093EA0305C0EE
:1013400061E0CE0101960E94F80881E090E00F90E4
:10135000DF91CF910895089580E090E008950F9374
:101360001F93CF93DF931F92CDB7DEB78C01DC01C3
:10137000ED91FC910284F385E02D698309956981E3
:10138000611102C060E201C061E2C8010E945A1509
:10139000D801ED91FC910688F789E02DC8010F90E6
:1013A000DF91CF911F910F910994CF93DF93FC01AF
:1013B00083A187FF05C06EBD0DB407FEFDCF2EC013
:1013C00028E030E040E8A6A1B7A1842F862321F0D1
:1013D00080A99C91892B0AC090A98C91C82FD0E03C
:1013E000892F90E0809590958C239D238C9392A9D2
:1013F000C2A5D3A58881A82FB0E0892F90E0809561
:1014000090958A239B23888382A9A2A5B3A59C914A
:10141000892B8C93469521503109A9F6DF91CF9104
:1014200008958F929F92AF92BF92CF92DF92EF92E8
:10143000FF920F931F93CF93DF93EC01490181E05B
:10144000881A9108860E971EC401A0E0B0E04B01F7
:10145000A12CB12C540199248824882A992AAA2ADB
:10146000BB2A680181E0C81AD108C40ED51EC60186
:10147000A0E0B0E06A01E12CF12C7601DD24CC245F
:10148000C82AD92AEA2AFB2A6AE2CE010E945A1502
:101490002BA16B2D77278827992727FF18C06EBDB2
:1014A0000DB407FEFDCFC501AA27BB278EBD0DB425
:1014B00007FEFDCFBB27AB2D9A2D892D8EBD0DB418
:1014C00007FEFDCF8EBC0DB407FEFDCF14C0CE01CC
:1014D0000E94D509B50188279927CE010E94D50918
:1014E00099278B2D7A2D692DCE010E94D509682D63
:1014F000CE010E94D5096BE2CE010E945A152BA1A4
:101500006F2D77278827992727FF18C06EBD0DB448
:1015100007FEFDCFC701AA27BB278EBD0DB407FE6E
:10152000FDCFBB27AF2D9E2D8D2D8EBD0DB407FE9B
:10153000FDCFCEBC0DB407FEFDCF14C0CE010E947E
:10154000D509B70188279927CE010E94D509992787
:101550008F2D7E2D6D2DCE010E94D5096C2DCE01D3
:101560000E94D5096CE2CE01DF91CF911F910F91BE
:10157000FF90EF90DF90CF90BF90AF909F908F90B3
:101580000C945A151F93CF93DF93EC0163706D8B0E
:101590006230C1F0633001F1613051F080EF90E0D2
:1015A0009987888780E491E09B878A8718E41DC02B
:1015B00080E491E09987888780EF90E09B878A8715
:1015C00018E213C080EF90E09987888780E491E06B
:1015D0009B878A8718E809C080E491E0998788870B
:1015E00080EF90E09B878A8718EEE881F98102847A
:1015F000F385E02DCE01099566E3CE010E945A15D0
:10160000612FCE010E94D509E881F9810688F7890A
:10161000E02DCE01DF91CF911F9109941F93CF93BD
:10162000DF93262FFC0133A137FF09C07EBD0DB427
:1016300007FEFDCF2EBD0DB407FEFDCF0CC0672FFA
:10164000122FEC010E94D509612FCE01DF91CF91BD
:101650001F910C94D509DF91CF911F910895CF93DD
:10166000CFB7F89480915703811127C0EDE1F6E0E0
:101670008491EFEFF5E09491E82FF0E0EE0FFF1F7B
:10168000E95DF94FA591B491EC91E92321F461E072
:101690008AE00E945E1461E08AE00E948E148CB59C
:1016A00080618CBD8CB580648CBD61E08DE00E9452
:1016B0008E1461E08BE00E948E14809157038F5F3F
:1016C00080935703CFBFCF910895BF92CF92DF92FF
:1016D000EF92FF920F931F93CF93DF93EC0141158D
:1016E00051056105710521F440E052E16AE770E0BF
:1016F0004C8F5D8F6E8F7F8F88A187FD07C061E063
:101700000E948E1461E088A10E945E1461E089A1AC
:101710000E948E1460E089A10E945E148BA187FD57
:1017200016C061E08CA10E948E1460E08CA10E9422
:101730005E1461E08BA10E948E1461E08BA10E9477
:101740005E148DA187FD03C060E00E948E148BA102
:1017500087FD0E942F0B8AA187FD21C061E00E94B6
:101760008E1461E08AA10E945E1464E670E080E05D
:1017700090E00E94CA1460E08AA10E945E1464E6B0
:1017800070E080E090E00E94CA1461E08AA10E94AB
:101790005E1468EC70E080E090E00E94CA14E8817A
:1017A000F9810284F385E02DCE01099508E610E069
:1017B0007801EFEFEE1AFE0AF8016491662321F139
:1017C000CE010E945A150E5F1F4FF701E490FE2DC7
:1017D000FF77BF2E6801FF2EFA948FEFF81649F0BD
:1017E000F6016491CE010E94D509FFEFCF1ADF0AFE
:1017F000F3CF0B0D111DE7FEDBCF68E770E080E053
:1018000090E00E94CA14D4CFE881F9810688F78954
:10181000E02DCE01099580EF90E09987888780E4DC
:1018200091E09B878A87DF91CF911F910F91FF9065
:10183000EF90DF90CF90BF9008951F920F920FB658
:101840000F9211242F933F934F935F936F937F9346
:101850008F939F93AF93BF93EF93FF938091B900C2
:10186000887F803609F49CC068F5883209F45BC033
:1018700090F4803109F454C038F4882309F4F6C098
:10188000883009F44DC0F6C0883109F44CC080326C
:1018900009F45DC0EFC0803409F468C048F48033B7
:1018A00009F455C0883309F0E5C08093C503D8C05A
:1018B000803509F44FC0883509F45DC0883409F0DB
:1018C000D9C0D6C0883909F4C7C0A8F4883709F44C
:1018D00067C038F4883609F463C0803709F460C003
:1018E000C9C0883809F4B8C0803909F45FC08038AD
:1018F00009F0C0C05BC0803B09F486C038F4803A70
:1019000009F466C0883A09F47FC0B4C0803C09F489
:10191000A7C0883C09F4A4C0883B09F48AC0AAC0C7
:101920008091A20310C09091C4038091C3039817C3
:1019300070F5E091C40381E08E0F8093C403F0E062
:10194000ED55FC4F80818093BB0085EC86C0809371
:10195000C5038EC0E091C40381E08E0F8093C40361
:101960008091BB00F0E0ED55FC4F80839091C40363
:101970008091C3036EC0E091C40381E08E0F809319
:10198000C4038091BB00F0E0ED55FC4F8083809153
:10199000C60381116DC081E08093A10384EA61C018
:1019A00083E08093C70310925603CFCF80915603F4
:1019B000803208F051C0E091560381E08E0F809391
:1019C00056038091BB00F0E0EA5CFC4F8083BDCF02
:1019D00085EC8093BC001092C7038091560380323F
:1019E00030F4E0915603F0E0EA5CFC4F1082609125
:1019F000560370E0E0913403F091350386E393E001
:101A000009951092560336C084E08093C703109264
:101A1000330310923203E0913003F09131030995C2
:101A200080913203811105C081E0809332031092CE
:101A30001003E091330381E08E0F80933303F0E0D5
:101A4000E05FFC4F80818093BB00909133038091D5
:101A50003203981708F479CF85E88093BC000AC058
:101A600085EC8093BC001092C70304C01092C5039C
:101A70000E94EE08FF91EF91BF91AF919F918F91DE
:101A80007F916F915F914F913F912F910F900FBE7A
:101A90000F901F9018951092C70381E08093C603A2
:101AA0001092A10361E082E10E945E1461E083E193
:101AB0000E945E14E9EBF0E080818E7F808380815C
:101AC0008D7F808388E48093B80085E48093BC0098
:101AD000089508958CBD9DBD08959093EB04809367
:101AE000EA047093ED046093EC041092F1041092F8
:101AF000F0041092EF041092EE04411101C041E095
:101B00004093F204F90144815581608171818EED29
:101B100094E00E94320E6DEB72E08EED94E00C9436
:101B2000A3102091EA0390912005213208F04AC0C9
:101B30008091C7038111FCCF32E03093C70331E0BD
:101B40003093C6033FEF3093C5031092C403209334
:101B5000C303AAECB3E043EA53E0FA013E2F341B7F
:101B6000321718F43D913193F9CF1092A2032091CE
:101B7000A203990F922B9093A2039091A10391300D
:101B800061F41092A1039091A2039093BB009091F5
:101B9000BC0093FDF8CF95EC01C095EE9093BC008E
:101BA0009091C7039230E1F39091C5039F3F79F084
:101BB0008091C503803241F08091C503803331F0BC
:101BC00084E005C081E003C082E001C083E01092A0
:101BD000C9031092EA031092C80308959091C703B5
:101BE0009111FCCF91E09093C7039093C6032FEF20
:101BF0002093C5031092C403260F2093C303909330
:101C0000A2039091A203880F892B8093A203809155
:101C1000A103813061F41092A1038091A20380930B
:101C2000BB008091BC0083FDF8CF85EC01C085EE40
:101C30008093BC008091C7038130E1F38091C4039D
:101C4000861710F46091C403A3EAB3E021E833E0FF
:101C5000F9018E2F821B861718F48D918193F9CF8D
:101C6000862F0895CF92DF92EF92FF920F931F93EA
:101C7000CF93DF936C017A018B01C0E0D0E0CE15E9
:101C8000DF0589F0D8016D918D01D601ED91FC91B0
:101C90000190F081E02DC6010995892B11F47E0198
:101CA00002C02196ECCFC701DF91CF911F910F9118
:101CB000FF90EF90DF90CF900895EF92FF920F93F7
:101CC0001F93CF93DF93F0901C059FEFF91207C08D
:101CD0008EBD00000DB407FEFDCF8EB51DC0E09097
:101CE0001A0507E010E0C82FD0E0BE01002E02C0A8
:101CF000759567950A94E2F7617077278E2D0E949B
:101D00005E1461E08F2D0E945E1460E08F2D0E94B2
:101D10005E140150110948F7DF91CF911F910F9187
:101D2000FF90EF900895CF93DF93D82FC62F809127
:101D300019058F3FC9F480911D0591E09093C80368
:101D4000809320051092C9031092EA036D2F80ED55
:101D500094E00E947C096C2F80ED94E00E947C0945
:101D6000DF91CF910C94910D80911C058F3F31F440
:101D70008091DC049091DD040E946A0D60E0809106
:101D800019050E945E148D2F0E945D0E8C2F0E94FB
:101D90005D0E61E0809119050E945E1480911C0522
:101DA0008F3F21F4DF91CF910C94690DDF91CF919A
:101DB00008958F929F92AF92BF92CF92DF92EF924F
:101DC000FF920F931F93CF93DF93C82F8091190534
:101DD0008F3F59F580911D05D1E0D093C8038093C2
:101DE00020051092C9031092EA036C2F80ED94E055
:101DF0000E947C090E94910D80911D05D093C8031B
:101E0000809320051092C9031092EA0361E00E94BA
:101E1000EE0D1092800380937F0380ED94E00E948A
:101E20003009B82E0E94910D6BC080911C058F3F28
:101E300031F48091DC049091DD040E946A0D60E031
:101E4000809119050E945E148C2F80680E945D0E9F
:101E500080E00E945D0EA0901C058FEFA81207C0C5
:101E60001EBC00000DB407FEFDCFBEB43EC0C09145
:101E70001B0507E010E0B12CD0E0FE01EF51FA4F56
:101E80007F01CE018B509A4F6C01CD5ED94F61E03E
:101E90008A2D0E945E14F7018491F6018490FE0160
:101EA0009490992099F081110E943514292D30E0E9
:101EB000220F331F29523A4FF901A591B4918C9109
:101EC000882231E009F430E0832F02C080E090E006
:101ED000002E01C0880F0A94EAF7B82A60E08A2D24
:101EE0000E945E140150110990F661E0809119057D
:101EF0000E945E1480911C058F3F11F40E94690DB1
:101F00008B2DDF91CF911F910F91FF90EF90DF907C
:101F1000CF90BF90AF909F908F900895CF93DF9315
:101F200080E00E94D90EC82FD0E0DC2FCC2781E0C2
:101F30000E94D90E9E01282BC901DF91CF910895EF
:101F4000CF93C82F81E08093C80382E5809320055A
:101F50001092C9031092EA0380ED94E00E947C097C
:101F60006C2F80ED94E00E947C090E94910D6AE044
:101F700070E080E090E0CF910C94CA14EF92FF9251
:101F80001F93CF93DF93CDB7DEB72C970FB6F8949E
:101F9000DEBF0FBECDBF66E082E50E94EE0D182FBA
:101FA0001092800380937F03CE0101967C01809183
:101FB0008003181749F080ED94E00E943009F70182
:101FC000819391937F01F3CF89819A8190937203DA
:101FD000809371038B819C8190937403809373032E
:101FE0008B859C859C013595279535952795A9016D
:101FF000437055272D813E81220F331F220F331F3F
:10200000242B352B30937603209375039C0174E0C9
:10201000359527957A95E1F7A901437055272F81CA
:102020003885220F331F220F331F242B352B30937B
:102030007803209377039C01F6E035952795FA9570
:10204000E1F7A9014370552729853A85220F331FEF
:10205000220F331F242B352B30937A0320937903DF
:102060009C0121703327F1E02F2730937C032093CC
:102070007B0321E030E081FF02C020E030E03093BC
:102080007E0320937D0360E080E02C960FB6F894E9
:10209000DEBF0FBECDBFDF91CF911F91FF90EF90BC
:1020A0000C94A00FFC01808191810C94C120EF92CF
:1020B000FF920F931F93CF93DF93EC011982188245
:1020C0001B821A821D821C8261157105A9F17B0198
:1020D000FB0101900020E9F731978F01061B170BD8
:1020E000B8016F5F7F4F80E090E00E945921009718
:1020F00059F0998388831B830A832C813D81232B8C
:1021000081F4FC0110820DC088819981009711F043
:102110000E94C120198218821D821C821B821A8291
:102120000BC01D830C83B701DF91CF911F910F91DD
:10213000FF90EF900C943122DF91CF911F910F917E
:10214000FF90EF9008956115710579F0FB01019002
:102150000020E9F73197AF01461B570BDC01ED91E9
:10216000FC910280F381E02D099480E090E00895D5
:10217000FC01538D448D252F30E0842F90E0821B8D
:10218000930B541710F0CF96089501970895FC0112
:10219000918D828D981761F0828DDF01A80FB11D9E
:1021A0005D968C91928D9F5F9F73928F90E00895C2
:1021B0008FEF9FEF0895FC01918D828D981731F07C
:1021C000828DE80FF11D858D90E008958FEF9FEFD0
:1021D0000895FC01918D228D892F90E0805C9F4FA6
:1021E000821B91098F73992708958BEE93E00E94CB
:1021F000E91021E0892B09F420E0822F0895FC01E9
:10220000848DDF01A80FB11DA35ABF4F2C91848D7F
:1022100090E001968F739927848FA689B7892C93B4
:10222000A089B1898C9180648C93938D848D98134F
:1022300006C00288F389E02D80818F7D8083089518
:10224000EF92FF920F931F93CF93DF93EC0181E006
:10225000888F9B8D8C8D981305C0E889F9898081C2
:1022600085FD24C0F62E0B8D10E00F5F1F4F0F73FE
:102270001127E02E8C8DE8120CC00FB607FCFACFA8
:10228000E889F989808185FFF5CFCE010E94FF1092
:10229000F1CF8B8DFE01E80FF11DE35AFF4FF08265
:1022A0000B8FEA89FB898081806207C0EE89FF89F4
:1022B0006083E889F98980818064808381E090E08F
:1022C000DF91CF911F910F91FF90EF900895CF93E1
:1022D000DF93EC01888D8823C9F0EA89FB8980812E
:1022E00085FD05C0A889B9898C9186FD0FC00FB600
:1022F00007FCF5CF808185FFF2CFA889B9898C9141
:1023000085FFEDCFCE010E94FF10E7CFDF91CF9187
:10231000089580E090E0892B29F00E94F51081114A
:102320000C94000008953FB7F89480912705909190
:102330002805A0912905B0912A0526B5A89B05C0BE
:102340002F3F19F00196A11DB11D3FBFBA2FA92F34
:10235000982F8827820F911DA11DB11DBC01CD01B1
:1023600042E0660F771F881F991F4A95D1F708959D
:10237000CF92DF92EF92FF920F931F93CF93DF9351
:1023800000D000D000D0CDB7DEB76C01DC01ED91FC
:10239000FC910284F385E02D2D833E834B835C8387
:1023A00069837A830995D601ED91FC910684F785BE
:1023B000E02D2D813E814B815C8169817A81C6014E
:1023C0000995D601ED91FC910688F789E02DC601AB
:1023D00026960FB6F894DEBF0FBECDBFDF91CF912A
:1023E0001F910F91FF90EF90DF90CF900994EF92A3
:1023F000FF920F931F93CF93DF9300D000D000D0B4
:10240000CDB7DEB77C01DC01ED91FC910284F38550
:10241000E02D2D833E834B835C8369837A8309950A
:10242000D701ED91FC910288F389E02D2D813E8149
:102430004B815C8169817A81C7010995D701ED9152
:10244000FC910688F789E02DC70126960FB6F8940F
:10245000DEBF0FBECDBFDF91CF911F910F91FF90D7
:10246000EF900994EF92FF920F931F93CF93DF9316
:1024700000D000D000D0CDB7DEB77C01DC01ED91FB
:10248000FC910284F385E02D2D833E834B835C8396
:1024900069837A830995D701ED91FC910088F189D0
:1024A000E02D2D813E814B815C8169817A81C7015C
:1024B0000995D701ED91FC910688F789E02DC701B8
:1024C00026960FB6F894DEBF0FBECDBFDF91CF9139
:1024D0001F910F91FF90EF900994EF92FF920F934D
:1024E0001F93DC01ED91FC910684F785E02D7801C6
:1024F00001E010E009951F910F91FF90EF90089572
:10250000EF92FF920F931F93DC01ED91FC910684F3
:10251000F785E02D7801890121E030E009951F91D0
:102520000F91FF90EF9008950E942322AF92BF92E7
:10253000CF92DF92EF92FF920F931F93CF93DF938F
:10254000EC0177FD38C088859985681779079CF577
:1025500057FD31C08A859B854817590764F5690185
:102560005A017B01E881F9810284F385E02DCE01D7
:102570000995E881F98102A4F3A5E02D01E010E0BE
:1025800021E030E0A501B701CE010995B601CE01E9
:102590000E940E0BE881F9810688F789E02DCE01B3
:1025A000DF91CF911F910F91FF90EF90DF90CF902F
:1025B000BF90AF900994DF91CF911F910F91FF9041
:1025C000EF90DF90CF90BF90AF900895EF92FF9281
:1025D0000F931F93CF93DF93EC0177FD22C0888583
:1025E000998568177907ECF457FD1BC08A859B8590
:1025F00048175907B4F47901E881F98102A4F3A5D9
:10260000E02D01E010E021E030E0CE010995B701B6
:10261000CE01DF91CF911F910F91FF90EF900C941D
:102620000E0BDF91CF911F910F91FF90EF900895C6
:102630008F929F92AF92BF92CF92DF92EF92FF92D2
:102640000F931F93CF93DF93EC016901580147016A
:1026500028853985621773070CF05EC08A859B85D3
:10266000481759070CF058C07B01EC0CFD1CD70132
:1026700011978A010A0D1B1DF8013197B7FD4CC057
:10268000F7FD4AC077FF03C0670160E070E057FFC5
:1026900003C0580140E050E0A217B3071CF06901E5
:1026A000C61AD70AE817F9071CF05C01A41AB50A84
:1026B000E881F98102A4F3A5E02D85019601CE0100
:1026C00009959601D5010E941720611571058105B4
:1026D000910511F12BA127FD0AC06B017C010EC0F1
:1026E0000DB407FEFDCF8EBC0DB407FEFDCF6150CB
:1026F00071098109910980F09EBCF2CF692DCE014C
:102700000E94D509682DCE010E94D50981E0C81A22
:10271000D108E108F10891F7DF91CF911F910F9156
:10272000FF90EF90DF90CF90BF90AF909F908F90F1
:102730000895FC0183A9A6A5B7A59C91892B8C932C
:1027400083A187FD0C94690D08950F931F93CF9378
:10275000DF93EC018BA187FF1EC00C8D1D8D2E8D8C
:102760003F8D90E040E052E16AE770E00417150702
:102770002607370740F476956795579547959F5FED
:102780009630A1F797E081E09827892F806A869597
:1027900091700E946A0D9BA9EEA5FFA58081282F4C
:1027A00030E0892F90E08095909582239323808359
:1027B000DF91CF911F910F9108951F920F920FB645
:1027C0000F9211242F933F934F935F936F937F93B7
:1027D0008F939F93AF93BF93EF93FF938BEE93E011
:1027E0000E94FF10FF91EF91BF91AF919F918F9148
:1027F0007F916F915F914F913F912F910F900FBEFD
:102800000F901F9018951F920F920FB60F921124E0
:102810002F938F939F93EF93FF93E091FB03F0919E
:10282000FC038081E0910104F091020482FD12C05A
:102830009081809104048F5F8F732091050482172B
:1028400051F0E0910404F0E0E551FC4F958F809346
:10285000040401C08081FF91EF919F918F912F918E
:102860000F900FBE0F901F901895833081F028F4C1
:10287000813099F08230A1F008958730A9F0883036
:10288000B9F08430D1F4809180008F7D03C08091B5
:1028900080008F7780938000089584B58F7702C081
:1028A00084B58F7D84BD08958091B0008F7703C07B
:1028B0008091B0008F7D8093B00008951F93CF93D7
:1028C000DF93282F30E0F901EF51FA4F8491F9019D
:1028D000EB50FA4FD491F901ED5EF94FC491CC233E
:1028E000C9F0162F81110E943514EC2FF0E0EE0F85
:1028F000FF1FE75FF94FA591B4918FB7F8941111BD
:1029000005C09C91ED2FE095E92302C0EC91ED2BE1
:10291000EC938FBFDF91CF911F910895CF93DF93F9
:1029200090E0FC01EB50FA4F2491FC01ED5EF94F71
:102930008491882361F190E0880F991FFC01E95D83
:10294000F94FC591D491FC01E75FF94FA591B4917E
:10295000611109C09FB7F8948881209582238883EC
:10296000EC912E230BC0623061F49FB7F89438814C
:10297000822F809583238883EC912E2B2C939FBFED
:1029800006C08FB7F894E8812E2B28838FBFDF9184
:10299000CF9108958F929F92AF92BF92CF92DF9284
:1029A000EF92FF926B017C010E9493114B015C013D
:1029B000C114D104E104F104F1F00E949311DC018F
:1029C000CB0188199909AA09BB09883E9340A10542
:1029D000B10570F321E0C21AD108E108F10888EED0
:1029E000880E83E0981EA11CB11CC114D104E1041F
:1029F000F10419F7DDCFFF90EF90DF90CF90BF90FB
:102A0000AF909F908F9008952FB7F8946091230511
:102A10007091240580912505909126052FBF08957A
:102A20001F920F920FB60F9211242F933F938F9303
:102A30009F93AF93BF938091230590912405A0911C
:102A40002505B09126053091220523E0230F2D376F
:102A500020F40196A11DB11D05C026E8230F0296A2
:102A6000A11DB11D20932205809323059093240579
:102A7000A0932505B0932605809127059091280500
:102A8000A0912905B0912A050196A11DB11D809341
:102A9000270590932805A0932905B0932A05BF9197
:102AA000AF919F918F913F912F910F900FBE0F90FB
:102AB0001F901895CF93DF93EC019CA9ECA5FDA581
:102AC0002081422F50E0292F30E02095309524239B
:102AD00035232083CE010E94D5098CA9ECA5FDA544
:102AE0009081892B8083DF91CF9108950F931F935D
:102AF000CF93DF931F92CDB7DEB78C01DC01ED9150
:102B0000FC910284F385E02D698309956981662330
:102B100019F0F80165A903C0D801D6966C91C801D7
:102B20000E945A15D801ED91FC910688F789E02D95
:102B3000C8010F90DF91CF911F910F910994CF930E
:102B4000DF93CDB7DEB727970FB6F894DEBF0FBE81
:102B5000CDBF789484B5826084BD84B5816084BD26
:102B600085B5826085BD85B5816085BD80916E002B
:102B7000816080936E00109281008091810082605C
:102B80008093810080918100816080938100809199
:102B900080008160809380008091B1008460809388
:102BA000B1008091B00081608093B00080917A0084
:102BB000846080937A0080917A00826080937A00AA
:102BC00080917A00816080937A0080917A00806899
:102BD00080937A001092C1001092CC041092CD0420
:102BE0001092CE041092CF0410928A0410928B049B
:102BF00010928C0410928D040E9404154B015C010C
:102C00002B013C0128EB420E2BE0521E611C711C73
:102C10000E940415681579058A059B0528F046165B
:102C2000570668067906A0F78BEE93E09093CB04E5
:102C30008093CA04E091FB03F091FC0382E080835F
:102C4000E091F703F091F8031082E091F903F0911D
:102C5000FA0380E1808310920304E091FF03F09176
:102C6000000486E08083E091FD03F091FE03808103
:102C700080618083E091FD03F091FE038081886094
:102C80008083E091FD03F091FE0380818068808362
:102C9000E091FD03F091FE0380818F7D80830E948F
:102CA000041560938A0470938B0480938C04909332
:102CB0008D046EEA72E08091CA049091CB040E9468
:102CC000A3100E9404154B015C012B013C014AE05A
:102CD000440E511C611C711C0E9404156815790575
:102CE0008A059B0528F04616570668067906A0F760
:102CF00081E080939E0440E050E0BA018EED94E0C4
:102D00000E94650B61E08EED94E00E94C20A3A9A3F
:102D10003B9A439A0E9404154B015C010E940415E2
:102D2000DC01CB0188199909AA09BB0984369105F0
:102D3000A105B10598F31092800310927F031092C1
:102D4000C9031092EA030E944B0D60EF85E50E94D3
:102D5000A00F6BEF80E00E94A00F0E94BE0F909129
:102D600019059F3F59F180911C0561E08F3FA1F447
:102D7000892F0E948E1461E0809119050E945E14D3
:102D80000E942F0B81E58093DC041092DD041092E9
:102D90001F0510921E051FC00E948E1461E08091D5
:102DA00019050E948E1461E080911A050E948E140C
:102DB00060E080911B050E948E140DC0109280036C
:102DC00010927F031092C9031092EA030E944B0DE8
:102DD00081E480931D050E948E0F8131984061F43B
:102DE00062E083E00E94930E6AE070E080E090E091
:102DF0000E94CA1410E01CC0809119058F3F09F48D
:102E00005DC080911C058F3F09F058C085E5809317
:102E1000DC041092DD0484E090E090931F05809321
:102E20001E050E948E0F8131984009F047C0D8CF0F
:102E3000812F0E94D90E1F5F1134D1F760E084E02A
:102E40000E94930E61E080E40E94930E61E08AE0AC
:102E50000E94930E60E680E20E94930E62E081E29F
:102E60000E94930E64EA81E40E94930E66E086E578
:102E70000E94930E61E08AE40E94930E61E08BE46D
:102E80000E94930E60E08BE40E94930E61E088E55F
:102E90000E94930E6FEF8BE00E94930E65E089E035
:102EA0000E94930E1092700310926F03AE014F5F59
:102EB0005F4F1A0154E0520D5F8370C0FFCF87ED62
:102EC0000E94D90EF60181936F01FF81FC11F7CFAB
:102ED000A98020E1A29EA00111248A81A82EB12CF4
:102EE00094E0B594A7949A95E1F7A42AB52A8F7037
:102EF000C82ED12CDC2CCC248B81C82A9C808BE45E
:102F00000E94D90E85FF04C06FEF8BE00E94930EE4
:102F1000892D90E00B978D3D934060F5C501A0E0B1
:102F2000B0E09C01AD012659310941095109A09138
:102F3000E604B091E7040E94C91F22E43EE040E0AD
:102F400050E00E949F1F5901C601A0E0B0E09C0123
:102F5000AD012258310941095109A091E804B0910D
:102F6000E9040E94C91F2EE13FE040E050E00E94CA
:102F70009F1F690180906F039090700352E0851647
:102F8000910409F40CC18CF481149104D9F091E0FE
:102F90008916910409F488C00E9489118BE40E946B
:102FA000D90E85FDF9CF61018ACFE4E08E16910438
:102FB00009F434C60CF475C125E08216910409F4B5
:102FC00041C6EACF80916D0390916E03892B61F425
:102FD00060E070E08EED94E00E941C0781E090E0DC
:102FE00090936E0380936D0380EEE82EFF24FA9495
:102FF00008E210E02AE530E042E650E066E470E0E6
:103000008EED94E00E94B81160EC72E0C1010E9464
:103010005710910141E050E063E770E085E590E0F2
:103020000E946D0DC1010E94521025E530E042E67C
:1030300050E065EA70E08EED94E00E94B8116CEC0F
:1030400072E0C1010E945710910141E050E063E736
:1030500070E082EB90E00E946D0DC1010E94521061
:103060004CE8A41AB1085EE2A516B10408F094CFAA
:10307000C601C297CD9708F01DC667ED72E08BEED2
:1030800093E00E94A3106DEB72E08BEE93E00E9440
:10309000A31081E090E09093700380936F031092EF
:1030A0006E0310926D0306C680916D0390916E03BE
:1030B000892B51F460E070E08EED94E00E941C07D3
:1030C00090926E0380926D0300EEE02EFF24FA943E
:1030D0000EE510E02CE430E045E550E06CE070E0F7
:1030E0008EED94E00E94B81160E073E0C1010E948F
:1030F0005710910143E050E068E770E08EE190E006
:103100000E946D0DC1010E94521000E210E02CE4FB
:1031100030E046EB50E06CE070E08EED94E00E9411
:10312000B81164E073E0C1010E945710910141E0C1
:1031300050E063EC70E088E290E00E946D0DC10108
:103140000E945210C5018A5591098F36910570F47D
:10315000C6010F978E9750F410926E0310926D0374
:1031600083E090E09093700380936F038DE2A81A40
:10317000B1089AE1A916B10408F00ECFEFE0CE1A1B
:10318000D108FEE2CF16D10408F006CF10926E03EC
:1031900010926D0310926C03109253024EC58091F1
:1031A0006D0390916E03892B61F460E070E08EED09
:1031B00094E00E941C0781E090E090936E0380935E
:1031C0006D0310EEE12EFF24FA940EE510E02CE4DE
:1031D00030E045E550E06CE070E08EED94E00E9458
:1031E000B81160E073E0C1010E945710910143E003
:1031F00050E068E770E08EE190E00E946D0DC10143
:103200000E94521000E210E02CE430E046EB50E067
:103210006CE070E08EED94E00E94B81164E073E021
:10322000C1010E945710910141E050E063EC70E051
:1032300088E290E00E946D0DC1010E945210C5010C
:103240008A5591098F36910570F4C6010F978E97B4
:1032500050F410926E0310926D0383E090E090930F
:10326000700380936F032DE2A21AB1084AE1A416FD
:10327000B10408F091CE5FE0C51AD1088EE2C816FD
:10328000D10408F089CE10926E0310926D03109253
:10329000700310926F0310926C0381E080935302CD
:1032A0007BCE60E070E08EED94E00E941C074091C0
:1032B00051025091520260914F0270915002E0EE23
:1032C000EE2EE7E0FE2E04E110E024E130E08EED8A
:1032D00094E00E94B811FFE1EF2EF12C24E130E0E0
:1032E00048EC50E06EE071E08EED94E00E94B81181
:1032F000A5E0AA2EA1E0BA2EB4E18B2E912C2AE0F3
:10330000422E512CC12CD12C35016C0C7D1CF301AB
:1033100080819181019769F4E12C58EFF52E04E149
:1033200010E024E130E0A401B2018EED94E00E94AF
:10333000B811F30180819181029771F4EE24EA942F
:1033400047E0F42E04E110E024E130E0A401B201F2
:103350008EED94E00E94B811F2E0CF0ED11C24E172
:10336000420E511C4EE1C416D10471F65EE1A50E69
:10337000B11C84E1880E911C9FE4A91692E0B90665
:1033800009F0BDCF32E0432E512C7FE0D72ECC2464
:10339000C39480910001882309F4FECD0E94041596
:1033A0004B015C010E940415DC01CB0188199909CD
:1033B000AA09BB0984369105A105B10598F30E94BD
:1033C000BE0F80917303909174032091710330912B
:1033D0007203853B91055CF0A901455651094F34B4
:1033E000510598F410926B0310926A032BC081343C
:1033F00091055CF4A901455651094F34510528F453
:1034000050926B0340926A031DC0253B310564F066
:10341000855691098F349105A8F4E1E0F0E0F0932E
:103420006B03E0936A030EC0213431055CF48556CA
:1034300091098F34910530F443E050E050936B03D1
:1034400040936A0380916A0390916B03892B09F082
:103450006BC00E94BE0F80910301909104010197FF
:10346000D89EF001D99EF00D112480910101909118
:103470000201E80FF91FEE0FFF1FEB5FFE4F808187
:1034800091818B7F892B09F04FC04091510250915F
:1034900052024451510960914F027091500210EE56
:1034A000E12E17E0F12E04E110E024E130E08EED92
:1034B00094E00E94B8118091030190910401D89E7C
:1034C000F001D99EF00D112480910101909102012B
:1034D000E80FF91FEE0FFF1FEB5FFE4F8081918118
:1034E000039781F0409151025091520260914F0236
:1034F00070915002E12CF12C24E130E08EED94E04B
:103500000E94B81180915102909152024497909379
:10351000520280935102809103019091040101971E
:10352000909304018093030180916A0390916B034F
:10353000029709F06BC00E94BE0F80910301909129
:1035400004010196D89EF001D99EF00D11248091BE
:10355000010190910201E80FF91FEE0FFF1FEB5FD1
:10356000FE4F808191818B7F892B09F04FC0409164
:103570005102509152024C5E5F4F60914F02709128
:103580005002E0EEEE2EE7E0FE2E04E110E024E132
:1035900030E08EED94E00E94B8118091030190918B
:1035A0000401D89EF001D99EF00D112480910101F3
:1035B00090910201E80FF91FEE0FFF1FEB5FFE4F26
:1035C00080819181039781F0409151025091520284
:1035D00060914F0270915002E12CF12C24E130E017
:1035E0008EED94E00E94B8118091510290915202A8
:1035F00044969093520280935102809103019091DE
:1036000004010196909304018093030180916A0361
:1036100090916B03019709F06AC00E94BE0F8091E0
:10362000030190910401D89EF001D99EF00D112460
:103630008091010190910201E80FF91FEE0FFF1F29
:10364000E95FFE4F808191818B7F892B09F04FC00C
:10365000409151025091520260914F02709150027C
:103660006C5E7F4F20EEE22E27E0F22E04E110E0A8
:1036700024E130E08EED94E00E94B81180910301C6
:1036800090910401D89EF001D99EF00D11248091F3
:10369000010190910201E80FF91FEE0FFF1FEB5F90
:1036A000FE4F80819181039781F0409151025091AA
:1036B000520260914F0270915002E12CF12C24E1F2
:1036C00030E08EED94E00E94B81180914F0290910D
:1036D000500244969093500280934F0280910101D2
:1036E00090910201019690930201809301018091D3
:1036F0006A0390916B03039709F06AC00E94BE0FA2
:103700008091030190910401D89EF001D99EF00DA3
:1037100011248091010190910201E80FF91FEE0F31
:10372000FF1FED5FFE4F808191818B7F892B09F018
:103730004FC0409151025091520260914F027091DE
:1037400050026451710900EEE02E07E0F02E04E112
:1037500010E024E130E08EED94E00E94B8118091F9
:10376000030190910401D89EF001D99EF00D11241F
:103770008091010190910201E80FF91FEE0FFF1FE8
:10378000EB5FFE4F80819181039781F04091510260
:103790005091520260914F0270915002E12CF12C35
:1037A00024E130E08EED94E00E94B81180914F0248
:1037B0009091500244979093500280934F028091D1
:1037C0000101909102010197909302018093010100
:1037D00080917B0390917C03019709F05DC08091FB
:1037E0006903811159C08091030190910401D89E11
:1037F000F001D99EF00D11248091010190910201F8
:10380000E80FF91FEE0FFF1FEB5FFE4F83E090E024
:1038100091838083409151025091520260914F02F6
:103820007091500210EEE12EFF24FA9404E110E0B2
:1038300024E130E08EED94E00E94B8110E9404155E
:1038400060936503709366038093670390936803A6
:10385000C0926403809103019091040190936303EB
:103860008093620380910101909102019093610322
:1038700080936003809151029091520290935F0374
:1038800080935E0380914F029091500290935D036C
:1038900080935C03C09269038090650390906603F7
:1038A000A0906703B090680390ED890E97E0991E91
:1038B000A11CB11C0E940415681579058A059B0599
:1038C00008F43BC180916403882309F436C169E0A0
:1038D00073E08BEE93E00E94A3102091620330917D
:1038E00063038091600390916103D29EF001D39EA7
:1038F000F00D1124E80FF91FEE0FFF1FEB5FFE4FD5
:1039000044E050E05183408321503109D29EF001C0
:10391000D39EF00D1124E80FF91FEE0FFF1FEB5F90
:10392000FE4F80819181019771F140915E0350912A
:103930005F034451510960915C0370915D03E0EEB7
:10394000EE2EFF24FA9404E110E024E130E08EED45
:1039500094E00E94B81180916203909163030197F3
:10396000D89EF001D99EF00D1124809160039091B2
:103970006103E80FF91FEE0FFF1FEB5FFE4F44E0FE
:1039800050E0518340838091620390916303D89EFD
:10399000F001D99EF00D1124809160039091610394
:1039A000E80FF91FEE0FFF1FE95FFE4F8081918145
:1039B000019769F140915E0350915F0360915C0350
:1039C00070915D036C5E7F4F30EEE32EFF24FA941E
:1039D00004E110E024E130E08EED94E00E94B811A3
:1039E0008091620390916303D89EF001D99EF00DFF
:1039F00011248091600390916103E80FF91FEE0F8D
:103A0000FF1FE95FFE4F84E090E091838083809107
:103A10006203909163030196D89EF001D99EF00D48
:103A200011248091600390916103E80FF91FEE0F5C
:103A3000FF1FEB5FFE4F80819181019771F14091F3
:103A40005E0350915F034C5E5F4F60915C03709129
:103A50005D0380EEE82EFF24FA9404E110E024E1F7
:103A600030E08EED94E00E94B81180916203909155
:103A700063030196D89EF001D99EF00D1124809128
:103A8000600390916103E80FF91FEE0FFF1FEB5FDA
:103A9000FE4F44E050E05183408380916203909157
:103AA0006303D89EF001D99EF00D1124809160032C
:103AB00090916103E80FF91FEE0FFF1FED5FFE4FBE
:103AC00080819181019769F140915E0350915F037C
:103AD00060915C0370915D0364517109B0EEEB2E4F
:103AE000FF24FA9404E110E024E130E08EED94E04C
:103AF0000E94B8118091620390916303D89EF001F7
:103B0000D99EF00D11248091600390916103E80F1C
:103B1000F91FEE0FFF1FED5FFE4F84E090E09183F1
:103B20008083109264030E9404156093580370937D
:103B3000590380935A0390935B0380910301909102
:103B40000401D89EF001D99EF00D1124809101014D
:103B500090910201E80FF91FEE0FFF1FEB5FFE4F80
:103B600080819181049741F410920001E5E0F0E03A
:103B7000F0937003E0936F03809058039090590383
:103B8000A0905A03B0905B03FCED8F0EF5E09F1EF2
:103B9000A11CB11C0E940415681579058A059B05B6
:103BA00008F4F7CB809164038111F3CBF5E06F2E1D
:103BB000F1E07F2EA12CB12CE4E1AE0EB11CEAE0C5
:103BC0008E2E912CC12CD12CF301EC0DFD1D80818A
:103BD00091810397029770F411821082E12CF12CED
:103BE00004E110E024E130E0A501B4018EED94E0A1
:103BF0000E94B81122E0C20ED11C44E1840E911C37
:103C00005EE1C516D10401F78EE1680E711C9CEDD2
:103C1000A916B10489F610926903B7CBF1EFAF167C
:103C2000B10408F0B9C921E4C21621E0D20608F0B7
:103C3000B3C910926E0310926D031092700310922C
:103C40006F03AAC960E078EF8EED94E00E941C0734
:103C500060EEE62EFF24FA9400E210E02CE430E05F
:103C600046EB50E06CE070E08EED94E00E94B811FD
:103C700064E073E0C1010E945710910141E050E0FF
:103C800063EC70E088E290E00E946D0DC1010E943B
:103C900052104DE2A41AB1085AE1A516B10408F079
:103CA0007BC98FE0C81AD1089EE2C916D10408F476
:103CB0006DCA72C9E8E7CE1AD108FDE3CF16D10468
:103CC00008F06AC96CEE72E08BEE93E00E94A310DC
:103CD0006DEB72E08BEE93E00E94A31082E090E027
:103CE0009093700380936F0310926E0310926D0394
:103CF00053C9EBEEF3E01382128288EE93E0A0E06A
:103D0000B0E084839583A683B7832EE532E03183C8
:103D1000208325EC30E03587248724EC30E037879A
:103D2000268720EC30E0318B208B21EC30E0338B88
:103D3000228B22EC30E0358B248B26EC30E0378B65
:103D4000268B118E128E138E148EE8E8F4E0168204
:103D5000178210861186128613861486158616869B
:103D60001786108A118A128A138A148A158AE0ED3E
:103D7000F4E01382128284839583A683B78380E75D
:103D800092E091838083ECEDF4E080E58083118202
:103D9000E9E1F5E088E080838FEF8383828381838C
:103DA000AEEDB4E013961C921E92129740EF50E0D5
:103DB00015965C934E93149720E431E017963C934C
:103DC0002E93169719965C934E9318971B963C93D7
:103DD0002E931A9755961C9255971D961C921E92DB
:103DE0001C971F961C921E921E9791E054969C93CE
:103DF00054972FEF3FEF53963C932E935297519643
:103E00003C932E93509756969C93569757961C9298
:103E1000579759961C921E925897D5961C92D597F3
:103E2000D6961C92D697D8961C921E92D797DA9661
:103E30001C921E92D9979AE090969C93909799E045
:103E400091969C93919792968C93929721E235E06C
:103E50005B963C932E935A9793968C939397949654
:103E60008C93949795968C9395975C961D921D9242
:103E70001D921C925F979B961C921E929A97D296C7
:103E80001C92D29797961C921E929697D0961C924F
:103E9000D09799961C921E929897D1961C92D19782
:103EA000ECE1F6E0E491F0E0EE0FFF1FE75FF94F81
:103EB000859194919D969C938E939C97EEEFF5E05F
:103EC000E491D496EC93D497EDE1F6E0E491F0E040
:103ED000EE0FFF1FE75FF94F859194919F969C939A
:103EE0008E939E97EFEFF5E0E491D396EC93D39702
:103EF00082E892E08D939C930895A1E21A2EAA1B6A
:103F0000BB1BFD010DC0AA1FBB1FEE1FFF1FA21789
:103F1000B307E407F50720F0A21BB30BE40BF50B86
:103F2000661F771F881F991F1A9469F7609570950F
:103F3000809590959B01AC01BD01CF010895052EA0
:103F400097FB1EF400940E94B61F57FD07D00E94F5
:103F50007D1F07FC03D04EF40C94B61F509540957E
:103F6000309521953F4F4F4F5F4F08959095809525
:103F7000709561957F4F8F4F9F4F08950E94082045
:103F8000A59F900DB49F900DA49F800D911D1124AD
:103F90000895B7FF0C94BE1F0E94BE1F821B930B97
:103FA00008952F923F924F925F926F927F928F92DD
:103FB0009F92AF92BF92CF92DF92EF92FF920F93B8
:103FC0001F93CF93DF93CDB7DEB7CA1BDB0B0FB6C2
:103FD000F894DEBF0FBECDBF09942A88398848887F
:103FE0005F846E847D848C849B84AA84B984C88415
:103FF000DF80EE80FD800C811B81AA81B981CE0F0C
:10400000D11D0FB6F894DEBF0FBECDBFED010895F0
:10401000A29FB001B39FC001A39F700D811D112409
:10402000911DB29F700D811D1124911D08950E9454
:104030000820332312F48A1B9B0B0C9421200E942E
:104040000820B7FF0895821B930B0895EE0FFF1F02
:104050000590F491E02D0994CF93DF938230910580
:1040600010F482E090E0E0912D05F0912E0520E023
:1040700030E0C0E0D0E0309711F140815181481725
:104080005907C0F04817590761F48281938120973E
:1040900019F09B838A832BC090932E0580932D0566
:1040A00026C02115310519F04217530718F49A015B
:1040B000BE01DF01EF010280F381E02DDCCF21158D
:1040C000310509F1281B390B2430310590F4129683
:1040D0008D919C9113976115710521F0FB019383DC
:1040E000828304C090932E0580932D05FD013296A6
:1040F00044C0FD01E20FF31F8193919322503109D7
:104100002D933C933AC020912B0530912C05232B05
:1041100041F4209156023091570230932C052093A0
:104120002B0520915402309155022115310541F49F
:104130002DB73EB74091580250915902241B350BC0
:10414000E0912B05F0912C05E217F307A0F42E1B4C
:104150003F0B2817390778F0AC014E5F5F4F2417EB
:10416000350748F04E0F5F1F50932C0540932B05E9
:104170008193919302C0E0E0F0E0CF01DF91CF9115
:1041800008950F931F93CF93DF93009709F48CC08A
:10419000FC0132971382128200912D0510912E0599
:1041A0000115110581F420813181820F931F209127
:1041B0002B0530912C052817390779F5F0932C053C
:1041C000E0932B0571C0D80140E050E0AE17BF0767
:1041D00050F412962D913C911397AD0121153105A4
:1041E00009F1D901F3CF9D01DA0133832283608184
:1041F0007181860F971F8217930769F4EC0128815C
:104200003981260F371F2E5F3F4F318320838A81EC
:104210009B8193838283452B29F4F0932E05E093B1
:104220002D0542C01396FC93EE931297ED01499130
:1042300059919E01240F351FE217F30771F4808115
:104240009181840F951F029611969C938E93828183
:10425000938113969C938E931297E0E0F0E0D8013F
:1042600012968D919C911397009719F0F8018C018B
:10427000F6CF8D919C9198012E5F3F4F820F931F37
:1042800020912B0530912C052817390769F43097B8
:1042900029F410922E0510922D0502C0138212826D
:1042A00010932C0500932B05DF91CF911F910F9157
:1042B0000895A0E0B0E0EFE5F1E20C94D51FEC0129
:1042C000009721F4CB010E942C20B8C0FC01E60F1E
:1042D000F71F9C0122503109E217F30708F4ACC024
:1042E000D9010D911C91119706171707B0F00530F1
:1042F000110508F49FC0C80104978617970708F4B2
:1043000099C002501109061B170B019311936D936D
:104310007C93CF010E94C1208DC05B01A01AB10A1D
:104320004C01800E911EA0912D05B0912E0540E00C
:1043300050E0E12CF12C109709F44AC0A815B905FA
:10434000D1F56D907C901197630182E0C80ED11C6D
:10435000CA14DB0480F1A3014A195B096A0182E0F7
:10436000C80ED11C1296BC9012971396AC91B5E072
:10437000CB16D10440F0B282A38351834083D9018C
:104380006D937C930AC00E5F1F4FC301800F911F76
:10439000F90191838083EB2DFA2FE114F10431F0C0
:1043A000D7011396FC93EE93129744C0F0932E0519
:1043B000E0932D053FC08D919C91119748175907A7
:1043C00008F4AC017D0112960D90BC91A02DB3CFE5
:1043D00080912B0590912C0588159905E1F44617DD
:1043E0005707C8F48091540290915502009741F408
:1043F0008DB79EB74091580250915902841B950B7E
:10440000E817F907C8F4F0932C05E0932B05F901A0
:10441000718360830FC0CB010E942C207C01009728
:1044200059F0A801BE010E942822CE010E94C1209D
:10443000C70104C0CE0102C080E090E0CDB7DEB776
:10444000EEE00C94F11F81E090E0F8940C94382297
:10445000FB01DC0102C001900D9241505040D8F7A1
:104460000895FB01DC0101900D920020E1F7089511
:04447000F894FFCFEE
:10447400010100010001000100010001000100012F
:104484000001000100010001000100010001000120
:104494000001000100000000000200000002000012
:1044A4000002000000020000000200000000000101
:1044B40000010000000100000001000000010000F4
:1044C40000010000000100000001000000010001E3
:1044D40000020000000200000002000000020000D0
:1044E40000020000000200000002000100010000C0
:1044F40000010000000100000001000000010000B4
:1045040000010000000100000001000100020000A1
:10451400000200000002000000020000000200008F
:104524000002000000020001000100000001000080
:104534000001000000010000000100000001000073
:104544000001000000010001000200000002000060
:10455400000200000002000000020000000200004F
:104564000002000100010000000100000001000041
:104574000001000000010000000100000001000033
:104584000001000100000000000200000002000021
:104594000002000000020000000200000000000110
:1045A40000010001000100010001000100010001FF
:1045B4000001000100010001000100010001001ED2
:1045C4000028000100002F058000000000002011D9
:1045D400320EB8106711E910C710DB10000000009C
:1045E4007C094C09AC09200944093009210900005F
:1045F40000007005320EAC09AB099612A513E61241
:10460400181380126D1244089913C20AAF093212AA
:10461400F711B8111C07A5064606650B110A564D7D
:104624004450565F317C315F564D4450560D0A005C
:104634005374617274204C6F626279004A6F696EC0
:10464400204C6F6262790020204E45585420535408
:10465400415445203D2053746172740020204E451E
:104664005854205354415445203D204A6F696E00EC
:10467400474F21004261636B0073746172740000E0
:00000001FF
