:100000000C941A030C9442030C9442030C94420384
:100010000C9442030C9442030C9442030C9442034C
:100020000C9442030C9442030C9442030C9442033C
:100030000C9442030C9442030C9442030C9442032C
:100040000C9489100C9442030C947C0F0C94560F62
:100050000C9442030C9442030C9442030C9442030C
:100060000C94D40A0C944203EF03038002CF0300E4
:10007000C130ED0464031281E803850078CB0539B3
:100080002C003402F70120EA020000C00123C10164
:1000900010C5023E28C701863601483701003A01E3
:1000A00055B1020018B603088227F20100260101AB
:1000B000E00F0F312B0C0E084EF1370710030E091D
:1000C00000E10F000E1403110731C148080F0C3175
:1000D000360F118029800000000000003E5B4F5B5E
:1000E0003E3E6B4F6B3E1C3E7C3E1C183C7E3C18DB
:1000F0001C577D571C1C5E7F5E1C00183C1800FFBF
:10010000E7C3E7FF0018241800FFE7DBE7FF3048EC
:100110003A060E2629792926407F050507407F05E6
:10012000253F5A3CE73C5A7F3E1C1C08081C1C3EDD
:100130007F14227F22145F5F005F5F06097F017FCB
:10014000006689956A606060606094A2FFA294086E
:10015000047E040810207E201008082A1C08081CB1
:100160002A08081E101010100C1E0C1E0C30383EF1
:100170003830060E3E0E06000000000000005F0052
:10018000000007000700147F147F14242A7F2A121E
:100190002313086462364956205000080703000004
:1001A0001C2241000041221C002A1C7F1C2A080836
:1001B0003E08080080703000080808080800006049
:1001C000600020100804023E5149453E00427F4035
:1001D0000072494949462141494D331814127F1094
:1001E00027454545393C4A494931412111090736DE
:1001F00049494936464949291E000014000000407B
:100200003400000008142241141414141400412274
:10021000140802015909063E415D594E7C12111223
:100220007C7F494949363E414141227F4141413E1F
:100230007F494949417F090909013E414151737F85
:100240000808087F00417F41002040413F017F08AE
:100250001422417F404040407F021C027F7F0408FF
:10026000107F3E4141413E7F090909063E4151212F
:100270005E7F09192946264949493203017F010356
:100280003F4040403F1F2040201F3F4038403F63D9
:100290001408146303047804036159494D43007F33
:1002A0004141410204081020004141417F04020104
:1002B00002044040404040000307080020545478A6
:1002C000407F284444383844444428384444287FF4
:1002D000385454541800087E090218A4A49C787F4E
:1002E0000804047800447D40002040403D007F1019
:1002F00028440000417F40007C047804787C080496
:1003000004783844444438FC182424181824241849
:10031000FC7C08040408485454542404043F442436
:100320003C4040207C1C2040201C3C4030403C4451
:10033000281028444C9090907C4464544C4400080D
:10034000364100000077000000413608000201023B
:1003500004023C2623263C1EA1A161123A40402003
:100360007A3854545559215555794122545478427C
:10037000215554784020545579400C1E5272123940
:1003800055555559395454545939555454580000F9
:10039000457C410002457D420001457C407D1211B3
:1003A000127DF0282528F07C545545002054547CBB
:1003B000547C0A097F4932494949323A4444443A13
:1003C000324A4848303A4141217A3A424020780046
:1003D0009DA0A07D3D4242423D3D4040403D3C24E9
:1003E000FF2424487E4943662B2FFC2F2BFF09292D
:1003F000F620C0887E090320545479410000447DD2
:10040000413048484A32384040227A007A0A0A721B
:100410007D0D19317D2629292F28262929292630C5
:10042000484D4020380808080808080808382F10E8
:10043000C8ACBA2F102834FA00007B000008142A38
:10044000142222142A14085500550055AA55AA55FD
:10045000AAFF55FF55FF000000FF00101010FF001D
:10046000141414FF001010FF00FF1010F010F0140F
:100470001414FC001414F700FF0000FF00FF141414
:10048000F404FC141417101F10101F101F14141460
:100490001F00101010F0000000001F101010101F9F
:1004A00010101010F010000000FF101010101010AD
:1004B000101010FF10000000FF140000FF00FF00EC
:1004C000001F10170000FC04F41414171017141464
:1004D000F404F40000FF00F714141414141414F7B7
:1004E00000F7141414171410101F101F141414F410
:1004F000141010F010F000001F101F0000001F1457
:10050000000000FC140000F010F01010FF10FF14A9
:100510001414FF141010101F00000000F010FFFF53
:10052000FFFFFFF0F0F0F0F0FFFFFF000000000021
:10053000FFFF0F0F0F0F0F3844443844FC4A4A4A5C
:10054000347E02020606027E027E02635549416342
:100550003844443C04407E201E2006027E0202995C
:10056000A5E7A5991C2A492A1C4C7201724C304AF5
:100570004D4D303048784830BC625A463D3E49497E
:1005800049007E0101017E2A2A2A2A2A44445F4426
:100590004440514A444040444A51400000FF010356
:1005A000E080FF000008086B6B0836123624360620
:1005B0000F090F060000181800000010100030404E
:1005C000FF0101001F01011E00191D1712003C3C14
:1005D0003C3C000000000000000000240027002A2E
:1005E0000000000000230026002900000000080091
:1005F00002010000030407000000000000000001E9
:1006000002040810204080010204081020010204A6
:1006100008102000000000250028002B000404041E
:10062000040404040402020202020203030303039B
:100630000300A11F11241FBECFEFD8E0DEBFCDBF46
:1006400013E0A0E0B1E0E4ECF6E402C005900D9206
:10065000AC32B107D9F725E0ACE2B3E001C01D929E
:10066000A135B207E1F713E0CAE1D3E004C0219756
:10067000FE010E944E21C931D107C9F70E949F1582
:100680000C9460230C9400006F927F928F929F9243
:10069000AF92BF92CF92DF92EF92FF920F931F9390
:1006A000CF93DF93EC014B015A0169013801E881D6
:1006B000F9810284F385E02D0995E881F9810288AA
:1006C000F389E02D87019601A501B401CE010995BA
:1006D000E881F981A501460D571D41505109028855
:1006E000F389E02D9601B401CE010995E881F981E5
:1006F0000088F189E02D9301A501B401CE0109958F
:10070000E881F981C80CD91CB601615071090088D3
:10071000F189E02D9301A501CE010995E881F981C8
:100720000688F789E02DCE01DF91CF911F910F91BF
:10073000FF90EF90DF90CF90BF90AF909F908F9001
:100740007F906F900994CF92DF92EF92FF920F9378
:100750001F93CF93DF9300D000D000D0CDB7DEB78A
:100760006C01DC01ED91FC916217730789F40417A9
:1007700015072CF4942F852FA801092F182F041B7F
:10078000150B98012F5F3F4F048CF58DE02D12C0A3
:100790004017510709F5261737072CF4962F872F96
:1007A000B901292F382F261B370B2F5F3F4F068C9F
:1007B000F78DE02D8701C601099526960FB6F894AE
:1007C000DEBF0FBECDBFDF91CF911F910F91FF9084
:1007D000EF90DF90CF9008950284F385E02D2D8374
:1007E0003E834B835C8369837A830995D601ED91BF
:1007F000FC910488F589E02D2D813E814B815C813F
:1008000069817A81C6010995D601ED91FC9106882E
:10081000F789E02DC60126960FB6F894DEBF0FBE0D
:10082000CDBFDF91CF911F910F91FF90EF90DF909F
:10083000CF900994EF92FF920F931F93DC01ED91FB
:10084000FC9111971A960D911C911B9718962D915A
:100850003C91199700A0F1A1E02D7B0140E050E010
:1008600060E070E009951F910F91FF90EF9008955F
:100870004F925F926F927F928F929F92AF92BF92B0
:10088000CF92DF92EF92FF920F931F93CF93DF935C
:1008900000D0CDB7DEB76C015A0139014801DC0147
:1008A000ED91FC910284F385E02D69837A830995AB
:1008B0006981462E7A81572E640C751CD601ED9104
:1008C000FC91461457046CF40088F189E02D8701EF
:1008D0009401A501B201C6010995BFEF4B1A5B0A4D
:1008E000EDCF0688F789E02DC6010F900F90DF91BC
:1008F000CF911F910F91FF90EF90DF90CF90BF901D
:10090000AF909F908F907F906F905F904F900994E1
:10091000AF92BF92CF92DF92EF92FF920F931F930D
:10092000CF93DF9300D000D0CDB7DEB75C01690173
:10093000DC01ED91FC910284F385E02D4B835C8317
:1009400069837A830995D501ED91FC9169817A815A
:100950009B012C0D3D1D215031090488F589E02DA6
:1009600078014B815C818A01C5010995D501ED9122
:10097000FC910688F789E02DC5010F900F900F902C
:100980000F90DF91CF911F910F91FF90EF90DF902B
:10099000CF90BF90AF900994AF92BF92CF92DF9269
:1009A000EF92FF920F931F93CF93DF9300D000D06D
:1009B000CDB7DEB75C016901DC01ED91FC910284E9
:1009C000F385E02D4B835C8369837A830995D50198
:1009D000ED91FC914B815C81C40ED51EB1E0CB1A28
:1009E000D1080488F589E02D7801860169817A8132
:1009F0009B01C5010995D501ED91FC910688F78908
:100A0000E02DC5010F900F900F900F90DF91CF91C7
:100A10001F910F91FF90EF90DF90CF90BF90AF901C
:100A200009940895EF92FF920F931F93DC01ED91CB
:100A3000FC9100A0F1A1E02D09951F910F91FF906D
:100A4000EF9008950F931F93DC01ED91FC91068CBC
:100A5000F78DE02D09951F910F9108950F931F9326
:100A6000DC01ED91FC91048CF58DE02D09951F9131
:100A70000F910895DC01ED91FC910084F185E02D4A
:100A8000099408952F923F924F925F926F927F92B6
:100A90008F929F92AF92BF92CF92DF92EF92FF928E
:100AA0000F931F93CF93DF9300D01F92CDB7DEB784
:100AB0004C017B836A836A01590117019801241B49
:100AC000350B37FF03C0319521953109C5014A81A6
:100AD0005B81841B950B97FF03C0919581959109CC
:100AE00051E059838217930714F019820BC09A2D95
:100AF0008B2D5801092F182F9A818B81DB82CA8296
:100B0000C92ED82E8A819B81A816B9065CF49C2D2B
:100B10008D2D6801092F182F9A818B81BB82AA82A3
:100B2000A92EB82E2501AA81BB814A1A5B0A380179
:100B30006C187D0877FE03C071946194710872018E
:100B400057FE03C0BFEFEB1AFB0AF594E794C016FB
:100B5000D1061CF00FEF1FEF1FC001E010E01CC01A
:100B6000D401ED91FC91B9810484F585E02D9101CA
:100B7000BB23C1F04A815B81B601C4010995E61827
:100B8000F708F7FE04C0C00ED11EE40CF51CEA8184
:100B9000FB813196FB83EA834A815B81A416B5060B
:100BA000FCF604C0A6016A817B81E7CF0F900F900D
:100BB0000F90DF91CF911F910F91FF90EF90DF90F9
:100BC000CF90BF90AF909F908F907F906F905F90ED
:100BD0004F903F902F90089585ED8093BC008091B9
:100BE000BC0084FDFCCF1092F203089540916D0388
:100BF000262F30E0240F311D21323105DCF4209105
:100C0000F2032430C9F4FC0180E090E0861758F428
:100C100030916D032191DC01A55BBC4FA30FB11D89
:100C20002C930196F3CF80916D03680F60936D0351
:100C300080E0089581E0089582E008950895E091AC
:100C4000AB038091AA03E81730F4F0E0E455FC4FC1
:100C5000808190E008958FEF9FEF08959091AB030E
:100C60008091AA03981750F4E92FF0E0E455FC4F67
:100C7000208130E09F5F9093AB0302C02FEF3FEFE6
:100C8000C90108958091AA0390E02091AB03821BD3
:100C900091090895CF92DF92EF92FF920F931F93E5
:100CA000CF93DF937C01262F972F8A018091F30346
:100CB000882391F0C62FD72F6E01C40ED51ECC15F8
:100CC000DD0571F06991D701ED91FC910190F08102
:100CD000E02DC7010995F3CF642F822F0E94F605FE
:100CE000C801DF91CF911F910F91FF90EF90DF909E
:100CF000CF900895CF93DF931F92CDB7DEB769836E
:100D00002091F3032223D1F020911504203240F0EA
:100D100021E030E0FC013383228380E090E015C0C5
:100D20008091F403E82FF0E0EB50FC4F9981908321
:100D30008F5F8093F4038093150405C061E0CE01BA
:100D400001960E94F60581E090E00F90DF91CF912F
:100D50000895089580E090E008950F931F93CF9336
:100D6000DF931F92CDB7DEB78C01DC01ED91FC91D2
:100D70000284F385E02D698309956981611102C0C0
:100D800060E201C061E2C8010E949011D801ED91BA
:100D9000FC910688F789E02DC8010F90DF91CF9173
:100DA0001F910F9109948F929F92AF92BF92CF9211
:100DB000DF92EF92FF920F931F93CF93DF93EC019B
:100DC000490181E0881A9108860E971EC401A0E0AF
:100DD000B0E04B01A12CB12C540199248824882A1D
:100DE000992AAA2ABB2A680181E0C81AD108C40E30
:100DF000D51EC601A0E0B0E06A01E12CF12C76011D
:100E0000DD24CC24C82AD92AEA2AFB2A6AE2CE01A8
:100E10000E9490112BA16B2D77278827992727FFF8
:100E200018C06EBD0DB407FEFDCFC501AA27BB27B4
:100E30008EBD0DB407FEFDCFBB27AB2D9A2D892D9E
:100E40008EBD0DB407FEFDCF8EBC0DB407FEFDCFE9
:100E500014C0CE010E94D310B50188279927CE0176
:100E60000E94D31099278B2D7A2D692DCE010E94D7
:100E7000D310682DCE010E94D3106BE2CE010E94E8
:100E800090112BA16F2D77278827992727FF18C04E
:100E90006EBD0DB407FEFDCFC701AA27BB278EBDCF
:100EA0000DB407FEFDCFBB27AF2D9E2D8D2D8EBD22
:100EB0000DB407FEFDCFCEBC0DB407FEFDCF14C0B0
:100EC000CE010E94D310B70188279927CE010E9436
:100ED000D31099278F2D7E2D6D2DCE010E94D3101A
:100EE0006C2DCE010E94D3106CE2CE01DF91CF9128
:100EF0001F910F91FF90EF90DF90CF90BF90AF9038
:100F00009F908F900C9490111F93CF93DF93EC01DF
:100F100063706D8B6230C1F0633001F1613051F06C
:100F200080EF90E09987888780E491E09B878A87AB
:100F300018E41DC080E491E09987888780EF90E0F5
:100F40009B878A8718E213C080EF90E09987888793
:100F500080E491E09B878A8718E809C080E491E0EB
:100F60009987888780EF90E09B878A8718EEE881D1
:100F7000F9810284F385E02DCE01099566E3CE0167
:100F80000E949011612FCE010E94D310E881F98157
:100F90000688F789E02DCE01DF91CF911F9109944A
:100FA0002F923F924F925F926F927F928F929F9279
:100FB000AF92BF92CF92DF92EF92FF920F931F9367
:100FC000CF93DF93CDB7DEB76C970FB6F894DEBF43
:100FD0000FBECDBF9C8F8B8F5B011A011F830E83C9
:100FE0003701C982DC0158964D915C9159974115A2
:100FF000510509F0E5C018968D919C9119976817D5
:1010000079070CF0CAC11A968D919C911B972816EE
:1010100039060CF0C2C18C2C912CFB0136E0C39E2A
:10102000E00DF11D1124FB87EA871E161F060CF048
:10103000B4C1C40133E0880F991F3A95E1F79D8749
:101040008C87820D931D181619060CF0A6C15796B1
:101050008C91811103C0203B08F02F5FAB8DBC8DBC
:10106000ED91FC9111970284F385E02DCD012A8F3B
:1010700009952A8DB5E02B9F90011124F501359635
:10108000FF87EE87BB82AA822501A9014A195B0965
:10109000598B488BC10108969B8B8A8BE889F9890B
:1010A000E40DF51DE952FF4F9491988761013D824F
:1010B0002C82A885A0FF13C0AB8DBC8DED91FC9157
:1010C000B981B13031F40484F585E02D2E813F8162
:1010D00016C00684F785E02DEE80FF801AC0EE81F1
:1010E000FF816E167F06F1F0AB8DBC8DED91FC910A
:1010F000B981B13051F40484F585E02D9301A60146
:10110000B2018B8D9C8D09950DC00684F785E02D6D
:101110007301840194014C815D816A817B818B8D97
:101120009C8D0995E885E695E887FFEFCF1ADF0AE1
:101130002C813D81280D391D3D832C834A895B8993
:10114000C416D50609F0B5CF5FEF451A550A8A8156
:101150009B81880D991D9B838A83AE85BF854A1626
:101160005B0609F09BCFEE81FF816E167F0609F4C6
:10117000F2C0EB8DFC8DA081B181F981F13079F461
:10118000B5016B5F7F4F5096ED91FC9151978301B4
:1011900028E030E0A1018B8D9C8D0995DCC06A852B
:1011A0007B85681979091E96ED91FC911F97730153
:1011B0000C851D859401A1018B8D9C8D0995CBC05B
:1011C000FA0134969491329765917491291BCB0161
:1011D000B7E02B9F800D911D1124FA0125913491C8
:1011E0003B8B2A8BFC01459154915B834A83FC0124
:1011F0003296C490319654915E873296149131960E
:10120000D4908981823058F0612E012E000C77082D
:10121000AD2D0D2C000CBB0BB987A88704C0198617
:101220001886612C712CAB8DBC8DED91FC911197C2
:101230000284F385E02DCD010995B9818B2E912C87
:10124000689CC001699C900D789C900D1124FC0154
:10125000EA0DFB1DFD87EC871C82712C612CE12FB0
:10126000110FFF0B95012E0F3F1F3B872A87AC0CF8
:10127000B11CA5014E0F5F1F5F8B4E8BC1018D0D01
:10128000911DD7FC9A95998F888F4E85641608F02A
:1012900062C0862D90E048855985480F591F489DAA
:1012A0009001499D300D589D300D1124D901A20D9A
:1012B000B31DB98BA88BAA84BB844C845D84DC806D
:1012C000BA85DB1AE88DF98DE80FF91FFD8BEC8BE1
:1012D0008D2D8A0D2E893F89A216B306B9F187702C
:1012E00061F48A819B810196EA89FB89AA81BB818D
:1012F000EA0FFB1F74909B838A8377FE20C0AB8D1F
:10130000BC8DED91FC91B981B13061F40484F58517
:10131000E02D2E813F814C895D89B5018B8D9C8D9F
:1013200009950DC00684F785E02DEE80FF808401CD
:10133000940148895989B2018B8D9C8D0995770C50
:10134000EFEFAE1ABE0A480C591CC2CF3C813C0DCF
:101350003C8363949ACFAB8DBC8DED91FC9111973A
:101360000688F789E02DCD016C960FB6F894DEBFA4
:101370000FBECDBFDF91CF911F910F91FF90EF90E6
:10138000DF90CF90BF90AF909F908F907F906F90A5
:101390005F904F903F902F9009946C960FB6F89401
:1013A000DEBF0FBECDBFDF91CF911F910F91FF9098
:1013B000EF90DF90CF90BF90AF909F908F907F90F5
:1013C0006F905F904F903F902F900895CF93CFB73D
:1013D000F89480919203811127C0E7E2F6E08491AE
:1013E000E9E0F6E09491E82FF0E0EE0FFF1FE952FC
:1013F000FA4FA591B491EC91E92321F461E08AE0E0
:101400000E94D70F61E08AE00E9407108CB58061CE
:101410008CBD8CB580648CBD61E08DE00E940710AE
:1014200061E08BE00E940710809192038F5F8093B0
:101430009203CFBFCF910895BF92CF92DF92EF92E8
:10144000FF920F931F93CF93DF93EC01411551054A
:101450006105710521F440E052E16AE770E04C8FCC
:101460005D8F6E8F7F8F88A187FD07C061E00E942E
:10147000071061E088A10E94D70F61E089A10E9456
:10148000071060E089A10E94D70F8BA187FD16C0CD
:1014900061E08CA10E94071060E08CA10E94D70F30
:1014A00061E08BA10E94071061E08BA10E94D70F21
:1014B0008DA187FD03C060E00E9407108BA187FD0E
:1014C0000E94E6098AA187FD21C061E00E94071001
:1014D00061E08AA10E94D70F64E670E080E090E0AE
:1014E0000E94431060E08AA10E94D70F64E670E07A
:1014F00080E090E00E94431061E08AA10E94D70F33
:1015000068EC70E080E090E00E944310E881F9818F
:101510000284F385E02DCE01099508E610E07801FC
:10152000EFEFEE1AFE0AF8016491662321F1CE0175
:101530000E9490110E5F1F4FF701E490FE2DFF7780
:10154000BF2E6801FF2EFA948FEFF81649F0F601CE
:101550006491CE010E94D310FFEFCF1ADF0AF3CFC0
:101560000B0D111DE7FEDBCF68E770E080E090E037
:101570000E944310D4CFE881F9810688F789E02DD5
:10158000CE01099580EF90E09987888780E491E00B
:101590009B878A87DF91CF911F910F91FF90EF90EA
:1015A000DF90CF90BF9008951F920F920FB60F92C9
:1015B00011242F933F934F935F936F937F938F9358
:1015C0009F93AF93BF93EF93FF938091B900887F70
:1015D000803609F49CC068F5883209F45BC090F449
:1015E000803109F454C038F4882309F4F6C08830F7
:1015F00009F44DC0F6C0883109F44CC0803209F4BA
:101600005DC0EFC0803409F468C048F4803309F449
:1016100055C0883309F0E5C08093F003D8C0803509
:1016200009F44FC0883509F45DC0883409F0D9C089
:10163000D6C0883909F4C7C0A8F4883709F467C050
:1016400038F4883609F463C0803709F460C0C9C033
:10165000883809F4B8C0803909F45FC0803809F0CF
:10166000C0C05BC0803B09F486C038F4803A09F4FE
:1016700066C0883A09F47FC0B4C0803C09F4A7C0B2
:10168000883C09F4A4C0883B09F48AC0AAC08091B0
:10169000CD0310C09091EF038091EE03981770F581
:1016A000E091EF0381E08E0F8093EF03F0E0E253CF
:1016B000FC4F80818093BB0085EC86C08093F00353
:1016C0008EC0E091EF0381E08E0F8093EF03809155
:1016D000BB00F0E0E253FC4F80839091EF038091D8
:1016E000EE036EC0E091EF0381E08E0F8093EF0375
:1016F0008091BB00F0E0E253FC4F80838091F103C6
:1017000081116DC081E08093CC0384EA61C083E0E5
:101710008093F20310929103CFCF80919103803296
:1017200008F051C0E091910381E08E0F8093910306
:101730008091BB00F0E0EF58FC4F8083BDCF85EC7B
:101740008093BC001092F20380919103803230F4B8
:10175000E0919103F0E0EF58FC4F1082609191030B
:1017600070E0E0916F03F091700381E793E00995D9
:101770001092910336C084E08093F20310926E03BE
:1017800010926D03E0916B03F0916C0309958091C9
:101790006D03811105C081E080936D0310924B03AE
:1017A000E0916E0381E08E0F80936E03F0E0E55BC5
:1017B000FC4F80818093BB0090916E0380916D03FC
:1017C000981708F479CF85E88093BC000AC085ECAF
:1017D0008093BC001092F20304C01092F0030E94A8
:1017E000EC05FF91EF91BF91AF919F918F917F9108
:1017F0006F915F914F913F912F910F900FBE0F907E
:101800001F9018951092F20381E08093F1031092DB
:10181000CC0361E082E10E94D70F61E083E10E9486
:10182000D70FE9EBF0E080818E7F808380818D7F10
:10183000808388E48093B80085E48093BC00089599
:1018400008958CBD9DBD0895909316058093150550
:10185000709318056093170510921C0510921B05D4
:1018600010921A0510921905411101C041E04093F0
:101870001D05F901448155816081718189E095E000
:101880000E9419136DEB72E089E095E00C948A15C3
:10189000FC01538D448D252F30E0842F90E0821B76
:1018A000930B541710F0CF96089501970895FC01FB
:1018B000918D828D981761F0828DDF01A80FB11D87
:1018C0005D968C91928D9F5F9F73928F90E00895AB
:1018D0008FEF9FEF0895FC01918D828D981731F065
:1018E000828DE80FF11D858D90E008958FEF9FEFB9
:1018F0000895FC01918D228D892F90E0805C9F4F8F
:10190000821B91098F739927089586E194E00E94C4
:10191000790C21E0892B09F420E0822F0895FC0145
:10192000848DDF01A80FB11DA35ABF4F2C91848D68
:1019300090E001968F739927848FA689B7892C939D
:10194000A089B1898C9180648C93938D848D981338
:1019500006C00288F389E02D80818F7D8083089501
:10196000EF92FF920F931F93CF93DF93EC0181E0EF
:10197000888F9B8D8C8D981305C0E889F9898081AB
:1019800085FD24C0F62E0B8D10E00F5F1F4F0F73E7
:101990001127E02E8C8DE8120CC00FB607FCFACF91
:1019A000E889F989808185FFF5CFCE010E948F0CEF
:1019B000F1CF8B8DFE01E80FF11DE35AFF4FF0824E
:1019C0000B8FEA89FB898081806207C0EE89FF89DD
:1019D0006083E889F98980818064808381E090E078
:1019E000DF91CF911F910F91FF90EF900895CF93CA
:1019F000DF93EC01888D8823C9F0EA89FB89808117
:101A000085FD05C0A889B9898C9186FD0FC00FB6E8
:101A100007FCF5CF808185FFF2CFA889B9898C9129
:101A200085FFEDCFCE010E948F0CE7CFDF91CF91E4
:101A3000089580E090E0892B29F00E94850C8111A7
:101A40000C94000008953FB7F8948091980390910A
:101A50009903A0919A03B0919B0326B5A89B05C05A
:101A60002F3F19F00196A11DB11D3FBFBA2FA92F1D
:101A7000982F8827820F911DA11DB11DBC01CD019A
:101A800042E0660F771F881F991F4A95D1F7089586
:101A9000CF92DF92EF92FF920F931F93CF93DF933A
:101AA00000D000D000D0CDB7DEB76C01DC01ED91E5
:101AB000FC910284F385E02D2D833E834B835C8370
:101AC00069837A830995D601ED91FC910684F785A7
:101AD000E02D2D813E814B815C8169817A81C60137
:101AE0000995D601ED91FC910688F789E02DC60194
:101AF00026960FB6F894DEBF0FBECDBFDF91CF9113
:101B00001F910F91FF90EF90DF90CF900994EF928B
:101B1000FF920F931F93CF93DF9300D000D000D09C
:101B2000CDB7DEB77C01DC01ED91FC910284F38539
:101B3000E02D2D833E834B835C8369837A830995F3
:101B4000D701ED91FC910288F389E02D2D813E8132
:101B50004B815C8169817A81C7010995D701ED913B
:101B6000FC910688F789E02DC70126960FB6F894F8
:101B7000DEBF0FBECDBFDF91CF911F910F91FF90C0
:101B8000EF900994EF92FF920F931F93CF93DF93FF
:101B900000D000D000D0CDB7DEB77C01DC01ED91E4
:101BA000FC910284F385E02D2D833E834B835C837F
:101BB00069837A830995D701ED91FC910088F189B9
:101BC000E02D2D813E814B815C8169817A81C70145
:101BD0000995D701ED91FC910688F789E02DC701A1
:101BE00026960FB6F894DEBF0FBECDBFDF91CF9122
:101BF0001F910F91FF90EF900994EF92FF920F9336
:101C00001F93DC01ED91FC910684F785E02D7801AE
:101C100001E010E009951F910F91FF90EF9008955A
:101C2000EF92FF920F931F93DC01ED91FC910684DC
:101C3000F785E02D7801890121E030E009951F91B9
:101C40000F91FF90EF9008950895FC016370658BEC
:101C50008481958126813781613039F0633029F0A4
:101C600091878087338722870895318720879387DC
:101C7000828708950E944B23FC0183A9A6A5B7A5DE
:101C80009C91892B8C9383A187FD0C94200C089543
:101C90000F931F93CF93DF93EC018BA187FF1EC09F
:101CA0000C8D1D8D2E8D3F8D90E040E052E16AE756
:101CB00070E0041715072607370740F476956795F7
:101CC000579547959F5F9630A1F797E081E0982759
:101CD000892F806A869591700E94210C9BA9EEA5A0
:101CE000FFA58081282F30E0892F90E08095909586
:101CF000822393238083DF91CF911F910F910895C9
:101D0000AF92BF92CF92EF92FF920F931F93CF9318
:101D1000DF93EC01262F888D998D009709F040C044
:101D20006A3059F41D861C862C898E859F8538E083
:101D3000239F800D911D112441C06D3009F4AAC06C
:101D40008E898823C1F03C898C859D8546E0349F2F
:101D5000800D911D112448855985481759075CF459
:101D60001D861C868E859F8548E0349F800D911DC1
:101D700011249F878E87EA88FB88088919894E85F8
:101D80005F856C857D85CC88CE010E94D0072C892B
:101D90008C859D8536E0239F800D911D112442C0C6
:101DA0006A3079F41D861C862C89FC013696E491F4
:101DB0008E859F852E9F800D911D11249F878E8774
:101DC00069C06D3009F466C0FC0134963491631724
:101DD00008F460C03196E491E61708F45BC0FC019A
:101DE0003296A590B490462F50E0431B510937E03E
:101DF000349FB001359F700D1124A60EB71EF5015A
:101E0000329634913196E491332311F0E1110DC0F3
:101E1000F5013496E4912C898C859D85E29F800D97
:101E2000911D11249D878C8735C0F501359644910D
:101E30005E89552311F16C89E32FF0E0E40FF11D69
:101E400047FDFA956E9FD0016F9FB00D11244C8510
:101E50005D854A0F5B1FE885F985E417F5076CF48B
:101E60001D861C86FC013696E4918E859F856E9FAB
:101E7000800D911D11249F878E87EA88FB88088931
:101E800019894E855F856C857D85CC88CE010E9441
:101E9000D007BECF81E090E0DF91CF911F910F91ED
:101EA000FF90EF90CF90BF90AF9008951F920F9248
:101EB0000FB60F9211242F933F934F935F936F931D
:101EC0007F938F939F93AF93BF93EF93FF9386E19D
:101ED00094E00E948F0CFF91EF91BF91AF919F9181
:101EE0008F917F916F915F914F913F912F910F90C3
:101EF0000FBE0F901F9018951F920F920FB60F9262
:101F000011242F938F939F93EF93FF93E0912604D7
:101F1000F09127048081E0912C04F0912D0482FD42
:101F200012C0908180912F048F5F8F7320913004B5
:101F3000821751F0E0912F04F0E0EA5EFB4F958F9D
:101F400080932F0401C08081FF91EF919F918F9129
:101F50002F910F900FBE0F901F901895833081F036
:101F600028F4813099F08230A1F008958730A9F0EB
:101F70008830B9F08430D1F4809180008F7D03C027
:101F8000809180008F7780938000089584B58F774B
:101F900002C084B58F7D84BD08958091B0008F7795
:101FA00003C08091B0008F7D8093B00008951F938F
:101FB000CF93DF93282F30E0F901E551FA4F849158
:101FC000F901E150FA4FD491F901E35EF94FC49160
:101FD000CC23C9F0162F81110E94AE0FEC2FF0E038
:101FE000EE0FFF1FED5EF94FA591B4918FB7F894F6
:101FF000111105C09C91ED2FE095E92302C0EC91F1
:10200000ED2BEC938FBFDF91CF911F910895CF936C
:10201000DF9390E0FC01E150FA4F2491FC01E35E74
:10202000F94F8491882361F190E0880F991FFC019A
:10203000E952FA4FC591D491FC01ED5EF94FA5919B
:10204000B491611109C09FB7F894888120958223CB
:102050008883EC912E230BC0623061F49FB7F89413
:102060003881822F809583238883EC912E2B2C93AB
:102070009FBF06C08FB7F894E8812E2B28838FBFAF
:10208000DF91CF9108958F929F92AF92BF92CF929E
:10209000DF92EF92FF926B017C010E94230D4B01B6
:1020A0005C01C114D104E104F104F1F00E94230D9C
:1020B000DC01CB0188199909AA09BB09883E934024
:1020C000A105B10570F321E0C21AD108E108F108B9
:1020D00088EE880E83E0981EA11CB11CC114D104A7
:1020E000E104F10419F7DDCFFF90EF90DF90CF907E
:1020F000BF90AF909F908F9008952FB7F894609104
:1021000094037091950380919603909197032FBF4C
:1021100008951F920F920FB60F9211242F933F93A1
:102120008F939F93AF93BF93809194039091950366
:10213000A0919603B09197033091930323E0230F6E
:102140002D3720F40196A11DB11D05C026E8230FEF
:102150000296A11DB11D2093930380939403909345
:102160009503A0939603B093970380919803909161
:102170009903A0919A03B0919B030196A11DB11DF3
:102180008093980390939903A0939A03B0939B0331
:10219000BF91AF919F918F913F912F910F900FBE63
:1021A0000F901F901895CF93DF93FC0183A187FFB9
:1021B00005C06EBD0DB407FEFDCF2EC028E030E097
:1021C00040E8A6A1B7A1842F862321F080A99C9185
:1021D000892B0AC090A98C91C82FD0E0892F90E05C
:1021E000809590958C239D238C9392A9C2A5D3A50D
:1021F0008881A82FB0E0892F90E0809590958A2360
:102200009B23888382A9A2A5B3A59C91892B8C933B
:10221000469521503109A9F6DF91CF9108958F920B
:102220009F92AF92BF92CF92DF92EF92FF920F9365
:102230001F93CF93DF93EC01690158014701288573
:102240003985621773070CF05EC08A859B85481735
:1022500059070CF058C07B01EC0CFD1CD7011197FD
:102260008A010A0D1B1DF8013197B7FD4CC0F7FD1F
:102270004AC077FF03C0670160E070E057FF03C00A
:10228000580140E050E0A217B3071CF06901C61ADC
:10229000D70AE817F9071CF05C01A41AB50AE8810F
:1022A000F98102A4F3A5E02D85019601CE010995DF
:1022B0009601D5010E943F216115710581059105A7
:1022C00011F12BA127FD0AC06B017C010EC00DB4DA
:1022D00007FEFDCF8EBC0DB407FEFDCF6150710926
:1022E0008109910980F09EBCF2CF692DCE010E9438
:1022F000D310682DCE010E94D31081E0C81AD108F6
:10230000E108F10891F7DF91CF911F910F91FF90B4
:10231000EF90DF90CF90BF90AF909F908F900895F7
:10232000CF93DF93EC019CA9ECA5FDA52081422F62
:1023300050E0292F30E02095309524233523208349
:10234000CE010E94D3108CA9ECA5FDA59081892B0C
:102350008083DF91CF9108950F931F93CF93DF93E5
:102360001F92CDB7DEB78C01DC01ED91FC910284A8
:10237000F385E02D698309956981662319F0F801D9
:1023800065A903C0D801D6966C91C8010E9490112E
:10239000D801ED91FC910688F789E02DC8010F90D6
:1023A000DF91CF911F910F9109941F93CF93DF93EA
:1023B000262FFC0133A137FF09C07EBD0DB407FEF7
:1023C000FDCF2EBD0DB407FEFDCF0CC0672F122F21
:1023D000EC010E94D310612FCE01DF91CF911F91AC
:1023E0000C94D310DF91CF911F910895AF92BF92BB
:1023F000CF92DF92EF92FF920F931F93CF93DF93D1
:10240000EC0177FD38C088859985681779079CF5B8
:1024100057FD31C08A859B854817590764F56901C6
:102420005A017B01E881F9810284F385E02DCE0118
:102430000995E881F98102A4F3A5E02D01E010E0FF
:1024400021E030E0A501B701CE010995B601CE012A
:102450000E94D511E881F9810688F789E02DCE0127
:10246000DF91CF911F910F91FF90EF90DF90CF9070
:10247000BF90AF900994DF91CF911F910F91FF9082
:10248000EF90DF90CF90BF90AF900895EF92FF92C2
:102490000F931F93CF93DF93EC0177FD22C08885C4
:1024A000998568177907ECF457FD1BC08A859B85D1
:1024B00048175907B4F47901E881F98102A4F3A51A
:1024C000E02D01E010E021E030E0CE010995B701F8
:1024D000CE01DF91CF911F910F91FF90EF900C945F
:1024E000D511DF91CF911F910F91FF90EF9008953B
:1024F0002091150490914B05213208F04AC080913B
:10250000F2038111FCCF32E03093F20331E03093DB
:10251000F1033FEF3093F0031092EF032093EE03AB
:10252000A5EFB3E04EEC53E0FA013E2F341B321717
:1025300018F43D913193F9CF1092CD032091CD0342
:10254000990F922B9093CD039091CC03913061F42D
:102550001092CC039091CD039093BB009091BC005E
:1025600093FDF8CF95EC01C095EE9093BC0090914F
:10257000F2039230E1F39091F0039F3F79F0809164
:10258000F003803241F08091F003803331F084E039
:1025900005C081E003C082E001C083E01092F40333
:1025A000109215041092F30308959091F203911183
:1025B000FCCF91E09093F2039093F1032FEF2093DF
:1025C000F0031092EF03260F2093EE039093CD03B8
:1025D0009091CD03880F892B8093CD038091CC03FC
:1025E000813061F41092CC038091CD038093BB00C5
:1025F0008091BC0083FDF8CF85EC01C085EE80930F
:10260000BC008091F2038130E1F38091EF038617E3
:1026100010F46091EF03AEECB3E02CEA33E0F90183
:102620008E2F821B861718F48D918193F9CF862FF8
:102630000895CF92DF92EF92FF920F931F93CF9363
:10264000DF936C017A018B01C0E0D0E0CE15DF058D
:1026500089F0D8016D918D01D601ED91FC91019029
:10266000F081E02DC6010995892B11F47E0102C08D
:102670002196ECCFC701DF91CF911F910F91FF9071
:10268000EF90DF90CF900895EF92FF920F931F93FA
:10269000CF93DF93F09047059FEFF91207C08EBDEF
:1026A00000000DB407FEFDCF8EB51DC0E0904505BE
:1026B00007E010E0C82FD0E0BE01002E02C07595E3
:1026C00067950A94E2F7617077278E2D0E94D70FE5
:1026D00061E08F2D0E94D70F60E08F2D0E94D70FF1
:1026E0000150110948F7DF91CF911F910F91FF9091
:1026F000EF900895CF93DF93D82FC62F8091440594
:102700008F3FC9F48091480591E09093F303809343
:102710004B051092F403109215046D2F8BEF94E08B
:102720000E947A066C2F8BEF94E00E947A06DF916C
:10273000CF910C947812809147058F3F31F48091AE
:102740000705909108050E94210C60E080914405E6
:102750000E94D70F8D2F0E9444138C2F0E94441388
:1027600061E0809144050E94D70F809147058F3F1B
:1027700021F4DF91CF910C94200CDF91CF9108953B
:102780008F929F92AF92BF92CF92DF92EF92FF9281
:102790000F931F93CF93DF93C82F809144058F3FF2
:1027A00059F580914805D1E0D093F30380934B0510
:1027B0001092F403109215046C2F8BEF94E00E949A
:1027C0007A060E94781280914805D093F303809393
:1027D0004B051092F4031092150461E00E94D5128B
:1027E0001092AB038093AA038BEF94E00E942E0615
:1027F000B82E0E9478126BC0809147058F3F31F44C
:1028000080910705909108050E94210C60E080915D
:1028100044050E94D70F8C2F80680E94441380E0EB
:102820000E944413A09047058FEFA81207C01EBC5A
:1028300000000DB407FEFDCFBEB43EC0C0914605FA
:1028400007E010E0B12CD0E0FE01E551FA4F7F0126
:10285000CE0181509A4F6C01C35ED94F61E08A2D41
:102860000E94D70FF7018491F6018490FE019490A5
:10287000992099F081110E94AE0F292D30E0220F8E
:10288000331F2F513A4FF901A591B4918C918822B1
:1028900031E009F430E0832F02C080E090E0002EA8
:1028A00001C0880F0A94EAF7B82A60E08A2D0E94D6
:1028B000D70F0150110990F661E0809144050E9404
:1028C000D70F809147058F3F11F40E94200C8B2D6C
:1028D000DF91CF911F910F91FF90EF90DF90CF90FC
:1028E000BF90AF909F908F900895CF93DF9380E03B
:1028F0000E94C013C82FD0E0DC2FCC2781E00E94BB
:10290000C0139E01282BC901DF91CF910895CF9369
:10291000C82F81E08093F30382E580934B051092EA
:10292000F403109215048BEF94E00E947A066C2F4A
:102930008BEF94E00E947A060E9478126AE070E0C1
:1029400080E090E0CF910C944310EF92FF921F93A0
:10295000CF93DF93CDB7DEB72C970FB6F894DEBFD9
:102960000FBECDBF66E082E50E94D512182F1092EF
:10297000AB038093AA03CE0101967C018091AB0347
:10298000181749F08BEF94E00E942E06F70181930F
:1029900091937F01F3CF89819A8190939D038093D6
:1029A0009C038B819C8190939F0380939E038B85D6
:1029B0009C859C013595279535952795A9014370F0
:1029C00055272D813E81220F331F220F331F242BC9
:1029D000352B3093A1032093A0039C0174E035951F
:1029E00027957A95E1F7A901437055272F813885FE
:1029F000220F331F220F331F242B352B3093A303B9
:102A00002093A2039C01F6E035952795FA95E1F70E
:102A1000A9014370552729853A85220F331F220FBC
:102A2000331F242B352B3093A5032093A4039C0143
:102A300021703327F1E02F273093A7032093A603BB
:102A400021E030E081FF02C020E030E03093A903B4
:102A50002093A80360E080E02C960FB6F894DEBFC8
:102A60000FBECDBFDF91CF911F91FF90EF900C94DF
:102A70008714FC01808191810C94E921EF92FF92EF
:102A80000F931F93CF93DF93EC01198218821B825F
:102A90001A821D821C8261157105A9F17B01FB015F
:102AA00001900020E9F731978F01061B170BB80141
:102AB0006F5F7F4F80E090E00E948122009759F085
:102AC000998388831B830A832C813D81232B81F486
:102AD000FC0110820DC088819981009711F00E943D
:102AE000E921198218821D821C821B821A820BC066
:102AF0001D830C83B701DF91CF911F910F91FF9040
:102B0000EF900C945923DF91CF911F910F91FF907B
:102B1000EF9008956115710579F0FB010190002097
:102B2000E9F73197AF01461B570BDC01ED91FC91A2
:102B30000280F381E02D099480E090E00895CF9326
:102B4000DF93CDB7DEB729970FB6F894DEBF0FBE7F
:102B5000CDBF789484B5826084BD84B5816084BD26
:102B600085B5826085BD85B5816085BD80916E002B
:102B7000816080936E00109281008091810082605C
:102B80008093810080918100816080938100809199
:102B900080008160809380008091B1008460809388
:102BA000B1008091B00081608093B00080917A0084
:102BB000846080937A0080917A00826080937A00AA
:102BC00080917A00816080937A0080917A00806899
:102BD00080937A001092C1001092F7041092F804CA
:102BE0001092F9041092FA041092B5041092B604EF
:102BF0001092B7041092B8040E947D104B015C0142
:102C00002B013C0128EB420E2BE0521E611C711C73
:102C10000E947D10681579058A059B0528F04616E7
:102C2000570668067906A0F786E194E09093F604CB
:102C30008093F504E0912604F091270482E08083DC
:102C4000E0912204F09123041082E0912404F09199
:102C5000250480E1808310922E04E0912A04F091F3
:102C60002B0486E08083E0912804F0912904808180
:102C700080618083E0912804F0912904808188603C
:102C80008083E0912804F09129048081806880830A
:102C9000E0912804F091290480818F7D80830E9437
:102CA0007D106093B5047093B6048093B70490933D
:102CB000B8046EEA72E08091F5049091F6040E94E7
:102CC0008A150E947D104B015C012B013C018AE0BA
:102CD000480E511C611C711C0E947D1068157905FD
:102CE0008A059B0528F04616570668067906A0F760
:102CF00081E08093C90440E050E0BA0189E095E0AA
:102D00000E941C0A61E089E095E00E9484073A9ADB
:102D10003B9A439A0E947D104B015C010E947D10FA
:102D2000DC01CB0188199909AA09BB0984369105F0
:102D3000A105B10598F31092AB031092AA0310926B
:102D4000F403109215040E94020C60EF85E50E94C6
:102D500087146BEF80E00E9487140E94A514909165
:102D600044059F3F59F18091470561E08F3FA1F4F1
:102D7000892F0E94071061E0809144050E94D70FBF
:102D80000E94E60981E580930705109208051092DC
:102D90004A05109249051FC00E94071061E080910A
:102DA00044050E94071061E0809145050E940710CC
:102DB00060E0809146050E9407100DC01092AB03A1
:102DC0001092AA031092F403109215040E94020CB0
:102DD00081E4809348050E9475148131984061F424
:102DE00062E083E00E947A136AE070E080E090E0A5
:102DF0000E94431010E01CC0809144058F3F09F4ED
:102E00005CC0809147058F3F09F057C085E58093EE
:102E100007051092080584E090E090934A0580939E
:102E200049050E9475148131984009F046C0D8CFF9
:102E3000812F0E94C0131F5F1134D1F760E084E03E
:102E40000E947A1361E080E40E947A1361E08AE0D4
:102E50000E947A1360E680E20E947A1362E081E2C7
:102E60000E947A1364EA81E40E947A1366E086E5A0
:102E70000E947A1361E08AE40E947A1361E08BE495
:102E80000E947A1360E08BE40E947A1361E088E587
:102E90000E947A136FEF8BE00E947A1365E089E05D
:102EA0000E947A1310924A0310924903CE010196B0
:102EB0001C0194E0920D998770C0FFCF87ED0E94AE
:102EC000C013F60181936F01F985FC11F7CFA9803A
:102ED00020E1A29EA00111248A81A82EB12CF4E049
:102EE000B594A794FA95E1F7A42AB52A8F70C82E55
:102EF000D12CDC2CCC248B81C82A9C808BE40E94B2
:102F0000C01385FF04C06FEF8BE00E947A13892DF8
:102F100090E00B978D3D934060F5C501A0E0B0E0D7
:102F20009C01AD012659310941095109A0911105B2
:102F3000B09112050E94F12022E43EE040E050E012
:102F40000E94C7205901C601A0E0B0E09C01AD017C
:102F50002258310941095109A0911305B091140576
:102F60000E94F1202EE13FE040E050E00E94C720A7
:102F700069018090490390904A03F2E08F16910412
:102F800009F410C18CF481149104D9F081E0881601
:102F9000910409F488C00E94190D8BE40E94C013AB
:102FA00085FDF9CF61018ACF94E08916910409F477
:102FB000B4C60CF479C1F5E08F16910409F4D5C6B6
:102FC000EACF8091470390914803892B61F460E038
:102FD00070E089E095E00E941A0481E090E090930F
:102FE000480380934703E0EEEE2EFF24FA9408E2B4
:102FF00010E02AE530E042E650E066E470E089E067
:1030000095E00E94480D60EC72E0C1010E943E15FF
:10301000910141E050E063E770E085E590E00E94B7
:10302000240CC1010E94391525E530E042E650E04C
:1030300065EA70E089E095E00E94480D6CEC72E072
:10304000C1010E943E15910141E050E063E770E04C
:1030500082EB90E00E94240CC1010E9439152CE8FB
:10306000A21AB1088EE2A816B10408F094CFC601E6
:10307000C297CD9708F0B1C667ED72E086E194E0A3
:103080000E948A156DEB72E086E194E00E948A1539
:1030900081E090E090934A038093490310924803A3
:1030A000109247039AC68091470390914803892B59
:1030B00051F460E070E089E095E00E941A0490927B
:1030C00048038092470370EEE72EFF24FA940EE542
:1030D00010E02CE430E045E550E06CE070E089E081
:1030E00095E00E94480D60E073E0C1010E943E152A
:1030F000910143E050E068E770E08EE190E00E94CB
:10310000240CC1010E94391500E210E02CE430E0EB
:1031100046EB50E06CE070E089E095E00E94480DDD
:1031200064E073E0C1010E943E15910141E050E06E
:1031300063EC70E088E290E00E94240CC1010E94E0
:103140003915C5018A5591098F36910570F4C6016C
:103150000F978E9750F4109248031092470383E024
:1031600090E090934A0380934903FDE2AF1AB108BF
:103170002AE1A216B10408F00ECF8FE0C81AD108D8
:103180009EE2C916D10408F006CF109248031092AF
:103190004703109246031092530210924A03109272
:1031A0004903F9CE8091470390914803892B61F43C
:1031B00060E070E089E095E00E941A0481E090E010
:1031C000909348038093470360EEE62EFF24FA9421
:1031D0000EE510E02CE430E045E550E06CE070E0F6
:1031E00089E095E00E94480D60E073E0C1010E9413
:1031F0003E15910143E050E068E770E08EE190E019
:103200000E94240CC1010E94391500E210E02CE458
:1032100030E046EB50E06CE070E089E095E00E9421
:10322000480D64E073E0C1010E943E15910141E048
:1032300050E063EC70E088E290E00E94240CC10151
:103240000E943915C5018A5591098F36910570F490
:10325000C6010F978E9750F41092480310924703BF
:1032600083E090E090934A0380934903EDE2AE1A25
:10327000B108FAE1AF16B10408F08DCE2FE0C21A02
:10328000D1088EE2C816D10408F085CE109248030A
:103290001092470310924A0310924903109246037A
:1032A00081E08093530277CE60E070E089E095E0A2
:1032B0000E941A04409151025091520260914F02B3
:1032C0007091500220EEE22E27E0F22E04E110E091
:1032D00024E130E089E095E00E94480D3FE1E32ED3
:1032E000F12C24E130E048EC50E06EE071E089E040
:1032F00095E00E94480D45E0842E41E0942E54E173
:10330000A52EB12C1AE0412E512CC12CD12C340108
:103310006C0C7D1CF30180819181019769F4E12C93
:1033200098EFF92E04E110E024E130E0A501B201AC
:1033300089E095E00E94480DF30180819181029718
:1033400071F4EE24EA9487E0F82E04E110E024E121
:1033500030E0A501B20189E095E00E94480DF2E05D
:10336000CF0ED11C24E1420E511C8EE1C816D104AF
:1033700071F69EE1890E911CE4E1AE0EB11CFFE4F2
:103380008F16F2E09F0609F0BDCF04E0C02ED12CCD
:10339000EFE07E2E6624639480910001882309F477
:1033A000FACD0E947D104B015C010E947D10DC0172
:1033B000CB0188199909AA09BB0984369105A10591
:1033C000B10598F30E94A51480919E0390919F03EC
:1033D00020919C0330919D03853B91055CF0A901F0
:1033E000455651094F34510588F410924503109207
:1033F000440329C0813491054CF4A9014556510973
:103400004F34510518F482E090E019C0253B310596
:1034100064F0855691098F349105A8F4E1E0F0E05D
:10342000F0934503E09344030EC0213431055CF46E
:10343000855691098F34910530F483E090E09093A4
:103440004503809344038091440390914503892B65
:1034500009F06FC00E94A5148091030190910401AE
:103460000197789EF001799EF00D11248091010161
:1034700090910201E80FF91FEE0FFF1FEB5FFE4F67
:10348000808191818B7F892B09F04FC0409151023F
:10349000509152024451510960914F027091500273
:1034A000E0EEEE2EE7E0FE2E04E110E024E130E055
:1034B00089E095E00E94480D8091030190910401FC
:1034C000789EF001799EF00D112480910101909178
:1034D0000201E80FF91FEE0FFF1FEB5FFE4F808127
:1034E0009181039781F04091510250915202609175
:1034F0004F0270915002E12CF12C24E130E089E080
:1035000095E00E94480D809151029091520244979B
:103510009093520280935102809103019091040193
:1035200001979093040180930301D0924503C092C8
:1035300044038091440390914503029709F06FC0C2
:103540000E94A51480910301909104010196789E38
:10355000F001799EF00D11248091010190910201FA
:10356000E80FF91FEE0FFF1FEB5FFE4F8081918187
:103570008B7F892B09F04FC040915102509152022C
:103580004C5E5F4F60914F027091500220EEE22E30
:1035900027E0F22E04E110E024E130E089E095E03C
:1035A0000E94480D8091030190910401789EF001E2
:1035B000799EF00D11248091010190910201E80F94
:1035C000F91FEE0FFF1FEB5FFE4F80819181039784
:1035D00081F0409151025091520260914F027091DE
:1035E0005002E12CF12C24E130E089E095E00E94CA
:1035F000480D80915102909152024496909352024C
:10360000809351028091030190910401019690935F
:10361000040180930301D0924503C092440380913A
:10362000440390914503019709F06EC00E94A514D0
:103630008091030190910401789EF001799EF00D34
:1036400011248091010190910201E80FF91FEE0F02
:10365000FF1FE95FFE4F808191818B7F892B09F0ED
:103660004FC0409151025091520260914F027091AF
:1036700050026C5E7F4F10EEE12E17E0F12E04E158
:1036800010E024E130E089E095E00E94480D80914F
:10369000030190910401789EF001799EF00D1124B0
:1036A0008091010190910201E80FF91FEE0FFF1FB9
:1036B000EB5FFE4F80819181039781F04091510231
:1036C0005091520260914F0270915002E12CF12C06
:1036D00024E130E089E095E00E94480D80914F029E
:1036E0009091500244969093500280934F028091A3
:1036F00001019091020101969093020180930101D2
:10370000D0924503C09244038091440390914503B5
:10371000039709F06EC00E94A51480910301909157
:103720000401789EF001799EF00D11248091010131
:1037300090910201E80FF91FEE0FFF1FED5FFE4FA2
:10374000808191818B7F892B09F04FC0409151027C
:103750005091520260914F02709150026451710970
:10376000F0EEEF2EF7E0FF2E04E110E024E130E070
:1037700089E095E00E94480D809103019091040139
:10378000789EF001799EF00D1124809101019091B5
:103790000201E80FF91FEE0FFF1FEB5FFE4F808164
:1037A0009181039781F040915102509152026091B2
:1037B0004F0270915002E12CF12C24E130E089E0BD
:1037C00095E00E94480D80914F02909150024497DD
:1037D0009093500280934F028091010190910201D9
:1037E00001979093020180930101D0924503C0920A
:1037F00044038091A6039091A703019709F05DC04F
:1038000080914303811159C080910301909104017B
:10381000789EF001799EF00D112480910101909124
:103820000201E80FF91FEE0FFF1FEB5FFE4F83E071
:1038300090E09183808340915102509152026091B7
:103840004F0270915002E0EEEE2EFF24FA9404E154
:1038500010E024E130E089E095E00E94480D0E94EC
:103860007D1060933F0370934003809341039093D6
:10387000420360923E038091030190910401909372
:103880003D0380933C03809101019091020190934C
:103890003B0380933A03809151029091520290939E
:1038A00039038093380380914F0290915002909396
:1038B0003703809336036092430380903F039090D8
:1038C0004003A0904103B090420390ED890E97E031
:1038D000991EA11CB11C0E947D10681579058A05EE
:1038E0009B0508F431C180913E03882309F42CC163
:1038F00062E173E086E194E00E948A1520913C0326
:1039000030913D0380913A0390913B03729EF00108
:10391000739EF00D1124E80FF91FEE0FFF1FEB5FF0
:10392000FE4FD182C08221503109729EF001739EF8
:10393000F00D1124E80FF91FEE0FFF1FEB5FFE4F94
:1039400080819181019761F1409138035091390351
:1039500044515109609136037091370390EEE92E7E
:10396000FF24FA9404E110E024E130E089E095E0DE
:103970000E94480D80913C0390913D030197789EF1
:10398000F001799EF00D112480913A0390913B0350
:10399000E80FF91FEE0FFF1FEB5FFE4FD182C082D1
:1039A00080913C0390913D03789EF001799EF00D4B
:1039B000112480913A0390913B03E80FF91FEE0F19
:1039C000FF1FE95FFE4F80819181019759F140917E
:1039D00038035091390360913603709137036C5E60
:1039E0007F4F10EEE12EFF24FA9404E110E024E171
:1039F00030E089E095E00E94480D80913C03909171
:103A00003D03789EF001799EF00D112480913A03D8
:103A100090913B03E80FF91FEE0FFF1FE95FFE4F88
:103A2000D182C08280913C0390913D030196789EA3
:103A3000F001799EF00D112480913A0390913B039F
:103A4000E80FF91FEE0FFF1FEB5FFE4F80819181A2
:103A5000019761F140913803509139034C5E5F4FFB
:103A60006091360370913703E0EEEE2EFF24FA9456
:103A700004E110E024E130E089E095E00E94480D87
:103A800080913C0390913D030196789EF001799ED0
:103A9000F00D112480913A0390913B03E80FF91F38
:103AA000EE0FFF1FEB5FFE4FD182C08280913C037F
:103AB00090913D03789EF001799EF00D1124809144
:103AC0003A0390913B03E80FF91FEE0FFF1FED5FE4
:103AD000FE4F80819181019759F1409138035091B7
:103AE000390360913603709137036451710920EEF8
:103AF000E22EFF24FA9404E110E024E130E089E0B2
:103B000095E00E94480D80913C0390913D03789E82
:103B1000F001799EF00D112480913A0390913B03BE
:103B2000E80FF91FEE0FFF1FED5FFE4FD182C0823D
:103B300010923E030E947D10609332037093330312
:103B40008093340390933503809103019091040195
:103B5000789EF001799EF00D1124809101019091E1
:103B60000201E80FF91FEE0FFF1FEB5FFE4F808190
:103B700091818430910511F0079741F41092000172
:103B8000E5E0F0E0F0934A03E093490380903203CC
:103B900090903303A0903403B0903503FCED8F0E6A
:103BA000F5E09F1EA11CB11C0E947D1068157905CF
:103BB0008A059B0508F43FC080913E0381113BC0FC
:103BC00085E0482E81E0582E812C912C24E1820E34
:103BD000911C8AE090E098878F83A12CB12CF20190
:103BE000EA0DFB1D808191810397029778F4118281
:103BF0001082E12CF12C04E110E024E130E0A4017A
:103C00006F81788589E095E00E94480D22E0A20E40
:103C1000B11C8F819885449698878F839EE1A91661
:103C2000B104E9F6EEE14E0E511CFCED8F16910445
:103C300069F61092430380902E0390902F03A0907A
:103C40003003B09031039CED890E95E0991EA11CC4
:103C5000B11C0E947D10681579058A059B0508F442
:103C60003FC080912D0381113BC005E0402E01E053
:103C7000502EA12CB12C24E1A20EB11C8AE090E0C0
:103C800098878F83812C912CF201E80DF91D80819A
:103C900091810697029778F411821082E12CF12C21
:103CA00004E110E024E130E0A5016F81788589E02E
:103CB00095E00E94480DE2E08E0E911C8F81988560
:103CC000449698878F839EE189169104E9F6EEE188
:103CD0004E0E511CFCEDAF16B10469F610922C0388
:103CE00080912D0290912E028430910511F007975A
:103CF00031F410920001D0924A03C09249030E940D
:103D00007D10603D77408105910508F445CB809199
:103D10002D03882309F440CB7FC06FE178EF89E061
:103D200095E00E941A0470EEE72EFF24FA9400E258
:103D300010E02CE430E046EB50E06CE070E089E00D
:103D400095E00E94480D64E073E0C1010E943E15B9
:103D5000910141E050E063EC70E088E290E00E9465
:103D6000240CC1010E94391500CA60E078EF89E097
:103D700095E00E941A0460EEE62EFF24FA9400E219
:103D800010E02CE430E046EB50E06CE070E089E0BD
:103D900095E00E94480D64E073E0C1010E943E1569
:103DA000910141E050E063EC70E088E290E00E9415
:103DB000240CC1010E943915EDE2AE1AB108FAE1F6
:103DC000AF16B10408F0E7C82FE0C21AD1088EE29E
:103DD000C816D10408F4D9C9DEC898E7C91AD108B1
:103DE000EDE3CE16D10408F0D6C86CEE72E086E1A1
:103DF00094E00E948A156DEB72E086E194E00E94E7
:103E00008A15E2E0F0E0F0934A03E0934903109250
:103E1000480310924703BFC868E173E086E194E06D
:103E20000E948A156FE173E086E194E00E948A1592
:103E300086E090E090930601809305018091E70071
:103E40009091E8000197E1F069E073E086E194E089
:103E50000E948A1510EEE12EFF24FA9404E110E08E
:103E600024E130E04CEE5FEF60E070E089E095E047
:103E70000E94480D87E090E09093E8008093E7006F
:103E800080910701909108010197B1F0B0EEEB2EFF
:103E9000FF24FA9404E110E024E130E040E050E037
:103EA00064E170E089E095E00E94480D87E090E0D1
:103EB0009093080180930701809123019091240140
:103EC0000197B1F0A0EEEA2EFF24FA9404E110E08D
:103ED00024E130E044E150E060E070E089E095E00A
:103EE0000E94480D87E090E0909324018093230185
:103EF00080910301909104010197B1F0F0EEEF2E53
:103F0000FF24FA9404E110E024E130E040E050E0C6
:103F10006CEE7FEF89E095E00E94480D87E090E02D
:103F2000909304018093030110922D030E947D1051
:103F300060932E0370932F0380933003909331038B
:103F400027CAE6E1F4E01382128288EE93E0A0E053
:103F5000B0E084839583A683B7832EE532E0318376
:103F6000208325EC30E03587248724EC30E0378748
:103F7000268720EC30E0318B208B21EC30E0338B36
:103F8000228B22EC30E0358B248B26EC30E0378B13
:103F9000268B118E128E138E148EE3EBF4E01682B4
:103FA0001782108611861286138614861586168649
:103FB0001786108A118A128A138A148A158AEBEFDF
:103FC000F4E01382128284839583A683B78380E70B
:103FD00092E091838083E7E0F5E080E580831182C1
:103FE000E4E4F5E088E080838FEF8383828381833C
:103FF000A9E0B5E013961C921E92129740EF50E094
:1040000015965C934E93149720E431E017963C93F9
:104010002E93169719965C934E9318971B963C9384
:104020002E931A9755961C9255971D961C921E9288
:104030001C971F961C921E921E9791E054969C937B
:1040400054972FEF3FEF53963C932E9352975196F0
:104050003C932E93509756969C93569757961C9246
:10406000579759961C921E925897D5961C92D597A1
:10407000D6961C92D697D8961C921E92D797DA960F
:104080001C921E92D9979AE090969C93909799E0F3
:1040900091969C93919792968C9392972CE435E00D
:1040A0005B963C932E935A9793968C939397949602
:1040B0008C93949795968C9395975C961D921D92F0
:1040C0001D921C925F979B961C921E929A97D29675
:1040D0001C92D29797961C921E929697D0961C92FD
:1040E000D09799961C921E929897D1961C92D19730
:1040F000E6E2F6E0E491F0E0EE0FFF1FED5EF94F2F
:10410000859194919D969C938E939C97E8E0F6E020
:10411000E491D496EC93D497E7E2F6E0E491F0E0F2
:10412000EE0FFF1FED5EF94F859194919F969C9342
:104130008E939E97E9E0F6E0E491D396EC93D397C3
:1041400082E892E08D939C930895A1E21A2EAA1B17
:10415000BB1BFD010DC0AA1FBB1FEE1FFF1FA21737
:10416000B307E407F50720F0A21BB30BE40BF50B34
:10417000661F771F881F991F1A9469F760957095BD
:10418000809590959B01AC01BD01CF010895052E4E
:1041900097FB1EF400940E94DE2057FD07D00E947A
:1041A000A52007FC03D04EF40C94DE2050954095DA
:1041B000309521953F4F4F4F5F4F089590958095D3
:1041C000709561957F4F8F4F9F4F08950E943021CA
:1041D000A59F900DB49F900DA49F800D911D11245B
:1041E0000895B7FF0C94E6200E94E620821B930BF3
:1041F00008952F923F924F925F926F927F928F928B
:104200009F92AF92BF92CF92DF92EF92FF920F9365
:104210001F93CF93DF93CDB7DEB7CA1BDB0B0FB66F
:10422000F894DEBF0FBECDBF09942A88398848882C
:104230005F846E847D848C849B84AA84B984C884C2
:10424000DF80EE80FD800C811B81AA81B981CE0FB9
:10425000D11D0FB6F894DEBF0FBECDBFED0108959E
:10426000A29FB001B39FC001A39F700D811D1124B7
:10427000911DB29F700D811D1124911D08950E9402
:104280003021332312F48A1B9B0B0C9449210E948A
:104290003021B7FF0895821B930B0895EE0FFF1F87
:1042A0000590F491E02D0994CF93DF93823091052E
:1042B00010F482E090E0E0914F05F091500520E08D
:1042C00030E0C0E0D0E0309711F1408151814817D3
:1042D0005907C0F04817590761F4828193812097EC
:1042E00019F09B838A832BC09093500580934F05D0
:1042F00026C02115310519F04217530718F49A0109
:10430000BE01DF01EF010280F381E02DDCCF21153A
:10431000310509F1281B390B2430310590F4129630
:104320008D919C9113976115710521F0FB01938389
:10433000828304C09093500580934F05FD0132960F
:1043400044C0FD01E20FF31F819391932250310984
:104350002D933C933AC020914D0530914E05232B6F
:1043600041F4209156023091570230934E0520932C
:104370004D0520915402309155022115310541F42B
:104380002DB73EB74091580250915902241B350B6E
:10439000E0914D05F0914E05E217F307A0F42E1BB6
:1043A0003F0B2817390778F0AC014E5F5F4F241799
:1043B000350748F04E0F5F1F50934E0540934D0553
:1043C0008193919302C0E0E0F0E0CF01DF91CF91C3
:1043D00008950F931F93CF93DF93009709F48CC038
:1043E000FC0132971382128200914F051091500503
:1043F0000115110581F420813181820F931F2091D5
:104400004D0530914E052817390779F5F0934E0583
:10441000E0934D0571C0D80140E050E0AE17BF07F2
:1044200050F412962D913C911397AD012115310551
:1044300009F1D901F3CF9D01DA0133832283608131
:104440007181860F971F8217930769F4EC01288109
:104450003981260F371F2E5F3F4F318320838A819A
:104460009B8193838283452B29F4F0935005E0933D
:104470004F0542C01396FC93EE931297ED014991BC
:1044800059919E01240F351FE217F30771F48081C3
:104490009181840F951F029611969C938E93828131
:1044A000938113969C938E931297E0E0F0E0D801ED
:1044B00012968D919C911397009719F0F8018C0139
:1044C000F6CF8D919C9198012E5F3F4F820F931FE5
:1044D00020914D0530914E052817390769F4309722
:1044E00029F41092500510924F0502C013821282D7
:1044F00010934E0500934D05DF91CF911F910F91C1
:104500000895A0E0B0E0E7E8F2E20C94FD20EC01B1
:10451000009721F4CB010E945421B8C0FC01E60FA2
:10452000F71F9C0122503109E217F30708F4ACC0D1
:10453000D9010D911C91119706171707B0F005309E
:10454000110508F49FC0C80104978617970708F45F
:1045500099C002501109061B170B019311936D931B
:104560007C93CF010E94E9218DC05B01A01AB10AA2
:104570004C01800E911EA0914F05B091500540E076
:1045800050E0E12CF12C109709F44AC0A815B905A8
:10459000D1F56D907C901197630182E0C80ED11C1B
:1045A000CA14DB0480F1A3014A195B096A0182E0A5
:1045B000C80ED11C1296BC9012971396AC91B5E020
:1045C000CB16D10440F0B282A38351834083D9013A
:1045D0006D937C930AC00E5F1F4FC301800F911F24
:1045E000F90191838083EB2DFA2FE114F10431F06E
:1045F000D7011396FC93EE93129744C0F0935005A5
:10460000E0934F053FC08D919C9111974817590732
:1046100008F4AC017D0112960D90BC91A02DB3CF92
:1046200080914D0590914E0588159905E1F4461746
:104630005707C8F48091540290915502009741F4B5
:104640008DB79EB74091580250915902841B950B2B
:10465000E817F907C8F4F0934E05E0934D05F9010A
:10466000718360830FC0CB010E9454217C010097AD
:1046700059F0A801BE010E945023CE010E94E921F9
:10468000C70104C0CE0102C080E090E0CDB7DEB724
:10469000EEE00C94192181E090E0F8940C946023F2
:1046A000FB01DC0102C001900D9241505040D8F74F
:1046B0000895FB01DC0101900D920020E1F70895BF
:0446C000F894FFCF9C
:1046C40001010001000100010001000100010001DD
:1046D40000010001000100010001000100010001CE
:1046E40000010001000000000002000000020000C0
:1046F40000020000000200000002000000000001AF
:1047040000010000000100000001000000010000A1
:104714000001000000010000000100000001000190
:10472400000200000002000000020000000200007D
:10473400000200000002000000020001000100006D
:104744000001000000010000000100000001000061
:10475400000100000001000000010001000200004F
:10476400000200000002000000020000000200003D
:10477400000200000002000100010000000100002E
:104784000001000000010000000100000001000021
:10479400000100000001000100020000000200000E
:1047A40000020000000200000002000000020000FD
:1047B40000020001000100000001000000010000EF
:1047C40000010000000100000001000000010000E1
:1047D40000010001000000000002000000020000CF
:1047E40000020000000200000002000000000001BE
:1047F40000010001000100010001000100010001AD
:104804000001000100010001000100010001001E7F
:104814000028000100005105800000000000B00CD9
:104824001913480CF70C790C570C6B0C00000000A2
:104834007A064A06AA061E0642062E061F0600002F
:104844000000800E1913AA06A906F611480E461296
:104854000F11100EFD0D42053C0E8407AD06C20D6E
:10486400870D480D1A04A30344031C0AD306564DAE
:104874004450565F317C315F564D4450560D0A000A
:104884005374617274204C6F626279004A6F696E6E
:10489400204C6F6262790020204E455854205354B6
:1048A400415445203D2053746172740020204E45CC
:1048B4005854205354415445203D204A6F696E009A
:1048C400474F21004261636B0066696C6C526563FB
:1048D40074007374617274007032626F6D62002FC1
:0C48E4006E206578706C6F7369650000D1
:107E0000112484B714BE81FFF0D085E080938100F7
:107E100082E08093C00088E18093C10086E0809377
:107E2000C20080E18093C4008EE0C9D0259A86E02C
:107E300020E33CEF91E0309385002093840096BBD3
:107E4000B09BFECF1D9AA8958150A9F7CC24DD24C4
:107E500088248394B5E0AB2EA1E19A2EF3E0BF2EE7
:107E6000A2D0813461F49FD0082FAFD0023811F036
:107E7000013811F484E001C083E08DD089C08234E0
:107E800011F484E103C0853419F485E0A6D080C0E4
:107E9000853579F488D0E82EFF2485D0082F10E0AE
:107EA000102F00270E291F29000F111F8ED06801E7
:107EB0006FC0863521F484E090D080E0DECF843638
:107EC00009F040C070D06FD0082F6DD080E0C81688
:107ED00080E7D80618F4F601B7BEE895C0E0D1E017
:107EE00062D089930C17E1F7F0E0CF16F0E7DF06D8
:107EF00018F0F601B7BEE89568D007B600FCFDCFD4
:107F0000A601A0E0B1E02C9130E011968C91119780
:107F100090E0982F8827822B932B1296FA010C0160
:107F200087BEE89511244E5F5F4FF1E0A038BF0790
:107F300051F7F601A7BEE89507B600FCFDCF97BE46
:107F4000E89526C08437B1F42ED02DD0F82E2BD052
:107F50003CD0F601EF2C8F010F5F1F4F84911BD097
:107F6000EA94F801C1F70894C11CD11CFA94CF0C13
:107F7000D11C0EC0853739F428D08EE10CD085E9AC
:107F80000AD08FE07ACF813511F488E018D01DD067
:107F900080E101D065CF982F8091C00085FFFCCF94
:107FA0009093C60008958091C00087FFFCCF809118
:107FB000C00084FD01C0A8958091C6000895E0E648
:107FC000F0E098E1908380830895EDDF803219F02E
:107FD00088E0F5DFFFCF84E1DECF1F93182FE3DFCA
:107FE0001150E9F7F2DF1F91089580E0E8DFEE27F6
:047FF000FF270994CA
:027FFE00040479
:0400000300007E007B
:00000001FF