:100000000C941A030C9442030C9442030C94420384
:100010000C9442030C9442030C9442030C9442034C
:100020000C9442030C9442030C9442030C9442033C
:100030000C9442030C9442030C9442030C9442032C
:100040000C9489100C9442030C947C0F0C94560F62
:100050000C9442030C9442030C9442030C9442030C
:100060000C94D40A0C944203EF03038002CF0300E4
:10007000C130ED0464031281E803850078CB0539B3
:100080002C003402F70120EA020000C00123C10164
:1000900010C5023E28C701863601483701003A01E3
:1000A00055B1020018B603088227F20100260101AB
:1000B000E00F0F312B0C0E084EF1370710030E091D
:1000C00000E10F000E1403110731C148080F0C3175
:1000D000360F118029800000000000003E5B4F5B5E
:1000E0003E3E6B4F6B3E1C3E7C3E1C183C7E3C18DB
:1000F0001C577D571C1C5E7F5E1C00183C1800FFBF
:10010000E7C3E7FF0018241800FFE7DBE7FF3048EC
:100110003A060E2629792926407F050507407F05E6
:10012000253F5A3CE73C5A7F3E1C1C08081C1C3EDD
:100130007F14227F22145F5F005F5F06097F017FCB
:10014000006689956A606060606094A2FFA294086E
:10015000047E040810207E201008082A1C08081CB1
:100160002A08081E101010100C1E0C1E0C30383EF1
:100170003830060E3E0E06000000000000005F0052
:10018000000007000700147F147F14242A7F2A121E
:100190002313086462364956205000080703000004
:1001A0001C2241000041221C002A1C7F1C2A080836
:1001B0003E08080080703000080808080800006049
:1001C000600020100804023E5149453E00427F4035
:1001D0000072494949462141494D331814127F1094
:1001E00027454545393C4A494931412111090736DE
:1001F00049494936464949291E000014000000407B
:100200003400000008142241141414141400412274
:10021000140802015909063E415D594E7C12111223
:100220007C7F494949363E414141227F4141413E1F
:100230007F494949417F090909013E414151737F85
:100240000808087F00417F41002040413F017F08AE
:100250001422417F404040407F021C027F7F0408FF
:10026000107F3E4141413E7F090909063E4151212F
:100270005E7F09192946264949493203017F010356
:100280003F4040403F1F2040201F3F4038403F63D9
:100290001408146303047804036159494D43007F33
:1002A0004141410204081020004141417F04020104
:1002B00002044040404040000307080020545478A6
:1002C000407F284444383844444428384444287FF4
:1002D000385454541800087E090218A4A49C787F4E
:1002E0000804047800447D40002040403D007F1019
:1002F00028440000417F40007C047804787C080496
:1003000004783844444438FC182424181824241849
:10031000FC7C08040408485454542404043F442436
:100320003C4040207C1C2040201C3C4030403C4451
:10033000281028444C9090907C4464544C4400080D
:10034000364100000077000000413608000201023B
:1003500004023C2623263C1EA1A161123A40402003
:100360007A3854545559215555794122545478427C
:10037000215554784020545579400C1E5272123940
:1003800055555559395454545939555454580000F9
:10039000457C410002457D420001457C407D1211B3
:1003A000127DF0282528F07C545545002054547CBB
:1003B000547C0A097F4932494949323A4444443A13
:1003C000324A4848303A4141217A3A424020780046
:1003D0009DA0A07D3D4242423D3D4040403D3C24E9
:1003E000FF2424487E4943662B2FFC2F2BFF09292D
:1003F000F620C0887E090320545479410000447DD2
:10040000413048484A32384040227A007A0A0A721B
:100410007D0D19317D2629292F28262929292630C5
:10042000484D4020380808080808080808382F10E8
:10043000C8ACBA2F102834FA00007B000008142A38
:10044000142222142A14085500550055AA55AA55FD
:10045000AAFF55FF55FF000000FF00101010FF001D
:10046000141414FF001010FF00FF1010F010F0140F
:100470001414FC001414F700FF0000FF00FF141414
:10048000F404FC141417101F10101F101F14141460
:100490001F00101010F0000000001F101010101F9F
:1004A00010101010F010000000FF101010101010AD
:1004B000101010FF10000000FF140000FF00FF00EC
:1004C000001F10170000FC04F41414171017141464
:1004D000F404F40000FF00F714141414141414F7B7
:1004E00000F7141414171410101F101F141414F410
:1004F000141010F010F000001F101F0000001F1457
:10050000000000FC140000F010F01010FF10FF14A9
:100510001414FF141010101F00000000F010FFFF53
:10052000FFFFFFF0F0F0F0F0FFFFFF000000000021
:10053000FFFF0F0F0F0F0F3844443844FC4A4A4A5C
:10054000347E02020606027E027E02635549416342
:100550003844443C04407E201E2006027E0202995C
:10056000A5E7A5991C2A492A1C4C7201724C304AF5
:100570004D4D303048784830BC625A463D3E49497E
:1005800049007E0101017E2A2A2A2A2A44445F4426
:100590004440514A444040444A51400000FF010356
:1005A000E080FF000008086B6B0836123624360620
:1005B0000F090F060000181800000010100030404E
:1005C000FF0101001F01011E00191D1712003C3C14
:1005D0003C3C000000000000000000240027002A2E
:1005E0000000000000230026002900000000080091
:1005F00002010000030407000000000000000001E9
:1006000002040810204080010204081020010204A6
:1006100008102000000000250028002B000404041E
:10062000040404040402020202020203030303039B
:100630000300512011241FBECFEFD8E0DEBFCDBF95
:1006400013E0A0E0B1E0E4E2F8E402C005900D920E
:10065000A031B107D9F725E0A0E1B3E001C01D92B8
:10066000A933B207E1F713E0CAE1D3E004C0219750
:10067000FE010E94FE21C931D107C9F70E949F15D2
:100680000C9410240C9400006F927F928F929F9292
:10069000AF92BF92CF92DF92EF92FF920F931F9390
:1006A000CF93DF93EC014B015A0169013801E881D6
:1006B000F9810284F385E02D0995E881F9810288AA
:1006C000F389E02D87019601A501B401CE010995BA
:1006D000E881F981A501460D571D41505109028855
:1006E000F389E02D9601B401CE010995E881F981E5
:1006F0000088F189E02D9301A501B401CE0109958F
:10070000E881F981C80CD91CB601615071090088D3
:10071000F189E02D9301A501CE010995E881F981C8
:100720000688F789E02DCE01DF91CF911F910F91BF
:10073000FF90EF90DF90CF90BF90AF909F908F9001
:100740007F906F900994CF92DF92EF92FF920F9378
:100750001F93CF93DF9300D000D000D0CDB7DEB78A
:100760006C01DC01ED91FC916217730789F40417A9
:1007700015072CF4942F852FA801092F182F041B7F
:10078000150B98012F5F3F4F048CF58DE02D12C0A3
:100790004017510709F5261737072CF4962F872F96
:1007A000B901292F382F261B370B2F5F3F4F068C9F
:1007B000F78DE02D8701C601099526960FB6F894AE
:1007C000DEBF0FBECDBFDF91CF911F910F91FF9084
:1007D000EF90DF90CF9008950284F385E02D2D8374
:1007E0003E834B835C8369837A830995D601ED91BF
:1007F000FC910488F589E02D2D813E814B815C813F
:1008000069817A81C6010995D601ED91FC9106882E
:10081000F789E02DC60126960FB6F894DEBF0FBE0D
:10082000CDBFDF91CF911F910F91FF90EF90DF909F
:10083000CF900994EF92FF920F931F93DC01ED91FB
:10084000FC9111971A960D911C911B9718962D915A
:100850003C91199700A0F1A1E02D7B0140E050E010
:1008600060E070E009951F910F91FF90EF9008955F
:100870004F925F926F927F928F929F92AF92BF92B0
:10088000CF92DF92EF92FF920F931F93CF93DF935C
:1008900000D0CDB7DEB76C015A0139014801DC0147
:1008A000ED91FC910284F385E02D69837A830995AB
:1008B0006981462E7A81572E640C751CD601ED9104
:1008C000FC91461457046CF40088F189E02D8701EF
:1008D0009401A501B201C6010995BFEF4B1A5B0A4D
:1008E000EDCF0688F789E02DC6010F900F90DF91BC
:1008F000CF911F910F91FF90EF90DF90CF90BF901D
:10090000AF909F908F907F906F905F904F900994E1
:10091000AF92BF92CF92DF92EF92FF920F931F930D
:10092000CF93DF9300D000D0CDB7DEB75C01690173
:10093000DC01ED91FC910284F385E02D4B835C8317
:1009400069837A830995D501ED91FC9169817A815A
:100950009B012C0D3D1D215031090488F589E02DA6
:1009600078014B815C818A01C5010995D501ED9122
:10097000FC910688F789E02DC5010F900F900F902C
:100980000F90DF91CF911F910F91FF90EF90DF902B
:10099000CF90BF90AF900994AF92BF92CF92DF9269
:1009A000EF92FF920F931F93CF93DF9300D000D06D
:1009B000CDB7DEB75C016901DC01ED91FC910284E9
:1009C000F385E02D4B835C8369837A830995D50198
:1009D000ED91FC914B815C81C40ED51EB1E0CB1A28
:1009E000D1080488F589E02D7801860169817A8132
:1009F0009B01C5010995D501ED91FC910688F78908
:100A0000E02DC5010F900F900F900F90DF91CF91C7
:100A10001F910F91FF90EF90DF90CF90BF90AF901C
:100A200009940895EF92FF920F931F93DC01ED91CB
:100A3000FC9100A0F1A1E02D09951F910F91FF906D
:100A4000EF9008950F931F93DC01ED91FC91068CBC
:100A5000F78DE02D09951F910F9108950F931F9326
:100A6000DC01ED91FC91048CF58DE02D09951F9131
:100A70000F910895DC01ED91FC910084F185E02D4A
:100A8000099408952F923F924F925F926F927F92B6
:100A90008F929F92AF92BF92CF92DF92EF92FF928E
:100AA0000F931F93CF93DF9300D01F92CDB7DEB784
:100AB0004C017B836A836A01590117019801241B49
:100AC000350B37FF03C0319521953109C5014A81A6
:100AD0005B81841B950B97FF03C0919581959109CC
:100AE00051E059838217930714F019820BC09A2D95
:100AF0008B2D5801092F182F9A818B81DB82CA8296
:100B0000C92ED82E8A819B81A816B9065CF49C2D2B
:100B10008D2D6801092F182F9A818B81BB82AA82A3
:100B2000A92EB82E2501AA81BB814A1A5B0A380179
:100B30006C187D0877FE03C071946194710872018E
:100B400057FE03C0BFEFEB1AFB0AF594E794C016FB
:100B5000D1061CF00FEF1FEF1FC001E010E01CC01A
:100B6000D401ED91FC91B9810484F585E02D9101CA
:100B7000BB23C1F04A815B81B601C4010995E61827
:100B8000F708F7FE04C0C00ED11EE40CF51CEA8184
:100B9000FB813196FB83EA834A815B81A416B5060B
:100BA000FCF604C0A6016A817B81E7CF0F900F900D
:100BB0000F90DF91CF911F910F91FF90EF90DF90F9
:100BC000CF90BF90AF909F908F907F906F905F90ED
:100BD0004F903F902F90089585ED8093BC008091B9
:100BE000BC0084FDFCCF1092DA03089540915503B8
:100BF000262F30E0240F311D21323105DCF4209105
:100C0000DA032430C9F4FC0180E090E0861758F440
:100C1000309155032191DC01AD5CBC4FA30FB11D98
:100C20002C930196F3CF80915503680F6093550381
:100C300080E0089581E0089582E008950895E091AC
:100C4000930380919203E81730F4F0E0EC56FC4FE8
:100C5000808190E008958FEF9FEF08959091930326
:100C600080919203981750F4E92FF0E0EC56FC4F76
:100C7000208130E09F5F9093930302C02FEF3FEFFE
:100C8000C90108958091920390E020919303821B03
:100C900091090895CF92DF92EF92FF920F931F93E5
:100CA000CF93DF937C01262F972F8A018091DB035E
:100CB000882391F0C62FD72F6E01C40ED51ECC15F8
:100CC000DD0571F06991D701ED91FC910190F08102
:100CD000E02DC7010995F3CF642F822F0E94F605FE
:100CE000C801DF91CF911F910F91FF90EF90DF909E
:100CF000CF900895CF93DF931F92CDB7DEB769836E
:100D00002091DB032223D1F02091FD03203240F01B
:100D100021E030E0FC013383228380E090E015C0C5
:100D20008091DC03E82FF0E0E352FC4F998190833F
:100D30008F5F8093DC038093FD0305C061E0CE01EB
:100D400001960E94F60581E090E00F90DF91CF912F
:100D50000895089580E090E008950F931F93CF9336
:100D6000DF931F92CDB7DEB78C01DC01ED91FC91D2
:100D70000284F385E02D698309956981611102C0C0
:100D800060E201C061E2C8010E949011D801ED91BA
:100D9000FC910688F789E02DC8010F90DF91CF9173
:100DA0001F910F9109948F929F92AF92BF92CF9211
:100DB000DF92EF92FF920F931F93CF93DF93EC019B
:100DC000490181E0881A9108860E971EC401A0E0AF
:100DD000B0E04B01A12CB12C540199248824882A1D
:100DE000992AAA2ABB2A680181E0C81AD108C40E30
:100DF000D51EC601A0E0B0E06A01E12CF12C76011D
:100E0000DD24CC24C82AD92AEA2AFB2A6AE2CE01A8
:100E10000E9490112BA16B2D77278827992727FFF8
:100E200018C06EBD0DB407FEFDCFC501AA27BB27B4
:100E30008EBD0DB407FEFDCFBB27AB2D9A2D892D9E
:100E40008EBD0DB407FEFDCF8EBC0DB407FEFDCFE9
:100E500014C0CE010E94D310B50188279927CE0176
:100E60000E94D31099278B2D7A2D692DCE010E94D7
:100E7000D310682DCE010E94D3106BE2CE010E94E8
:100E800090112BA16F2D77278827992727FF18C04E
:100E90006EBD0DB407FEFDCFC701AA27BB278EBDCF
:100EA0000DB407FEFDCFBB27AF2D9E2D8D2D8EBD22
:100EB0000DB407FEFDCFCEBC0DB407FEFDCF14C0B0
:100EC000CE010E94D310B70188279927CE010E9436
:100ED000D31099278F2D7E2D6D2DCE010E94D3101A
:100EE0006C2DCE010E94D3106CE2CE01DF91CF9128
:100EF0001F910F91FF90EF90DF90CF90BF90AF9038
:100F00009F908F900C9490111F93CF93DF93EC01DF
:100F100063706D8B6230C1F0633001F1613051F06C
:100F200080EF90E09987888780E491E09B878A87AB
:100F300018E41DC080E491E09987888780EF90E0F5
:100F40009B878A8718E213C080EF90E09987888793
:100F500080E491E09B878A8718E809C080E491E0EB
:100F60009987888780EF90E09B878A8718EEE881D1
:100F7000F9810284F385E02DCE01099566E3CE0167
:100F80000E949011612FCE010E94D310E881F98157
:100F90000688F789E02DCE01DF91CF911F9109944A
:100FA0002F923F924F925F926F927F928F929F9279
:100FB000AF92BF92CF92DF92EF92FF920F931F9367
:100FC000CF93DF93CDB7DEB76C970FB6F894DEBF43
:100FD0000FBECDBF9C8F8B8F5B011A011F830E83C9
:100FE0003701C982DC0158964D915C9159974115A2
:100FF000510509F0E5C018968D919C9119976817D5
:1010000079070CF0CAC11A968D919C911B972816EE
:1010100039060CF0C2C18C2C912CFB0136E0C39E2A
:10102000E00DF11D1124FB87EA871E161F060CF048
:10103000B4C1C40133E0880F991F3A95E1F79D8749
:101040008C87820D931D181619060CF0A6C15796B1
:101050008C91811103C0203B08F02F5FAB8DBC8DBC
:10106000ED91FC9111970284F385E02DCD012A8F3B
:1010700009952A8DB5E02B9F90011124F501359635
:10108000FF87EE87BB82AA822501A9014A195B0965
:10109000598B488BC10108969B8B8A8BE889F9890B
:1010A000E40DF51DE952FF4F9491988761013D824F
:1010B0002C82A885A0FF13C0AB8DBC8DED91FC9157
:1010C000B981B13031F40484F585E02D2E813F8162
:1010D00016C00684F785E02DEE80FF801AC0EE81F1
:1010E000FF816E167F06F1F0AB8DBC8DED91FC910A
:1010F000B981B13051F40484F585E02D9301A60146
:10110000B2018B8D9C8D09950DC00684F785E02D6D
:101110007301840194014C815D816A817B818B8D97
:101120009C8D0995E885E695E887FFEFCF1ADF0AE1
:101130002C813D81280D391D3D832C834A895B8993
:10114000C416D50609F0B5CF5FEF451A550A8A8156
:101150009B81880D991D9B838A83AE85BF854A1626
:101160005B0609F09BCFEE81FF816E167F0609F4C6
:10117000F2C0EB8DFC8DA081B181F981F13079F461
:10118000B5016B5F7F4F5096ED91FC9151978301B4
:1011900028E030E0A1018B8D9C8D0995DCC06A852B
:1011A0007B85681979091E96ED91FC911F97730153
:1011B0000C851D859401A1018B8D9C8D0995CBC05B
:1011C000FA0134969491329765917491291BCB0161
:1011D000B7E02B9F800D911D1124FA0125913491C8
:1011E0003B8B2A8BFC01459154915B834A83FC0124
:1011F0003296C490319654915E873296149131960E
:10120000D4908981823058F0612E012E000C77082D
:10121000AD2D0D2C000CBB0BB987A88704C0198617
:101220001886612C712CAB8DBC8DED91FC911197C2
:101230000284F385E02DCD010995B9818B2E912C87
:10124000689CC001699C900D789C900D1124FC0154
:10125000EA0DFB1DFD87EC871C82712C612CE12FB0
:10126000110FFF0B95012E0F3F1F3B872A87AC0CF8
:10127000B11CA5014E0F5F1F5F8B4E8BC1018D0D01
:10128000911DD7FC9A95998F888F4E85641608F02A
:1012900062C0862D90E048855985480F591F489DAA
:1012A0009001499D300D589D300D1124D901A20D9A
:1012B000B31DB98BA88BAA84BB844C845D84DC806D
:1012C000BA85DB1AE88DF98DE80FF91FFD8BEC8BE1
:1012D0008D2D8A0D2E893F89A216B306B9F187702C
:1012E00061F48A819B810196EA89FB89AA81BB818D
:1012F000EA0FFB1F74909B838A8377FE20C0AB8D1F
:10130000BC8DED91FC91B981B13061F40484F58517
:10131000E02D2E813F814C895D89B5018B8D9C8D9F
:1013200009950DC00684F785E02DEE80FF808401CD
:10133000940148895989B2018B8D9C8D0995770C50
:10134000EFEFAE1ABE0A480C591CC2CF3C813C0DCF
:101350003C8363949ACFAB8DBC8DED91FC9111973A
:101360000688F789E02DCD016C960FB6F894DEBFA4
:101370000FBECDBFDF91CF911F910F91FF90EF90E6
:10138000DF90CF90BF90AF909F908F907F906F90A5
:101390005F904F903F902F9009946C960FB6F89401
:1013A000DEBF0FBECDBFDF91CF911F910F91FF9098
:1013B000EF90DF90CF90BF90AF909F908F907F90F5
:1013C0006F905F904F903F902F900895CF93CFB73D
:1013D000F89480917A03811127C0E7E2F6E08491C6
:1013E000E9E0F6E09491E82FF0E0EE0FFF1FE952FC
:1013F000FA4FA591B491EC91E92321F461E08AE0E0
:101400000E94D70F61E08AE00E9407108CB58061CE
:101410008CBD8CB580648CBD61E08DE00E940710AE
:1014200061E08BE00E94071080917A038F5F8093C8
:101430007A03CFBFCF910895BF92CF92DF92EF9200
:10144000FF920F931F93CF93DF93EC01411551054A
:101450006105710521F440E052E16AE770E04C8FCC
:101460005D8F6E8F7F8F88A187FD07C061E00E942E
:10147000071061E088A10E94D70F61E089A10E9456
:10148000071060E089A10E94D70F8BA187FD16C0CD
:1014900061E08CA10E94071060E08CA10E94D70F30
:1014A00061E08BA10E94071061E08BA10E94D70F21
:1014B0008DA187FD03C060E00E9407108BA187FD0E
:1014C0000E94E6098AA187FD21C061E00E94071001
:1014D00061E08AA10E94D70F64E670E080E090E0AE
:1014E0000E94431060E08AA10E94D70F64E670E07A
:1014F00080E090E00E94431061E08AA10E94D70F33
:1015000068EC70E080E090E00E944310E881F9818F
:101510000284F385E02DCE01099508E610E07801FC
:10152000EFEFEE1AFE0AF8016491662321F1CE0175
:101530000E9490110E5F1F4FF701E490FE2DFF7780
:10154000BF2E6801FF2EFA948FEFF81649F0F601CE
:101550006491CE010E94D310FFEFCF1ADF0AF3CFC0
:101560000B0D111DE7FEDBCF68E770E080E090E037
:101570000E944310D4CFE881F9810688F789E02DD5
:10158000CE01099580EF90E09987888780E491E00B
:101590009B878A87DF91CF911F910F91FF90EF90EA
:1015A000DF90CF90BF9008951F920F920FB60F92C9
:1015B00011242F933F934F935F936F937F938F9358
:1015C0009F93AF93BF93EF93FF938091B900887F70
:1015D000803609F49CC068F5883209F45BC090F449
:1015E000803109F454C038F4882309F4F6C08830F7
:1015F00009F44DC0F6C0883109F44CC0803209F4BA
:101600005DC0EFC0803409F468C048F4803309F449
:1016100055C0883309F0E5C08093D803D8C0803521
:1016200009F44FC0883509F45DC0883409F0D9C089
:10163000D6C0883909F4C7C0A8F4883709F467C050
:1016400038F4883609F463C0803709F460C0C9C033
:10165000883809F4B8C0803909F45FC0803809F0CF
:10166000C0C05BC0803B09F486C038F4803A09F4FE
:1016700066C0883A09F47FC0B4C0803C09F4A7C0B2
:10168000883C09F4A4C0883B09F48AC0AAC08091B0
:10169000B50310C09091D7038091D603981770F5C9
:1016A000E091D70381E08E0F8093D703F0E0EA54F6
:1016B000FC4F80818093BB0085EC86C08093D8036B
:1016C0008EC0E091D70381E08E0F8093D703809185
:1016D000BB00F0E0EA54FC4F80839091D7038091E7
:1016E000D6036EC0E091D70381E08E0F8093D703BD
:1016F0008091BB00F0E0EA54FC4F80838091D903D5
:1017000081116DC081E08093B40384EA61C083E0FD
:101710008093DA0310927903CFCF809179038032DE
:1017200008F051C0E091790381E08E0F8093790336
:101730008091BB00F0E0E75AFC4F8083BDCF85EC81
:101740008093BC001092DA0380917903803230F4E8
:10175000E0917903F0E0E75AFC4F10826091790341
:1017600070E0E0915703F091580389E593E0099503
:101770001092790336C084E08093DA031092560306
:1017800010925503E0915303F09154030995809111
:101790005503811105C081E08093550310923303F6
:1017A000E091560381E08E0F80935603F0E0ED5CEC
:1017B000FC4F80818093BB0090915603809155032C
:1017C000981708F479CF85E88093BC000AC085ECAF
:1017D0008093BC001092DA0304C01092D8030E94D8
:1017E000EC05FF91EF91BF91AF919F918F917F9108
:1017F0006F915F914F913F912F910F900FBE0F907E
:101800001F9018951092DA0381E08093D90310920B
:10181000B40361E082E10E94D70F61E083E10E949E
:10182000D70FE9EBF0E080818E7F808380818D7F10
:10183000808388E48093B80085E48093BC00089599
:1018400008958CBD9DBD08959093FE048093FD0482
:10185000709300056093FF04109204051092030535
:101860001092020510920105411101C041E0409320
:101870000505F901448155816081718181EF94E012
:101880000E9419136DEB72E081EF94E00C948A15BD
:10189000FC01538D448D252F30E0842F90E0821B76
:1018A000930B541710F0CF96089501970895FC01FB
:1018B000918D828D981761F0828DDF01A80FB11D87
:1018C0005D968C91928D9F5F9F73928F90E00895AB
:1018D0008FEF9FEF0895FC01918D828D981731F065
:1018E000828DE80FF11D858D90E008958FEF9FEFB9
:1018F0000895FC01918D228D892F90E0805C9F4F8F
:10190000821B91098F73992708958EEF93E00E94AF
:10191000790C21E0892B09F420E0822F0895FC0145
:10192000848DDF01A80FB11DA35ABF4F2C91848D68
:1019300090E001968F739927848FA689B7892C939D
:10194000A089B1898C9180648C93938D848D981338
:1019500006C00288F389E02D80818F7D8083089501
:10196000EF92FF920F931F93CF93DF93EC0181E0EF
:10197000888F9B8D8C8D981305C0E889F9898081AB
:1019800085FD24C0F62E0B8D10E00F5F1F4F0F73E7
:101990001127E02E8C8DE8120CC00FB607FCFACF91
:1019A000E889F989808185FFF5CFCE010E948F0CEF
:1019B000F1CF8B8DFE01E80FF11DE35AFF4FF0824E
:1019C0000B8FEA89FB898081806207C0EE89FF89DD
:1019D0006083E889F98980818064808381E090E078
:1019E000DF91CF911F910F91FF90EF900895CF93CA
:1019F000DF93EC01888D8823C9F0EA89FB89808117
:101A000085FD05C0A889B9898C9186FD0FC00FB6E8
:101A100007FCF5CF808185FFF2CFA889B9898C9129
:101A200085FFEDCFCE010E948F0CE7CFDF91CF91E4
:101A3000089580E090E0892B29F00E94850C8111A7
:101A40000C94000008953FB7F89480918003909122
:101A50008103A0918203B091830326B5A89B05C0A2
:101A60002F3F19F00196A11DB11D3FBFBA2FA92F1D
:101A7000982F8827820F911DA11DB11DBC01CD019A
:101A800042E0660F771F881F991F4A95D1F7089586
:101A9000CF92DF92EF92FF920F931F93CF93DF933A
:101AA00000D000D000D0CDB7DEB76C01DC01ED91E5
:101AB000FC910284F385E02D2D833E834B835C8370
:101AC00069837A830995D601ED91FC910684F785A7
:101AD000E02D2D813E814B815C8169817A81C60137
:101AE0000995D601ED91FC910688F789E02DC60194
:101AF00026960FB6F894DEBF0FBECDBFDF91CF9113
:101B00001F910F91FF90EF90DF90CF900994EF928B
:101B1000FF920F931F93CF93DF9300D000D000D09C
:101B2000CDB7DEB77C01DC01ED91FC910284F38539
:101B3000E02D2D833E834B835C8369837A830995F3
:101B4000D701ED91FC910288F389E02D2D813E8132
:101B50004B815C8169817A81C7010995D701ED913B
:101B6000FC910688F789E02DC70126960FB6F894F8
:101B7000DEBF0FBECDBFDF91CF911F910F91FF90C0
:101B8000EF900994EF92FF920F931F93CF93DF93FF
:101B900000D000D000D0CDB7DEB77C01DC01ED91E4
:101BA000FC910284F385E02D2D833E834B835C837F
:101BB00069837A830995D701ED91FC910088F189B9
:101BC000E02D2D813E814B815C8169817A81C70145
:101BD0000995D701ED91FC910688F789E02DC701A1
:101BE00026960FB6F894DEBF0FBECDBFDF91CF9122
:101BF0001F910F91FF90EF900994EF92FF920F9336
:101C00001F93DC01ED91FC910684F785E02D7801AE
:101C100001E010E009951F910F91FF90EF9008955A
:101C2000EF92FF920F931F93DC01ED91FC910684DC
:101C3000F785E02D7801890121E030E009951F91B9
:101C40000F91FF90EF9008950895FC016370658BEC
:101C50008481958126813781613039F0633029F0A4
:101C600091878087338722870895318720879387DC
:101C7000828708950E94FB23FC0183A9A6A5B7A52E
:101C80009C91892B8C9383A187FD0C94200C089543
:101C90000F931F93CF93DF93EC018BA187FF1EC09F
:101CA0000C8D1D8D2E8D3F8D90E040E052E16AE756
:101CB00070E0041715072607370740F476956795F7
:101CC000579547959F5F9630A1F797E081E0982759
:101CD000892F806A869591700E94210C9BA9EEA5A0
:101CE000FFA58081282F30E0892F90E08095909586
:101CF000822393238083DF91CF911F910F910895C9
:101D0000AF92BF92CF92EF92FF920F931F93CF9318
:101D1000DF93EC01262F888D998D009709F040C044
:101D20006A3059F41D861C862C898E859F8538E083
:101D3000239F800D911D112441C06D3009F4AAC06C
:101D40008E898823C1F03C898C859D8546E0349F2F
:101D5000800D911D112448855985481759075CF459
:101D60001D861C868E859F8548E0349F800D911DC1
:101D700011249F878E87EA88FB88088919894E85F8
:101D80005F856C857D85CC88CE010E94D0072C892B
:101D90008C859D8536E0239F800D911D112442C0C6
:101DA0006A3079F41D861C862C89FC013696E491F4
:101DB0008E859F852E9F800D911D11249F878E8774
:101DC00069C06D3009F466C0FC0134963491631724
:101DD00008F460C03196E491E61708F45BC0FC019A
:101DE0003296A590B490462F50E0431B510937E03E
:101DF000349FB001359F700D1124A60EB71EF5015A
:101E0000329634913196E491332311F0E1110DC0F3
:101E1000F5013496E4912C898C859D85E29F800D97
:101E2000911D11249D878C8735C0F501359644910D
:101E30005E89552311F16C89E32FF0E0E40FF11D69
:101E400047FDFA956E9FD0016F9FB00D11244C8510
:101E50005D854A0F5B1FE885F985E417F5076CF48B
:101E60001D861C86FC013696E4918E859F856E9FAB
:101E7000800D911D11249F878E87EA88FB88088931
:101E800019894E855F856C857D85CC88CE010E9441
:101E9000D007BECF81E090E0DF91CF911F910F91ED
:101EA000FF90EF90CF90BF90AF9008951F920F9248
:101EB0000FB60F9211242F933F934F935F936F931D
:101EC0007F938F939F93AF93BF93EF93FF938EEF87
:101ED00093E00E948F0CFF91EF91BF91AF919F9182
:101EE0008F917F916F915F914F913F912F910F90C3
:101EF0000FBE0F901F9018951F920F920FB60F9262
:101F000011242F938F939F93EF93FF93E0910E04EF
:101F1000F0910F048081E0911404F091150482FD8A
:101F200012C09081809117048F5F8F7320911804E5
:101F3000821751F0E0911704F0E0E250FC4F958FCA
:101F40008093170401C08081FF91EF919F918F9141
:101F50002F910F900FBE0F901F901895833081F036
:101F600028F4813099F08230A1F008958730A9F0EB
:101F70008830B9F08430D1F4809180008F7D03C027
:101F8000809180008F7780938000089584B58F774B
:101F900002C084B58F7D84BD08958091B0008F7795
:101FA00003C08091B0008F7D8093B00008951F938F
:101FB000CF93DF93282F30E0F901E551FA4F849158
:101FC000F901E150FA4FD491F901E35EF94FC49160
:101FD000CC23C9F0162F81110E94AE0FEC2FF0E038
:101FE000EE0FFF1FED5EF94FA591B4918FB7F894F6
:101FF000111105C09C91ED2FE095E92302C0EC91F1
:10200000ED2BEC938FBFDF91CF911F910895CF936C
:10201000DF9390E0FC01E150FA4F2491FC01E35E74
:10202000F94F8491882361F190E0880F991FFC019A
:10203000E952FA4FC591D491FC01ED5EF94FA5919B
:10204000B491611109C09FB7F894888120958223CB
:102050008883EC912E230BC0623061F49FB7F89413
:102060003881822F809583238883EC912E2B2C93AB
:102070009FBF06C08FB7F894E8812E2B28838FBFAF
:10208000DF91CF9108958F929F92AF92BF92CF929E
:10209000DF92EF92FF926B017C010E94230D4B01B6
:1020A0005C01C114D104E104F104F1F00E94230D9C
:1020B000DC01CB0188199909AA09BB09883E934024
:1020C000A105B10570F321E0C21AD108E108F108B9
:1020D00088EE880E83E0981EA11CB11CC114D104A7
:1020E000E104F10419F7DDCFFF90EF90DF90CF907E
:1020F000BF90AF909F908F9008952FB7F894609104
:102100007C0370917D0380917E0390917F032FBFAC
:1021100008951F920F920FB60F9211242F933F93A1
:102120008F939F93AF93BF9380917C0390917D0396
:10213000A0917E03B0917F0330917B0323E0230FB6
:102140002D3720F40196A11DB11D05C026E8230FEF
:102150000296A11DB11D20937B0380937C03909375
:102160007D03A0937E03B0937F03809180039091C1
:102170008103A0918203B09183030196A11DB11D3B
:102180008093800390938103A0938203B093830391
:10219000BF91AF919F918F913F912F910F900FBE63
:1021A0000F901F901895CF93DF93FC0183A187FFB9
:1021B00005C06EBD0DB407FEFDCF2EC028E030E097
:1021C00040E8A6A1B7A1842F862321F080A99C9185
:1021D000892B0AC090A98C91C82FD0E0892F90E05C
:1021E000809590958C239D238C9392A9C2A5D3A50D
:1021F0008881A82FB0E0892F90E0809590958A2360
:102200009B23888382A9A2A5B3A59C91892B8C933B
:10221000469521503109A9F6DF91CF9108958F920B
:102220009F92AF92BF92CF92DF92EF92FF920F9365
:102230001F93CF93DF93EC01690158014701288573
:102240003985621773070CF05EC08A859B85481735
:1022500059070CF058C07B01EC0CFD1CD7011197FD
:102260008A010A0D1B1DF8013197B7FD4CC0F7FD1F
:102270004AC077FF03C0670160E070E057FF03C00A
:10228000580140E050E0A217B3071CF06901C61ADC
:10229000D70AE817F9071CF05C01A41AB50AE8810F
:1022A000F98102A4F3A5E02D85019601CE010995DF
:1022B0009601D5010E94EF216115710581059105F7
:1022C00011F12BA127FD0AC06B017C010EC00DB4DA
:1022D00007FEFDCF8EBC0DB407FEFDCF6150710926
:1022E0008109910980F09EBCF2CF692DCE010E9438
:1022F000D310682DCE010E94D31081E0C81AD108F6
:10230000E108F10891F7DF91CF911F910F91FF90B4
:10231000EF90DF90CF90BF90AF909F908F900895F7
:10232000CF93DF93EC019CA9ECA5FDA52081422F62
:1023300050E0292F30E02095309524233523208349
:10234000CE010E94D3108CA9ECA5FDA59081892B0C
:102350008083DF91CF9108950F931F93CF93DF93E5
:102360001F92CDB7DEB78C01DC01ED91FC910284A8
:10237000F385E02D698309956981662319F0F801D9
:1023800065A903C0D801D6966C91C8010E9490112E
:10239000D801ED91FC910688F789E02DC8010F90D6
:1023A000DF91CF911F910F9109941F93CF93DF93EA
:1023B000262FFC0133A137FF09C07EBD0DB407FEF7
:1023C000FDCF2EBD0DB407FEFDCF0CC0672F122F21
:1023D000EC010E94D310612FCE01DF91CF911F91AC
:1023E0000C94D310DF91CF911F910895AF92BF92BB
:1023F000CF92DF92EF92FF920F931F93CF93DF93D1
:10240000EC0177FD38C088859985681779079CF5B8
:1024100057FD31C08A859B854817590764F56901C6
:102420005A017B01E881F9810284F385E02DCE0118
:102430000995E881F98102A4F3A5E02D01E010E0FF
:1024400021E030E0A501B701CE010995B601CE012A
:102450000E94D511E881F9810688F789E02DCE0127
:10246000DF91CF911F910F91FF90EF90DF90CF9070
:10247000BF90AF900994DF91CF911F910F91FF9082
:10248000EF90DF90CF90BF90AF900895EF92FF92C2
:102490000F931F93CF93DF93EC0177FD22C08885C4
:1024A000998568177907ECF457FD1BC08A859B85D1
:1024B00048175907B4F47901E881F98102A4F3A51A
:1024C000E02D01E010E021E030E0CE010995B701F8
:1024D000CE01DF91CF911F910F91FF90EF900C945F
:1024E000D511DF91CF911F910F91FF90EF9008953B
:1024F0002091FD0390913305213208F04AC080916C
:10250000DA038111FCCF32E03093DA0331E030930B
:10251000D9033FEF3093D8031092D7032093D6030B
:10252000ADEDB3E046EB53E0FA013E2F341B32171A
:1025300018F43D913193F9CF1092B5032091B50372
:10254000990F922B9093B5039091B403913061F45D
:102550001092B4039091B5039093BB009091BC008E
:1025600093FDF8CF95EC01C095EE9093BC0090914F
:10257000DA039230E1F39091D8039F3F79F0809194
:10258000D803803241F08091D803803331F084E069
:1025900005C081E003C082E001C083E01092DC034B
:1025A0001092FD031092DB0308959091DA039111CC
:1025B000FCCF91E09093DA039093D9032FEF20930F
:1025C000D8031092D703260F2093D6039093B50318
:1025D0009091B503880F892B8093B5038091B40344
:1025E000813061F41092B4038091B5038093BB00F5
:1025F0008091BC0083FDF8CF85EC01C085EE80930F
:10260000BC008091DA038130E1F38091D703861713
:1026100010F46091D703A6EBB3E024E933E0F901AD
:102620008E2F821B861718F48D918193F9CF862FF8
:102630000895CF92DF92EF92FF920F931F93CF9363
:10264000DF936C017A018B01C0E0D0E0CE15DF058D
:1026500089F0D8016D918D01D601ED91FC91019029
:10266000F081E02DC6010995892B11F47E0102C08D
:102670002196ECCFC701DF91CF911F910F91FF9071
:10268000EF90DF90CF900895EF92FF920F931F93FA
:10269000CF93DF93F0902F059FEFF91207C08EBD07
:1026A00000000DB407FEFDCF8EB51DC0E0902D05D6
:1026B00007E010E0C82FD0E0BE01002E02C07595E3
:1026C00067950A94E2F7617077278E2D0E94D70FE5
:1026D00061E08F2D0E94D70F60E08F2D0E94D70FF1
:1026E0000150110948F7DF91CF911F910F91FF9091
:1026F000EF900895CF93DF93D82FC62F80912C05AC
:102700008F3FC9F48091300591E09093DB03809373
:1027100033051092DC031092FD036D2F83EE94E0DD
:102720000E947A066C2F83EE94E00E947A06DF9175
:10273000CF910C94781280912F058F3F31F48091C6
:10274000EF049091F0040E94210C60E080912C0530
:102750000E94D70F8D2F0E9444138C2F0E94441388
:1027600061E080912C050E94D70F80912F058F3F4B
:1027700021F4DF91CF910C94200CDF91CF9108953B
:102780008F929F92AF92BF92CF92DF92EF92FF9281
:102790000F931F93CF93DF93C82F80912C058F3F0A
:1027A00059F580913005D1E0D093DB038093330558
:1027B0001092DC031092FD036C2F83EE94E00E94D4
:1027C0007A060E94781280913005D093DB038093C3
:1027D00033051092DC031092FD0361E00E94D512D4
:1027E000109293038093920383EE94E00E942E064E
:1027F000B82E0E9478126BC080912F058F3F31F464
:102800008091EF049091F0040E94210C60E080918F
:102810002C050E94D70F8C2F80680E94441380E003
:102820000E944413A0902F058FEFA81207C01EBC72
:1028300000000DB407FEFDCFBEB43EC0C0912E0512
:1028400007E010E0B12CD0E0FE01E551FA4F7F0126
:10285000CE0181509A4F6C01C35ED94F61E08A2D41
:102860000E94D70FF7018491F6018490FE019490A5
:10287000992099F081110E94AE0F292D30E0220F8E
:10288000331F2F513A4FF901A591B4918C918822B1
:1028900031E009F430E0832F02C080E090E0002EA8
:1028A00001C0880F0A94EAF7B82A60E08A2D0E94D6
:1028B000D70F0150110990F661E080912C050E941C
:1028C000D70F80912F058F3F11F40E94200C8B2D84
:1028D000DF91CF911F910F91FF90EF90DF90CF90FC
:1028E000BF90AF909F908F900895CF93DF9380E03B
:1028F0000E94C013C82FD0E0DC2FCC2781E00E94BB
:10290000C0139E01282BC901DF91CF910895CF9369
:10291000C82F81E08093DB0382E58093330510921A
:10292000DC031092FD0383EE94E00E947A066C2F84
:1029300083EE94E00E947A060E9478126AE070E0CA
:1029400080E090E0CF910C944310EF92FF921F93A0
:10295000CF93DF93CDB7DEB72C970FB6F894DEBFD9
:102960000FBECDBF66E082E50E94D512182F1092EF
:10297000930380939203CE0101967C01809193038F
:10298000181749F083EE94E00E942E06F701819318
:1029900091937F01F3CF89819A81909385038093EE
:1029A00084038B819C8190938703809386038B851E
:1029B0009C859C013595279535952795A9014370F0
:1029C00055272D813E81220F331F220F331F242BC9
:1029D000352B30938903209388039C0174E035954F
:1029E00027957A95E1F7A901437055272F813885FE
:1029F000220F331F220F331F242B352B30938B03D1
:102A000020938A039C01F6E035952795FA95E1F726
:102A1000A9014370552729853A85220F331F220FBC
:102A2000331F242B352B30938D0320938C039C0173
:102A300021703327F1E02F2730938F0320938E03EB
:102A400021E030E081FF02C020E030E030939103CC
:102A50002093900360E080E02C960FB6F894DEBFE0
:102A60000FBECDBFDF91CF911F91FF90EF900C94DF
:102A70008714FC01808191810C949922EF92FF923E
:102A80000F931F93CF93DF93EC01198218821B825F
:102A90001A821D821C8261157105A9F17B01FB015F
:102AA00001900020E9F731978F01061B170BB80141
:102AB0006F5F7F4F80E090E00E943123009759F0D4
:102AC000998388831B830A832C813D81232B81F486
:102AD000FC0110820DC088819981009711F00E943D
:102AE0009922198218821D821C821B821A820BC0B5
:102AF0001D830C83B701DF91CF911F910F91FF9040
:102B0000EF900C940924DF91CF911F910F91FF90CA
:102B1000EF9008956115710579F0FB010190002097
:102B2000E9F73197AF01461B570BDC01ED91FC91A2
:102B30000280F381E02D099480E090E00895CF9326
:102B4000DF93CDB7DEB72B970FB6F894DEBF0FBE7D
:102B5000CDBF789484B5826084BD84B5816084BD26
:102B600085B5826085BD85B5816085BD80916E002B
:102B7000816080936E00109281008091810082605C
:102B80008093810080918100816080938100809199
:102B900080008160809380008091B1008460809388
:102BA000B1008091B00081608093B00080917A0084
:102BB000846080937A0080917A00826080937A00AA
:102BC00080917A00816080937A0080917A00806899
:102BD00080937A001092C1001092DF041092E004FA
:102BE0001092E1041092E20410929D0410929E044F
:102BF00010929F041092A0040E947D104B015C0172
:102C00002B013C0128EB420E2BE0521E611C711C73
:102C10000E947D10681579058A059B0528F04616E7
:102C2000570668067906A0F78EEF93E09093DE04CE
:102C30008093DD04E0910E04F0910F0482E0808324
:102C4000E0910A04F0910B041082E0910C04F091E1
:102C50000D0480E1808310921604E0911204F0913B
:102C6000130486E08083E0911004F09111048081C8
:102C700080618083E0911004F0911104808188606C
:102C80008083E0911004F09111048081806880833A
:102C9000E0911004F091110480818F7D80830E9467
:102CA0007D1060939D0470939E0480939F04909385
:102CB000A0046EEA72E08091DD049091DE040E942F
:102CC0008A150E947D104B015C012B013C018AE0BA
:102CD000480E511C611C711C0E947D1068157905FD
:102CE0008A059B0528F04616570668067906A0F760
:102CF00081E08093B10440E050E0BA0181EF94E0BC
:102D00000E941C0A61E081EF94E00E9484073A9AD5
:102D10003B9A439A0E947D104B015C010E947D10FA
:102D2000DC01CB0188199909AA09BB0984369105F0
:102D3000A105B10598F3109293031092920310929B
:102D4000DC031092FD030E94020C60EF85E50E94F7
:102D500087146BEF80E00E9487140E94A514909165
:102D60002C059F3F59F180912F0561E08F3FA1F421
:102D7000892F0E94071061E080912C050E94D70FD7
:102D80000E94E60981E58093EF041092F00410920E
:102D90003205109231051FC00E94071061E080913A
:102DA0002C050E94071061E080912D050E940710FC
:102DB00060E080912E050E9407100DC010929303D1
:102DC000109292031092DC031092FD030E94020CF9
:102DD00081E4809330050E9475148131984061F43C
:102DE00062E083E00E947A136AE070E080E090E0A5
:102DF0000E94431010E01CC080912C058F3F09F405
:102E00005FC080912F058F3F09F05AC085E5809300
:102E1000EF041092F00484E090E0909332058093E8
:102E200031050E9475148131984009F049C0D8CF0E
:102E3000812F0E94C0131F5F1134D1F760E084E03E
:102E40000E947A1361E080E40E947A1361E08AE0D4
:102E50000E947A1360E680E20E947A1362E081E2C7
:102E60000E947A1364EA81E40E947A1366E086E5A0
:102E70000E947A1361E08AE40E947A1361E08BE495
:102E80000E947A1360E08BE40E947A1361E088E587
:102E90000E947A136FEF8BE00E947A1365E089E05D
:102EA0000E947A131092320310923103CE010196E0
:102EB0001C0194E0920D9B87F4E06F2E712C70C082
:102EC000FFCF87ED0E94C013F60181936F01FB8550
:102ED000FC11F7CFA98020E1A29EA00111248A81D4
:102EE000A82EB12C74E0B594A7947A95E1F7A42AA2
:102EF000B52A8F70C82ED12CDC2CCC248B81C82A0B
:102F00009C808BE40E94C01385FF04C06FEF8BE0B0
:102F10000E947A13892D90E00B978D3D934060F5C8
:102F2000C501A0E0B0E09C01AD012659310941097D
:102F30005109A091F904B091FA040E94A12122E460
:102F40003EE040E050E00E9477215901C601A0E038
:102F5000B0E09C01AD012258310941095109A0910D
:102F6000FB04B091FC040E94A1212EE13FE040E06F
:102F700050E00E94772169018090310390903203E4
:102F8000F2E08F16910409F40EC18CF481149104BF
:102F9000E9F081E08816910409F48AC00E94190DB5
:102FA0008BE40E94C01385FDF9CF61018ACF94E0C4
:102FB0008916910411F40C94DF1F0CF476C1F5E02E
:102FC0008F16910411F40C94F61FE8CF80912F0313
:102FD00090913003892B61F460E070E081EF94E020
:102FE0000E941A0481E090E09093300380932F03B5
:102FF00060EEE62EFF24FA9408E210E02AE530E0C5
:1030000042E650E066E470E081EF94E00E94480DF3
:1030100060EC72E0C1010E943E15910141E050E078
:1030200063E770E085E590E00E94240CC1010E94F6
:10303000391525E530E042E650E065EA70E081EFC1
:1030400094E00E94480D6CEC72E0C1010E943E15B4
:10305000910141E050E063E770E082EB90E00E9474
:10306000240CC1010E9439152CE8A21AB1088EE285
:10307000A816B10408F092CFC601C297CD9708F008
:10308000EFC767ED72E08EEF93E00E948A156DEB5B
:1030900072E08EEF93E00E948A1581E090E09093B9
:1030A0003203809331031092300310922F03D8C75C
:1030B00080912F0390913003892B51F460E070E0F0
:1030C00081EF94E00E941A049092300380922F03C3
:1030D00050EEE52EFF24FA940EE510E02CE430E0EB
:1030E00045E550E06CE070E081EF94E00E94480D0F
:1030F00060E073E0C1010E943E15910143E050E0A1
:1031000068E770E08EE190E00E94240CC1010E940B
:10311000391500E210E02CE430E046EB50E06CE0C2
:1031200070E081EF94E00E94480D64E073E0C1011B
:103130000E943E15910141E050E063EC70E088E2AE
:1031400090E00E94240CC1010E943915C5018A55E6
:1031500091098F36910570F4C6010F978E9750F440
:103160001092300310922F0383E090E0909332038B
:10317000809331039DE2A91AB108EAE1AE16B104C9
:1031800008F00CCFFFE0CF1AD1082EE2C216D1040E
:1031900008F004CF1092300310922F0310922E03E8
:1031A000109253021DC780912F0390913003892BF9
:1031B00061F460E070E081EF94E00E941A0481E025
:1031C00090E09093300380932F0340EEE42EFF2491
:1031D000FA940EE510E02CE430E045E550E06CE0B8
:1031E00070E081EF94E00E94480D60E073E0C1015F
:1031F0000E943E15910143E050E068E770E08EE1E7
:1032000090E00E94240CC1010E94391500E210E0F8
:103210002CE430E046EB50E06CE070E081EF94E0AD
:103220000E94480D64E073E0C1010E943E159101C7
:1032300041E050E063EC70E088E290E00E94240CF2
:10324000C1010E943915C5018A5591098F36910532
:1032500070F4C6010F978E9750F4109230031092BD
:103260002F0383E090E090933203809331038DE24B
:10327000A81AB1089AE1A916B10408F08FCEEFE0C0
:10328000CE1AD108FEE2CF16D10408F087CE1092F4
:10329000300310922F0310923203109231031092D8
:1032A0002E0381E08093530279CE60E070E081EFDD
:1032B00094E00E941A044091510250915202609190
:1032C0004F027091500290EEE92E97E0F92E04E142
:1032D00010E024E130E081EF94E00E94480D2FE1FE
:1032E000E22EF12C24E130E048EC50E06EE071E099
:1032F00081EF94E00E94480D85E091E098878F83EC
:103300005C0134E1832E912C1AE0412E512CC12C0A
:10331000D12CF501EC0DFD1DFA87E98780819181A3
:10332000019769F4E12C88EFF82E04E110E024E124
:1033300030E0A401B20181EF94E00E94480DE985DC
:10334000FA8580819181029771F4EE24EA9407E076
:10335000F02E04E110E024E130E0A401B20181EF9D
:1033600094E00E94480DF2E0CF0ED11C24E1420E01
:10337000511C8EE1C816D10461F69EE1A90EB11C64
:10338000E4E18E0E911CFFE4AF16F2E0BF0609F0F7
:10339000BBCF1FE0D12ECC24C394809100018823A1
:1033A00009F44CC40E947D104B015C010E947D1009
:1033B000DC01CB0188199909AA09BB09843691055A
:1033C000A105B10598F30E94A51480918603909100
:1033D00087032091840330918503853B91055CF040
:1033E000A901455651094F34510588F410922D0317
:1033F00010922C0329C0813491054CF4A901455643
:1034000051094F34510518F482E090E019C0253B72
:10341000310564F0855691098F349105A8F4E1E0F7
:10342000F0E0F0932D03E0932C030EC0213431051E
:103430005CF4855691098F34910530F483E090E077
:1034400090932D0380932C0380912C0390912D0356
:10345000892B09F071C00E94A514809103019091FD
:1034600004010197D89EF001D99EF00D112480919E
:10347000010190910201E80FF91FEE0FFF1FEB5FB2
:10348000FE4F808191818B7F892B09F04FC0409145
:103490005102509152024451510960914F02709172
:1034A0005002E0EEEE2EE7E0FE2E04E110E024E113
:1034B00030E081EF94E00E94480D809103019091EB
:1034C0000401D89EF001D99EF00D112480910101D4
:1034D00090910201E80FF91FEE0FFF1FEB5FFE4F07
:1034E00080819181039781F0409151025091520265
:1034F00060914F0270915002E12CF12C24E130E0F8
:1035000081EF94E00E94480D809151029091520207
:1035100044979093520280935102809103019091BD
:10352000040101979093040180930301E4E0F0E02B
:10353000F0932D03E0932C0380912C0390912D03A5
:10354000029709F071C00E94A51480910301909127
:1035500004010196D89EF001D99EF00D11248091AE
:10356000010190910201E80FF91FEE0FFF1FEB5FC1
:10357000FE4F808191818B7F892B09F04FC0409154
:103580005102509152024C5E5F4F60914F02709118
:10359000500220EEE22E27E0F22E04E110E024E1BA
:1035A00030E081EF94E00E94480D809103019091FA
:1035B0000401D89EF001D99EF00D112480910101E3
:1035C00090910201E80FF91FEE0FFF1FEB5FFE4F16
:1035D00080819181039781F0409151025091520274
:1035E00060914F0270915002E12CF12C24E130E007
:1035F00081EF94E00E94480D809151029091520217
:1036000044969093520280935102809103019091CD
:1036100004010196909304018093030184E090E0FB
:1036200090932D0380932C0380912C0390912D0374
:10363000019709F070C00E94A51480910301909138
:103640000401D89EF001D99EF00D11248091010152
:1036500090910201E80FF91FEE0FFF1FE95FFE4F87
:10366000808191818B7F892B09F04FC0409151025D
:103670005091520260914F02709150026C5E7F4FE8
:1036800010EEE12E17E0F12E04E110E024E130E02D
:1036900081EF94E00E94480D809103019091040114
:1036A000D89EF001D99EF00D1124809101019091D6
:1036B0000201E80FF91FEE0FFF1FEB5FFE4F808145
:1036C0009181039781F04091510250915202609193
:1036D0004F0270915002E12CF12C24E130E081EF97
:1036E00094E00E94480D80914F02909150024496C0
:1036F0009093500280934F028091010190910201BA
:1037000001969093020180930101E4E0F0E0F093D0
:103710002D03E0932C0380912C0390912D030397AC
:1037200009F070C00E94A5148091030190910401DA
:10373000D89EF001D99EF00D112480910101909145
:103740000201E80FF91FEE0FFF1FED5FFE4F8081B2
:1037500091818B7F892B09F04FC04091510250918C
:10376000520260914F027091500264517109F0EE63
:10377000EF2EF7E0FF2E04E110E024E130E081EFCE
:1037800094E00E94480D8091030190910401D89E1D
:10379000F001D99EF00D1124809101019091020158
:1037A000E80FF91FEE0FFF1FEB5FFE4F8081918145
:1037B000039781F0409151025091520260914F0263
:1037C00070915002E12CF12C24E130E081EF94E083
:1037D0000E94480D80914F0290915002449790931F
:1037E000500280934F028091010190910201019754
:1037F000909302018093010184E090E090932D0367
:1038000080932C0380918E0390918F03019709F090
:103810005DC080912B03811159C08091030190916B
:103820000401D89EF001D99EF00D11248091010170
:1038300090910201E80FF91FEE0FFF1FEB5FFE4FA3
:1038400083E090E091838083409151025091520235
:1038500060914F0270915002E0EEEE2EFF24FA9438
:1038600004E110E024E130E081EF94E00E94480D93
:103870000E947D106093270370932803809329038F
:1038800090932A03C0922603809103019091040132
:10389000909325038093240380910101909102016C
:1038A00090932303809322038091510290915202BE
:1038B000909321038093200380914F0290915002B6
:1038C00090931F0380931E03C0922B0380902703C5
:1038D00090902803A0902903B0902A0390ED890EC0
:1038E00097E0991EA11CB11C0E947D1068157905F6
:1038F0008A059B0508F431C180912603882309F4C9
:103900002CC169E073E08EEF93E00E948A1520914C
:103910002403309125038091220390912303D29EAA
:10392000F001D39EF00D1124E80FF91FEE0FFF1FD9
:10393000EB5FFE4F7182608221503109D29EF0010F
:10394000D39EF00D1124E80FF91FEE0FFF1FEB5F60
:10395000FE4F80819181019761F140912003509148
:1039600021034451510960911E0370911F0390EE91
:10397000E92EFF24FA9404E110E024E130E081EF25
:1039800094E00E94480D80912403909125030197B3
:10399000D89EF001D99EF00D1124809122039091C0
:1039A0002303E80FF91FEE0FFF1FEB5FFE4F71823D
:1039B00060828091240390912503D89EF001D99EC6
:1039C000F00D11248091220390912303E80FF91F39
:1039D000EE0FFF1FE95FFE4F80819181019759F142
:1039E000409120035091210360911E0370911F03A9
:1039F0006C5E7F4F10EEE12EFF24FA9404E110E09C
:103A000024E130E081EF94E00E94480D809124038E
:103A100090912503D89EF001D99EF00D112480913C
:103A2000220390912303E80FF91FEE0FFF1FE95FB8
:103A3000FE4F71826082809124039091250301964C
:103A4000D89EF001D99EF00D11248091220390910F
:103A50002303E80FF91FEE0FFF1FEB5FFE4F80817E
:103A60009181019761F140912003509121034C5EB7
:103A70005F4F60911E0370911F03E0EEEE2EFF2456
:103A8000FA9404E110E024E130E081EF94E00E9438
:103A9000480D80912403909125030196D89EF00152
:103AA000D99EF00D11248091220390912303E80FF9
:103AB000F91FEE0FFF1FEB5FFE4F71826082809156
:103AC000240390912503D89EF001D99EF00D112476
:103AD0008091220390912303E80FF91FEE0FFF1F3F
:103AE000ED5FFE4F80819181019759F14091200354
:103AF0005091210360911E0370911F03645171095D
:103B000020EEE22EFF24FA9404E110E024E130E0FC
:103B100081EF94E00E94480D809124039091250349
:103B2000D89EF001D99EF00D11248091220390912E
:103B30002303E80FF91FEE0FFF1FED5FFE4F7182A9
:103B40006082109226030E947D1060931003709390
:103B500011038093120390931303809103019091BA
:103B60000401D89EF001D99EF00D1124809101012D
:103B700090910201E80FF91FEE0FFF1FEB5FFE4F60
:103B800080819181049741F410920001E5E0F0E01A
:103B9000F0933203E093310380901003909011036F
:103BA000A0901203B0901303FCED8F0EF5E09F1E62
:103BB000A11CB11C0E947D10681579058A059B0522
:103BC00008F4EBCB809126038111E7CB85E0882EAA
:103BD00081E0982EA12CB12C24E1A20EB11C0AE0A8
:103BE000402E512CC12CD12CF401EC0DFD1D8081F7
:103BF00091810397029770F411821082E12CF12CCD
:103C000004E110E024E130E0A501B20181EF94E08D
:103C10000E94480D22E0C20ED11C84E1480E511CC6
:103C20009EE1C916D10401F7EEE18E0E911CFCED68
:103C3000AF16B10489F610922B03ABCB80911D0314
:103C400081113BC083E090E090932E0280932D027F
:103C5000B0EEEB2EFF24FA9404E110E024E130E012
:103C600048EC50E06EE071E081EF94E00E94480D76
:103C700081E080931C032091030130910401309373
:103C80001B0320931A03209101013091020130930C
:103C9000190320931803209151023091520230935E
:103CA00017032093160320914F0230915002309356
:103CB00015032093140380931D030E947D10603D23
:103CC00077408105910508F429C180912603882356
:103CD00009F424C120911A0330911B038091180329
:103CE000909119034FE0D42ED29EF001D39EF00D97
:103CF0001124E80FF91FEE0FFF1FEB5FFE4F7182DB
:103D0000608221503109D29EF001D39EF00D112422
:103D1000E80FF91FEE0FFF1FEB5FFE4F80819181CF
:103D2000019761F1409116035091170344515109D5
:103D30006091140370911503E0EEEE2EFF24FA94C7
:103D400004E110E024E130E081EF94E00E94480DAE
:103D500080911A0390911B030197D89EF001D99E80
:103D6000F00D11248091180390911903E80FF91FA9
:103D7000EE0FFF1FEB5FFE4F7182608280911A038E
:103D800090911B032FE0D22ED89EF001D99EF00D0A
:103D900011248091180390911903E80FF91FEE0F79
:103DA000FF1FE95FFE4F80819181019759F140919A
:103DB00016035091170360911403709115036C5E04
:103DC0007F4F00EEE02EFF24FA9404E110E024E19E
:103DD00030E081EF94E00E94480D80911A039091A9
:103DE0001B03D89EF001D99EF00D11248091180379
:103DF00090911903E80FF91FEE0FFF1FE95FFE4FC7
:103E00007182608280911A0390911B030196BFE03A
:103E1000DB2ED89EF001D99EF00D1124809118035D
:103E200090911903E80FF91FEE0FFF1FEB5FFE4F94
:103E300080819181019761F14091160350911703A0
:103E40004C5E5F4F6091140370911503E0EEEE2E0F
:103E5000FF24FA9404E110E024E130E081EF94E0E3
:103E60000E94480D80911A0390911B030196D89EE1
:103E7000F001D99EF00D112480911803909119033F
:103E8000E80FF91FEE0FFF1FEB5FFE4F718260829C
:103E900080911A0390911B032FE0D22ED89EF0013F
:103EA000D99EF00D11248091180390911903E80F09
:103EB000F91FEE0FFF1FED5FFE4F8081918101978B
:103EC00059F14091160350911703609114037091BA
:103ED00015036451710900EEE02EFF24FA9404E109
:103EE00010E024E130E081EF94E00E94480D8091E1
:103EF0001A0390911B03D89EF001D99EF00D112456
:103F00008091180390911903E80FF91FEE0FFF1F1E
:103F1000ED5FFE4F7182608210921C0380912D0232
:103F200090912E028430910531F41092000190930B
:103F30003203809331030E947D106C3D75408105F2
:103F4000910508F42BC880911C03811127C8A12C6E
:103F5000B12C24E1A20EB11C1AE0812E912CC12CAF
:103F6000D12CEF81F885EC0DFD1D808191810397A7
:103F7000029770F411821082E12CF12C04E110E020
:103F800024E130E0A501B40181EF94E00E94480DE6
:103F900022E0C20ED11C84E1880E911C9EE1C9165C
:103FA000D104F9F6EF81F8857E96F887EF83FCED72
:103FB000AF16B10471F610921D030C94CE1781EF69
:103FC000A816B10410F00C94CE1791E4C91691E034
:103FD000D90610F00C94CE171092300310922F03D4
:103FE00010923203109231030C94CE1760E078EFF8
:103FF00081EF94E00E941A04B0EEEB2EFF24FA94B5
:1040000000E210E02CE430E046EB50E06CE070E0C1
:1040100081EF94E00E94480D64E073E0C1010E94CA
:104020003E15910141E050E063EC70E088E290E0E1
:104030000E94240CC1010E943915EDE2AE1AB108AC
:10404000FAE1AF16B10410F00C94CE172FE0C21AAB
:10405000D1088EE2C816D10408F49CC80C94CE177F
:1040600098E7C91AD108EDE3CE16D10410F00C94EC
:10407000CE176CEE72E08EEF93E00E948A156DEB26
:1040800072E08EEF93E00E948A1582E090E09093B8
:104090003203809331031092300310922F030C945B
:1040A000CE17EEEFF3E01382128288EE93E0A0E0E9
:1040B000B0E084839583A683B7832EE532E0318315
:1040C000208325EC30E03587248724EC30E03787E7
:1040D000268720EC30E0318B208B21EC30E0338BD5
:1040E000228B22EC30E0358B248B26EC30E0378BB2
:1040F000268B118E128E138E148EEBE9F4E016824D
:1041000017821086118612861386148615861686E7
:104110001786108A118A128A138A148A158AE3EE86
:10412000F4E01382128284839583A683B78380E7A9
:1041300092E091838083EFEEF4E080E5808311824A
:10414000ECE2F5E088E080838FEF838382838183D4
:10415000A1EFB4E013961C921E92129740EF50E02C
:1041600015965C934E93149720E431E017963C9398
:104170002E93169719965C934E9318971B963C9323
:104180002E931A9755961C9255971D961C921E9227
:104190001C971F961C921E921E9791E054969C931A
:1041A00054972FEF3FEF53963C932E93529751968F
:1041B0003C932E93509756969C93569757961C92E5
:1041C000579759961C921E925897D5961C92D59740
:1041D000D6961C92D697D8961C921E92D797DA96AE
:1041E0001C921E92D9979AE090969C93909799E092
:1041F00091969C93919792968C93929724E335E0B5
:104200005B963C932E935A9793968C9393979496A0
:104210008C93949795968C9395975C961D921D928E
:104220001D921C925F979B961C921E929A97D29613
:104230001C92D29797961C921E929697D0961C929B
:10424000D09799961C921E929897D1961C92D197CE
:10425000E6E2F6E0E491F0E0EE0FFF1FED5EF94FCD
:10426000859194919D969C938E939C97E8E0F6E0BF
:10427000E491D496EC93D497E7E2F6E0E491F0E091
:10428000EE0FFF1FED5EF94F859194919F969C93E1
:104290008E939E97E9E0F6E0E491D396EC93D39762
:1042A00082E892E08D939C930895A1E21A2EAA1BB6
:1042B000BB1BFD010DC0AA1FBB1FEE1FFF1FA217D6
:1042C000B307E407F50720F0A21BB30BE40BF50BD3
:1042D000661F771F881F991F1A9469F7609570955C
:1042E000809590959B01AC01BD01CF010895052EED
:1042F00097FB1EF400940E948E2157FD07D00E9468
:10430000552107FC03D04EF40C948E215095409516
:10431000309521953F4F4F4F5F4F08959095809571
:10432000709561957F4F8F4F9F4F08950E94E021B8
:10433000A59F900DB49F900DA49F800D911D1124F9
:104340000895B7FF0C9496210E949621821B930B2F
:1043500008952F923F924F925F926F927F928F9229
:104360009F92AF92BF92CF92DF92EF92FF920F9304
:104370001F93CF93DF93CDB7DEB7CA1BDB0B0FB60E
:10438000F894DEBF0FBECDBF09942A8839884888CB
:104390005F846E847D848C849B84AA84B984C88461
:1043A000DF80EE80FD800C811B81AA81B981CE0F58
:1043B000D11D0FB6F894DEBF0FBECDBFED0108953D
:1043C000A29FB001B39FC001A39F700D811D112456
:1043D000911DB29F700D811D1124911D08950E94A1
:1043E000E021332312F48A1B9B0B0C94F9210E94C9
:1043F000E021B7FF0895821B930B0895EE0FFF1F76
:104400000590F491E02D0994CF93DF9382309105CC
:1044100010F482E090E0E0913705F091380520E05B
:1044200030E0C0E0D0E0309711F140815181481771
:104430005907C0F04817590761F48281938120978A
:1044400019F09B838A832BC090933805809337059E
:1044500026C02115310519F04217530718F49A01A7
:10446000BE01DF01EF010280F381E02DDCCF2115D9
:10447000310509F1281B390B2430310590F41296CF
:104480008D919C9113976115710521F0FB01938328
:10449000828304C09093380580933705FD013296DE
:1044A00044C0FD01E20FF31F819391932250310923
:1044B0002D933C933AC02091350530913605232B3E
:1044C00041F42091560230915702309336052093E3
:1044D000350520915402309155022115310541F4E2
:1044E0002DB73EB74091580250915902241B350B0D
:1044F000E0913505F0913605E217F307A0F42E1B85
:104500003F0B2817390778F0AC014E5F5F4F241737
:10451000350748F04E0F5F1F509336054093350521
:104520008193919302C0E0E0F0E0CF01DF91CF9161
:1045300008950F931F93CF93DF93009709F48CC0D6
:10454000FC013297138212820091370510913805D1
:104550000115110581F420813181820F931F209173
:104560003505309136052817390779F5F09336056A
:10457000E093350571C0D80140E050E0AE17BF07A9
:1045800050F412962D913C911397AD0121153105F0
:1045900009F1D901F3CF9D01DA01338322836081D0
:1045A0007181860F971F8217930769F4EC012881A8
:1045B0003981260F371F2E5F3F4F318320838A8139
:1045C0009B8193838283452B29F4F0933805E093F4
:1045D000370542C01396FC93EE931297ED01499173
:1045E00059919E01240F351FE217F30771F4808162
:1045F0009181840F951F029611969C938E938281D0
:10460000938113969C938E931297E0E0F0E0D8018B
:1046100012968D919C911397009719F0F8018C01D7
:10462000F6CF8D919C9198012E5F3F4F820F931F83
:1046300020913505309136052817390769F43097F0
:1046400029F4109238051092370502C013821282A5
:104650001093360500933505DF91CF911F910F918F
:104660000895A0E0B0E0E7E3F3E20C94AD21EC01A3
:10467000009721F4CB010E940422B8C0FC01E60F90
:10468000F71F9C0122503109E217F30708F4ACC070
:10469000D9010D911C91119706171707B0F005303D
:1046A000110508F49FC0C80104978617970708F4FE
:1046B00099C002501109061B170B019311936D93BA
:1046C0007C93CF010E9499228DC05B01A01AB10A90
:1046D0004C01800E911EA0913705B091380540E045
:1046E00050E0E12CF12C109709F44AC0A815B90547
:1046F000D1F56D907C901197630182E0C80ED11CBA
:10470000CA14DB0480F1A3014A195B096A0182E043
:10471000C80ED11C1296BC9012971396AC91B5E0BE
:10472000CB16D10440F0B282A38351834083D901D8
:104730006D937C930AC00E5F1F4FC301800F911FC2
:10474000F90191838083EB2DFA2FE114F10431F00C
:10475000D7011396FC93EE93129744C0F09338055B
:10476000E09337053FC08D919C91119748175907E9
:1047700008F4AC017D0112960D90BC91A02DB3CF31
:10478000809135059091360588159905E1F4461715
:104790005707C8F48091540290915502009741F454
:1047A0008DB79EB74091580250915902841B950BCA
:1047B000E817F907C8F4F0933605E0933505F901D9
:1047C000718360830FC0CB010E9404227C0100979B
:1047D00059F0A801BE010E940024CE010E94992236
:1047E000C70104C0CE0102C080E090E0CDB7DEB7C3
:1047F000EEE00C94C92181E090E0F8940C94102430
:10480000FB01DC0102C001900D9241505040D8F7ED
:104810000895FB01DC0101900D920020E1F708955D
:04482000F894FFCF3A
:10482400010100010001000100010001000100017B
:10483400000100010001000100010001000100016C
:10484400000100010000000000020000000200005E
:10485400000200000002000000020000000000014D
:104864000001000000010000000100000001000040
:10487400000100000001000000010000000100012F
:10488400000200000002000000020000000200001C
:10489400000200000002000000020001000100000C
:1048A4000001000000010000000100000001000000
:1048B40000010000000100000001000100020000EE
:1048C40000020000000200000002000000020000DC
:1048D40000020000000200010001000000010000CD
:1048E40000010000000100000001000000010000C0
:1048F40000010000000100010002000000020000AD
:10490400000200000002000000020000000200009B
:10491400000200010001000000010000000100008D
:10492400000100000001000000010000000100007F
:10493400000100010000000000020000000200006D
:10494400000200000002000000020000000000015C
:10495400000100010001000100010001000100014B
:104964000001000100010001000100010001001E1E
:104974000028000100003905800000000000B00C90
:104984001913480CF70C790C570C6B0C0000000041
:104994007A064A06AA061E0642062E061F060000CE
:1049A4000000800E1913AA06A906F611480E461235
:1049B4000F11100EFD0D42053C0E8407AD06C20D0D
:1049C400870D480D1A04A30344031C0AD306564D4D
:1049D4004450565F317C315F564D4450560D0A00A9
:1049E4005374617274204C6F626279004A6F696E0D
:1049F400204C6F6262790020204E45585420535455
:104A0400415445203D2053746172740020204E456A
:104A14005854205354415445203D204A6F696E0038
:104A2400474F21004261636B00737461727400002C
:00000001FF
