:100000000C941A030C9472160C9442030C94420341
:100010000C9442030C9442030C9442030C9442034C
:100020000C94DF160C9442030C9442030C9442038C
:100030000C9442030C9442030C9442030C9442032C
:100040000C9428160C9442030C941B150C94F51474
:100050000C9442030C9442030C9442030C9442030C
:100060000C94E10B0C944203EF03038002CF0300D6
:10007000C130ED0464031281E803850078CB0539B3
:100080002C003402F70120EA020000C00123C10164
:1000900010C5023E28C701863601483701003A01E3
:1000A00055B1020018B603088227F20100260101AB
:1000B000E00F0F312B0C0E084EF1370710030E091D
:1000C00000E10F000E1403110731C148080F0C3175
:1000D000360F118029800000000000003E5B4F5B5E
:1000E0003E3E6B4F6B3E1C3E7C3E1C183C7E3C18DB
:1000F0001C577D571C1C5E7F5E1C00183C1800FFBF
:10010000E7C3E7FF0018241800FFE7DBE7FF3048EC
:100110003A060E2629792926407F050507407F05E6
:10012000253F5A3CE73C5A7F3E1C1C08081C1C3EDD
:100130007F14227F22145F5F005F5F06097F017FCB
:10014000006689956A606060606094A2FFA294086E
:10015000047E040810207E201008082A1C08081CB1
:100160002A08081E101010100C1E0C1E0C30383EF1
:100170003830060E3E0E06000000000000005F0052
:10018000000007000700147F147F14242A7F2A121E
:100190002313086462364956205000080703000004
:1001A0001C2241000041221C002A1C7F1C2A080836
:1001B0003E08080080703000080808080800006049
:1001C000600020100804023E5149453E00427F4035
:1001D0000072494949462141494D331814127F1094
:1001E00027454545393C4A494931412111090736DE
:1001F00049494936464949291E000014000000407B
:100200003400000008142241141414141400412274
:10021000140802015909063E415D594E7C12111223
:100220007C7F494949363E414141227F4141413E1F
:100230007F494949417F090909013E414151737F85
:100240000808087F00417F41002040413F017F08AE
:100250001422417F404040407F021C027F7F0408FF
:10026000107F3E4141413E7F090909063E4151212F
:100270005E7F09192946264949493203017F010356
:100280003F4040403F1F2040201F3F4038403F63D9
:100290001408146303047804036159494D43007F33
:1002A0004141410204081020004141417F04020104
:1002B00002044040404040000307080020545478A6
:1002C000407F284444383844444428384444287FF4
:1002D000385454541800087E090218A4A49C787F4E
:1002E0000804047800447D40002040403D007F1019
:1002F00028440000417F40007C047804787C080496
:1003000004783844444438FC182424181824241849
:10031000FC7C08040408485454542404043F442436
:100320003C4040207C1C2040201C3C4030403C4451
:10033000281028444C9090907C4464544C4400080D
:10034000364100000077000000413608000201023B
:1003500004023C2623263C1EA1A161123A40402003
:100360007A3854545559215555794122545478427C
:10037000215554784020545579400C1E5272123940
:1003800055555559395454545939555454580000F9
:10039000457C410002457D420001457C407D1211B3
:1003A000127DF0282528F07C545545002054547CBB
:1003B000547C0A097F4932494949323A4444443A13
:1003C000324A4848303A4141217A3A424020780046
:1003D0009DA0A07D3D4242423D3D4040403D3C24E9
:1003E000FF2424487E4943662B2FFC2F2BFF09292D
:1003F000F620C0887E090320545479410000447DD2
:10040000413048484A32384040227A007A0A0A721B
:100410007D0D19317D2629292F28262929292630C5
:10042000484D4020380808080808080808382F10E8
:10043000C8ACBA2F102834FA00007B000008142A38
:10044000142222142A14085500550055AA55AA55FD
:10045000AAFF55FF55FF000000FF00101010FF001D
:10046000141414FF001010FF00FF1010F010F0140F
:100470001414FC001414F700FF0000FF00FF141414
:10048000F404FC141417101F10101F101F14141460
:100490001F00101010F0000000001F101010101F9F
:1004A00010101010F010000000FF101010101010AD
:1004B000101010FF10000000FF140000FF00FF00EC
:1004C000001F10170000FC04F41414171017141464
:1004D000F404F40000FF00F714141414141414F7B7
:1004E00000F7141414171410101F101F141414F410
:1004F000141010F010F000001F101F0000001F1457
:10050000000000FC140000F010F01010FF10FF14A9
:100510001414FF141010101F00000000F010FFFF53
:10052000FFFFFFF0F0F0F0F0FFFFFF000000000021
:10053000FFFF0F0F0F0F0F3844443844FC4A4A4A5C
:10054000347E02020606027E027E02635549416342
:100550003844443C04407E201E2006027E0202995C
:10056000A5E7A5991C2A492A1C4C7201724C304AF5
:100570004D4D303048784830BC625A463D3E49497E
:1005800049007E0101017E2A2A2A2A2A44445F4426
:100590004440514A444040444A51400000FF010356
:1005A000E080FF000008086B6B0836123624360620
:1005B0000F090F060000181800000010100030404E
:1005C000FF0101001F01011E00191D1712003C3C14
:1005D0003C3C000000000000000000230026002931
:1005E00000000000080002010000030407000000F2
:1005F00000000000000102040810204080010204F5
:100600000810200102040810200000000025002826
:10061000002B000404040404040404020202020285
:100620000203030303030300000000240027002A41
:100630000000882411241FBECFEFD8E0DEBFCDBF5D
:1006400013E0A0E0B1E0E6E9F0E502C005900D920C
:10065000AC30B107D9F725E0ACE0B3E001C01D92A2
:10066000A13EB207E1F713E0CAE1D3E004C021974D
:10067000FE010E943726C931D107C9F70E94A4198B
:100680000C9449280C9400000895FC016370658B5C
:100690008481958126813781613039F0633029F07A
:1006A00091878087338722870895318720879387B2
:1006B000828708952F923F924F925F926F927F921E
:1006C0008F929F92AF92BF92CF92DF92EF92FF9262
:1006D0000F931F93CF93DF93CDB7DEB76C970FB611
:1006E000F894DEBF0FBECDBF9C8F8B8F5B011A01CC
:1006F0001F830E833701C982DC0158964D915C91AE
:1007000059974115510509F0E5C018968D919C91B6
:100710001997681779070CF0CAC11A968D919C91A8
:100720001B97281639060CF0C2C18C2C912CFB01AA
:1007300036E0C39EE00DF11D1124FB87EA871E16EB
:100740001F060CF0B4C1C40133E0880F991F3A951D
:10075000E1F79D878C87820D931D181619060CF002
:10076000A6C157968C91811103C0203B08F02F5FE2
:10077000AB8DBC8DED91FC9111970284F385E02D3A
:10078000CD012A8F09952A8DB5E02B9F9001112468
:10079000F5013596FF87EE87BB82AA822501A90164
:1007A0004A195B09598B488BC10108969B8B8A8B30
:1007B000E889F989E40DF51DE952FF4F9491988776
:1007C00061013D822C82A885A0FF13C0AB8DBC8D3A
:1007D000ED91FC91B981B13031F40484F585E02DBF
:1007E0002E813F8116C00684F785E02DEE80FF80C4
:1007F0001AC0EE81FF816E167F06F1F0AB8DBC8DC5
:10080000ED91FC91B981B13051F40484F585E02D6E
:100810009301A601B2018B8D9C8D09950DC00684B4
:10082000F785E02D7301840194014C815D816A811B
:100830007B818B8D9C8D0995E885E695E887FFEF98
:10084000CF1ADF0A2C813D81280D391D3D832C8371
:100850004A895B89C416D50609F0B5CF5FEF451A02
:10086000550A8A819B81880D991D9B838A83AE8559
:10087000BF854A165B0609F09BCFEE81FF816E169D
:100880007F0609F4F2C0EB8DFC8DA081B181F98166
:10089000F13079F4B5016B5F7F4F5096ED91FC918B
:1008A0005197830128E030E0A1018B8D9C8D099543
:1008B000DCC06A857B85681979091E96ED91FC91EB
:1008C0001F9773010C851D859401A1018B8D9C8D53
:1008D0000995CBC0FA013496949132976591749141
:1008E000291BCB01B7E02B9F800D911D1124FA012C
:1008F000259134913B8B2A8BFC01459154915B836C
:100900004A83FC013296C490319654915E873296A8
:1009100014913196D4908981823058F0612E012E45
:10092000000C7708AD2D0D2C000CBB0BB987A887E8
:1009300004C019861886612C712CAB8DBC8DED918D
:10094000FC9111970284F385E02DCD010995B981C1
:100950008B2E912C689CC001699C900D789C900D09
:100960001124FC01EA0DFB1DFD87EC871C82712C14
:10097000612CE12F110FFF0B95012E0F3F1F3B87BD
:100980002A87AC0CB11CA5014E0F5F1F5F8B4E8BED
:10099000C1018D0D911DD7FC9A95998F888F4E8539
:1009A000641608F062C0862D90E048855985480F8E
:1009B000591F489D9001499D300D589D300D1124BF
:1009C000D901A20DB31DB98BA88BAA84BB844C841A
:1009D0005D84DC80BA85DB1AE88DF98DE80FF91F9C
:1009E000FD8BEC8B8D2D8A0D2E893F89A216B306C7
:1009F000B9F1877061F48A819B810196EA89FB894C
:100A0000AA81BB81EA0FFB1F74909B838A8377FEC8
:100A100020C0AB8DBC8DED91FC91B981B13061F4FA
:100A20000484F585E02D2E813F814C895D89B501D7
:100A30008B8D9C8D09950DC00684F785E02DEE8089
:100A4000FF808401940148895989B2018B8D9C8D66
:100A50000995770CEFEFAE1ABE0A480C591CC2CFAD
:100A60003C813C0D3C8363949ACFAB8DBC8DED9162
:100A7000FC9111970688F789E02DCD016C960FB691
:100A8000F894DEBF0FBECDBFDF91CF911F910F91C4
:100A9000FF90EF90DF90CF90BF90AF909F908F909E
:100AA0007F906F905F904F903F902F9009946C963D
:100AB0000FB6F894DEBF0FBECDBFDF91CF911F916F
:100AC0000F91FF90EF90DF90CF90BF90AF909F90ED
:100AD0008F907F906F905F904F903F902F900895F0
:100AE000AF92BF92CF92EF92FF920F931F93CF934B
:100AF000DF93EC01262F888D998D009709F040C077
:100B00006A3059F41D861C862C898E859F8538E0B5
:100B1000239F800D911D112441C06D3009F4AAC09E
:100B20008E898823C1F03C898C859D8546E0349F61
:100B3000800D911D112448855985481759075CF48B
:100B40001D861C868E859F8548E0349F800D911DF3
:100B500011249F878E87EA88FB88088919894E852A
:100B60005F856C857D85CC88CE010E945A032C89D7
:100B70008C859D8536E0239F800D911D112442C0F8
:100B80006A3079F41D861C862C89FC013696E49126
:100B90008E859F852E9F800D911D11249F878E87A6
:100BA00069C06D3009F466C0FC0134963491631756
:100BB00008F460C03196E491E61708F45BC0FC01CC
:100BC0003296A590B490462F50E0431B510937E070
:100BD000349FB001359F700D1124A60EB71EF5018C
:100BE000329634913196E491332311F0E1110DC026
:100BF000F5013496E4912C898C859D85E29F800DCA
:100C0000911D11249D878C8735C0F501359644913F
:100C10005E89552311F16C89E32FF0E0E40FF11D9B
:100C200047FDFA956E9FD0016F9FB00D11244C8542
:100C30005D854A0F5B1FE885F985E417F5076CF4BD
:100C40001D861C86FC013696E4918E859F856E9FDD
:100C5000800D911D11249F878E87EA88FB88088963
:100C600019894E855F856C857D85CC88CE010E9473
:100C70005A03BECF81E090E0DF91CF911F910F9199
:100C8000FF90EF90CF90BF90AF9008956F927F92BA
:100C90008F929F92AF92BF92CF92DF92EF92FF928C
:100CA0000F931F93CF93DF93EC014B015A0169011E
:100CB0003801E881F9810284F385E02D0995E88106
:100CC000F9810288F389E02D87019601A501B4011D
:100CD000CE010995E881F981A501460D571D4150C6
:100CE00051090288F389E02D9601B401CE010995DE
:100CF000E881F9810088F189E02D9301A501B40113
:100D0000CE010995E881F981C80CD91CB601615062
:100D100071090088F189E02D9301A501CE010995A3
:100D2000E881F9810688F789E02DCE01DF91CF9126
:100D30001F910F91FF90EF90DF90CF90BF90AF90F9
:100D40009F908F907F906F900994CF92DF92EF9257
:100D5000FF920F931F93CF93DF9300D000D000D06A
:100D6000CDB7DEB76C01DC01ED91FC916217730722
:100D700089F4041715072CF4942F852FA801092F47
:100D8000182F041B150B98012F5F3F4F048CF58D16
:100D9000E02D12C04017510709F5261737072CF42C
:100DA000962F872FB901292F382F261B370B2F5F3E
:100DB0003F4F068CF78DE02D8701C60109952696D9
:100DC0000FB6F894DEBF0FBECDBFDF91CF911F915C
:100DD0000F91FF90EF90DF90CF9008950284F385FC
:100DE000E02D2D833E834B835C8369837A83099551
:100DF000D601ED91FC910488F589E02D2D813E818D
:100E00004B815C8169817A81C6010995D601ED919A
:100E1000FC910688F789E02DC60126960FB6F89456
:100E2000DEBF0FBECDBFDF91CF911F910F91FF901D
:100E3000EF90DF90CF900994EF92FF920F931F9362
:100E4000DC01ED91FC9111971A960D911C911B9765
:100E500018962D913C91199700A0F1A1E02D7B01EE
:100E600040E050E060E070E009951F910F91FF9025
:100E7000EF9008954F925F926F927F928F929F9220
:100E8000AF92BF92CF92DF92EF92FF920F931F9398
:100E9000CF93DF9300D0CDB7DEB76C015A01390193
:100EA0004801DC01ED91FC910284F385E02D69831A
:100EB0007A8309956981462E7A81572E640C751CB8
:100EC000D601ED91FC91461457046CF40088F18929
:100ED000E02D87019401A501B201C6010995BFEF7C
:100EE0004B1A5B0AEDCF0688F789E02DC6010F90FB
:100EF0000F90DF91CF911F910F91FF90EF90DF90B6
:100F0000CF90BF90AF909F908F907F906F905F90A9
:100F10004F900994AF92BF92CF92DF92EF92FF92DF
:100F20000F931F93CF93DF9300D000D0CDB7DEB7E0
:100F30005C016901DC01ED91FC910284F385E02DF7
:100F40004B835C8369837A830995D501ED91FC918C
:100F500069817A819B012C0D3D1D21503109048846
:100F6000F589E02D78014B815C818A01C5010995E5
:100F7000D501ED91FC910688F789E02DC5010F9010
:100F80000F900F900F90DF91CF911F910F91FF90D5
:100F9000EF90DF90CF90BF90AF900994AF92BF9247
:100FA000CF92DF92EF92FF920F931F93CF93DF9335
:100FB00000D000D0CDB7DEB75C016901DC01ED9156
:100FC000FC910284F385E02D4B835C8369837A83F3
:100FD0000995D501ED91FC914B815C81C40ED51E24
:100FE000B1E0CB1AD1080488F589E02D780186019B
:100FF00069817A819B01C5010995D501ED91FC912B
:101000000688F789E02DC5010F900F900F900F9083
:10101000DF91CF911F910F91FF90EF90DF90CF90D4
:10102000BF90AF9009940895EF92FF920F931F9392
:10103000DC01ED91FC9100A0F1A1E02D09951F913B
:101040000F91FF90EF9008950F931F93DC01ED91A6
:10105000FC91068CF78DE02D09951F910F91089555
:101060000F931F93DC01ED91FC91048CF58DE02D25
:1010700009951F910F910895DC01ED91FC91008479
:10108000F185E02D099408952F923F924F925F923F
:101090006F927F928F929F92AF92BF92CF92DF9288
:1010A000EF92FF920F931F93CF93DF9300D01F9285
:1010B000CDB7DEB74C017B836A836A015901170102
:1010C0009801241B350B37FF03C031952195310959
:1010D000C5014A815B81841B950B97FF03C09195E5
:1010E0008195910951E059838217930714F0198271
:1010F0000BC09A2D8B2D5801092F182F9A818B81A7
:10110000DB82CA82C92ED82E8A819B81A816B90695
:101110005CF49C2D8D2D6801092F182F9A818B81ED
:10112000BB82AA82A92EB82E2501AA81BB814A1AA8
:101130005B0A38016C187D0877FE03C071946194D6
:101140007108720157FE03C0BFEFEB1AFB0AF5945A
:10115000E794C016D1061CF00FEF1FEF1FC001E08F
:1011600010E01CC0D401ED91FC91B9810484F58597
:10117000E02D9101BB23C1F04A815B81B601C4011E
:101180000995E618F708F7FE04C0C00ED11EE40C5E
:10119000F51CEA81FB813196FB83EA834A815B81FE
:1011A000A416B506FCF604C0A6016A817B81E7CFD0
:1011B0000F900F900F90DF91CF911F910F91FF90A3
:1011C000EF90DF90CF90BF90AF909F908F907F90E7
:1011D0006F905F904F903F902F90089585ED809392
:1011E000BC008091BC0084FDFCCF1092A90408953E
:1011F00040915103262F30E0240F311D213231055B
:10120000DCF42091A9042430C9F4FC0180E090E0D2
:10121000861758F4309151032191DC01A15DBC4F38
:10122000A30FB11D2C930196F3CF80915103680F4A
:101230006093510380E0089581E0089582E008956D
:101240000895E091540480915304E81730F4F0E0DD
:10125000EB5AFB4F808190E008958FEF9FEF089548
:101260009091540480915304981750F4E92FF0E0C2
:10127000EB5AFB4F208130E09F5F9093540402C0F3
:101280002FEF3FEFC90108958091530490E0209122
:101290005404821B91090895CF92DF92EF92FF923E
:1012A0000F931F93CF93DF937C01262F972F8A01F3
:1012B0008091AA04882391F0C62FD72F6E01C40E07
:1012C000D51ECC15DD0571F06991D701ED91FC912A
:1012D0000190F081E02DC7010995F3CF642F822F93
:1012E0000E94F808C801DF91CF911F910F91FF90E4
:1012F000EF90DF90CF900895CF93DF931F92CDB7FB
:10130000DEB769832091AA042223D1F02091CC0476
:10131000203240F021E030E0FC013383228380E082
:1013200090E015C08091AB04E82FF0E0E455FB4F4E
:10133000998190838F5F8093AB048093CC0405C028
:1013400061E0CE0101960E94F80881E090E00F90E4
:10135000DF91CF910895089580E090E008958F92F5
:101360009F92AF92BF92CF92DF92EF92FF920F9334
:101370001F93CF93DF93EC01490181E0881A910814
:10138000860E971EC401A0E0B0E04B01A12CB12C49
:10139000540199248824882A992AAA2ABB2A6801F8
:1013A00081E0C81AD108C40ED51EC601A0E0B0E085
:1013B0006A01E12CF12C7601DD24CC24C82AD92A3B
:1013C000EA2AFB2A6AE2CE010E94FD172BA16B2DAF
:1013D00077278827992727FF18C06EBD0DB407FE11
:1013E000FDCFC501AA27BB278EBD0DB407FEFDCFDB
:1013F000BB27AB2D9A2D892D8EBD0DB407FEFDCFD9
:101400008EBC0DB407FEFDCF14C0CE010E94401764
:10141000B50188279927CE010E94401799278B2D67
:101420007A2D692DCE010E944017682DCE010E94B1
:1014300040176BE2CE010E94FD172BA16F2D77277D
:101440008827992727FF18C06EBD0DB407FEFDCF72
:10145000C701AA27BB278EBD0DB407FEFDCFBB2752
:10146000AF2D9E2D8D2D8EBD0DB407FEFDCFCEBCB4
:101470000DB407FEFDCF14C0CE010E944017B70186
:1014800088279927CE010E94401799278F2D7E2DFE
:101490006D2DCE010E9440176C2DCE010E94401789
:1014A0006CE2CE01DF91CF911F910F91FF90EF90F1
:1014B000DF90CF90BF90AF909F908F900C94FD17CE
:1014C0000F931F93CF93DF931F92CDB7DEB78C019D
:1014D000DC01ED91FC910284F385E02D698309958F
:1014E0006981611102C060E201C061E2C8010E942D
:1014F000FD17D801ED91FC910688F789E02DC80110
:101500000F90DF91CF911F910F9109941F93CF936B
:10151000DF93EC0163706D8B6230C1F0633001F1D9
:10152000613051F080EF90E09987888780E491E006
:101530009B878A8718E41DC080E491E0998788879B
:1015400080EF90E09B878A8718E213C080EF90E0DD
:101550009987888780E491E09B878A8718E809C08B
:1015600080E491E09987888780EF90E09B878A8765
:1015700018EEE881F9810284F385E02DCE0109950A
:1015800066E3CE010E94FD17612FCE010E94401735
:10159000E881F9810688F789E02DCE01DF91CF91AE
:1015A0001F9109941F93CF93DF93262FFC0133A142
:1015B00037FF09C07EBD0DB407FEFDCF2EBD0DB4B3
:1015C00007FEFDCF0CC0672F122FEC010E944017C1
:1015D000612FCE01DF91CF911F910C944017DF91C5
:1015E000CF911F910895CF93CFB7F8948091760350
:1015F000811127C0EDE1F6E08491EFEFF5E09491E1
:10160000E82FF0E0EE0FFF1FE95DF94FA591B491CF
:10161000EC91E92321F461E08AE00E94761561E013
:101620008AE00E94A6158CB580618CBD8CB5806463
:101630008CBD61E08DE00E94A61561E08BE00E9408
:10164000A615809176038F5F80937603CFBFCF91ED
:101650000895BF92CF92DF92EF92FF920F931F9364
:10166000CF93DF93EC01411551056105710521F41C
:1016700040E052E16AE770E04C8F5D8F6E8F7F8FA4
:1016800088A187FD07C061E00E94A61561E088A1DE
:101690000E94761561E089A10E94A61560E089A1EB
:1016A0000E9476158BA187FD16C061E08CA10E9477
:1016B000A61560E08CA10E94761561E08BA10E94C6
:1016C000A61561E08BA10E9476158DA187FD03C050
:1016D00060E00E94A6158BA187FD0E94F30A8AA1F3
:1016E00087FD21C061E00E94A61561E08AA10E94E9
:1016F000761564E670E080E090E00E94E21560E01C
:101700008AA10E94761564E670E080E090E00E9475
:10171000E21561E08AA10E94761568EC70E080E035
:1017200090E00E94E215E881F9810284F385E02DC2
:10173000CE01099508E610E07801EFEFEE1AFE0AF7
:10174000F8016491662321F1CE010E94FD170E5F1E
:101750001F4FF701E490FE2DFF77BF2E6801FF2E8B
:10176000FA948FEFF81649F0F6016491CE010E94C9
:101770004017FFEFCF1ADF0AF3CF0B0D111DE7FE65
:10178000DBCF68E770E080E090E00E94E215D4CF04
:10179000E881F9810688F789E02DCE01099580EF6F
:1017A00090E09987888780E491E09B878A87DF9122
:1017B000CF911F910F91FF90EF90DF90CF90BF904E
:1017C00008951F920F920FB60F9211242F933F93FB
:1017D0004F935F936F937F938F939F93AF93BF9339
:1017E000EF93FF938091B900887F803609F49CC005
:1017F00068F5883209F45BC090F4803109F454C074
:1018000038F4882309F4F6C0883009F44DC0F6C0D6
:10181000883109F44CC0803209F45DC0EFC08034D7
:1018200009F468C048F4803309F455C0883309F0DE
:10183000E5C08093A704D8C0803509F44FC088352F
:1018400009F45DC0883409F0D9C0D6C0883909F4DC
:10185000C7C0A8F4883709F467C038F4883609F49B
:1018600063C0803709F460C0C9C0883809F4B8C0C3
:10187000803909F45FC0803809F0C0C05BC0803B8C
:1018800009F486C038F4803A09F466C0883A09F44D
:101890007FC0B4C0803C09F4A7C0883C09F4A4C050
:1018A000883B09F48AC0AAC08091840410C090913A
:1018B000A6048091A504981770F5E091A60481E034
:1018C0008E0F8093A604F0E0EB57FB4F808180934E
:1018D000BB0085EC86C08093A7048EC0E091A6046F
:1018E00081E08E0F8093A6048091BB00F0E0EB575F
:1018F000FB4F80839091A6048091A5046EC0E09177
:10190000A60481E08E0F8093A6048091BB00F0E0D6
:10191000EB57FB4F80838091A80481116DC081E05B
:101920008093830484EA61C083E08093A9041092C9
:101930007503CFCF80917503803208F051C0E091DC
:10194000750381E08E0F809375038091BB00F0E0FA
:10195000EB5AFC4F8083BDCF85EC8093BC00109286
:10196000A90480917503803230F4E0917503F0E0B2
:10197000EB5AFC4F10826091750370E0E0915303C5
:10198000F091540385E593E009951092750336C0F4
:1019900084E08093A9041092520310925103E091C5
:1019A0004F03F0915003099580915103811105C0B7
:1019B00081E08093510310922F03E091520381E064
:1019C0008E0F80935203F0E0E15DFC4F80818093A5
:1019D000BB009091520380915103981708F479CF7E
:1019E00085E88093BC000AC085EC8093BC0010920F
:1019F000A90404C01092A7040E94EE08FF91EF9181
:101A0000BF91AF919F918F917F916F915F914F9116
:101A10003F912F910F900FBE0F901F90189510922D
:101A2000A90481E08093A8041092830461E082E11C
:101A30000E94761561E083E10E947615E9EBF0E003
:101A400080818E7F808380818D7F808388E48093F6
:101A5000B80085E48093BC00089508958CBD9DBDB9
:101A6000089590938E0580938D05709390056093F3
:101A70008F05109294051092930510929205109282
:101A80009105411101C041E040939505F901448160
:101A900055816081718181E895E00E94891868EE26
:101AA00072E081E895E00C948F192091CC0490911C
:101AB000C705213208F04AC08091A9048111FCCFEA
:101AC00032E03093A90431E03093A8043FEF309323
:101AD000A7041092A6042093A504ACEAB4E045E85C
:101AE00054E0FA013E2F341B321718F43D91319324
:101AF000F9CF1092840420918404990F922B909333
:101B0000840490918304913061F410928304909145
:101B100084049093BB009091BC0093FDF8CF95ECAA
:101B200001C095EE9093BC009091A9049230E1F32E
:101B30009091A7049F3F79F08091A704803241F0F3
:101B40008091A704803331F084E005C081E003C0B8
:101B500082E001C083E01092AB041092CC0410929A
:101B6000AA0408959091A9049111FCCF91E090935B
:101B7000A9049093A8042FEF2093A7041092A60421
:101B8000260F2093A5049093840490918404880FD9
:101B9000892B8093840480918304813061F41092B6
:101BA0008304809184048093BB008091BC0083FDFA
:101BB000F8CF85EC01C085EE8093BC008091A9042C
:101BC0008130E1F38091A604861710F46091A60499
:101BD000A5E8B4E025E534E0F9018E2F821B8617D5
:101BE00018F48D918193F9CF862F0895EF92FF928B
:101BF0000F931F93CF93DF93F090BF059FEFF912E0
:101C000007C08EBD00000DB407FEFDCF8EB51DC010
:101C1000E090BD0507E010E0C82FD0E0BE01002E27
:101C200002C0759567950A94E2F7617077278E2D4B
:101C30000E94761561E08F2D0E94761560E08F2D51
:101C40000E9476150150110948F7DF91CF911F913D
:101C50000F91FF90EF900895CF93C82F81E080936C
:101C6000AA0482E58093C7051092AB041092CC04BD
:101C70008AE695E00E947C096C2F8AE695E00E9436
:101C80007C090E94550D6AE070E080E090E0CF9101
:101C90000C94E215EF92FF921F93CF93DF93CDB791
:101CA000DEB72C970FB6F894DEBF0FBECDBF66E04F
:101CB00082E50E94B20D182F1092540480935304B1
:101CC000CE0101967C0180915404181749F08AE6F0
:101CD00095E00E943009F701819391937F01F3CF42
:101CE00089819A8190937604809375048B819C817D
:101CF00090937804809377048B859C859C0135951F
:101D0000279535952795A901437055272D813E814B
:101D1000220F331F220F331F242B352B30937A04CD
:101D2000209379049C0174E0359527957A95E1F725
:101D3000A901437055272F813885220F331F220FA9
:101D4000331F242B352B30937C0420937B049C0180
:101D5000F6E035952795FA95E1F7A90143705527E7
:101D600029853A85220F331F220F331F242B352B51
:101D700030937E0420937D049C0121703327F1E091
:101D80002F273093800420937F0421E030E081FFEF
:101D900002C020E030E0309382042093810460E0B0
:101DA00080E02C960FB6F894DEBF0FBECDBFDF915A
:101DB000CF911F91FF90EF900C942C0E8F929F92D9
:101DC000AF92BF92CF92DF92EF92FF92CF93DF93C9
:101DD000809152048111FCCF20E030E0C12CD12C45
:101DE0007601812C912C54018394A8E7B5E043E05F
:101DF00090E0F901EE0FFF1FE25FFB4FC081D18140
:101E000012966D917C911397C617D70748F4C0813D
:101E1000D1816D917C9111976C177D0708F4492F42
:101E20009F5F1296933051F7442389F0413011F5AA
:101E3000B501A401082E04C0440F551F661F771F6B
:101E40000A94D2F7C42AD52AE62AF72A12C0B50185
:101E5000A401082E04C0440F551F661F771F0A9463
:101E6000D2F74095509560957095C422D522E62210
:101E7000F7228F5F2F5F3F4F2232310509F0B5CF38
:101E80008F2D9927AA27BB27B701A601409550950A
:101E900060957095861309C08093C6058D2D90E0DE
:101EA0009093C5058093C4050CC06BEE72E08DEC79
:101EB00094E00E948F1968EE72E08DEC94E00E942D
:101EC0008F19C701B601DF91CF91FF90EF90DF909E
:101ED000CF90BF90AF909F908F9008958F929F92D8
:101EE000AF92BF92CF92DF92EF92FF920F931F9328
:101EF000CF93DF930E941C164B015C01CFE056E0AC
:101F0000C52ED12CD1E00E941C16DC01CB01881912
:101F10009909AA09BB0984369105A105B10508F004
:101F200029C20E94DE0E69EF72E08DEC94E00E94FF
:101F30008F198091C6058E3109F4ECC030F48A30D7
:101F400089F0843109F47BC006C0883209F44AC1A3
:101F5000823309F4B3C160E073E08DEC94E00E9439
:101F60008F19D1CF67E073E08DEC94E00E948F1958
:101F700080915C0290915D02C89FF001C99FF00DB5
:101F8000112480915A0290915B02E80FF91FEE0F25
:101F9000FF1FE25FFE4F808191819C012B7F232BED
:101FA00019F0079709F0AFCF40910E0150910F0142
:101FB00060910C0170910D01645171092FE1E22EC5
:101FC000F12C04E110E024E130E081E895E00E948A
:101FD000471380915C0290915D02C89FF001C99FF8
:101FE000F00D112480915A0290915B02E80FF91FC5
:101FF000EE0FFF1FE05FFE4F80819181039781F01C
:1020000040910E0150910F0160910C0170910D01F2
:10201000E12CF12C24E130E081E895E00E944713A7
:1020200080910C0190910D01449790930D01809344
:102030000C0180915A0290915B02019766C08091D9
:102040005C0290915D02C89FF001C99FF00D1124C0
:1020500080915A0290915B02E80FF91FEE0FFF1F6B
:10206000EE5EFE4F808191819C012B7F232B19F026
:10207000079709F048CF40910E0150910F016091F0
:102080000C0170910D016C5E7F4F1FE1E12EF12C70
:1020900004E110E024E130E081E895E00E9447137C
:1020A00080915C0290915D02C89FF001C99FF00D84
:1020B000112480915A0290915B02E80FF91FEE0FF4
:1020C000FF1FE05FFE4F80819181039781F0409177
:1020D0000E0150910F0160910C0170910D01E12CE6
:1020E000F12C24E130E081E895E00E9447138091D3
:1020F0000C0190910D01449690930D0180930C0179
:1021000080915A0290915B02019690935B028093BA
:102110005A02F9CE80915C0290915D020197C89FAE
:10212000F001C99FF00D112480915A0290915B0239
:10213000E80FF91FEE0FFF1FE05FFE4F80819181D6
:102140009C012B7F232B19F0079709F0DCCE4091DF
:102150000E0150910F014451510960910C01709191
:102160000D01EFE1EE2EF12C04E110E024E130E06E
:1021700081E895E00E94471380915C0290915D0296
:10218000C89FF001C99FF00D112480915A029091CF
:102190005B02E80FF91FEE0FFF1FE05FFE4F80812B
:1021A0009181039781F040910E0150910F01609150
:1021B0000C0170910D01E12CF12C24E130E081E85B
:1021C00095E00E94471380910E0190910F01449772
:1021D00090930F0180930E0180915C0290915D02BB
:1021E000019767C080915C0290915D020196C89F43
:1021F000F001C99FF00D112480915A0290915B0269
:10220000E80FF91FEE0FFF1FE05FFE4F8081918105
:102210009C012B7F232B19F0079709F074CE409176
:102220000E0150910F014C5E5F4F60910C01709157
:102230000D012FE1E22EF12C04E110E024E130E069
:1022400081E895E00E94471380915C0290915D02C5
:10225000C89FF001C99FF00D112480915A029091FE
:102260005B02E80FF91FEE0FFF1FE05FFE4F80815A
:102270009181039781F040910E0150910F0160917F
:102280000C0170910D01E12CF12C24E130E081E88A
:1022900095E00E94471380910E0190910F014496A2
:1022A00090930F0180930E0180915C0290915D02EA
:1022B000019690935D0280935C0225CE80910D047F
:1022C000811121CE80915C0290915D02C89FF00146
:1022D000C99FF00D112480915A0290915B02E80F82
:1022E000F91FEE0FFF1FE05FFE4FD182C0824091C9
:1022F0000E0150910F0160910C0170910D0190EE53
:10230000E92EFF24FA9404E110E024E130E081E8B2
:1023100095E00E9447130E941C1660930904709375
:102320000A0480930B0490930C04D09308048091CA
:102330005C0290915D029093070480930604809163
:102340005A0290915B02909305048093040480915B
:102350000E0190910F0190930304809302048091E9
:102360000C0190910D019093010480930004D0938F
:102370000D04C9CDDF91CF911F910F91FF90EF9088
:10238000DF90CF90BF90AF909F908F900895CF93A4
:10239000DF93D82FC62F8091BC058F3FC9F4809161
:1023A000C00591E09093AA048093C7051092AB04F6
:1023B0001092CC046D2F8AE695E00E947C096C2F68
:1023C0008AE695E00E947C09DF91CF910C94550D2F
:1023D0008091BF058F3F31F480917605909177050C
:1023E0000E942E0D60E08091BC050E9476158D2F15
:1023F0000E94F60D8C2F0E94F60D61E08091BC05C5
:102400000E9476158091BF058F3F21F4DF91CF9117
:102410000C942D0DDF91CF9108958F929F92AF92E2
:10242000BF92CF92DF92EF92FF920F931F93CF93C1
:10243000DF93C82F8091BC058F3F59F58091C0056F
:10244000D1E0D093AA048093C7051092AB041092F8
:10245000CC046C2F8AE695E00E947C090E94550D01
:102460008091C005D093AA048093C7051092AB0455
:102470001092CC0461E00E94B20D1092540480933B
:1024800053048AE695E00E943009B82E0E94550D4B
:102490006BC08091BF058F3F31F48091760590919C
:1024A00077050E942E0D60E08091BC050E94761594
:1024B0008C2F80680E94F60D80E00E94F60DA0909F
:1024C000BF058FEFA81207C01EBC00000DB407FEA9
:1024D000FDCFBEB43EC0C091BE0507E010E0B12CF8
:1024E000D0E0FE01EF51FA4F7F01CE018B509A4FA1
:1024F0006C01CD5ED94F61E08A2D0E947615F701FF
:102500008491F6018490FE019490992099F08111B4
:102510000E944D15292D30E0220F331F29523A4FCA
:10252000F901A591B4918C91882231E009F430E051
:10253000832F02C080E090E0002E01C0880F0A9433
:10254000EAF7B82A60E08A2D0E9476150150110939
:1025500090F661E08091BC050E9476158091BF05E0
:102560008F3F11F40E942D0D8B2DDF91CF911F9184
:102570000F91FF90EF90DF90CF90BF90AF909F9022
:102580008F900895CF93DF9380E00E940D12C82FA3
:10259000D0E0DC2FCC2781E00E940D129E01282B79
:1025A000C901DF91CF9108958F929F92AF92BF9210
:1025B000EF92FF922091FF032111FCCF109278033C
:1025C0001092770328EE33E030937A032093790357
:1025D00028E037E030937C0320937B03E7E7F3E0C8
:1025E00044E0A0E0B0E04B015C010A2E04C0B694C8
:1025F000A794979487940A94D2F7790180FE05C036
:1026000050E7E51A5EEFF50A03C058ECE50EF11C41
:10261000F782E682970128533F4F31872087119632
:102620004E5F34964434F9F6C70188519C4F90931D
:10263000FE038093FD03FF90EF90BF90AF909F90BB
:102640008F9008953FB7F8948091D9059091DA055D
:10265000A091DB05B091DC0526B5A89B05C02F3FF6
:1026600019F00196A11DB11D3FBFBA2FA92F982FB8
:102670008827820F911DA11DB11DBC01CD0142E033
:10268000660F771F881F991F4A95D1F70895CF923B
:10269000DF92EF92FF920F931F93CF93DF9300D0BF
:1026A00000D000D0CDB7DEB76C01DC01ED91FC911C
:1026B0000284F385E02D2D833E834B835C83698305
:1026C0007A830995D601ED91FC910684F785E02D7A
:1026D0002D813E814B815C8169817A81C60109959A
:1026E000D601ED91FC910688F789E02DC60126966A
:1026F0000FB6F894DEBF0FBECDBFDF91CF911F9113
:102700000F91FF90EF90DF90CF900994EF92FF929E
:102710000F931F93CF93DF9300D000D000D0CDB79D
:10272000DEB77C01DC01ED91FC910284F385E02DA4
:102730002D833E834B835C8369837A830995D7011C
:10274000ED91FC910288F389E02D2D813E814B8132
:102750005C8169817A81C7010995D701ED91FC916E
:102760000688F789E02DC70126960FB6F894DEBFDC
:102770000FBECDBFDF91CF911F910F91FF90EF90D2
:102780000994EF92FF920F931F93CF93DF9300D0A2
:1027900000D000D0CDB7DEB77C01DC01ED91FC911B
:1027A0000284F385E02D2D833E834B835C83698314
:1027B0007A830995D701ED91FC910088F189E02D8C
:1027C0002D813E814B815C8169817A81C7010995A8
:1027D000D701ED91FC910688F789E02DC701269677
:1027E0000FB6F894DEBF0FBECDBFDF91CF911F9122
:1027F0000F91FF90EF900994EF92FF920F931F9328
:10280000DC01ED91FC910684F785E02D780101E073
:1028100010E009951F910F91FF90EF900895EF92AE
:10282000FF920F931F93DC01ED91FC910684F785D5
:10283000E02D7801890121E030E009951F910F9189
:10284000FF90EF9008958DEC94E00E94731821E0C2
:10285000892B09F420E0822F08950E943428AF923A
:10286000BF92CF92DF92EF92FF920F931F93CF937D
:10287000DF93EC0177FD38C0888599856817790763
:102880009CF557FD31C08A859B854817590764F52B
:1028900069015A017B01E881F9810284F385E02D09
:1028A000CE010995E881F98102A4F3A5E02D01E0AC
:1028B00010E021E030E0A501B701CE010995B60195
:1028C000CE010E94D20AE881F9810688F789E02DBD
:1028D000CE01DF91CF911F910F91FF90EF90DF908C
:1028E000CF90BF90AF900994DF91CF911F910F913E
:1028F000FF90EF90DF90CF90BF90AF900895EF9250
:10290000FF920F931F93CF93DF93EC0177FD22C0CB
:102910008885998568177907ECF457FD1BC08A856F
:102920009B8548175907B4F47901E881F98102A41D
:10293000F3A5E02D01E010E021E030E0CE010995A3
:10294000B701CE01DF91CF911F910F91FF90EF90D2
:102950000C94D20ADF91CF911F910F91FF90EF90CD
:102960000895FC0183A9A6A5B7A59C91892B8C93FA
:1029700083A187FD0C942D0D08950F931F93CF9382
:10298000DF93EC018BA187FF1EC00C8D1D8D2E8D5A
:102990003F8D90E040E052E16AE770E004171507D0
:1029A0002607370740F476956795579547959F5FBB
:1029B0009630A1F797E081E09827892F806A869565
:1029C00091700E942E0D9BA9EEA5FFA58081282F56
:1029D00030E0892F90E08095909582239323808327
:1029E000DF91CF911F910F9108951F920F920FB613
:1029F0000F9211242F933F934F935F936F937F9385
:102A00008F939F93AF93BF93EF93FF938DEC94E0DD
:102A10000E94B418FF91EF91BF91AF919F918F9158
:102A20007F916F915F914F913F912F910F900FBECA
:102A30000F901F9018951F920F920FB60F921124AE
:102A40002F938F939F93EF93FF93E091DD04F09189
:102A5000DE048081E091E304F091E40482FD12C081
:102A600090818091E6048F5F8F732091E704821735
:102A700051F0E091E604F0E0E353FB4F958F809333
:102A8000E60401C08081FF91EF919F918F912F917A
:102A90000F900FBE0F901F901895833081F028F48F
:102AA000813099F08230A1F008958730A9F0883004
:102AB000B9F08430D1F4809180008F7D03C0809183
:102AC00080008F7780938000089584B58F7702C04F
:102AD00084B58F7D84BD08958091B0008F7703C049
:102AE0008091B0008F7D8093B00008951F93CF93A5
:102AF000DF93282F30E0F901EF51FA4F8491F9016B
:102B0000EB50FA4FD491F901ED5EF94FC491CC230B
:102B1000C9F0162F81110E944D15EC2FF0E0EE0F39
:102B2000FF1FE75FF94FA591B4918FB7F89411118A
:102B300005C09C91ED2FE095E92302C0EC91ED2BAF
:102B4000EC938FBFDF91CF911F910895CF93DF93C7
:102B500090E0FC01EB50FA4F2491FC01ED5EF94F3F
:102B60008491882361F190E0880F991FFC01E95D51
:102B7000F94FC591D491FC01E75FF94FA591B4914C
:102B8000611109C09FB7F8948881209582238883BA
:102B9000EC912E230BC0623061F49FB7F89438811A
:102BA000822F809583238883EC912E2B2C939FBFBB
:102BB00006C08FB7F894E8812E2B28838FBFDF9152
:102BC000CF9108958F929F92AF92BF92CF92DF9252
:102BD000EF92FF926B017C010E9422134B015C017A
:102BE000C114D104E104F104F1F00E942213DC01CC
:102BF000CB0188199909AA09BB09883E9340A10510
:102C0000B10570F321E0C21AD108E108F10888EE9D
:102C1000880E83E0981EA11CB11CC114D104E104EC
:102C2000F10419F7DDCFFF90EF90DF90CF90BF90C8
:102C3000AF909F908F9008952FB7F8946091D5052D
:102C40007091D6058091D7059091D8052FBF089532
:102C50001F920F920FB60F9211242F933F938F93D1
:102C60009F93AF93BF938091D5059091D605A09186
:102C7000D705B091D8053091D40523E0230F2D3727
:102C800020F40196A11DB11D05C026E8230F029670
:102C9000A11DB11D2093D4058093D5059093D60531
:102CA000A093D705B093D8058091D9059091DA0506
:102CB000A091DB05B091DC050196A11DB11D8093AB
:102CC000D9059093DA05A093DB05B093DC05BF919D
:102CD000AF919F918F913F912F910F900FBE0F90C9
:102CE0001F9018951F920F920FB60F9211242F93D9
:102CF0003F938F939F93EF93FF938091D205909191
:102D0000D3052091D0053091D105821B930B2091E2
:102D1000CF052F5F2093CF052091CF05203218F0EB
:102D20005D981092520420917C0530917D05281702
:102D30003907A8F420917E0530917F05821793070B
:102D400070F45D9A21E0209352041092D305109202
:102D5000D2051092CE051092CD051092CF05E091CC
:102D6000CD05F091CE05EE0FFF1FE25FFB4F918383
:102D700080838091CD059091CE0501969093CE05EC
:102D80008093CD058091CD059091CE05829720F05E
:102D90001092CE051092CD058091D2059091D30569
:102DA0009093D1058093D005FF91EF919F918F91E2
:102DB0003F912F910F900FBE0F901F9018951F926B
:102DC0000F920FB60F9211242F933F938F939F93DF
:102DD000EF93FF931092B2008091D2059091D305AA
:102DE00001969093D3058093D2058091CB05909165
:102DF000CC0501969093CC058093CB058091FF0381
:102E0000882399F12091CB053091CC05E091CA053A
:102E1000F0E0EE0FFF1FE958FC4F808191812817E9
:102E2000390719F58091C905882331F01092C90539
:102E30008091B0008F7E06C081E08093C9058091AB
:102E4000B00080618093B0008091B0008F7D80934E
:102E5000B0008091CA058F5F843418F48093CA054E
:102E600004C01092CA051092FF03FF91EF919F9149
:102E70008F913F912F910F900FBE0F901F9018953B
:102E8000CF93DF93FC0183A187FF05C06EBD0DB416
:102E900007FEFDCF2EC028E030E040E8A6A1B7A194
:102EA000842F862321F080A99C91892B0AC090A9A8
:102EB0008C91C82FD0E0892F90E0809590958C233D
:102EC0009D238C9392A9C2A5D3A58881A82FB0E099
:102ED000892F90E0809590958A239B23888382A9EF
:102EE000A2A5B3A59C91892B8C93469521503109BD
:102EF000A9F6DF91CF9108958F929F92AF92BF92E2
:102F0000CF92DF92EF92FF920F931F93CF93DF93B5
:102F1000EC0169015801470128853985621773075B
:102F20000CF05EC08A859B85481759070CF058C085
:102F30007B01EC0CFD1CD70111978A010A0D1B1DAA
:102F4000F8013197B7FD4CC0F7FD4AC077FF03C0C9
:102F5000670160E070E057FF03C0580140E050E0B7
:102F6000A217B3071CF06901C61AD70AE817F907B8
:102F70001CF05C01A41AB50AE881F98102A4F3A54A
:102F8000E02D85019601CE0109959601D5010E949B
:102F90002826611571058105910511F12BA127FDE9
:102FA0000AC06B017C010EC00DB407FEFDCF8EBCC4
:102FB0000DB407FEFDCF615071098109910980F0C0
:102FC0009EBCF2CF692DCE010E944017682DCE0124
:102FD0000E94401781E0C81AD108E108F10891F772
:102FE000DF91CF911F910F91FF90EF90DF90CF90E5
:102FF000BF90AF909F908F900895CF93DF93EC0197
:103000009CA9ECA5FDA52081422F50E0292F30E09E
:1030100020953095242335232083CE010E9440172C
:103020008CA9ECA5FDA59081892B8083DF91CF91A0
:1030300008950F931F93CF93DF931F92CDB7DEB701
:103040008C01DC01ED91FC910284F385E02D698314
:1030500009956981662319F0F80165A903C0D801B3
:10306000D6966C91C8010E94FD17D801ED91FC9194
:103070000688F789E02DC8010F90DF91CF911F914D
:103080000F910994FC01538D448D252F30E0842F3E
:1030900090E0821B930B541710F0CF960895019780
:1030A0000895FC01918D828D981761F0828DDF016A
:1030B000A80FB11D5D968C91928D9F5F9F73928F2B
:1030C00090E008958FEF9FEF0895FC01918D828D20
:1030D000981731F0828DE80FF11D858D90E00895ED
:1030E0008FEF9FEF0895FC01918D228D892F90E045
:1030F000805C9F4F821B91098F739927089580E010
:1031000090E0892B29F00E94231481110C94000077
:103110000895CF92DF92EF92FF920F931F93CF9378
:10312000DF936C017A018B01C0E0D0E0CE15DF05A2
:1031300089F0D8016D918D01D601ED91FC9101903E
:10314000F081E02DC6010995892B11F47E0102C0A2
:103150002196ECCFC701DF91CF911F910F91FF9086
:10316000EF90DF90CF900895FC01848DDF01A80FD0
:10317000B11DA35ABF4F2C91848D90E001968F739F
:103180009927848FA689B7892C93A089B1898C91BE
:1031900080648C93938D848D981306C00288F38984
:1031A000E02D80818F7D80830895EF92FF920F93B1
:1031B0001F93CF93DF93EC0181E0888F9B8D8C8DE3
:1031C000981305C0E889F989808185FD24C0F62E11
:1031D0000B8D10E00F5F1F4F0F731127E02E8C8DAA
:1031E000E8120CC00FB607FCFACFE889F989808194
:1031F00085FFF5CFCE010E94B418F1CF8B8DFE0173
:10320000E80FF11DE35AFF4FF0820B8FEA89FB892B
:103210008081806207C0EE89FF896083E889F9892F
:1032200080818064808381E090E0DF91CF911F9165
:103230000F91FF90EF900895CF93DF93EC01888D6D
:103240008823C9F0EA89FB89808185FD05C0A889AA
:10325000B9898C9186FD0FC00FB607FCF5CF808130
:1032600085FFF2CFA889B9898C9185FFEDCFCE017A
:103270000E94B418E7CFDF91CF910895FC018081BF
:1032800091810C94D226EF92FF920F931F93CF93CC
:10329000DF93EC01198218821B821A821D821C8224
:1032A00061157105A9F17B01FB0101900020E9F78F
:1032B00031978F01061B170BB8016F5F7F4F80E0BE
:1032C00090E00E946A27009759F0998388831B83B6
:1032D0000A832C813D81232B81F4FC0110820DC0D7
:1032E00088819981009711F00E94D2261982188254
:1032F0001D821C821B821A820BC01D830C83B701A6
:10330000DF91CF911F910F91FF90EF900C94422885
:10331000DF91CF911F910F91FF90EF90089561156C
:10332000710579F0FB0101900020E9F73197AF01B9
:10333000461B570BDC01ED91FC910280F381E02DDF
:10334000099480E090E00895CF93DF93CDB7DEB786
:1033500029970FB6F894DEBF0FBECDBF789484B521
:10336000826084BD84B5816084BD85B5826085BD81
:1033700085B5816085BD80916E00816080936E000F
:103380001092810080918100826080938100809101
:1033900081008160809381008091800081608093B2
:1033A00080008091B10084608093B1008091B00072
:1033B00081608093B00080917A00846080937A006D
:1033C00080917A00826080937A0080917A00816097
:1033D00080937A0080917A00806880937A001092BE
:1033E000C100529A5D9852985A98E89A8091690063
:1033F0008260809369007894539A8091B0008E7FA8
:103400008093B0008091B0008D7F8093B000809158
:10341000B100877F8093B1008091B100816080937B
:10342000B1008091B1008D7F8093B1008091B10097
:103430008B7F8093B10080918005882311F088E70D
:1034400001C089EB8093B400809170008460809308
:10345000700078948091B0008F7E8093B00080914E
:10346000B0008F7D8093B0006BEF74E08FEF90E041
:103470000E94D41240E050E0BA0181E895E00E9439
:10348000290B61E081E895E00E94860A3A9A3B9A0E
:10349000439A0E946E0F109254041092530410929B
:1034A000AB041092CC040E940F0D60EF85E50E94E2
:1034B0002C0E6BEF80E00E942C0E0E944A0E909121
:1034C000BC059F3F59F18091BF0561E08F3FA1F49A
:1034D000892F0E94A61561E08091BC050E94761597
:1034E0000E94F30A81E58093760510927705109289
:1034F000C2051092C1051FC00E94A61561E080910F
:10350000BC050E94A61561E08091BD050E94A6152C
:1035100060E08091BE050E94A6150DC01092540473
:10352000109253041092AB041092CC040E940F0D21
:1035300081E48093C0050E94C2128131984061F4F9
:1035400062E083E00E94C7116AE070E080E090E0F2
:103550000E94E21510E01CC08091BC058F3F09F469
:103560005CC08091BF058F3F09F057C085E580930F
:1035700076051092770584E090E09093C2058093E1
:10358000C1050E94C2128131984009F046C0D8CFCF
:10359000812F0E940D121F5F1134D1F760E084E08B
:1035A0000E94C71161E080E40E94C71161E08AE0D7
:1035B0000E94C71160E680E20E94C71162E081E2CA
:1035C0000E94C71164EA81E40E94C71166E086E5A3
:1035D0000E94C71161E08AE40E94C71161E08BE498
:1035E0000E94C71160E08BE40E94C71161E088E58A
:1035F0000E94C7116FEF8BE00E94C71165E089E060
:103600000E94C7111092260310922503CE01019645
:103610001C0194E0920D998795C0FFCF0E941C1663
:103620008090270390902803A0902903B0902A034C
:10363000F8EE8F0EF3E09F1EA11CB11C68157905F2
:103640008A059B0550F00E941C1660932703709317
:1036500028038093290390932A038BE40E940D1280
:1036600085FD6EC0610187ED0E940D12F601819308
:103670006F01F985FC11F7CFA98020E1A29EA0017E
:1036800011248A81A82EB12CF4E0B594A794FA9560
:10369000E1F7A42AB52A8F70C82ED12CDC2CCC24BB
:1036A0008B81C82A9C808BE40E940D1285FF04C088
:1036B0006FEF8BE00E94C711892D90E00B978D3D35
:1036C000934060F5C501A0E0B0E09C01AD01265932
:1036D000310941095109A0918905B0918A050E94DB
:1036E000B82522E43EE040E050E00E948E255901DA
:1036F000C601A0E0B0E09C01AD01225831094109AA
:103700005109A0918B05B0918C050E94B8252EE13E
:103710003FE040E050E00E948E2569018090250343
:1037200090902603F2E08F16910409F422C17CF5F3
:1037300081149104C9F181E08816910409F49AC0BA
:103740000E947F180E941C1680902B0390902C03DF
:10375000A0902D03B0902E03E4E68E0E911CA11CC8
:10376000B11C681579058A059B0508F457CF81E0DF
:103770008093FF030E94DE0E0E941C1660932B03B1
:1037800070932C0380932D0390932E0347CF94E0E6
:103790008916910409F4DEC60CF46DC1F5E08F16AC
:1037A000910409F420C7CCCF809123039091240386
:1037B000892B61F460E070E081E895E00E941C07CD
:1037C00081E090E09093240380932303E0EEEE2EBB
:1037D000FF24FA9408E210E02AE530E042E650E0E7
:1037E00066E470E081E895E00E94471368EB72E0C0
:1037F000C1010E944319910141E050E063E770E08C
:1038000085E590E00E94310DC1010E943E1925E539
:1038100030E042E650E065EA70E081E895E00E9421
:10382000471364EC72E0C1010E944319910141E029
:1038300050E063E770E082EB90E00E94310DC1013F
:103840000E943E192CE8A21AB1088EE2A816B10413
:1038500008F076CFC601C297CD9708F00DC781E07A
:1038600090E09093260380932503109224031092F6
:10387000230302C78091230390912403892B51F4E1
:1038800060E070E081E895E00E941C0790922403BC
:103890008092230370EEE72EFF24FA940EE510E0E9
:1038A0002CE430E045E550E06CE070E081E895E024
:1038B0000E9447136FEC72E0C1010E94431991010D
:1038C00043E050E068E770E08EE190E00E94310D47
:1038D000C1010E943E1900E210E02CE430E046EB0A
:1038E00050E06CE070E081E895E00E94471363EDE2
:1038F00072E0C1010E944319910141E050E063EC84
:1039000070E088E290E00E94310DC1010E943E19F2
:10391000C5018A5591098F36910570F4C6010F973C
:103920008E9750F4109224031092230383E090E0CA
:103930009093260380932503FDE2AF1AB1082AE194
:10394000A216B10408F0FCCE8FE0C81AD1089EE29E
:10395000C916D10408F0F4CE109224031092230368
:103960001092220310920B0110922603109225034D
:10397000E7CE8091230390912403892B61F460E0CA
:1039800070E081E895E00E941C0781E090E0909350
:1039900024038093230360EEE62EFF24FA940EE5C1
:1039A00010E02CE430E045E550E06CE070E081E8A8
:1039B00095E00E9447136FEC72E0C1010E94431929
:1039C000910143E050E068E770E08EE190E00E94F2
:1039D000310DC1010E943E1900E210E02CE430E0FC
:1039E00046EB50E06CE070E081E895E00E94471300
:1039F00063ED72E0C1010E944319910141E050E082
:103A000063EC70E088E290E00E94310DC1010E94F9
:103A10003E19C5018A5591098F36910570F4C6018A
:103A20000F978E9750F4109224031092230383E093
:103A300090E09093260380932503EDE2AE1AB1083F
:103A4000FAE1AF16B10408F07BCE2FE0C21AD1081C
:103A50008EE2C816D10408F073CE1092240310929F
:103A6000230310922603109225031092220381E073
:103A700080930B0165CE60E070E081E895E00E94E4
:103A80001C074091090150910A0160910701709152
:103A9000080120EEE22E27E0F22E04E110E024E1FE
:103AA00030E081E895E00E94471340910E0150916B
:103AB0000F0160910C0170910D013FE1E32EF12C9B
:103AC00024E130E081E895E00E94471340E1842E34
:103AD00041E0942E54E1A52EB12C1AE0412E512C38
:103AE000C12CD12C34016C0C7D1CF301808191819F
:103AF000019769F4E12C98EFF92E04E110E024E13C
:103B000030E0A501B20181E895E00E944713F3017E
:103B100080819181029771F4EE24EA9487E0F82E77
:103B200004E110E024E130E0A501B20181E895E074
:103B30000E944713F2E0CF0ED11C24E1420E511C2B
:103B40008EE1C816D10471F69EE1890E911CE4E164
:103B5000AE0EB11CFAE58F16F2E09F0609F0BDCF5C
:103B600004E0C02ED12C662463940FE0702E809167
:103B70000001882309F4E4CD0E946E0F0E944A0ED2
:103B800080917704909178042091750430917604A7
:103B9000853B91055CF0A901455651094F3451050B
:103BA00088F4109206011092050129C08134910514
:103BB0004CF4A901455651094F34510518F482E0DF
:103BC00090E019C0253B310564F0855691098F348A
:103BD0009105A8F4E1E0F0E0F0930601E09305011F
:103BE0000EC0213431055CF4855691098F3491055E
:103BF00030F483E090E0909306018093050180917A
:103C0000050190910601892B09F077C06FEF70E0F4
:103C100081EE9EE10E94D4126092FF030E944A0E40
:103C200080910301909104010197789EF001799EA3
:103C3000F00D11248091010190910201E80FF91F0C
:103C4000EE0FFF1FE05FFE4F808191818B7F892BFC
:103C500009F04FC04091090150910A0144515109A6
:103C60006091070170910801E0EEEE2EE7E0FE2E74
:103C700004E110E024E130E081E895E00E94471380
:103C80008091030190910401789EF001799EF00DDE
:103C900011248091010190910201E80FF91FEE0FAC
:103CA000FF1FE05FFE4F80819181039781F040917B
:103CB000090150910A016091070170910801E12CFE
:103CC000F12C24E130E081E895E00E9447138091D7
:103CD000090190910A01449790930A018093090188
:103CE00080910301909104010197909304018093C6
:103CF0000301D0920601C0920501809105019091C7
:103D00000601029709F077C06FEF70E087ED98E247
:103D10000E94D4126092FF030E944A0E8091030118
:103D2000909104010196789EF001799EF00D112486
:103D30008091010190910201E80FF91FEE0FFF1F22
:103D4000E05FFE4F808191818B7F892B09F04FC00E
:103D50004091090150910A014C5E5F4F609107014B
:103D60007091080120EEE22E27E0F22E04E110E02F
:103D700024E130E081E895E00E944713809103013F
:103D800090910401789EF001799EF00D11248091AC
:103D9000010190910201E80FF91FEE0FFF1FE05F94
:103DA000FE4F80819181039781F0409109015091EC
:103DB0000A016091070170910801E12CF12C24E1C6
:103DC00030E081E895E00E944713809109019091CD
:103DD0000A01449690930A0180930901809103019E
:103DE0009091040101969093040180930301D09275
:103DF0000601C0920501809105019091060101978D
:103E000009F076C06FEF70E08BEE94E10E94D4125F
:103E10006092FF030E944A0E809103019091040179
:103E2000789EF001799EF00D11248091010190910E
:103E30000201E80FF91FEE0FFF1FEE5EFE4F8081BB
:103E400091818B7F892B09F04FC0409109015091DE
:103E50000A0160910701709108016C5E7F4F10EEBE
:103E6000E12E17E0F12E04E110E024E130E081E8DA
:103E700095E00E9447138091030190910401789E80
:103E8000F001799EF00D11248091010190910201C1
:103E9000E80FF91FEE0FFF1FE05FFE4F8081918159
:103EA000039781F04091090150910A016091070147
:103EB00070910801E12CF12C24E130E081E895E0DB
:103EC0000E944713809107019091080144969093B6
:103ED00008018093070180910101909102010196F0
:103EE0009093020180930101D0920601C0920501D6
:103EF0008091050190910601039709F076C06FEF5C
:103F000070E085EF9AE00E94D4126092FF030E9455
:103F10004A0E8091030190910401789EF001799EF0
:103F2000F00D11248091010190910201E80FF91F19
:103F3000EE0FFF1FE25FFE4F808191818B7F892B07
:103F400009F04FC04091090150910A0160910701A9
:103F50007091080164517109F0EEEF2EF7E0FF2E29
:103F600004E110E024E130E081E895E00E9447138D
:103F70008091030190910401789EF001799EF00DEB
:103F800011248091010190910201E80FF91FEE0FB9
:103F9000FF1FE05FFE4F80819181039781F0409188
:103FA000090150910A016091070170910801E12C0B
:103FB000F12C24E130E081E895E00E9447138091E4
:103FC000070190910801449790930801809307019D
:103FD00080910101909102010197909302018093D9
:103FE0000101D0920601C092050180917F04909159
:103FF0008004019709F065C080912103811161C09F
:104000006FEF70E08DEC92E30E94D4126092FF0398
:104010008091030190910401789EF001799EF00D4A
:1040200011248091010190910201E80FF91FEE0F18
:10403000FF1FE05FFE4F83E090E09183808340911B
:10404000090150910A016091070170910801E0EEA9
:10405000EE2EFF24FA9404E110E024E130E081E840
:1040600095E00E9447130E941C1660931D037093F5
:104070001E0380931F039093200360921C03809182
:1040800003019091040190931B0380931A03809184
:10409000010190910201909319038093180380917C
:1040A000090190910A019093170380931603809160
:1040B0000701909108019093150380931403609277
:1040C000210380901D0390901E03A0901F03B090C9
:1040D000200390ED890E97E0991EA11CB11C0E944F
:1040E0001C16681579058A059B0508F42BC180917B
:1040F0001C03882309F426C120911A0330911B0365
:104100008091180390911903729EF001739EF00D37
:104110001124E80FF91FEE0FFF1FE05FFE4FD18261
:10412000C08221503109729EF001739EF00D11245E
:10413000E80FF91FEE0FFF1FE05FFE4F80819181B6
:10414000019761F1409116035091170344515109B1
:10415000609114037091150390EEE92EFF24FA94F8
:1041600004E110E024E130E081E895E00E9447138B
:1041700080911A0390911B030197789EF001799E1C
:10418000F00D11248091180390911903E80FF91F85
:10419000EE0FFF1FE05FFE4FD182C08280911A03B5
:1041A00090911B03789EF001799EF00D112480916F
:1041B000180390911903E80FF91FEE0FFF1FEE5E31
:1041C000FE4F80819181019759F1409116035091E2
:1041D000170360911403709115036C5E7F4F10EE0E
:1041E000E12EFF24FA9404E110E024E130E081E8BC
:1041F00095E00E94471380911A0390911B03789ECB
:10420000F001799EF00D112480911803909119030B
:10421000E80FF91FEE0FFF1FEE5EFE4FD182C08246
:1042200080911A0390911B030196789EF001799E6C
:10423000F00D11248091180390911903E80FF91FD4
:10424000EE0FFF1FE05FFE4F80819181019761F1CA
:1042500040911603509117034C5E5F4F6091140319
:1042600070911503E0EEEE2EFF24FA9404E110E0C5
:1042700024E130E081E895E00E94471380911A0321
:1042800090911B030196789EF001799EF00D112408
:104290008091180390911903E80FF91FEE0FFF1F8B
:1042A000E05FFE4FD182C08280911A0390911B0380
:1042B000789EF001799EF00D112480911803909161
:1042C0001903E80FF91FEE0FFF1FE25FFE4F808119
:1042D0009181019759F14091160350911703609114
:1042E0001403709115036451710990EEE92EFF24B7
:1042F000FA9404E110E024E130E081E895E00E94C6
:10430000471380911A0390911B03789EF001799EC8
:10431000F00D11248091180390911903E80FF91FF3
:10432000EE0FFF1FE25FFE4FD182C08210921C038E
:104330000E941C1660931003709311038093120364
:10434000909313038091030190910401789EF001F2
:10435000799EF00D11248091010190910201E80FE6
:10436000F91FEE0FFF1FE05FFE4F808191818430C7
:10437000910511F0079741F4E5E0F0E0F093260392
:10438000E093250310920001809010039090110398
:10439000A0901203B0901303FCED8F0EF5E09F1E6A
:1043A000A11CB11C0E941C16681579058A059B0585
:1043B00008F43FC080911C0381113BC000E1402EF6
:1043C00001E0502E812C912C24E1820E911C8AE078
:1043D00090E098878F83A12CB12CF201EA0DFB1D90
:1043E000808191810397029778F411821082E12CE9
:1043F000F12C04E110E024E130E0A4016F81788524
:1044000081E895E00E94471322E0A20EB11C8F8143
:104410009885449698878F839EE1A916B104E9F6A2
:10442000EEE14E0E511CFCED8F16910469F61092D0
:10443000210380900C0390900D03A0900E03B09088
:104440000F039CED890E95E0991EA11CB11C0E94E2
:104450001C16681579058A059B0508F43FC08091F4
:10446000080481113BC010E1412E11E0512EA12C16
:10447000B12C24E1A20EB11C8AE090E098878F83D2
:10448000812C912CF201E80DF91D80819181069714
:10449000029778F411821082E12CF12C04E110E0F3
:1044A00024E130E0A5016F81788581E895E00E94E4
:1044B0004713E2E08E0E911C8F8198854496988771
:1044C0008F839EE189169104E9F6EEE14E0E511CB0
:1044D000FCEDAF16B10469F610920D0480915C02F8
:1044E00090915D02789EF001799EF00D11248091EB
:1044F0005A0290915B02E80FF91FEE0FFF1FE05F79
:10450000FE4F808191818430910511F0079731F43D
:10451000D0922603C09225031092000180900904D6
:1045200090900A04A0900B04B0900C0490ED890EBA
:1045300097E0991EA11CB11C0E941C1668157905F4
:104540008A059B0508F413CB80910804882309F49D
:104550000ECBA5C06FE178EF81E895E00E941C07C3
:1045600010EEE12EFF24FA9400E210E02CE430E09B
:1045700046EB50E06CE070E081E895E00E94471364
:1045800063ED72E0C1010E944319910141E050E0E6
:1045900063EC70E088E290E00E94310DC1010E945E
:1045A0003E1968ED72E0C1010E944319910144E097
:1045B00050E060E570E08AE590E00E94310DC101B5
:1045C0000E943E19EDE2AE1AB108FAE1AF16B1044D
:1045D00008F0B6C82FE0C21AD1088EE2C816D1047E
:1045E00008F4BAC9ADC860E078EF81E895E00E94B0
:1045F0001C07B0EEEB2EFF24FA9400E210E02CE44E
:1046000030E046EB50E06CE070E081E895E00E941D
:10461000471363ED72E0C1010E944319910141E02B
:1046200050E063EC70E088E290E00E94310DC1013F
:104630000E943E196FED72E0C1010E944319910181
:1046400044E050E060E570E08CE390E00E94310DC2
:10465000C1010E943E199DE2A91AB108EAE1AE1615
:10466000B10408F06DC8FFE0CF1AD1082EE2C216DF
:10467000D10408F471C964C888E7C81AD1089DE359
:10468000C916D10408F05CC8E2E0F0E0F09326031C
:10469000E0932503109224031092230351C8209124
:1046A00006043091070480910404909105044FE0C2
:1046B000B42EB29EF001B39EF00D1124E80FF91F45
:1046C000EE0FFF1FE05FFE4F46E050E05183408356
:1046D00021503109B29EF001B39EF00D1124E80F74
:1046E000F91FEE0FFF1FE05FFE4F80819181019760
:1046F00071F14091020450910304445151096091B9
:10470000000470910104E0EEEE2EFF24FA9404E11F
:1047100010E024E130E081E895E00E9447138091A9
:104720000604909107040197B89EF001B99EF00D20
:1047300011248091040490910504E80FF91FEE0FF5
:10474000FF1FE05FFE4F87E090E0918380838091C0
:104750000604909107042FE0B22EB89EF001B99E96
:10476000F00D11248091040490910504E80FF91FC5
:10477000EE0FFF1FEE5EFE4F80819181019769F180
:10478000409102045091030460910004709101046F
:104790006C5E7F4F00EEE02EFF24FA9404E110E0FF
:1047A00024E130E081E895E00E94471380910604FF
:1047B00090910704B89EF001B99EF00D11248091EC
:1047C000040490910504E80FF91FEE0FFF1FEE5E41
:1047D000FE4F87E090E09183808380910604909162
:1047E00007040196BFE0BB2EB89EF001B99EF00D04
:1047F00011248091040490910504E80FF91FEE0F35
:10480000FF1FE05FFE4F80819181019771F1409120
:104810000204509103044C5E5F4F6091000470915C
:104820000104E0EEEE2EFF24FA9404E110E024E10E
:1048300030E081E895E00E94471380910604909152
:1048400007040196B89EF001B99EF00D11248091E5
:10485000040490910504E80FF91FEE0FFF1FE05FBD
:10486000FE4F87E090E091838083809106049091D1
:1048700007042FE0B22EB89EF001B99EF00D11246E
:104880008091040490910504E80FF91FEE0FFF1FBB
:10489000E25FFE4F80819181019769F140910204AE
:1048A00050910304609100047091010464517109F6
:1048B00080EEE82EFF24FA9404E110E024E130E0D9
:1048C00081E895E00E9447138091060490910704C7
:1048D000B89EF001B99EF00D1124809104049091CE
:1048E0000504E80FF91FEE0FFF1FE25FFE4F87E0A0
:1048F00090E091838083109208040E941C166093BC
:104900000C0370930D0380930E0390930F032BC938
:10491000EDECF4E01382128288EE93E0A0E0B0E0C8
:1049200084839583A683B78328E632E0318320838E
:1049300025EC30E03587248724EC30E03787268764
:1049400020EC30E0318B208B21EC30E0338B228B5C
:1049500022EC30E0358B248B26EC30E0378B268B35
:10496000118E128E138E148EEAE6F5E013821282F7
:1049700084839583A683B7838AE792E091838083BB
:10498000E6E7F5E080E58083118291E09093800571
:10499000E8E7F5E02CE231E0318320832CEB32E0D4
:1049A0003383228320ED37E03583248328EB3BE0FB
:1049B00037832683ECEBF5E088E080838FEF8383F9
:1049C00082838183A1E8B5E013961C921E92129710
:1049D00040EF50E015965C934E93149720E431E03D
:1049E00017963C932E93169719965C934E931897AF
:1049F0001B963C932E931A9755961C9255971D968D
:104A00001C921E921C971F961C921E921E975496E3
:104A10009C9354972FEF3FEF53963C932E935297CE
:104A200051963C932E93509756969C935697579633
:104A30001C92579759961C921E925897D5961C9285
:104A4000D597D6961C92D697D8961C921E92D79739
:104A5000DA961C921E92D9979AE090969C93909722
:104A600099E091969C93919792968C93929728ECCB
:104A700035E05B963C932E935A9793968C9393973D
:104A800094968C93949795968C9395975C961D929B
:104A90001D921D921C925F979B961C921E929A9754
:104AA000D2961C92D29797961C921E929697D09669
:104AB0001C92D09799961C921E929897D1961C9210
:104AC000D197ECE1F6E0E491F0E0EE0FFF1FE75F35
:104AD000F94F859194919D969C938E939C97EEEFC0
:104AE000F5E0E491D496EC93D497EDE1F6E0E4910F
:104AF000F0E0EE0FFF1FE75FF94F859194919F96CD
:104B00009C938E939E97EFEFF5E0E491D396EC9310
:104B1000D3978CE892E08D939C930895052E97FB94
:104B20001EF400940E94A52557FD07D00E94F7258A
:104B300007FC03D04EF40C94A52550954095309574
:104B400021953F4F4F4F5F4F0895909580957095F9
:104B500061957F4F8F4F9F4F08950E941926A59F03
:104B6000900DB49F900DA49F800D911D1124089568
:104B7000B7FF0C94AD250E94AD25821B930B0895C1
:104B80002F923F924F925F926F927F928F929F925D
:104B9000AF92BF92CF92DF92EF92FF920F931F934B
:104BA000CF93DF93CDB7DEB7CA1BDB0B0FB6F894FC
:104BB000DEBF0FBECDBF09942A88398848885F843C
:104BC0006E847D848C849B84AA84B984C884DF80AD
:104BD000EE80FD800C811B81AA81B981CE0FD11D91
:104BE0000FB6F894DEBF0FBECDBFED010895A1E270
:104BF0001A2EAA1BBB1BFD010DC0AA1FBB1FEE1F57
:104C0000FF1FA217B307E407F50720F0A21BB30BA1
:104C1000E40BF50B661F771F881F991F1A9469F71D
:104C200060957095809590959B01AC01BD01CF0179
:104C30000895A29FB001B39FC001A39F700D811D75
:104C40001124911DB29F700D811D1124911D089595
:104C50000E941926332312F48A1B9B0B0C943226D4
:104C60000E941926B7FF0895821B930B0895EE0F3B
:104C7000FF1F0590F491E02D0994CF93DF938230CC
:104C8000910510F482E090E0E091DF05F091E005FD
:104C900020E030E0C0E0D0E0309711F14081518158
:104CA00048175907C0F04817590761F4828193816A
:104CB000209719F09B838A832BC09093E005809303
:104CC000DF0526C02115310519F04217530718F4E6
:104CD0009A01BE01DF01EF010280F381E02DDCCFFC
:104CE0002115310509F1281B390B2430310590F4C9
:104CF00012968D919C9113976115710521F0FB011E
:104D00009383828304C09093E0058093DF05FD01C7
:104D1000329644C0FD01E20FF31F8193919322501C
:104D200031092D933C933AC02091DD053091DE0589
:104D3000232B41F420916002309161023093DE0513
:104D40002093DD0520915E0230915F02211531052F
:104D500041F42DB73EB74091620250916302241B8B
:104D6000350BE091DD05F091DE05E217F307A0F4C5
:104D70002E1B3F0B2817390778F0AC014E5F5F4FB1
:104D80002417350748F04E0F5F1F5093DE05409300
:104D9000DD058193919302C0E0E0F0E0CF01DF9167
:104DA000CF9108950F931F93CF93DF93009709F44A
:104DB0008CC0FC013297138212820091DF051091A2
:104DC000E0050115110581F420813181820F931FC7
:104DD0002091DD053091DE052817390779F5F0932C
:104DE000DE05E093DD0571C0D80140E050E0AE176C
:104DF000BF0750F412962D913C911397AD012115E8
:104E0000310509F1D901F3CF9D01DA013383228302
:104E100060817181860F971F8217930769F4EC01F7
:104E200028813981260F371F2E5F3F4F3183208322
:104E30008A819B8193838283452B29F4F093E0053B
:104E4000E093DF0542C01396FC93EE931297ED01B9
:104E5000499159919E01240F351FE217F30771F410
:104E600080819181840F951F029611969C938E9359
:104E70008281938113969C938E931297E0E0F0E0E9
:104E8000D80112968D919C911397009719F0F80113
:104E90008C01F6CF8D919C9198012E5F3F4F820F30
:104EA000931F2091DD053091DE052817390769F43D
:104EB000309729F41092E0051092DF0502C01382AA
:104EC00012821093DE050093DD05DF91CF911F91D3
:104ED0000F910895A0E0B0E0E0E7F7E20C94C4255C
:104EE000EC01009721F4CB010E943D26B8C0FC01E3
:104EF000E60FF71F9C0122503109E217F30708F46F
:104F0000ACC0D9010D911C91119706171707B0F08D
:104F10000530110508F49FC0C8010497861797074C
:104F200008F499C002501109061B170B0193119345
:104F30006D937C93CF010E94D2268DC05B01A01A95
:104F4000B10A4C01800E911EA091DF05B091E005E1
:104F500040E050E0E12CF12C109709F44AC0A8156C
:104F6000B905D1F56D907C901197630182E0C80E70
:104F7000D11CCA14DB0480F1A3014A195B096A0140
:104F800082E0C80ED11C1296BC9012971396AC9179
:104F9000B5E0CB16D10440F0B282A38351834083A5
:104FA000D9016D937C930AC00E5F1F4FC301800F20
:104FB000911FF90191838083EB2DFA2FE114F10405
:104FC00031F0D7011396FC93EE93129744C0F093FF
:104FD000E005E093DF053FC08D919C911197481744
:104FE000590708F4AC017D0112960D90BC91A02DDB
:104FF000B3CF8091DD059091DE0588159905E1F428
:1050000046175707C8F480915E0290915F0200979F
:1050100041F48DB79EB74091620250916302841BA8
:10502000950BE817F907C8F4F093DE05E093DD056A
:10503000F901718360830FC0CB010E943D267C0182
:10504000009759F0A801BE010E943928CE010E94A4
:10505000D226C70104C0CE0102C080E090E0CDB7E7
:10506000DEB7EEE00C94E02581E090E0F8940C943B
:105070004928FB01DC0102C001900D9241505040D3
:10508000D8F70895FB01DC0101900D920020E1F7B3
:065090000895F894FFCF23
:10509600010100010004001E002800010E01C800E5
:1050A60001000100010001000100010001000100F2
:1050B60001000100010001000100010001000100E2
:1050C60000000000000000000000000000000000DA
:1050D60000000000000000000000010001000000C8
:1050E60001000000010000000100000001000000B6
:1050F60001000000010000000100010002000000A4
:105106000200000002000000020000000200000091
:105116000200000000000100010000000100000084
:105126000100000001000000010000000100000075
:105136000100000001000100020000000200000062
:105146000200000002000000020000000200000051
:105156000000010001000000010000000100000045
:105166000100000001000000010000000100000035
:105176000100010002000000020000000200000021
:105186000200000002000000020000000200010010
:105196000100000001000000010000000100000005
:1051A60001000000010000000100000001000100F4
:1051B60000000000020000000200000002000000E3
:1051C60002000000020000000000010001000100D2
:1051D60001000100010001000100010001000100C1
:1051E600010001000100010001000D00090000009E
:1051F600E105800000000000D518891842181C1926
:10520600731851186518000000007C094C09AC0998
:105216002009440930092109000000007005891899
:10522600AC09AB092F14BD147F147C170F14FC13A3
:105236004408B114860A600AC113861347131C0773
:10524600A5064606290BAF095374617274204C6F8C
:10525600626279004A6F696E204C6F62627900471C
:105266004F21004261636B0057494E4E455200592B
:105276004F55204C4F5345000D0A00726563696512
:105286007665206661696C210069727265616400E9
:0C529600737769746368007465737400BA
:00000001FF
