:100000000C941A030C94A5190C9442030C9442030B
:100010000C9442030C9442030C9442030C9442034C
:100020000C94121A0C9442030C9442030C94420355
:100030000C9442030C9442030C9442030C9442032C
:100040000C945B190C9442030C944E180C942818D1
:100050000C9442030C9442030C9442030C9442030C
:100060000C94D40A0C944203EF03038002CF0300E4
:10007000C130ED0464031281E803850078CB0539B3
:100080002C003402F70120EA020000C00123C10164
:1000900010C5023E28C701863601483701003A01E3
:1000A00055B1020018B603088227F20100260101AB
:1000B000E00F0F312B0C0E084EF1370710030E091D
:1000C00000E10F000E1403110731C148080F0C3175
:1000D000360F118029800000000000003E5B4F5B5E
:1000E0003E3E6B4F6B3E1C3E7C3E1C183C7E3C18DB
:1000F0001C577D571C1C5E7F5E1C00183C1800FFBF
:10010000E7C3E7FF0018241800FFE7DBE7FF3048EC
:100110003A060E2629792926407F050507407F05E6
:10012000253F5A3CE73C5A7F3E1C1C08081C1C3EDD
:100130007F14227F22145F5F005F5F06097F017FCB
:10014000006689956A606060606094A2FFA294086E
:10015000047E040810207E201008082A1C08081CB1
:100160002A08081E101010100C1E0C1E0C30383EF1
:100170003830060E3E0E06000000000000005F0052
:10018000000007000700147F147F14242A7F2A121E
:100190002313086462364956205000080703000004
:1001A0001C2241000041221C002A1C7F1C2A080836
:1001B0003E08080080703000080808080800006049
:1001C000600020100804023E5149453E00427F4035
:1001D0000072494949462141494D331814127F1094
:1001E00027454545393C4A494931412111090736DE
:1001F00049494936464949291E000014000000407B
:100200003400000008142241141414141400412274
:10021000140802015909063E415D594E7C12111223
:100220007C7F494949363E414141227F4141413E1F
:100230007F494949417F090909013E414151737F85
:100240000808087F00417F41002040413F017F08AE
:100250001422417F404040407F021C027F7F0408FF
:10026000107F3E4141413E7F090909063E4151212F
:100270005E7F09192946264949493203017F010356
:100280003F4040403F1F2040201F3F4038403F63D9
:100290001408146303047804036159494D43007F33
:1002A0004141410204081020004141417F04020104
:1002B00002044040404040000307080020545478A6
:1002C000407F284444383844444428384444287FF4
:1002D000385454541800087E090218A4A49C787F4E
:1002E0000804047800447D40002040403D007F1019
:1002F00028440000417F40007C047804787C080496
:1003000004783844444438FC182424181824241849
:10031000FC7C08040408485454542404043F442436
:100320003C4040207C1C2040201C3C4030403C4451
:10033000281028444C9090907C4464544C4400080D
:10034000364100000077000000413608000201023B
:1003500004023C2623263C1EA1A161123A40402003
:100360007A3854545559215555794122545478427C
:10037000215554784020545579400C1E5272123940
:1003800055555559395454545939555454580000F9
:10039000457C410002457D420001457C407D1211B3
:1003A000127DF0282528F07C545545002054547CBB
:1003B000547C0A097F4932494949323A4444443A13
:1003C000324A4848303A4141217A3A424020780046
:1003D0009DA0A07D3D4242423D3D4040403D3C24E9
:1003E000FF2424487E4943662B2FFC2F2BFF09292D
:1003F000F620C0887E090320545479410000447DD2
:10040000413048484A32384040227A007A0A0A721B
:100410007D0D19317D2629292F28262929292630C5
:10042000484D4020380808080808080808382F10E8
:10043000C8ACBA2F102834FA00007B000008142A38
:10044000142222142A14085500550055AA55AA55FD
:10045000AAFF55FF55FF000000FF00101010FF001D
:10046000141414FF001010FF00FF1010F010F0140F
:100470001414FC001414F700FF0000FF00FF141414
:10048000F404FC141417101F10101F101F14141460
:100490001F00101010F0000000001F101010101F9F
:1004A00010101010F010000000FF101010101010AD
:1004B000101010FF10000000FF140000FF00FF00EC
:1004C000001F10170000FC04F41414171017141464
:1004D000F404F40000FF00F714141414141414F7B7
:1004E00000F7141414171410101F101F141414F410
:1004F000141010F010F000001F101F0000001F1457
:10050000000000FC140000F010F01010FF10FF14A9
:100510001414FF141010101F00000000F010FFFF53
:10052000FFFFFFF0F0F0F0F0FFFFFF000000000021
:10053000FFFF0F0F0F0F0F3844443844FC4A4A4A5C
:10054000347E02020606027E027E02635549416342
:100550003844443C04407E201E2006027E0202995C
:10056000A5E7A5991C2A492A1C4C7201724C304AF5
:100570004D4D303048784830BC625A463D3E49497E
:1005800049007E0101017E2A2A2A2A2A44445F4426
:100590004440514A444040444A51400000FF010356
:1005A000E080FF000008086B6B0836123624360620
:1005B0000F090F060000181800000010100030404E
:1005C000FF0101001F01011E00191D1712003C3C14
:1005D0003C3C000000000000000000230026002931
:1005E00000000000080002010000030407000000F2
:1005F00000000000000102040810204080010204F5
:100600000810200102040810200000000025002826
:10061000002B000404040404040404020202020285
:100620000203030303030300000000240027002A41
:1006300000007E2511241FBECFEFD8E0DEBFCDBF66
:1006400013E0A0E0B1E0E2E8F2E502C005900D920F
:10065000A630B107D9F725E0A6E0B3E001C01D92AE
:10066000A73DB207E1F713E0CAE1D3E004C0219748
:10067000FE010E942D27C931D107C9F70E94181C1D
:100680000C943F290C9400006F927F928F929F925E
:10069000AF92BF92CF92DF92EF92FF920F931F9390
:1006A000CF93DF93EC014B015A0169013801E881D6
:1006B000F9810284F385E02D0995E881F9810288AA
:1006C000F389E02D87019601A501B401CE010995BA
:1006D000E881F981A501460D571D41505109028855
:1006E000F389E02D9601B401CE010995E881F981E5
:1006F0000088F189E02D9301A501B401CE0109958F
:10070000E881F981C80CD91CB601615071090088D3
:10071000F189E02D9301A501CE010995E881F981C8
:100720000688F789E02DCE01DF91CF911F910F91BF
:10073000FF90EF90DF90CF90BF90AF909F908F9001
:100740007F906F900994CF92DF92EF92FF920F9378
:100750001F93CF93DF9300D000D000D0CDB7DEB78A
:100760006C01DC01ED91FC916217730789F40417A9
:1007700015072CF4942F852FA801092F182F041B7F
:10078000150B98012F5F3F4F048CF58DE02D12C0A3
:100790004017510709F5261737072CF4962F872F96
:1007A000B901292F382F261B370B2F5F3F4F068C9F
:1007B000F78DE02D8701C601099526960FB6F894AE
:1007C000DEBF0FBECDBFDF91CF911F910F91FF9084
:1007D000EF90DF90CF9008950284F385E02D2D8374
:1007E0003E834B835C8369837A830995D601ED91BF
:1007F000FC910488F589E02D2D813E814B815C813F
:1008000069817A81C6010995D601ED91FC9106882E
:10081000F789E02DC60126960FB6F894DEBF0FBE0D
:10082000CDBFDF91CF911F910F91FF90EF90DF909F
:10083000CF900994EF92FF920F931F93DC01ED91FB
:10084000FC9111971A960D911C911B9718962D915A
:100850003C91199700A0F1A1E02D7B0140E050E010
:1008600060E070E009951F910F91FF90EF9008955F
:100870004F925F926F927F928F929F92AF92BF92B0
:10088000CF92DF92EF92FF920F931F93CF93DF935C
:1008900000D0CDB7DEB76C015A0139014801DC0147
:1008A000ED91FC910284F385E02D69837A830995AB
:1008B0006981462E7A81572E640C751CD601ED9104
:1008C000FC91461457046CF40088F189E02D8701EF
:1008D0009401A501B201C6010995BFEF4B1A5B0A4D
:1008E000EDCF0688F789E02DC6010F900F90DF91BC
:1008F000CF911F910F91FF90EF90DF90CF90BF901D
:10090000AF909F908F907F906F905F904F900994E1
:10091000AF92BF92CF92DF92EF92FF920F931F930D
:10092000CF93DF9300D000D0CDB7DEB75C01690173
:10093000DC01ED91FC910284F385E02D4B835C8317
:1009400069837A830995D501ED91FC9169817A815A
:100950009B012C0D3D1D215031090488F589E02DA6
:1009600078014B815C818A01C5010995D501ED9122
:10097000FC910688F789E02DC5010F900F900F902C
:100980000F90DF91CF911F910F91FF90EF90DF902B
:10099000CF90BF90AF900994AF92BF92CF92DF9269
:1009A000EF92FF920F931F93CF93DF9300D000D06D
:1009B000CDB7DEB75C016901DC01ED91FC910284E9
:1009C000F385E02D4B835C8369837A830995D50198
:1009D000ED91FC914B815C81C40ED51EB1E0CB1A28
:1009E000D1080488F589E02D7801860169817A8132
:1009F0009B01C5010995D501ED91FC910688F78908
:100A0000E02DC5010F900F900F900F90DF91CF91C7
:100A10001F910F91FF90EF90DF90CF90BF90AF901C
:100A200009940895EF92FF920F931F93DC01ED91CB
:100A3000FC9100A0F1A1E02D09951F910F91FF906D
:100A4000EF9008950F931F93DC01ED91FC91068CBC
:100A5000F78DE02D09951F910F9108950F931F9326
:100A6000DC01ED91FC91048CF58DE02D09951F9131
:100A70000F910895DC01ED91FC910084F185E02D4A
:100A8000099408952F923F924F925F926F927F92B6
:100A90008F929F92AF92BF92CF92DF92EF92FF928E
:100AA0000F931F93CF93DF9300D01F92CDB7DEB784
:100AB0004C017B836A836A01590117019801241B49
:100AC000350B37FF03C0319521953109C5014A81A6
:100AD0005B81841B950B97FF03C0919581959109CC
:100AE00051E059838217930714F019820BC09A2D95
:100AF0008B2D5801092F182F9A818B81DB82CA8296
:100B0000C92ED82E8A819B81A816B9065CF49C2D2B
:100B10008D2D6801092F182F9A818B81BB82AA82A3
:100B2000A92EB82E2501AA81BB814A1A5B0A380179
:100B30006C187D0877FE03C071946194710872018E
:100B400057FE03C0BFEFEB1AFB0AF594E794C016FB
:100B5000D1061CF00FEF1FEF1FC001E010E01CC01A
:100B6000D401ED91FC91B9810484F585E02D9101CA
:100B7000BB23C1F04A815B81B601C4010995E61827
:100B8000F708F7FE04C0C00ED11EE40CF51CEA8184
:100B9000FB813196FB83EA834A815B81A416B5060B
:100BA000FCF604C0A6016A817B81E7CF0F900F900D
:100BB0000F90DF91CF911F910F91FF90EF90DF90F9
:100BC000CF90BF90AF909F908F907F906F905F90ED
:100BD0004F903F902F90089585ED8093BC008091B9
:100BE000BC0084FDFCCF10929F040895409128031F
:100BF000262F30E0240F311D21323105DCF4209105
:100C00009F042430C9F4FC0180E090E0861758F47A
:100C1000309128032191DC01AA5FBC4FA30FB11DC5
:100C20002C930196F3CF80912803680F60932803DB
:100C300080E0089581E0089582E008950895E091AC
:100C40004A0480914904E81730F4F0E0E55BFB4F7B
:100C5000808190E008958FEF9FEF089590914A046E
:100C600080914904981750F4E92FF0E0E55BFB4FC1
:100C7000208130E09F5F90934A0402C02FEF3FEF46
:100C8000C90108958091490490E020914A04821B93
:100C900091090895CF92DF92EF92FF920F931F93E5
:100CA000CF93DF937C01262F972F8A018091A00498
:100CB000882391F0C62FD72F6E01C40ED51ECC15F8
:100CC000DD0571F06991D701ED91FC910190F08102
:100CD000E02DC7010995F3CF642F822F0E94F605FE
:100CE000C801DF91CF911F910F91FF90EF90DF909E
:100CF000CF900895CF93DF931F92CDB7DEB769836E
:100D00002091A0042223D1F02091C204203240F08F
:100D100021E030E0FC013383228380E090E015C0C5
:100D20008091A104E82FF0E0EE55FB4F998190836C
:100D30008F5F8093A1048093C20405C061E0CE015F
:100D400001960E94F60581E090E00F90DF91CF912F
:100D50000895089580E090E008950F931F93CF9336
:100D6000DF931F92CDB7DEB78C01DC01ED91FC91D2
:100D70000284F385E02D698309956981611102C0C0
:100D800060E201C061E2C8010E94301BD801ED9110
:100D9000FC910688F789E02DC8010F90DF91CF9173
:100DA0001F910F9109948F929F92AF92BF92CF9211
:100DB000DF92EF92FF920F931F93CF93DF93EC019B
:100DC000490181E0881A9108860E971EC401A0E0AF
:100DD000B0E04B01A12CB12C540199248824882A1D
:100DE000992AAA2ABB2A680181E0C81AD108C40E30
:100DF000D51EC601A0E0B0E06A01E12CF12C76011D
:100E0000DD24CC24C82AD92AEA2AFB2A6AE2CE01A8
:100E10000E94301B2BA16B2D77278827992727FF4E
:100E200018C06EBD0DB407FEFDCFC501AA27BB27B4
:100E30008EBD0DB407FEFDCFBB27AB2D9A2D892D9E
:100E40008EBD0DB407FEFDCF8EBC0DB407FEFDCFE9
:100E500014C0CE010E94731AB50188279927CE01CC
:100E60000E94731A99278B2D7A2D692DCE010E942D
:100E7000731A682DCE010E94731A6BE2CE010E9494
:100E8000301B2BA16F2D77278827992727FF18C0A4
:100E90006EBD0DB407FEFDCFC701AA27BB278EBDCF
:100EA0000DB407FEFDCFBB27AF2D9E2D8D2D8EBD22
:100EB0000DB407FEFDCFCEBC0DB407FEFDCF14C0B0
:100EC000CE010E94731AB70188279927CE010E948C
:100ED000731A99278F2D7E2D6D2DCE010E94731AC6
:100EE0006C2DCE010E94731A6CE2CE01DF91CF917E
:100EF0001F910F91FF90EF90DF90CF90BF90AF9038
:100F00009F908F900C94301B1F93CF93DF93EC0135
:100F100063706D8B6230C1F0633001F1613051F06C
:100F200080EF90E09987888780E491E09B878A87AB
:100F300018E41DC080E491E09987888780EF90E0F5
:100F40009B878A8718E213C080EF90E09987888793
:100F500080E491E09B878A8718E809C080E491E0EB
:100F60009987888780EF90E09B878A8718EEE881D1
:100F7000F9810284F385E02DCE01099566E3CE0167
:100F80000E94301B612FCE010E94731AE881F98103
:100F90000688F789E02DCE01DF91CF911F9109944A
:100FA0002F923F924F925F926F927F928F929F9279
:100FB000AF92BF92CF92DF92EF92FF920F931F9367
:100FC000CF93DF93CDB7DEB76C970FB6F894DEBF43
:100FD0000FBECDBF9C8F8B8F5B011A011F830E83C9
:100FE0003701C982DC0158964D915C9159974115A2
:100FF000510509F0E5C018968D919C9119976817D5
:1010000079070CF0CAC11A968D919C911B972816EE
:1010100039060CF0C2C18C2C912CFB0136E0C39E2A
:10102000E00DF11D1124FB87EA871E161F060CF048
:10103000B4C1C40133E0880F991F3A95E1F79D8749
:101040008C87820D931D181619060CF0A6C15796B1
:101050008C91811103C0203B08F02F5FAB8DBC8DBC
:10106000ED91FC9111970284F385E02DCD012A8F3B
:1010700009952A8DB5E02B9F90011124F501359635
:10108000FF87EE87BB82AA822501A9014A195B0965
:10109000598B488BC10108969B8B8A8BE889F9890B
:1010A000E40DF51DE952FF4F9491988761013D824F
:1010B0002C82A885A0FF13C0AB8DBC8DED91FC9157
:1010C000B981B13031F40484F585E02D2E813F8162
:1010D00016C00684F785E02DEE80FF801AC0EE81F1
:1010E000FF816E167F06F1F0AB8DBC8DED91FC910A
:1010F000B981B13051F40484F585E02D9301A60146
:10110000B2018B8D9C8D09950DC00684F785E02D6D
:101110007301840194014C815D816A817B818B8D97
:101120009C8D0995E885E695E887FFEFCF1ADF0AE1
:101130002C813D81280D391D3D832C834A895B8993
:10114000C416D50609F0B5CF5FEF451A550A8A8156
:101150009B81880D991D9B838A83AE85BF854A1626
:101160005B0609F09BCFEE81FF816E167F0609F4C6
:10117000F2C0EB8DFC8DA081B181F981F13079F461
:10118000B5016B5F7F4F5096ED91FC9151978301B4
:1011900028E030E0A1018B8D9C8D0995DCC06A852B
:1011A0007B85681979091E96ED91FC911F97730153
:1011B0000C851D859401A1018B8D9C8D0995CBC05B
:1011C000FA0134969491329765917491291BCB0161
:1011D000B7E02B9F800D911D1124FA0125913491C8
:1011E0003B8B2A8BFC01459154915B834A83FC0124
:1011F0003296C490319654915E873296149131960E
:10120000D4908981823058F0612E012E000C77082D
:10121000AD2D0D2C000CBB0BB987A88704C0198617
:101220001886612C712CAB8DBC8DED91FC911197C2
:101230000284F385E02DCD010995B9818B2E912C87
:10124000689CC001699C900D789C900D1124FC0154
:10125000EA0DFB1DFD87EC871C82712C612CE12FB0
:10126000110FFF0B95012E0F3F1F3B872A87AC0CF8
:10127000B11CA5014E0F5F1F5F8B4E8BC1018D0D01
:10128000911DD7FC9A95998F888F4E85641608F02A
:1012900062C0862D90E048855985480F591F489DAA
:1012A0009001499D300D589D300D1124D901A20D9A
:1012B000B31DB98BA88BAA84BB844C845D84DC806D
:1012C000BA85DB1AE88DF98DE80FF91FFD8BEC8BE1
:1012D0008D2D8A0D2E893F89A216B306B9F187702C
:1012E00061F48A819B810196EA89FB89AA81BB818D
:1012F000EA0FFB1F74909B838A8377FE20C0AB8D1F
:10130000BC8DED91FC91B981B13061F40484F58517
:10131000E02D2E813F814C895D89B5018B8D9C8D9F
:1013200009950DC00684F785E02DEE80FF808401CD
:10133000940148895989B2018B8D9C8D0995770C50
:10134000EFEFAE1ABE0A480C591CC2CF3C813C0DCF
:101350003C8363949ACFAB8DBC8DED91FC9111973A
:101360000688F789E02DCD016C960FB6F894DEBFA4
:101370000FBECDBFDF91CF911F910F91FF90EF90E6
:10138000DF90CF90BF90AF909F908F907F906F90A5
:101390005F904F903F902F9009946C960FB6F89401
:1013A000DEBF0FBECDBFDF91CF911F910F91FF9098
:1013B000EF90DF90CF90BF90AF909F908F907F90F5
:1013C0006F905F904F903F902F900895CF93CFB73D
:1013D000F89480914D03811127C0EDE1F6E08491EE
:1013E000EFEFF5E09491E82FF0E0EE0FFF1FE95DDD
:1013F000F94FA591B491EC91E92321F461E08AE0E1
:101400000E94A91861E08AE00E94D9188CB5806119
:101410008CBD8CB580648CBD61E08DE00E94D918D4
:1014200061E08BE00E94D91880914D038F5F80931B
:101430004D03CFBFCF910895BF92CF92DF92EF922D
:10144000FF920F931F93CF93DF93EC01411551054A
:101450006105710521F440E052E16AE770E04C8FCC
:101460005D8F6E8F7F8F88A187FD07C061E00E942E
:10147000D91861E088A10E94A91861E089A10E94A1
:10148000D91860E089A10E94A9188BA187FD16C018
:1014900061E08CA10E94D91860E08CA10E94A9187B
:1014A00061E08BA10E94D91861E08BA10E94A9186C
:1014B0008DA187FD03C060E00E94D9188BA187FD34
:1014C0000E94E6098AA187FD21C061E00E94D91827
:1014D00061E08AA10E94A91864E670E080E090E0D3
:1014E0000E94151960E08AA10E94A91864E670E0C4
:1014F00080E090E00E94151961E08AA10E94A9187D
:1015000068EC70E080E090E00E941519E881F981B4
:101510000284F385E02DCE01099508E610E07801FC
:10152000EFEFEE1AFE0AF8016491662321F1CE0175
:101530000E94301B0E5F1F4FF701E490FE2DFF77D6
:10154000BF2E6801FF2EFA948FEFF81649F0F601CE
:101550006491CE010E94731AFFEFCF1ADF0AF3CF16
:101560000B0D111DE7FEDBCF68E770E080E090E037
:101570000E941519D4CFE881F9810688F789E02DFA
:10158000CE01099580EF90E09987888780E491E00B
:101590009B878A87DF91CF911F910F91FF90EF90EA
:1015A000DF90CF90BF9008951F920F920FB60F92C9
:1015B00011242F933F934F935F936F937F938F9358
:1015C0009F93AF93BF93EF93FF938091B900887F70
:1015D000803609F49CC068F5883209F45BC090F449
:1015E000803109F454C038F4882309F4F6C08830F7
:1015F00009F44DC0F6C0883109F44CC0803209F4BA
:101600005DC0EFC0803409F468C048F4803309F449
:1016100055C0883309F0E5C080939D04D8C080355B
:1016200009F44FC0883509F45DC0883409F0D9C089
:10163000D6C0883909F4C7C0A8F4883709F467C050
:1016400038F4883609F463C0803709F460C0C9C033
:10165000883809F4B8C0803909F45FC0803809F0CF
:10166000C0C05BC0803B09F486C038F4803A09F4FE
:1016700066C0883A09F47FC0B4C0803C09F4A7C0B2
:10168000883C09F4A4C0883B09F48AC0AAC08091B0
:101690007A0410C090919C0480919B04981770F577
:1016A000E0919C0481E08E0F80939C04F0E0E5586B
:1016B000FB4F80818093BB0085EC86C080939D04A6
:1016C0008EC0E0919C0481E08E0F80939C048091F9
:1016D000BB00F0E0E558FB4F808390919C04809123
:1016E0009B046EC0E0919C0481E08E0F80939C046B
:1016F0008091BB00F0E0E558FB4F808380919E0411
:1017000081116DC081E08093790484EA61C083E037
:1017100080939F0410924C03CFCF80914C03803272
:1017200008F051C0E0914C0381E08E0F80934C0390
:101730008091BB00F0E0E45DFC4F8083BDCF85EC81
:101740008093BC0010929F0480914C03803230F44F
:10175000E0914C03F0E0E45DFC4F108260914C039B
:1017600070E0E0912A03F0912B038CE293E009955D
:1017700010924C0336C084E080939F04109229039A
:1017800010922803E0912603F09127030995809198
:101790002803811105C081E080932803109206037D
:1017A000E091290381E08E0F80932903F0E0EA5F46
:1017B000FC4F80818093BB00909129038091280386
:1017C000981708F479CF85E88093BC000AC085ECAF
:1017D0008093BC0010929F0404C010929D040E944C
:1017E000EC05FF91EF91BF91AF919F918F917F9108
:1017F0006F915F914F913F912F910F900FBE0F907E
:101800001F90189510929F0481E080939E0410927F
:10181000790461E082E10E94A91861E083E10E94FD
:10182000A918E9EBF0E080818E7F808380818D7F35
:10183000808388E48093B80085E48093BC00089599
:1018400008958CBD9DBD0895EF92FF920F931F9355
:1018500080915C0290915D0201962FE0289FF0013B
:10186000299FF00D112480915A0290915B02E80F9C
:10187000F91FEE0FFF1FE05FFE4F808191819C01F9
:101880002B7F232B19F0079709F04FC040910E01D1
:1018900050910F014C5E5F4F60910C0170910D01F2
:1018A0008FE1E82EF12C04E110E024E130E087E73D
:1018B00095E00E941A1680915C0290915D022FE0E3
:1018C000289FF001299FF00D112480915A029091D8
:1018D0005B02E80FF91FEE0FFF1FE05FFE4F8081F4
:1018E0009181039781F040910E0150910F01609119
:1018F0000C0170910D01E12CF12C24E130E087E71F
:1019000095E00E941A1680910E0190910F01449665
:1019100090930F0180930E0180915C0290915D0283
:10192000019690935D0280935C021F910F91FF904E
:10193000EF900895EF92FF920F931F9380915C02B6
:1019400090915D0201972FE0289FF001299FF00DF3
:10195000112480915A0290915B02E80FF91FEE0F5B
:10196000FF1FE05FFE4F808191819C012B7F232B25
:1019700019F0079709F04FC040910E0150910F01E7
:101980004451510960910C0170910D018FE1E82ED5
:10199000F12C04E110E024E130E087E795E00E94BB
:1019A0001A1680915C0290915D022FE0289FF00151
:1019B000299FF00D112480915A0290915B02E80F4B
:1019C000F91FEE0FFF1FE05FFE4F808191810397AB
:1019D00081F040910E0150910F0160910C017091C6
:1019E0000D01E12CF12C24E130E087E795E00E9425
:1019F0001A1680910E0190910F01449790930F0158
:101A000080930E0180915C0290915D02019790930A
:101A10005D0280935C021F910F91FF90EF900895FB
:101A2000EF92FF920F931F9380915C0290915D0261
:101A30002FE0289FF001299FF00D112480915A0278
:101A400090915B02E80FF91FEE0FFF1FEE5EFE4F55
:101A5000808191819C012B7F232B19F0079709F03E
:101A60004FC040910E0150910F0160910C01709197
:101A70000D016C5E7F4F8FE1E82EF12C04E110E048
:101A800024E130E087E795E00E941A1680915C021D
:101A900090915D022FE0289FF001299FF00D112405
:101AA00080915A0290915B02E80FF91FEE0FFF1F21
:101AB000E05FFE4F80819181039781F040910E019C
:101AC00050910F0160910C0170910D01E12CF12CEE
:101AD00024E130E087E795E00E941A1680910C011E
:101AE00090910D01449690930D0180930C0180918B
:101AF0005A0290915B02019690935B0280935A0286
:101B00001F910F91FF90EF900895EF92FF920F9326
:101B10001F9380915C0290915D022FE0289FF0015D
:101B2000299FF00D112480915A0290915B02E80FD9
:101B3000F91FEE0FFF1FE25FFE4F808191819C0134
:101B40002B7F232B19F0079709F04FC040910E010E
:101B500050910F0160910C0170910D016451710958
:101B60008FE1E82EF12C04E110E024E130E087E77A
:101B700095E00E941A1680915C0290915D022FE020
:101B8000289FF001299FF00D112480915A02909115
:101B90005B02E80FF91FEE0FFF1FE05FFE4F808131
:101BA0009181039781F040910E0150910F01609156
:101BB0000C0170910D01E12CF12C24E130E087E75C
:101BC00095E00E941A1680910C0190910D014497A6
:101BD00090930D0180930C0180915A0290915B02C9
:101BE000019790935B0280935A021F910F91FF908F
:101BF000EF900895EF92FF920F931F93CF930E945F
:101C0000321180910301909104010196CFE0C89FA9
:101C1000F001C99FF00D1124809101019091020102
:101C2000E80FF91FEE0FFF1FE05FFE4F80819181EB
:101C30008B7F892B09F04FC04091090150910A0117
:101C40004C5E5F4F609107017091080180EEE82EB5
:101C500087E0F82E04E110E024E130E087E795E02A
:101C60000E941A168091030190910401C89FF0010F
:101C7000C99FF00D11248091010190910201E80F9C
:101C8000F91FEE0FFF1FE05FFE4F808191810397E8
:101C900081F04091090150910A0160910701709112
:101CA0000801E12CF12C24E130E087E795E00E9467
:101CB0001A168091090190910A01449690930A01A5
:101CC0008093090180910301909104010196909302
:101CD00004018093030184E090E0909306018093D7
:101CE0000501CF911F910F91FF90EF900895EF9212
:101CF000FF920F931F93CF930E94321180910301A3
:101D0000909104010197CFE0C89FF001C99FF00DA9
:101D100011248091010190910201E80FF91FEE0F4B
:101D2000FF1FE05FFE4F808191818B7F892B09F03F
:101D30004FC04091090150910A01445151096091ED
:101D400007017091080180EEE82E87E0F82E04E18B
:101D500010E024E130E087E795E00E941A168091B8
:101D6000030190910401C89FF001C99FF00D112457
:101D70008091010190910201E80FF91FEE0FFF1F02
:101D8000E05FFE4F80819181039781F040910901CE
:101D900050910A016091070170910801E12CF12C2A
:101DA00024E130E087E795E00E941A16809109014E
:101DB00090910A01449790930A01809309018091C0
:101DC0000301909104010197909304018093030112
:101DD00084E090E09093060180930501CF911F91DC
:101DE0000F91FF90EF900895EF92FF920F931F9342
:101DF000CF930E9432118091030190910401CFE0B2
:101E0000C89FF001C99FF00D1124809101019091AC
:101E10000201E80FF91FEE0FFF1FEE5EFE4F8081FB
:101E200091818B7F892B09F04FC04091090150911E
:101E30000A0160910701709108016C5E7F4F80EE8E
:101E4000E82E87E0F82E04E110E024E130E087E797
:101E500095E00E941A168091030190910401C89F99
:101E6000F001C99FF00D11248091010190910201B0
:101E7000E80FF91FEE0FFF1FE05FFE4F8081918199
:101E8000039781F04091090150910A016091070187
:101E900070910801E12CF12C24E130E087E795E016
:101EA0000E941A1680910701909108014496909320
:101EB0000801809307018091010190910201019630
:101EC000909302018093010184E090E090930601D9
:101ED00080930501CF911F910F91FF90EF9008958E
:101EE000EF92FF920F931F93CF930E943211809134
:101EF000030190910401CFE0C89FF001C99FF00D4C
:101F000011248091010190910201E80FF91FEE0F59
:101F1000FF1FE25FFE4F808191818B7F892B09F04B
:101F20004FC04091090150910A01609107017091E1
:101F300008016451710980EEE82E87E0F82E04E173
:101F400010E024E130E087E795E00E941A168091C6
:101F5000030190910401C89FF001C99FF00D112465
:101F60008091010190910201E80FF91FEE0FFF1F10
:101F7000E05FFE4F80819181039781F040910901DC
:101F800050910A016091070170910801E12CF12C38
:101F900024E130E087E795E00E941A16809107015E
:101FA00090910801449790930801809307018091D4
:101FB0000101909102010197909302018093010128
:101FC00084E090E09093060180930501CF911F91EA
:101FD0000F91FF90EF90089590938405809383056F
:101FE000709386056093850510928A051092890585
:101FF0001092880510928705411101C041E040937D
:102000008B05F901448155816081718187E795E0F5
:102010000E94B31042E050E060EC72E087E795E088
:102020000C94B3102091C2049091BD05213208F0A8
:102030004AC080919F048111FCCF32E030939F040D
:1020400031E030939E043FEF30939D0410929C0446
:1020500020939B04A2EAB4E04BE754E0FA013E2F40
:10206000341B321718F43D913193F9CF10927A0452
:1020700020917A04990F922B90937A04909179048D
:10208000913061F41092790490917A049093BB009E
:102090009091BC0093FDF8CF95EC01C095EE909324
:1020A000BC0090919F049230E1F390919D049F3F7A
:1020B00079F080919D04803241F080919D048033BD
:1020C00031F084E005C081E003C082E001C083E01C
:1020D0001092A1041092C2041092A004089590914D
:1020E0009F049111FCCF91E090939F0490939E04E4
:1020F0002FEF20939D0410929C04260F20939B04A5
:1021000090937A0490917A04880F892B80937A04B3
:1021100080917904813061F41092790480917A047D
:102120008093BB008091BC0083FDF8CF85EC01C09B
:1021300085EE8093BC0080919F048130E1F3809113
:102140009C04861710F460919C04ABE7B4E02BE488
:1021500034E0F9018E2F821B861718F48D9181933C
:10216000F9CF862F0895CF92DF92EF92FF920F93CF
:102170001F93CF93DF936C017A018B01C0E0D0E015
:10218000CE15DF0589F0D8016D918D01D601ED9155
:10219000FC910190F081E02DC6010995892B11F485
:1021A0007E0102C02196ECCFC701DF91CF911F9134
:1021B0000F91FF90EF90DF90CF900895EF92FF92F4
:1021C0000F931F93CF93DF93F090B5059FEFF91214
:1021D00007C08EBD00000DB407FEFDCF8EB51DC03B
:1021E000E090B30507E010E0C82FD0E0BE01002E5C
:1021F00002C0759567950A94E2F7617077278E2D76
:102200000E94A91861E08F2D0E94A91860E08F2D0F
:102210000E94A9180150110948F7DF91CF911F9131
:102220000F91FF90EF900895CF93C82F81E0809396
:10223000A00482E58093BD051092A1041092C2040F
:1022400080E695E00E947A066C2F80E695E00E9479
:102250007A060E9412106AE070E080E090E0CF9170
:102260000C941519EF92FF921F93CF93DF93CDB784
:10227000DEB72C970FB6F894DEBF0FBECDBF66E079
:1022800082E50E946F10182F10924A04809349042F
:10229000CE0101967C0180914A04181749F080E62E
:1022A00095E00E942E06F701819391937F01F3CF71
:1022B00089819A8190936C0480936B048B819C81BB
:1022C00090936E0480936D048B859C859C0135955D
:1022D000279535952795A901437055272D813E8176
:1022E000220F331F220F331F242B352B3093700402
:1022F00020936F049C0174E0359527957A95E1F75A
:10230000A901437055272F813885220F331F220FD3
:10231000331F242B352B30937204209371049C01BE
:10232000F6E035952795FA95E1F7A9014370552711
:1023300029853A85220F331F220F331F242B352B7B
:1023400030937404209373049C0121703327F1E0CF
:102350002F27309376042093750421E030E081FF2D
:1023600002C020E030E0309378042093770460E0EE
:1023700080E02C960FB6F894DEBF0FBECDBFDF9184
:10238000CF911F91FF90EF900C941411009769F07A
:10239000FC0101900020E9F73197AF01481B590B70
:1023A000BC0183EC94E00C94B31080E090E00895BD
:1023B0002F923F924F925F926F927F928F929F9255
:1023C000AF92BF92CF92DF92EF92FF920F931F9343
:1023D000CF930E944F192B013C01812C912C540169
:1023E00083945DE2252E312C0E944F19DC01CB0134
:1023F00084199509A609B70984369105A105B10587
:1024000008F05AC1809148048111FCCF80E090E02F
:10241000C12CD12C760160E0AEE6B5E0C3E070E0FF
:10242000FC01EE0FFF1FEC5FFB4F408151811296C4
:102430002D913C9113974217530748F440815181E5
:102440002D913C9111972417350708F4C72F7F5F12
:102450001296733051F7CC2389F0C13011F59501F4
:102460008401062E04C0000F111F221F331F0A947F
:10247000D2F7C02AD12AE22AF32A12C09501840198
:10248000062E04C0000F111F221F331F0A94D2F71B
:102490000095109520953095C022D122E222F3229A
:1024A0006F5F01968232910509F0B6CF8F2D992783
:1024B000AA27BB27B701A601409550956095709556
:1024C000861308C08093BC058D2D90E09093BB05CA
:1024D0008093BA058091BC058E3109F457C058F439
:1024E0008F3019F118F48A30A9F07ECF843161F170
:1024F0008931C9F179CF883209F462C020F483327E
:1025000009F44FC071CF8D3209F467C0823309F4EA
:1025100073C06ACF80916402909165020A9711F4AA
:102520000E94850D8FE090E00AC080916402909136
:1025300065020F9711F40E94850D8AE090E0909358
:1025400065028093640250CF809162029091630291
:10255000449731F40E94100D8AEE92E00E94C61159
:1025600089E190E00EC080916202909163024997E8
:1025700031F40E94100D80E093E00E94C61184E1C6
:1025800090E090936302809362022ECF809160026C
:10259000909161024E9711F40E949A0C83E290E0B0
:1025A0000AC08091600290916102839711F40E94A9
:1025B0009A0C8EE190E0909361028093600214CFB8
:1025C00080915E0290915F02889711F40E94240C22
:1025D00030925F0220925E0207CF80915E0290915E
:1025E0005F028D9711F40E94240C88E290E0909392
:1025F0005F0280935E02F8CE809103048111F4CED5
:1026000080915C0290915D022FE0289FF001299F4C
:10261000F00D112480915A0290915B02E80FF91F8E
:10262000EE0FFF1FE05FFE4F86E090E09183808316
:1026300040910E0150910F0160910C0170910D01BC
:1026400090EEE92EFF24FA9404E110E024E130E05A
:1026500087E795E00E941A160E944F196093FF03C6
:1026600070930004809301049093020481E08093AE
:10267000FE0320915C0230915D023093FD032093B4
:10268000FC0320915A0230915B023093FB032093AC
:10269000FA0320910E0130910F013093F90320933A
:1026A000F80320910C0130910D013093F703209332
:1026B000F6038093030498CECF911F910F91FF9062
:1026C000EF90DF90CF90BF90AF909F908F907F90D2
:1026D0006F905F904F903F902F900895CF93DF932E
:1026E000D82FC62F8091B2058F3FC9F48091B605CF
:1026F00091E09093A0048093BD051092A1041092E4
:10270000C2046D2F80E695E00E947A066C2F80E669
:1027100095E00E947A06DF91CF910C94121080917F
:10272000B5058F3F31F480916C0590916D050E9445
:10273000210C60E08091B2050E94A9188D2F0E94A3
:10274000DE108C2F0E94DE1061E08091B2050E94A5
:10275000A9188091B5058F3F21F4DF91CF910C949A
:10276000200CDF91CF9108958F929F92AF92BF92EC
:10277000CF92DF92EF92FF920F931F93CF93DF934D
:10278000C82F8091B2058F3F59F58091B605D1E0F1
:10279000D093A0048093BD051092A1041092C204AE
:1027A0006C2F80E695E00E947A060E9412108091BC
:1027B000B605D093A0048093BD051092A104109299
:1027C000C20461E00E946F1010924A048093490491
:1027D00080E695E00E942E06B82E0E9412106BC073
:1027E0008091B5058F3F31F480916C0590916D0516
:1027F0000E94210C60E08091B2050E94A9188C2FE4
:1028000080680E94DE1080E00E94DE10A090B50576
:102810008FEFA81207C01EBC00000DB407FEFDCF4D
:10282000BEB43EC0C091B40507E010E0B12CD0E0CA
:10283000FE01EF51FA4F7F01CE018B509A4F6C0190
:10284000CD5ED94F61E08A2D0E94A918F7018491CD
:10285000F6018490FE019490992099F081110E94D4
:102860008018292D30E0220F331F29523A4FF901E9
:10287000A591B4918C91882231E009F430E0832F46
:1028800002C080E090E0002E01C0880F0A94EAF7B1
:10289000B82A60E08A2D0E94A9180150110990F60B
:1028A00061E08091B2050E94A9188091B5058F3F23
:1028B00011F40E94200C8B2DDF91CF911F910F916D
:1028C000FF90EF90DF90CF90BF90AF909F908F9050
:1028D0000895CF93DF9380E00E94B413C82FD0E017
:1028E000DC2FCC2781E00E94B4139E01282BC90164
:1028F000DF91CF9108958F929F92AF92BF92EF9206
:10290000FF922091F5032111FCCF10926E031092DB
:102910006D0328EE33E03093700320936F0328E0BB
:1029200037E03093720320937103EDE6F3E044E067
:10293000A0E0B0E04B015C010A2E04C0B694A7945D
:10294000979487940A94D2F7790180FE05C050E7E6
:10295000E51A5EEFF50A03C058ECE50EF11CF782AC
:10296000E682970128533F4F3187208711964E5FAB
:1029700034964434F9F6C70188519C4F9093F40380
:102980008093F303FF90EF90BF90AF909F908F9054
:102990000895FC01808191810C94C827EF92FF92E9
:1029A0000F931F93CF93DF93EC01198218821B8240
:1029B0001A821D821C8261157105A9F17B01FB0140
:1029C00001900020E9F731978F01061B170BB80122
:1029D0006F5F7F4F80E090E00E946028009759F081
:1029E000998388831B830A832C813D81232B81F467
:1029F000FC0110820DC088819981009711F00E941E
:102A0000C827198218821D821C821B821A820BC061
:102A10001D830C83B701DF91CF911F910F91FF9020
:102A2000EF900C943829DF91CF911F910F91FF9077
:102A3000EF900895FC01538D448D252F30E0842FB5
:102A400090E0821B930B541710F0CF9608950197D6
:102A50000895FC01918D828D981761F0828DDF01C0
:102A6000A80FB11D5D968C91928D9F5F9F73928F81
:102A700090E008958FEF9FEF0895FC01918D828D76
:102A8000981731F0828DE80FF11D858D90E0089543
:102A90008FEF9FEF0895FC01918D228D892F90E09B
:102AA000805C9F4F821B91098F739927089583EC57
:102AB00094E00E944B1521E0892B09F420E0822F3D
:102AC0000895FC01848DDF01A80FB11DA35ABF4FEB
:102AD0002C91848D90E001968F739927848FA6891D
:102AE000B7892C93A089B1898C9180648C93938D44
:102AF000848D981306C00288F389E02D80818F7D34
:102B000080830895EF92FF920F931F93CF93DF93EB
:102B1000EC0181E0888F9B8D8C8D981305C0E8892E
:102B2000F989808185FD24C0F62E0B8D10E00F5FA2
:102B30001F4F0F731127E02E8C8DE8120CC00FB6BB
:102B400007FCFACFE889F989808185FFF5CFCE01AE
:102B50000E946115F1CF8B8DFE01E80FF11DE35A44
:102B6000FF4FF0820B8FEA89FB898081806207C06A
:102B7000EE89FF896083E889F98980818064808398
:102B800081E090E0DF91CF911F910F91FF90EF9046
:102B90000895CF93DF93EC01888D8823C9F0EA89EB
:102BA000FB89808185FD05C0A889B9898C9186FD46
:102BB0000FC00FB607FCF5CF808185FFF2CFA88943
:102BC000B9898C9185FFEDCFCE010E946115E7CFC9
:102BD000DF91CF91089580E090E0892B29F00E9449
:102BE000571581110C94000008953FB7F894809117
:102BF000CF059091D005A091D105B091D20526B511
:102C0000A89B05C02F3F19F00196A11DB11D3FBF24
:102C1000BA2FA92F982F8827820F911DA11DB11DB2
:102C2000BC01CD0142E0660F771F881F991F4A95AE
:102C3000D1F70895CF92DF92EF92FF920F931F93F7
:102C4000CF93DF9300D000D000D0CDB7DEB76C01BA
:102C5000DC01ED91FC910284F385E02D2D833E8310
:102C60004B835C8369837A830995D601ED91FC914E
:102C70000684F785E02D2D813E814B815C81698141
:102C80007A81C6010995D601ED91FC910688F789F4
:102C9000E02DC60126960FB6F894DEBF0FBECDBF5D
:102CA000DF91CF911F910F91FF90EF90DF90CF9028
:102CB0000994EF92FF920F931F93CF93DF9300D06D
:102CC00000D000D0CDB7DEB77C01DC01ED91FC91E6
:102CD0000284F385E02D2D833E834B835C836983DF
:102CE0007A830995D701ED91FC910288F389E02D53
:102CF0002D813E814B815C8169817A81C701099573
:102D0000D701ED91FC910688F789E02DC701269641
:102D10000FB6F894DEBF0FBECDBFDF91CF911F91EC
:102D20000F91FF90EF900994EF92FF920F931F93F2
:102D3000CF93DF9300D000D000D0CDB7DEB77C01B9
:102D4000DC01ED91FC910284F385E02D2D833E831F
:102D50004B835C8369837A830995D701ED91FC915C
:102D60000088F189E02D2D813E814B815C81698154
:102D70007A81C7010995D701ED91FC910688F78901
:102D8000E02DC70126960FB6F894DEBF0FBECDBF6B
:102D9000DF91CF911F910F91FF90EF900994EF92E7
:102DA000FF920F931F93DC01ED91FC910684F78550
:102DB000E02D780101E010E009951F910F91FF903F
:102DC000EF900895EF92FF920F931F93DC01ED9126
:102DD000FC910684F785E02D7801890121E030E03F
:102DE00009951F910F91FF90EF9008950895FC01B0
:102DF0006370658B8481958126813781613039F0DC
:102E0000633029F09187808733872287089531873F
:102E100020879387828708950E942A29FC0183A92D
:102E2000A6A5B7A59C91892B8C9383A187FD0C94B3
:102E3000200C08950F931F93CF93DF93EC018BA188
:102E400087FF1EC00C8D1D8D2E8D3F8D90E040E0C4
:102E500052E16AE770E0041715072607370740F4C8
:102E600076956795579547959F5F9630A1F797E0C0
:102E700081E09827892F806A869591700E94210CA5
:102E80009BA9EEA5FFA58081282F30E0892F90E037
:102E900080959095822393238083DF91CF911F911A
:102EA0000F910895AF92BF92CF92EF92FF920F933E
:102EB0001F93CF93DF93EC01262F888D998D009778
:102EC00009F040C06A3059F41D861C862C898E8515
:102ED0009F8538E0239F800D911D112441C06D30E6
:102EE00009F4AAC08E898823C1F03C898C859D8510
:102EF00046E0349F800D911D11244885598548175F
:102F000059075CF41D861C868E859F8548E0349F9A
:102F1000800D911D11249F878E87EA88FB88088980
:102F200019894E855F856C857D85CC88CE010E9490
:102F3000D0072C898C859D8536E0239F800D911DBF
:102F4000112442C06A3079F41D861C862C89FC014C
:102F50003696E4918E859F852E9F800D911D1124BC
:102F60009F878E8769C06D3009F466C0FC01349676
:102F70003491631708F460C03196E491E61708F4C1
:102F80005BC0FC013296A590B490462F50E0431BE5
:102F9000510937E0349FB001359F700D1124A60E02
:102FA000B71EF501329634913196E491332311F036
:102FB000E1110DC0F5013496E4912C898C859D8535
:102FC000E29F800D911D11249D878C8735C0F501EE
:102FD000359644915E89552311F16C89E32FF0E019
:102FE000E40FF11D47FDFA956E9FD0016F9FB00D64
:102FF00011244C855D854A0F5B1FE885F985E41730
:10300000F5076CF41D861C86FC013696E4918E85CE
:103010009F856E9F800D911D11249F878E87EA8862
:10302000FB88088919894E855F856C857D85CC88EC
:10303000CE010E94D007BECF81E090E0DF91CF911A
:103040001F910F91FF90EF90CF90BF90AF90089598
:103050001F920F920FB60F9211242F933F934F930D
:103060005F936F937F938F939F93AF93BF93EF93F0
:10307000FF9383EC94E00E946115FF91EF91BF9163
:10308000AF919F918F917F916F915F914F913F9100
:103090002F910F900FBE0F901F9018951F920F92B7
:1030A0000FB60F9211242F938F939F93EF93FF935B
:1030B000E091D304F091D4048081E091D904F0919F
:1030C000DA0482FD12C090818091DC048F5F8F73DF
:1030D0002091DD04821751F0E091DC04F0E0ED5323
:1030E000FB4F958F8093DC0401C08081FF91EF91AD
:1030F0009F918F912F910F900FBE0F901F90189559
:10310000833081F028F4813099F08230A1F0089565
:103110008730A9F08830B9F08430D1F480918000F4
:103120008F7D03C0809180008F7780938000089509
:1031300084B58F7702C084B58F7D84BD089580915A
:10314000B0008F7703C08091B0008F7D8093B00076
:1031500008951F93CF93DF93282F30E0F901EF51AB
:10316000FA4F8491F901EB50FA4FD491F901ED5ED9
:10317000F94FC491CC23C9F0162F81110E948018F9
:10318000EC2FF0E0EE0FFF1FE75FF94FA591B49130
:103190008FB7F894111105C09C91ED2FE095E923AC
:1031A00002C0EC91ED2BEC938FBFDF91CF911F917B
:1031B0000895CF93DF9390E0FC01EB50FA4F2491F8
:1031C000FC01ED5EF94F8491882361F190E0880F56
:1031D000991FFC01E95DF94FC591D491FC01E75FAE
:1031E000F94FA591B491611109C09FB7F8948881F6
:1031F000209582238883EC912E230BC0623061F4EA
:103200009FB7F8943881822F809583238883EC912F
:103210002E2B2C939FBF06C08FB7F894E8812E2BDE
:1032200028838FBFDF91CF9108958F929F92AF92A5
:10323000BF92CF92DF92EF92FF926B017C010E94CE
:10324000F5154B015C01C114D104E104F104F1F066
:103250000E94F515DC01CB0188199909AA09BB095F
:10326000883E9340A105B10570F321E0C21AD10850
:10327000E108F10888EE880E83E0981EA11CB11CBD
:10328000C114D104E104F10419F7DDCFFF90EF90F0
:10329000DF90CF90BF90AF909F908F9008952FB701
:1032A000F8946091CB057091CC058091CD059091FB
:1032B000CE052FBF08951F920F920FB60F921124C3
:1032C0002F933F938F939F93AF93BF938091CB05A1
:1032D0009091CC05A091CD05B091CE053091CA0555
:1032E00023E0230F2D3720F40196A11DB11D05C049
:1032F00026E8230F0296A11DB11D2093CA058093D5
:10330000CB059093CC05A093CD05B093CE058091CD
:10331000CF059091D005A091D105B091D20501962D
:10332000A11DB11D8093CF059093D005A093D10529
:10333000B093D205BF91AF919F918F913F912F9103
:103340000F900FBE0F901F9018951F920F920FB6FF
:103350000F9211242F933F938F939F93EF93FF939B
:103360008091C8059091C9052091C6053091C70587
:10337000821B930B2091C5052F5F2093C5052091DB
:10338000C505203218F05D9810924804209172050E
:103390003091730528173907A8F4209174053091EE
:1033A00075058217930770F45D9A21E02093480415
:1033B0001092C9051092C8051092C4051092C30559
:1033C0001092C505E091C305F091C405EE0FFF1FF3
:1033D000EC5FFB4F918380838091C3059091C4057E
:1033E00001969093C4058093C3058091C305909185
:1033F000C405829720F01092C4051092C3058091F5
:10340000C8059091C9059093C7058093C605FF91A3
:10341000EF919F918F913F912F910F900FBE0F9041
:103420001F9018951F920F920FB60F9211242F9391
:103430003F938F939F93EF93FF931092B2008091ED
:10344000C8059091C90501969093C9058093C80558
:103450008091C1059091C20501969093C205809319
:10346000C1058091F503882399F12091C105309120
:10347000C205E091C005F0E0EE0FFF1FE359FC4FDD
:10348000808191812817390719F58091BF0588231C
:1034900031F01092BF058091B0008F7E06C081E0B0
:1034A0008093BF058091B00080618093B0008091CF
:1034B000B0008F7D8093B0008091C0058F5F843411
:1034C00018F48093C00504C01092C0051092F50353
:1034D000FF91EF919F918F913F912F910F900FBE90
:1034E0000F901F901895CF93DF93FC0183A187FF66
:1034F00005C06EBD0DB407FEFDCF2EC028E030E044
:1035000040E8A6A1B7A1842F862321F080A99C9131
:10351000892B0AC090A98C91C82FD0E0892F90E008
:10352000809590958C239D238C9392A9C2A5D3A5B9
:103530008881A82FB0E0892F90E0809590958A230C
:103540009B23888382A9A2A5B3A59C91892B8C93E8
:10355000469521503109A9F6DF91CF9108958F92B8
:103560009F92AF92BF92CF92DF92EF92FF920F9312
:103570001F93CF93DF93EC01690158014701288520
:103580003985621773070CF05EC08A859B854817E2
:1035900059070CF058C07B01EC0CFD1CD7011197AA
:1035A0008A010A0D1B1DF8013197B7FD4CC0F7FDCC
:1035B0004AC077FF03C0670160E070E057FF03C0B7
:1035C000580140E050E0A217B3071CF06901C61A89
:1035D000D70AE817F9071CF05C01A41AB50AE881BC
:1035E000F98102A4F3A5E02D85019601CE0109958C
:1035F0009601D5010E941E2761157105810591056F
:1036000011F12BA127FD0AC06B017C010EC00DB486
:1036100007FEFDCF8EBC0DB407FEFDCF61507109D2
:103620008109910980F09EBCF2CF692DCE010E94E4
:10363000731A682DCE010E94731A81E0C81AD1084E
:10364000E108F10891F7DF91CF911F910F91FF9061
:10365000EF90DF90CF90BF90AF909F908F900895A4
:10366000CF93DF93EC019CA9ECA5FDA52081422F0F
:1036700050E0292F30E020953095242335232083F6
:10368000CE010E94731A8CA9ECA5FDA59081892B0F
:103690008083DF91CF9108950F931F93CF93DF9392
:1036A0001F92CDB7DEB78C01DC01ED91FC91028455
:1036B000F385E02D698309956981662319F0F80186
:1036C00065A903C0D801D6966C91C8010E94301B31
:1036D000D801ED91FC910688F789E02DC8010F9083
:1036E000DF91CF911F910F9109941F93CF93DF9397
:1036F000262FFC0133A137FF09C07EBD0DB407FEA4
:10370000FDCF2EBD0DB407FEFDCF0CC0672F122FCD
:10371000EC010E94731A612FCE01DF91CF911F91AE
:103720000C94731ADF91CF911F910895AF92BF92BD
:10373000CF92DF92EF92FF920F931F93CF93DF937D
:10374000EC0177FD38C088859985681779079CF565
:1037500057FD31C08A859B854817590764F5690173
:103760005A017B01E881F9810284F385E02DCE01C5
:103770000995E881F98102A4F3A5E02D01E010E0AC
:1037800021E030E0A501B701CE010995B601CE01D7
:103790000E94751BE881F9810688F789E02DCE012A
:1037A000DF91CF911F910F91FF90EF90DF90CF901D
:1037B000BF90AF900994DF91CF911F910F91FF902F
:1037C000EF90DF90CF90BF90AF900895EF92FF926F
:1037D0000F931F93CF93DF93EC0177FD22C0888571
:1037E000998568177907ECF457FD1BC08A859B857E
:1037F00048175907B4F47901E881F98102A4F3A5C7
:10380000E02D01E010E021E030E0CE010995B701A4
:10381000CE01DF91CF911F910F91FF90EF900C940B
:10382000751BDF91CF911F910F91FF90EF9008953D
:10383000CF93DF93CDB7DEB727970FB6F894DEBFEF
:103840000FBECDBF789484B5826084BD84B581609D
:1038500084BD85B5826085BD85B5816085BD80915B
:103860006E00816080936E001092810080918100D3
:1038700082608093810080918100816080938100CB
:10388000809180008160809380008091B10084608D
:103890008093B1008091B00081608093B0008091EE
:1038A0007A00846080937A0080917A0082608093AD
:1038B0007A0080917A00816080937A0080917A000A
:1038C000806880937A001092C100E091D304F09157
:1038D000D40482E08083E091CF04F091D004108280
:1038E000E091D104F091D20480E180831092DB0456
:1038F000E091D704F091D80486E08083E091D5046C
:10390000F091D604808180618083E091D504F091AC
:10391000D604808188608083E091D504F091D6043C
:10392000808180688083E091D504F091D604808105
:103930008F7D8083529A5D9852985A98E89A809128
:1039400069008260809369007894539A8091B000F6
:103950008E7F8093B0008091B0008D7F8093B00007
:103960008091B100877F8093B1008091B100816028
:103970008093B1008091B1008D7F8093B1008091E0
:10398000B1008B7F8093B10080917605882311F080
:1039900088E701C089EB8093B40080917000846057
:1039A0008093700078948091B0008F7E8093B000F7
:1039B0008091B0008F7D8093B0006BEF74E08FEF4B
:1039C00090E00E947B1440E050E0BA0187E795E068
:1039D0000E941C0A61E087E795E00E9484073A9AFA
:1039E0003B9A439A0E94D81110924A0410924904BB
:1039F0001092A1041092C2040E94020C60EF85E5AF
:103A00000E9414116BEF80E00E9414110E94321189
:103A10009091B2059F3F59F18091B50561E08F3FCC
:103A2000A1F4892F0E94D91861E08091B2050E940B
:103A3000A9180E94E60981E580936C0510926D0536
:103A40001092B8051092B7051FC00E94D91861E006
:103A50008091B2050E94D91861E08091B3050E945F
:103A6000D91860E08091B4050E94D9180DC0109259
:103A70004A04109249041092A1041092C2040E94B8
:103A8000020C81E48093B6050E946914813198404C
:103A900061F462E083E00E946E136AE070E080E00F
:103AA00090E00E94151910E01CC08091B2058F3F74
:103AB00009F45CC08091B5058F3F09F057C085E5DA
:103AC00080936C0510926D0584E090E09093B805AA
:103AD0008093B7050E9469148131984009F046C06F
:103AE000D8CF812F0E94B4131F5F1134D1F760E04B
:103AF00084E00E946E1361E080E40E946E1361E036
:103B00008AE00E946E1360E680E20E946E1362E01B
:103B100081E20E946E1364EA81E40E946E1366E003
:103B200086E50E946E1361E08AE40E946E1361E0F4
:103B30008BE40E946E1360E08BE40E946E1361E0E0
:103B400088E50E946E136FEF8BE00E946E1365E0B4
:103B500089E00E946E1310926C0310926B03CE01E9
:103B600001961C0194E0920D9F8371C0FFCF87EDF9
:103B70000E94B413F60181936F01FF81FC11F7CF0E
:103B8000A98020E1A29EA00111248A81A82EB12C37
:103B900064E0B594A7946A95E1F7A42AB52A8F70DA
:103BA000C82ED12CDC2CCC248B81C82A9C808BE4A1
:103BB0000E94B41385FF04C06FEF8BE00E946E1368
:103BC000892D90E00B978D3D934060F5C501A0E0F5
:103BD000B0E09C01AD012659310941095109A0917C
:103BE0007F05B09180050E94AE2622E43EE040E0D1
:103BF00050E00E9484265901C601A0E0B0E09C017B
:103C0000AD012258310941095109A0918105B091B6
:103C100082050E94AE262EE13FE040E050E00E9487
:103C20008426690180906B0390906C0352E08516A6
:103C3000910409F43CC194F48114910409F452C034
:103C400091E08916910409F4B3C00E94EB158BE44E
:103C50000E94B41385FDF9CF610189CFE4E08E168F
:103C6000910409F4B6C50CF4A4C125E082169104B0
:103C700061F760E078EF87E795E00E941A04B0EE04
:103C8000EB2EFF24FA9400E210E02CE430E046EB47
:103C900050E06CE070E087E795E00E941A166EED48
:103CA00072E0C1010E94CE14910141E050E063EC4A
:103CB00070E088E290E00E94EC0FC1010E94C914FC
:103CC00067EF72E0C1010E94CE14910144E050E020
:103CD00060E570E08CE390E00E94EC0FC1010E946F
:103CE000C914C8C08091690390916A03892B61F45B
:103CF00060E070E087E795E00E941A0481E090E0C0
:103D000090936A038093690350EEE52EFF24FA94A2
:103D100008E210E02AE530E042E650E066E470E0B8
:103D200087E795E00E941A1663EC72E0C1010E94D9
:103D3000CE14910141E050E063E770E085E590E04A
:103D40000E94EC0FC1010E94C91425E530E042E653
:103D500050E065EA70E087E795E00E941A166FEC84
:103D600072E0C1010E94CE14910141E050E063E78E
:103D700070E082EB90E00E94EC0FC1010E94C91438
:103D80004CE8A41AB1085EE2A516B10408F05DCFB4
:103D9000C601C297CD9708F065C581E090E0909389
:103DA0006C0380936B0310926A03109269035AC5E7
:103DB0008091690390916A03892B51F460E070E06F
:103DC00087E795E00E941A0490926A038092690343
:103DD00040EEE42EFF24FA940EE510E02CE430E0EF
:103DE00045E550E06CE070E087E795E00E941A1628
:103DF0006AED72E0C1010E94CE14910143E050E0EF
:103E000068E770E08EE190E00E94EC0FC1010E9433
:103E1000C91400E210E02CE430E046EB50E06CE026
:103E200070E087E795E00E941A166EED72E0C1011E
:103E30000E94CE14910141E050E063EC70E088E212
:103E400090E00E94EC0FC1010E94C914C5018A557F
:103E500091098F36910570F4C6010F978E9750F433
:103E600010926A031092690383E090E090936C03D0
:103E700080936B039DE2A91AB108EAE1AE16B10482
:103E800008F0E3CEFFE0CF1AD1082EE2C216D1042B
:103E900008F0DBCE10926A03109269031092680357
:103EA00010920B0110926C0310926B03CECE809196
:103EB000690390916A03892B61F460E070E087E701
:103EC00095E00E941A0481E090E090936A03809349
:103ED000690330EEE32EFF24FA940EE510E02CE4A3
:103EE00030E045E550E06CE070E087E795E00E9447
:103EF0001A166AED72E0C1010E94CE14910143E0EE
:103F000050E068E770E08EE190E00E94EC0FC101A4
:103F10000E94C91400E210E02CE430E046EB50E0CF
:103F20006CE070E087E795E00E941A166EED72E093
:103F3000C1010E94CE14910141E050E063EC70E0B9
:103F400088E290E00E94EC0FC1010E94C914C501F3
:103F50008A5591098F36910570F4C6010F978E9797
:103F600050F410926A031092690383E090E09093FA
:103F70006C0380936B034DE2A41AB1085AE1A516B5
:103F8000B10408F062CE8FE0C81AD1089EE2C916CB
:103F9000D10408F05ACE10926A031092690310926D
:103FA0006C0310926B031092680381E080930B0105
:103FB0004CCE60E070E087E795E00E941A044091E3
:103FC000090150910A01609107017091080110EEFA
:103FD000E12E17E0F12E04E110E024E130E087E764
:103FE00095E00E941A1640910E0150910F016091C8
:103FF0000C0170910D018FE1E82EF12C24E130E0ED
:1040000087E795E00E941A1690E1A92E91E0B92E5B
:1040100024E1822E912CFAE04F2E512CC12CD12C70
:1040200035016C0C7D1CF30180819181019769F44D
:10403000E12CB8EFFB2E04E110E024E130E0A40114
:10404000B20187E795E00E941A16F3018081918101
:10405000029771F4EE24EA94A7E0FA2E04E110E04E
:1040600024E130E0A401B20187E795E00E941A162E
:10407000F2E0CF0ED11C24E1420E511C4EE1C416D9
:10408000D10471F65EE1A50EB11C84E1880E911C8D
:104090009AE5A91692E0B90609F0BDCF55245394CC
:1040A0000FE0402E80910001882309F4CECD0E94BC
:1040B000D8110E94321180916D0490916E0420916C
:1040C0006B0430916C04853B91055CF0A901455669
:1040D00051094F345105A8F41092060110920501C0
:1040E0002DC0813491056CF4A901455651094F3416
:1040F000510538F4E2E0F0E0F0930601E0930501A9
:104100001DC0253B310564F0855691098F3491051A
:10411000A8F441E050E050930601409305010EC021
:10412000213431055CF4855691098F34910530F4C2
:1041300083E090E090930601809305018091050152
:1041400090910601892BE9F480916703882369F037
:104150006FEF70E08CED93E20E947B145092F503B8
:104160000E94770E109267030CC06FEF70E081EE33
:104170009EE10E947B145092F5030E94770E5092AC
:10418000670380910501909106010297E9F48091FF
:104190006603882369F06FEF70E082ED9DE20E9474
:1041A0007B145092F5030E94FA0D109266030CC026
:1041B0006FEF70E087ED98E20E947B145092F50358
:1041C0000E94FA0D509266038091050190910601BC
:1041D000019729F580916503882389F083EE92E0A9
:1041E0000E94C6116FEF70E086EE99E10E947B1489
:1041F0005092F5030E94F40E1092650310C08AEEEF
:1042000092E00E94C6116FEF70E08BEE94E10E9485
:104210007B145092F5030E94F40E50926503809136
:104220000501909106010397E9F4809164038823C6
:1042300069F06FEF70E080EF9FE00E947B14509276
:10424000F5030E94700F109264030CC06FEF70E0D2
:1042500085EF9AE00E947B145092F5030E94700F44
:10426000509264038091750490917604019709F04F
:1042700065C080916303811161C06FEF70E08DECC8
:1042800092E30E947B145092F50380910301909178
:104290000401489EF001499EF00D11248091010116
:1042A00090910201E80FF91FEE0FFF1FE05FFE4F34
:1042B00043E050E0518340834091090150910A014D
:1042C0006091070170910801E0EEEE2EFF24FA9450
:1042D00004E110E024E130E087E795E00E941A163F
:1042E0000E944F1960935F03709360038093610392
:1042F0009093620350925E038091030190910401B8
:1043000090935D0380935C03809101019091020181
:1043100090935B0380935A038091090190910A0165
:10432000909359038093580380910701909108015D
:1043300090935703809356035092630380905F03DA
:1043400090906003A0906103B090620350ED850EE1
:1043500057E0951EA11CB11C0E944F1968157905E4
:104360008A059B0508F435C180915E03882309F412
:1043700030C120915C0330915D0380915A0390918C
:104380005B03429EF001439EF00D1124E80FF91FDC
:10439000EE0FFF1FE05FFE4F44E050E0518340838B
:1043A00021503109429EF001439EF00D1124E80F87
:1043B000F91FEE0FFF1FE05FFE4F80819181019793
:1043C00071F1409158035091590344515109609142
:1043D00056037091570390EEE92EFF24FA9404E1FE
:1043E00010E024E130E087E795E00E941A16809102
:1043F0005C0390915D030197489EF001499EF00D8A
:10440000112480915A0390915B03E80FF91FEE0F7E
:10441000FF1FE05FFE4F84E090E0918380838091F6
:104420005C0390915D03489EF001499EF00D1124BC
:1044300080915A0390915B03E80FF91FEE0FFF1F65
:10444000EE5EFE4F80819181019769F140915803A2
:104450005091590360915603709157036C5E7F4FE2
:1044600010EEE12EFF24FA9404E110E024E130E0A4
:1044700087E795E00E941A1680915C0390915D0396
:10448000489EF001499EF00D112480915A039091AD
:104490005B03E80FF91FEE0FFF1FEE5EFE4F44E0D7
:1044A00050E05183408380915C0390915D030196BD
:1044B000489EF001499EF00D112480915A0390917D
:1044C0005B03E80FF91FEE0FFF1FE05FFE4F8081D7
:1044D0009181019771F140915803509159034C5EBD
:1044E0005F4F6091560370915703E0EEEE2EFF246C
:1044F000FA9404E110E024E130E087E795E00E94BF
:104500001A1680915C0390915D030196489EF0011C
:10451000499EF00D112480915A0390915B03E80F9E
:10452000F91FEE0FFF1FE05FFE4F84E090E09183E4
:10453000808380915C0390915D03489EF001499EC9
:10454000F00D112480915A0390915B03E80FF91F3D
:10455000EE0FFF1FE25FFE4F80819181019769F1AD
:10456000409158035091590360915603709157033D
:104570006451710930EEE32EFF24FA9404E110E057
:1045800024E130E087E795E00E941A1680915C03F1
:1045900090915D03489EF001499EF00D1124809199
:1045A0005A0390915B03E80FF91FEE0FFF1FE25FC4
:1045B000FE4F44E050E05183408310925E030E941E
:1045C0004F19609352037093530380935403909355
:1045D00055038091030190910401489EF001499E8A
:1045E000F00D11248091010190910201E80FF91F53
:1045F000EE0FFF1FE05FFE4F8081918184309105B7
:1046000011F0079741F485E090E090936C0380935C
:104610006B03109200018090520390905303A0907E
:104620005403B09055039CED890E95E0991EA11C92
:10463000B11C0E944F19681579058A059B05D8F1B0
:1046400080915E03811137C090E1892E91E0992E0F
:10465000A12CB12C84E1A80EB11C8AE0682E712C2B
:10466000C12CD12CF401EC0DFD1D808191810397AB
:10467000029770F411821082E12CF12C04E110E019
:1046800024E130E0A501B30187E795E00E941A1606
:10469000E2E0CE0ED11CF4E16F0E711C2EE1C216C9
:1046A000D10401F74EE1840E911C5CEDA516B10416
:1046B00089F61092630380904E0390904F03A09070
:1046C0005003B09051039CED890E95E0991EA11CFA
:1046D000B11C0E944F19681579058A059B05D8F110
:1046E0008091FE03811137C000E1802E01E0902E01
:1046F000A12CB12C84E1A80EB11C1AE0612E712C02
:10470000C12CD12CF401EC0DFD1D80819181069707
:10471000029770F411821082E12CF12C04E110E078
:1047200024E130E0A501B30187E795E00E941A1665
:10473000E2E0CE0ED11CF4E16F0E711C2EE1C21628
:10474000D10401F74EE1840E911C5CEDA516B10475
:1047500089F61092030480915C0290915D02489E5C
:10476000F001499EF00D112480915A0290915B0254
:10477000E80FF91FEE0FFF1FE05FFE4F8081918170
:104780008430910511F0079741F4E4E0F0E0F093F4
:104790006C03E0936B03109200018090FF039090F4
:1047A0000004A0900104B0900204F0ED8F0EF7E039
:1047B0009F1EA11CB11C0E944F19681579058A051E
:1047C0009B0508F46FCC8091FE03882309F46ACC22
:1047D0005CC06FE178EF87E795E00E941A0410EE65
:1047E000E12EFF24FA9400E210E02CE430E046EBE6
:1047F00050E06CE070E087E795E00E941A166EEDDD
:1048000072E0C1010E94CE14910141E050E063ECDE
:1048100070E088E290E00E94EC0FC1010E94C91490
:1048200060EF72E0C1010E94CE14910144E050E0BB
:1048300060E570E08AE590E00E94EC0FC1010E9403
:10484000C9142DE2A21AB1084AE1A416B10408F075
:10485000FCC95FE0C51AD1088EE2C816D10408F47D
:1048600019CBF3C948E7C41AD1085DE3C516D104D2
:1048700008F0EBC982E090E090936C0380936B03A7
:1048800010926A0310926903E0C92091FC033091F1
:10489000FD038091FA039091FB034FE0D42ED29E4A
:1048A000F001D39EF00D1124E80FF91FEE0FFF1F4A
:1048B000E05FFE4F46E050E05183408321503109D4
:1048C000D29EF001D39EF00D1124E80FF91FEE0FD8
:1048D000FF1FE05FFE4F80819181019771F1409150
:1048E000F8035091F903445151096091F603709116
:1048F000F703E0EEEE2EFF24FA9404E110E024E149
:1049000030E087E795E00E941A168091FC039091B1
:10491000FD030197D89EF001D99EF00D11248091DE
:10492000FA039091FB03E80FF91FEE0FFF1FE05F02
:10493000FE4F87E090E0918380838091FC0390910B
:10494000FD032FE0D22ED89EF001D99EF00D112448
:104950008091FA039091FB03E80FF91FEE0FFF1F00
:10496000EE5EFE4F80819181019769F14091F803DD
:104970005091F9036091F6037091F7036C5E7F4FDD
:1049800000EEE02EFF24FA9404E110E024E130E090
:1049900087E795E00E941A168091FC039091FD0331
:1049A000D89EF001D99EF00D11248091FA039091C8
:1049B000FB03E80FF91FEE0FFF1FEE5EFE4F87E0CF
:1049C00090E0918380838091FC039091FD03019698
:1049D000BFE0DB2ED89EF001D99EF00D112480910E
:1049E000FA039091FB03E80FF91FEE0FFF1FE05F42
:1049F000FE4F80819181019771F14091F8035091B0
:104A0000F9034C5E5F4F6091F6037091F703E0EE9F
:104A1000EE2EFF24FA9404E110E024E130E087E771
:104A200095E00E941A168091FC039091FD03019677
:104A3000D89EF001D99EF00D11248091FA03909137
:104A4000FB03E80FF91FEE0FFF1FE05FFE4F87E04B
:104A500090E0918380838091FC039091FD032FE08F
:104A6000D22ED89EF001D99EF00D11248091FA0328
:104A70009091FB03E80FF91FEE0FFF1FE25FFE4F5F
:104A800080819181019769F14091F8035091F90378
:104A90006091F6037091F7036451710980EEE82E7E
:104AA000FF24FA9404E110E024E130E087E795E088
:104AB0000E941A168091FC039091FD03D89EF0018C
:104AC000D99EF00D11248091FA039091FB03E80F19
:104AD000F91FEE0FFF1FE25FFE4F87E090E091832A
:104AE00080831092FE030E944F1960934E037093CF
:104AF0004F038093500390935103D0CAE3ECF4E04A
:104B00001382128288EE93E0A0E0B0E08483958364
:104B1000A683B78320E732E03183208325EC30E0A1
:104B20003587248724EC30E03787268720EC30E077
:104B3000318B208B21EC30E0338B228B22EC30E068
:104B4000358B248B26EC30E0378B268B118E128E22
:104B5000138E148EE0E6F5E013821282848395832F
:104B6000A683B78382E892E091838083ECE6F5E048
:104B700080E58083118291E090937605EEE6F5E082
:104B80002CE231E0318320832CEB32E0338322832B
:104B900020ED37E03583248328EB3BE03783268301
:104BA000E2EBF5E088E080838FEF8383828381836B
:104BB000A7E7B5E013961C921E92129740EF50E0C3
:104BC00015965C934E93149720E431E017963C932E
:104BD0002E93169719965C934E9318971B963C93B9
:104BE0002E931A9755961C9255971D961C921E92BD
:104BF0001C971F961C921E921E9754969C93549736
:104C00002FEF3FEF53963C932E93529751963C9340
:104C10002E93509756969C93569757961C9257975B
:104C200059961C921E925897D5961C92D597D69657
:104C30001C92D697D8961C921E92D797DA961C9201
:104C40001E92D9979AE090969C93909799E09196AE
:104C50009C93919792968C9392972EEB35E05B966E
:104C60003C932E935A9793968C93939794968C9308
:104C7000949795968C9395975C961D921D921D9294
:104C80001C925F979B961C921E929A97D2961C92AA
:104C9000D29797961C921E929697D0961C92D09778
:104CA00099961C921E929897D1961C92D197ECE1FE
:104CB000F6E0E491F0E0EE0FFF1FE75FF94F85911A
:104CC00094919D969C938E939C97EEEFF5E0E491E2
:104CD000D496EC93D497EDE1F6E0E491F0E0EE0F9A
:104CE000FF1FE75FF94F859194919F969C938E9358
:104CF0009E97EFEFF5E0E491D396EC93D39784E998
:104D000092E08D939C930895052E97FB1EF40094DA
:104D10000E949B2657FD07D00E94ED2607FC03D07A
:104D20004EF40C949B2650954095309521953F4F1D
:104D30004F4F5F4F089590958095709561957F4F87
:104D40008F4F9F4F08950E940F27A59F900DB49FEE
:104D5000900DA49F800D911D11240895B7FF0C9410
:104D6000A3260E94A326821B930B08952F923F92A5
:104D70004F925F926F927F928F929F92AF92BF926B
:104D8000CF92DF92EF92FF920F931F93CF93DF9317
:104D9000CDB7DEB7CA1BDB0B0FB6F894DEBF0FBE74
:104DA000CDBF09942A88398848885F846E847D84C1
:104DB0008C849B84AA84B984C884DF80EE80FD80C3
:104DC0000C811B81AA81B981CE0FD11D0FB6F89439
:104DD000DEBF0FBECDBFED010895A1E21A2EAA1BC2
:104DE000BB1BFD010DC0AA1FBB1FEE1FFF1FA2179B
:104DF000B307E407F50720F0A21BB30BE40BF50B98
:104E0000661F771F881F991F1A9469F76095709520
:104E1000809590959B01AC01BD01CF010895A29FA3
:104E2000B001B39FC001A39F700D811D1124911D7E
:104E3000B29F700D811D1124911D08950E940F27AE
:104E4000332312F48A1B9B0B0C9428270E940F27F4
:104E5000B7FF0895821B930B0895EE0FFF1F059077
:104E6000F491E02D0994CF93DF938230910510F4F3
:104E700082E090E0E091D505F091D60520E030E0A9
:104E8000C0E0D0E0309711F14081518148175907B7
:104E9000C0F04817590761F482819381209719F077
:104EA0009B838A832BC09093D6058093D50526C01B
:104EB0002115310519F04217530718F49A01BE0164
:104EC000DF01EF010280F381E02DDCCF21153105F8
:104ED00009F1281B390B2430310590F412968D917D
:104EE0009C9113976115710521F0FB0193838283D7
:104EF00004C09093D6058093D505FD01329644C039
:104F0000FD01E20FF31F81939193225031092D93FC
:104F10003C933AC02091D3053091D405232B41F422
:104F200020916802309169023093D4052093D30513
:104F300020916602309167022115310541F42DB7A9
:104F40003EB740916A0250916B02241B350BE091F1
:104F5000D305F091D405E217F307A0F42E1B3F0B05
:104F60002817390778F0AC014E5F5F4F24173507DB
:104F700048F04E0F5F1F5093D4054093D3058193A3
:104F8000919302C0E0E0F0E0CF01DF91CF9108956E
:104F90000F931F93CF93DF93009709F48CC0FC010C
:104FA0003297138212820091D5051091D605011512
:104FB000110581F420813181820F931F2091D30547
:104FC0003091D4052817390779F5F093D405E0938B
:104FD000D30571C0D80140E050E0AE17BF0750F4D0
:104FE00012962D913C911397AD012115310509F1D0
:104FF000D901F3CF9D01DA0133832283608171816E
:10500000860F971F8217930769F4EC012881398175
:10501000260F371F2E5F3F4F318320838A819B816C
:1050200093838283452B29F4F093D605E093D5052D
:1050300042C01396FC93EE931297ED01499159915A
:105040009E01240F351FE217F30771F480819181CF
:10505000840F951F029611969C938E938281938163
:1050600013969C938E931297E0E0F0E0D80112968D
:105070008D919C911397009719F0F8018C01F6CF50
:105080008D919C9198012E5F3F4F820F931F20912D
:10509000D3053091D4052817390769F4309729F4DE
:1050A0001092D6051092D50502C013821282109379
:1050B000D4050093D305DF91CF911F910F910895EF
:1050C000A0E0B0E0E6E6F8E20C94BA26EC01009726
:1050D00021F4CB010E943327B8C0FC01E60FF71F73
:1050E0009C0122503109E217F30708F4ACC0D90142
:1050F0000D911C91119706171707B0F00530110597
:1051000008F49FC0C80104978617970708F499C050
:1051100002501109061B170B019311936D937C9399
:10512000CF010E94C8278DC05B01A01AB10A4C01B3
:10513000800E911EA091D505B091D60540E050E0BB
:10514000E12CF12C109709F44AC0A815B905D1F546
:105150006D907C901197630182E0C80ED11CCA1437
:10516000DB0480F1A3014A195B096A0182E0C80EE1
:10517000D11C1296BC9012971396AC91B5E0CB1649
:10518000D10440F0B282A38351834083D9016D934F
:105190007C930AC00E5F1F4FC301800F911FF9015E
:1051A00091838083EB2DFA2FE114F10431F0D701C4
:1051B0001396FC93EE93129744C0F093D605E093B8
:1051C000D5053FC08D919C9111974817590708F458
:1051D000AC017D0112960D90BC91A02DB3CF8091B2
:1051E000D3059091D40588159905E1F44617570722
:1051F000C8F48091660290916702009741F48DB7E0
:105200009EB740916A0250916B02841B950BE81780
:10521000F907C8F4F093D405E093D305F90171833D
:1052200060830FC0CB010E9433277C01009759F0A7
:10523000A801BE010E942F29CE010E94C827C701E4
:1052400004C0CE0102C080E090E0CDB7DEB7EEE052
:105250000C94D62681E090E0F8940C943F29FB0151
:10526000DC0102C001900D9241505040D8F70895E2
:10527000FB01DC0101900D920020E1F70895F89404
:02528000FFCF5E
:10528200010100010004001E002800010E01C800F7
:105292000100010001000100010001000100010004
:1052A20001000100010001000100010001000100F4
:1052B20000000000000000000000000000000000EC
:1052C20000000000000000000000010001000000DA
:1052D20001000000010000000100000001000000C8
:1052E20001000000010000000100010002000000B6
:1052F20002000000020000000200000002000000A4
:105302000200000000000100010000000100000096
:105312000100000001000000010000000100000087
:105322000100000001000100020000000200000074
:105332000200000002000000020000000200000063
:105342000000010001000000010000000100000057
:105352000100000001000000010000000100000047
:105362000100010002000000020000000200000033
:105372000200000002000000020000000200010022
:105382000100000001000000010000000100000017
:105392000100000001000000010000000100010006
:1053A20000000000020000000200000002000000F5
:1053B20002000000020000000000010001000100E4
:1053C20001000100010001000100010001000100D3
:1053D200010001000100010001000D000900280088
:1053E2001E0014000A000000D70580000000000023
:1053F2008215B3101A15C9154B1529153D15000054
:1054020000007A064A06AA061E0642062E061F0655
:10541200000000005217B310AA06A906961B1A171D
:10542200E61BAF1AE216CF1642050E178407AD0629
:10543200941659161A161A04A30344031C0AD30617
:105442000D0A005374617274204C6F626279004AD3
:105452006F696E204C6F62627900474F2100426192
:10546200636B0073656E64323500676574323000B9
:1054720057494E4E455200594F55204C4F53450007
:065482006765743235007D
:00000001FF
