:100000000C94E2020C9448090C940A030C940A0321
:100010000C940A030C940A030C940A030C940A032C
:100020000C94B5090C940A030C940A030C940A036B
:100030000C940A030C940A030C940A030C940A030C
:100040000C94FE080C940A030C94F2070C94CC0751
:100050000C940A030C940A030C940A030C940A03EC
:100060000C942C120C940A030000000024002700BA
:100070002A0000000000003E5B4F5B3E3E6B4F6B72
:100080003E1C3E7C3E1C183C7E3C181C577D571C79
:100090001C5E7F5E1C00183C1800FFE7C3E7FF00F2
:1000A00018241800FFE7DBE7FF30483A060E262940
:1000B000792926407F050507407F05253F5A3CE703
:1000C0003C5A7F3E1C1C08081C1C3E7F14227F22C9
:1000D000145F5F005F5F06097F017F006689956A94
:1000E000606060606094A2FFA29408047E0408101F
:1000F000207E201008082A1C08081C2A08081E1048
:100100001010100C1E0C1E0C30383E3830060E3EFF
:100110000E06000000000000005F0000000700075E
:1001200000147F147F14242A7F2A12231308646288
:1001300036495620500008070300001C22410000E9
:1001400041221C002A1C7F1C2A08083E0808008047
:1001500070300008080808080000606000201008DF
:1001600004023E5149453E00427F400072494949E0
:10017000462141494D331814127F10274545453912
:100180003C4A494931412111090736494949364616
:100190004949291E000014000000403400000008F6
:1001A0001422411414141414004122140802015999
:1001B00009063E415D594E7C1211127C7F49494926
:1001C000363E414141227F4141413E7F49494941BB
:1001D0007F090909013E414151737F0808087F00EA
:1001E000417F41002040413F017F081422417F4070
:1001F0004040407F021C027F7F0408107F3E414147
:10020000413E7F090909063E4151215E7F091929B6
:1002100046264949493203017F01033F4040403FA0
:100220001F2040201F3F4038403F631408146303E1
:10023000047804036159494D43007F414141020460
:10024000081020004141417F040201020440404067
:100250004040000307080020545478407F2844445D
:10026000383844444428384444287F385454541877
:1002700000087E090218A4A49C787F080404780072
:10028000447D40002040403D007F10284400004154
:100290007F40007C047804787C0804047838444467
:1002A0004438FC1824241818242418FC7C0804045E
:1002B00008485454542404043F44243C4040207CC7
:1002C0001C2040201C3C4030403C44281028444C1A
:1002D0009090907C4464544C4400083641000000E7
:1002E000770000004136080002010204023C262388
:1002F000263C1EA1A161123A4040207A3854545540
:100300005921555579412254547842215554784009
:1003100020545579400C1E52721239555555593991
:100320005454545939555454580000457C410002E6
:10033000457D420001457C407D1211127DF028254B
:1003400028F07C545545002054547C547C0A097F85
:100350004932494949323A4444443A324A48483099
:100360003A4141217A3A42402078009DA0A07D3D4B
:100370004242423D3D4040403D3C24FF2424487ED3
:100380004943662B2FFC2F2BFF0929F620C0887EBE
:10039000090320545479410000447D413048484AC3
:1003A00032384040227A007A0A0A727D0D19317D76
:1003B0002629292F28262929292630484D4020384A
:1003C0000808080808080808382F10C8ACBA2F1009
:1003D0002834FA00007B000008142A142222142A70
:1003E00014085500550055AA55AA55AAFF55FF55A2
:1003F000FF000000FF00101010FF00141414FF0095
:100400001010FF00FF1010F010F0141414FC001472
:1004100014F700FF0000FF00FF1414F404FC141490
:1004200017101F10101F101F1414141F001010108D
:10043000F0000000001F101010101F10101010F01E
:1004400010000000FF101010101010101010FF10FE
:10045000000000FF140000FF00FF00001F10170045
:1004600000FC04F414141710171414F404F400001E
:10047000FF00F714141414141414F700F7141414D0
:10048000171410101F101F141414F4141010F0106F
:10049000F000001F101F0000001F14000000FC14DB
:1004A0000000F010F01010FF10FF141414FF1410CF
:1004B00010101F00000000F010FFFFFFFFFFF0F022
:1004C000F0F0F0FFFFFF0000000000FFFF0F0F0F34
:1004D0000F0F3844443844FC4A4A4A347E0202062C
:1004E00006027E027E0263554941633844443C045F
:1004F000407E201E2006027E020299A5E7A5991CD7
:100500002A492A1C4C7201724C304A4D4D303048F9
:10051000784830BC625A463D3E494949007E010157
:10052000017E2A2A2A2A2A44445F444440514A44EC
:100530004040444A51400000FF0103E080FF0000BA
:1005400008086B6B083612362436060F090F0600B2
:100550000018180000001010003040FF0101001FBB
:1005600001011E00191D1712003C3C3C3C0000001C
:100570000000000000002300260029000000000801
:10058000000201000003040700000000000000005A
:10059000010204081020408001020408102001021A
:1005A0000408102000000000250028002B0004048F
:1005B000040404040404020202020202030303030B
:1005C0000303562511241FBECFEFD8E0DEBFCDBFF9
:1005D00012E0A0E0B1E0EAEEF1E502C005900D9274
:1005E000AC3FB107D9F725E0ACEFB2E001C01D92F6
:1005F000A13CB207E1F712E0C2EED2E004C02197BD
:10060000FE010E94F126C13ED107C9F70E94761A69
:100610000C94F3280C9400003FB7F89480912B03BE
:1006200090912C03A0912D03B0912E0326B5A89B89
:1006300005C02F3F19F00196A11DB11D3FBFBA2F74
:10064000A92F982F8827820F911DA11DB11DBC01D4
:10065000CD0142E0660F771F881F991F4A95D1F799
:1006600008950895FC016370658B848195812681CE
:100670003781613039F0633029F091878087338783
:1006800022870895318720879387828708956F9204
:100690007F928F929F92AF92BF92CF92DF92EF9212
:1006A000FF920F931F93CF93DF93EC014B015A01FD
:1006B00069013801E881F9810284F385E02D09950B
:1006C000E881F9810288F389E02D87019601A5016F
:1006D000B401CE010995A501460D571D41505109A0
:1006E000E881F9810288F389E02D9601B401CE01F9
:1006F0000995E881F9810088F189E02D9301A50130
:10070000B401CE010995C80CD91CB601615071091C
:10071000E881F9810088F189E02D9301A501CE01DE
:100720000995E881F9810688F789E02DCE01DF91EE
:10073000CF911F910F91FF90EF90DF90CF90BF90DE
:10074000AF909F908F907F906F9009948F929F921F
:10075000AF92BF92CF92DF92EF92FF920F931F93CF
:10076000CF93DF934C016B015A01E901DC01ED915C
:10077000FC916217730781F40417150724F48B2D7D
:100780005801042F182F0A191B0998012F5F3F4F9A
:10079000048CF58DE02D12C04017510709F526177E
:1007A000370724F48D2D6901C62FD82F9E012C19EF
:1007B0003D092F5F3F4F068CF78DE02D8701A50186
:1007C000B601C4010995DF91CF911F910F91FF9060
:1007D000EF90DF90CF90BF90AF909F908F90089553
:1007E0000284F385E02D0995D401ED91FC910488F4
:1007F000F589E02D9E01A501B601C4010995D4013A
:10080000ED91FC910688F789E02DC401DF91CF912D
:100810001F910F91FF90EF90DF90CF90BF90AF901E
:100820009F908F900994EF92FF920F931F93DC019A
:100830001A960D911C911B9718962D913C91199722
:10084000ED91FC9100A0F1A1E02D7B0140E050E092
:1008500060E070E009951F910F91FF90EF9008956F
:100860004F925F926F927F928F929F92AF92BF92C0
:10087000CF92DF92EF92FF920F931F93CF93DF936C
:100880006C012B015A0139014801DC01ED91FC9109
:100890000284F385E02D0995E201640C751CD601F4
:1008A000ED91FC91C615D7055CF40088F189E02D27
:1008B00087019401A501BE01C60109952196EFCFDC
:1008C0000688F789E02DC601DF91CF911F910F9126
:1008D000FF90EF90DF90CF90BF90AF909F908F9060
:1008E0007F906F905F904F9009948F929F92AF92FC
:1008F000BF92CF92DF92EF92FF920F931F93CF930D
:10090000DF93EC015B014A016901E881F98102840E
:10091000F385E02D099595012C0D3D1D21503109E0
:10092000E881F9810488F589E02D78018401A4012A
:10093000B501CE010995E881F9810688F789E02D96
:10094000CE01DF91CF911F910F91FF90EF90DF903B
:10095000CF90BF90AF909F908F9009948F929F926D
:10096000AF92BF92CF92DF92EF92FF920F931F93BD
:10097000CF93DF93EC015B014A0169017801E881C3
:10098000F9810284F385E02D0995C80CD91C8601F4
:1009900001501109E881F9810488F589E02D95015C
:1009A000A401B501CE010995E881F9810688F7898E
:1009B000E02DCE01DF91CF911F910F91FF90EF902D
:1009C000DF90CF90BF90AF909F908F900994089543
:1009D000EF92FF920F931F93DC01ED91FC9100A029
:1009E000F1A1E02D09951F910F91FF90EF900895CF
:1009F0000F931F93DC01ED91FC91068CF78DE02D98
:100A000009951F910F9108950F931F93DC01ED91AC
:100A1000FC91048CF58DE02D09951F910F9108959F
:100A2000DC01ED91FC910084F185E02D09942F9279
:100A30003F924F925F926F927F928F929F92AF926E
:100A4000BF92CF92DF92EF92FF920F931F93CF93BB
:100A5000DF9300D000D000D0CDB7DEB72C017E836D
:100A60006D836A015901C801FC82EB824801841A36
:100A7000950A97FE03C091948194910835012D81C8
:100A80003E81621A730A77FE03C071946194710803
:100A9000681479045CF43A2D2B2D5C01832F922F7E
:100AA0003D812E81DE82CD82C32ED22EAD81BE81CC
:100AB000AA16BB065CF43C2D2D2D6C01832F922FC2
:100AC0003D812E81BE82AD82A32EB22E85012D8165
:100AD0003E81021B130B1C012C183D0837FE03C07E
:100AE000319421943108780117FF03C03FEFE31AD6
:100AF000F30AF594E794C816D9062CF08FEF9FEF10
:100B00009A83898304C0A1E0B0E0BA83A9832D81D0
:100B10003E81A216B30624F1D201ED91FC9104842A
:100B2000F585E02D2B813C816814790424F44D81F6
:100B30005E81B60103C0A6016D817E81C201099567
:100B4000E218F308F7FE06C029813A81C20ED31ECF
:100B5000E00EF11E8D819E8101969E838D83D7CFFD
:100B600026960FB6F894DEBF0FBECDBFDF91CF91B2
:100B70001F910F91FF90EF90DF90CF90BF90AF90BB
:100B80009F908F907F906F905F904F903F902F90AD
:100B900008958F929F92AF92BF92CF92DF92EF9281
:100BA000FF920F931F93CF93DF93EC016B015A01D8
:100BB0004901E881F9810284F385E02D0995E881F6
:100BC000F9810684F785E02D9401A501B601CE01D7
:100BD0000995E881F9810688F789E02DCE01DF913A
:100BE000CF911F910F91FF90EF90DF90CF90BF902A
:100BF000AF909F908F900994AF92BF92CF92DF9267
:100C0000EF92FF920F931F93CF93DF93EC017B0141
:100C10006A015901E881F9810284F385E02D099583
:100C2000E881F9810288F389E02D9501A601B701D9
:100C3000CE010995E881F9810688F789E02DCE017A
:100C4000DF91CF911F910F91FF90EF90DF90CF90A8
:100C5000BF90AF900994AF92BF92CF92DF92EF9284
:100C6000FF920F931F93CF93DF93EC017B016A01F7
:100C70005901E881F9810284F385E02D0995E88125
:100C8000F9810088F189E02D9501A601B701CE0117
:100C90000995E881F9810688F789E02DCE01DF9179
:100CA000CF911F910F91FF90EF90DF90CF90BF9069
:100CB000AF900994CF92DF92EF92FF920F931F9320
:100CC000CF93DF93EC018B017A016901E881F9810F
:100CD0000284F385E02D0995E881F9810484F58586
:100CE000E02D9601A701B801CE010995E881F981AF
:100CF0000688F789E02DCE01DF91CF911F910F91EA
:100D0000FF90EF90DF90CF900994EF92FF920F93B6
:100D10001F93DC01ED91FC910684F785E02D7801AD
:100D200001E010E009951F910F91FF90EF90089559
:100D3000EF92FF920F931F93DC01ED91FC910684DB
:100D4000F785E02D7801890121E030E009951F91B8
:100D50000F91FF90EF9008958DEC94E00E94BE0AF1
:100D600021E0892B09F420E0822F08950E94DE28DB
:100D7000AF92BF92CF92EF92FF920F931F93CF93B8
:100D8000DF93EC01262F888D998D009709F040C0E4
:100D90006A3059F41D861C862C898E859F8538E023
:100DA000239F800D911D112441C06D3009F4AAC00C
:100DB0008E898823C1F03C898C859D8546E0349FCF
:100DC000800D911D112448855985481759075CF4F9
:100DD0001D861C868E859F8548E0349F800D911D61
:100DE00011249F878E87EA88FB88088919894E8598
:100DF0005F856C857D85CC88CE010E943B0D2C895A
:100E00008C859D8536E0239F800D911D112442C065
:100E10006A3079F41D861C862C89FC013696E49193
:100E20008E859F852E9F800D911D11249F878E8713
:100E300069C06D3009F466C0FC01349634916317C3
:100E400008F460C03196E491E61708F45BC0FC0139
:100E5000329665917491422F50E0431B510937E05F
:100E6000349F5001359FB00C1124A60EB71EF5011A
:100E7000329634913196E491332311F0E1110DC093
:100E8000F5013496E4912C898C859D85E29F800D37
:100E9000911D11249D878C8735C0F50135964491AD
:100EA0005E89552311F16C89E32FF0E0E40FF11D09
:100EB00047FDFA956E9FD0016F9FB00D11244C85B0
:100EC0005D854A0F5B1FE885F985E417F5076CF42B
:100ED0001D861C86FC013696E4918E859F856E9F4B
:100EE000800D911D11249F878E87EA88FB880889D1
:100EF00019894E855F856C857D85CC88CE010E94E1
:100F00003B0DBECF81E090E0DF91CF911F910F911B
:100F1000FF90EF90CF90BF90AF900895FC01A4A5F3
:100F2000B5A59C9181A9892B8C9381A187FD0C94F7
:100F30005A1308950F931F93CF93DF93EC0189A168
:100F400087FF1EC00A8D1B8D2C8D3D8D40E052E128
:100F50006AE770E090E0041715072607370740F4AA
:100F600076956795579547959F5F9630A1F797E0DF
:100F700081E09827892F806A869591700E945B1383
:100F8000ECA5FDA5908189A9809589238083DF91B7
:100F9000CF911F910F9108951F920F920FB60F924C
:100FA00011242F933F934F935F936F937F938F936E
:100FB0009F93AF93BF93EF93FF938DEC94E00E94C8
:100FC000550FFF91EF91BF91AF919F918F917F91BD
:100FD0006F915F914F913F912F910F900FBE0F90A6
:100FE0001F9018951F920F920FB60F9211242F93F6
:100FF0008F939F93EF93FF93E091DD04F091DE04D4
:101000008081E091E304F091E40482FD12C09081BC
:101010008091E6048F5F8F732091E704821751F06F
:10102000E091E604F0E0E353FB4F958F8093E604F4
:1010300001C08081FF91EF919F918F912F910F902F
:101040000FBE0F901F901895833081F028F48130E7
:1010500099F08230A1F008958730A9F08830B9F076
:101060008430D1F4809180008F7D03C08091800016
:101070008F7780938000089584B58F7702C084B500
:101080008F7D84BD08958091B0008F7703C08091DB
:10109000B0008F7D8093B00008951F93CF93DF93AE
:1010A000282F30E0F901E458FA4F8491F901E05714
:1010B000FA4FD491F901E255FA4FC491CC23C1F013
:1010C000162F81110E942408EC2FF0E0EE0FFF1F75
:1010D000EC55FA4FA591B4919FB7F894111104C043
:1010E0008C91D095D82302C0EC91DE2BDC939FBF6E
:1010F000DF91CF911F910895CF93DF9390E0FC0192
:10110000E057FA4F2491FC01E255FA4F849188236D
:1011100061F190E0880F991FFC01E859FF4FC591DC
:10112000D491FC01EC55FA4FA591B491611109C01D
:101130009FB7F8948881209582238883EC912E2391
:101140000BC0623061F49FB7F8948881322F3095DC
:1011500083238883EC912E2B2C939FBF06C08FB7DF
:10116000F894E8812E2B28838FBFDF91CF910895CB
:101170008F929F92AF92BF92CF92DF92EF92FF92A7
:101180006B017C010E940C034B015C01C114D10472
:10119000E104F104F1F00E940C03DC01CB01881999
:1011A0009909AA09BB09883E9340A105B10570F3CE
:1011B00021E0C21AD108E108F10888EE880E83E028
:1011C000981EA11CB11CC114D104E104F10419F74B
:1011D000DDCFFF90EF90DF90CF90BF90AF909F90CA
:1011E0008F9008952FB7F89460912703709128038A
:1011F0008091290390912A032FBF08951F920F9287
:101200000FB60F9211242F933F938F939F93AF9319
:10121000BF938091270390912803A0912903B09157
:101220002A033091260323E0230F2D3720F4019663
:10123000A11DB11D05C026E8230F0296A11DB11DF9
:10124000209326038093270390932803A0932903D8
:10125000B0932A0380912B0390912C03A0912D032E
:10126000B0912E030196A11DB11D80932B03909385
:101270002C03A0932D03B0932E03BF91AF919F91A8
:101280008F913F912F910F900FBE0F901F90189547
:101290001F920F920FB60F9211242F933F938F93AB
:1012A0009F93EF93FF9380912403909125032091C6
:1012B000220330912303821B930B209121032F5F84
:1012C0002093210320912103203218F05D98109281
:1012D000510420917C0530917D0528173907A8F429
:1012E00020917E0530917F058217930770F45D9AF7
:1012F00021E02093510410922503109224031092B0
:10130000200310921F0310922103E0911F03F0911C
:101310002003EE0FFF1FE35FFB4F918380838091DB
:101320001F039091200301969093200380931F0345
:1013300080911F0390912003829720F01092200348
:1013400010921F038091240390912503909323030F
:1013500080932203FF91EF919F918F913F912F9165
:101360000F900FBE0F901F9018951F920F920FB6FF
:101370000F9211242F933F938F939F93EF93FF939B
:101380001092B200809124039091250301969093CE
:1013900025038093240380911D0390911E030196E1
:1013A00090931E0380931D038091B703882399F1C6
:1013B00080911D0390911E03E0911C03F0E0EE0F5D
:1013C000FF1FE15DFC4F208131812817390719F596
:1013D00080911B03882331F010921B038091B00091
:1013E0008F7E06C081E080931B038091B0008061F6
:1013F0008093B0008091B0008F7D8093B000809189
:101400001C038F5F843418F480931C0304C0109273
:101410001C031092B703FF91EF919F918F913F9121
:101420002F910F900FBE0F901F901895CF93CFB7AD
:10143000F89480911A03811127C0E8EBF5E08491BC
:10144000EAE9F5E09491E82FF0E0EE0FFF1FE8598C
:10145000FF4FA591B491EC91E92321F461E08AE07A
:101460000E944D0861E08AE00E947C088CB5806192
:101470008CBD8CB580648CBD61E08DE00E947C08E1
:1014800061E08BE00E947C0880911A038F5F80935B
:101490001A03CFBFCF910895FC0181A187FF05C03A
:1014A0006EBD0DB407FEFDCF089528E030E090E852
:1014B000A4A1B5A186A5462F492319F04C91842BF0
:1014C00003C04C91809584238C93A0A5B1A54C9129
:1014D00080A9809584238C93A0A5B1A54C9180A967
:1014E000842B8C9396952150310911F70895CF9351
:1014F000DF93EC01EAA5FBA590818AA98095892359
:101500008083CE010E944C0AEAA5FBA590818AA99E
:10151000892B8083DF91CF910895FC01538D448DF9
:10152000252F30E0842F90E0821B930B541710F08E
:10153000CF96089501970895FC01918D828D98179B
:1015400061F0828DDF01A80FB11D5D968C91928DA7
:101550009F5F9F73928F90E008958FEF9FEF0895A4
:10156000FC01918D828D981731F0828DE80FF11D6D
:10157000858D90E008958FEF9FEF0895FC01918D88
:10158000228D892F90E0805C9F4F821B91098F7381
:101590009927089580E090E0892B29F00E94AC06FD
:1015A00081110C9400000895CF92DF92EF92FF9288
:1015B0000F931F93CF93DF936C017A018B01C0E0EF
:1015C000D0E0CE15DF0581F0D8016D918D01D601F7
:1015D000ED91FC910190F081E02DC6010995892BD8
:1015E00011F02196EECF7E01C701DF91CF911F91BF
:1015F0000F91FF90EF90DF90CF900895CF93DF93FE
:10160000D82FC62F8091B4058F3FC9F48091B805BB
:1016100091E09093A9048093CB041092AA041092B5
:10162000CC046D2F8AE695E00E94C0106C2F8AE6EC
:1016300095E00E94C010DF91CF910C9450178091DB
:10164000B7058F3F31F480917605909177050E9420
:101650005B1360E08091B4050E944D088D2F0E94BD
:10166000411A8C2F0E94411A61E08091B4050E94BA
:101670004D088091B7058F3F21F4DF91CF910C94F5
:101680005A13DF91CF9108958F929F92AF92BF929C
:10169000CF92DF92EF92FF920F931F93CF93DF933E
:1016A000C82F8091B4058F3F59F58091B805D1E0DE
:1016B000D093A9048093CB041092AA041092CC0476
:1016C0006C2F8AE695E00E94C0100E94501780910E
:1016D000B805D093A9048093CB041092AA04109269
:1016E000CC0461E00E94CA17109253048093520404
:1016F0008AE695E00E947710B82E0E9450176AC0C3
:101700008091B7058F3F31F48091760590917705F0
:101710000E945B1360E08091B4050E944D088C2FFD
:1017200080680E94411A80E00E94411AA090B7058B
:101730008FEFA81207C01EBC00000DB407FEFDCF3E
:10174000BEB43DC0C091B60507E010E0B12CD0E0BA
:10175000FE01E458FA4F7F01CE0180579A4F6C0189
:10176000C255DA4F61E08A2D0E944D08F70184913D
:10177000F6019490FE018490882091F081110E94DE
:101780002408E82DF0E0EE0FFF1FEE58FA4FA59168
:10179000B4918C91982231E009F430E0832F02C09B
:1017A00080E090E0002E01C0880F0A94EAF7B82A82
:1017B00060E08A2D0E944D080150110998F661E001
:1017C0008091B4050E944D088091B7058F3F11F4B8
:1017D0000E945A138B2DDF91CF911F910F91FF9093
:1017E000EF90DF90CF90BF90AF909F908F90089533
:1017F000CF93DF9380E00E94440BC82FD0E0DC2F12
:10180000CC2781E00E94440B9E01282BC901DF9167
:10181000CF91089510925304109252041092AA048A
:101820001092CC041092A80481E08093A704109237
:10183000820461E082E10E944D0861E083E10E9440
:101840004D08E9EBF0E080818E7F808380818D7F81
:10185000808388E48093B80085E48093BC0086E6AA
:1018600090E19093BB038093BA0387E690E1909355
:10187000B9038093B8030895CF92DF92EF92FF925D
:101880002091B7032111FCCF1092300310922F0347
:1018900028EE33E0309332032093310328E037E021
:1018A0003093340320933303EFE2F3E048E057E052
:1018B00020E030E06B017C01022E04C0F694E79436
:1018C000D794C7940A94D2F7DA01C0FE03C0A05798
:1018D000BE4F02C0A853BF4FB783A683AD01485384
:1018E0005F4F518740872F5F3F4F3496203231053D
:1018F00009F7CD0188519C4F9093B6038093B503AF
:10190000FF90EF90DF90CF900895FC01808191814E
:101910000C948F278F929F92AF92BF92CF92DF92BB
:10192000EF92FF920F931F93CF93DF93EC01490146
:1019300081E0881A9108860E971EC401A0E0B0E0ED
:101940004B01A12CB12C540199248824882A992A6E
:10195000AA2ABB2A680181E0C81AD108C40ED51E84
:10196000C601A0E0B0E06A01E12CF12C7601DD2493
:10197000CC24C82AD92AEA2AFB2A6AE2CE010E948C
:10198000770A29A16B2D77278827992727FF18C069
:101990006EBD0DB407FEFDCFC501AA27BB278EBDC6
:1019A0000DB407FEFDCFBB27AB2D9A2D892D8EBD23
:1019B0000DB407FEFDCF8EBC0DB407FEFDCF14C0E5
:1019C000CE010E944C0AB50188279927CE010E94BA
:1019D0004C0A99278B2D7A2D692DCE010E944C0A35
:1019E000682DCE010E944C0A6BE2CE010E94770A5C
:1019F00029A16F2D77278827992727FF18C06EBD4B
:101A00000DB407FEFDCFC701AA27BB278EBD0DB4BD
:101A100007FEFDCFBB27AF2D9E2D8D2D8EBD0DB4A6
:101A200007FEFDCFCEBC0DB407FEFDCF14C0CE0126
:101A30000E944C0AB70188279927CE010E944C0AC0
:101A400099278F2D7E2D6D2DCE010E944C0A6C2D75
:101A5000CE010E944C0A6CE2CE01DF91CF911F9122
:101A60000F91FF90EF90DF90CF90BF90AF909F903D
:101A70008F900C94770A2F923F924F925F926F92C1
:101A80007F928F929F92AF92BF92CF92DF92EF920E
:101A9000FF920F931F93CF93DF93CDB7DEB76B9772
:101AA0000FB6F894DEBF0FBECDBF9B8F8A8F5B0150
:101AB0001A01D22E1F830E833701C982DC0158968A
:101AC0002D913C9159972115310509F0E6C01896E2
:101AD0008D919C911997681779070CF0CDC11A96D2
:101AE0008D919C911B97481759070CF0C5C18C2C00
:101AF000912CFB0126E0C29EE00DF11D1124FB8715
:101B0000EA871E161F060CF0B7C1A40183E0440F3C
:101B1000551F8A95E1F75D874C87CA01820D931D99
:101B2000181619060CF0A8C157968C91811104C0A3
:101B30005FEA5D1508F4D394AA8DBB8DED91FC91FD
:101B400011970284F385E02DCD010995B5E0DB9E68
:101B5000C0011124F5013596FF87EE87BB82AA826A
:101B600025019C012A193B09398B288BA101485F6B
:101B70005F4F5B8B4A8BE889F989E40DF51DEE58C0
:101B8000FF4F5491588761013D822C82888580FFE8
:101B900013C0AA8DBB8DED91FC91B981B13031F4A8
:101BA0000484F585E02D2E813F8116C00684F785DB
:101BB000E02DEE80FF801AC0EE81FF81E615F7056B
:101BC000F1F0AA8DBB8DED91FC91B981B13051F44A
:101BD0000484F585E02D9301A601B2018A8D9B8DC9
:101BE00009950DC00684F785E02D730184019401E9
:101BF0004C815D816A817B818A8D9B8D0995E88509
:101C0000E695E887FFEFCF1ADF0A2C813D81280D8A
:101C1000391D3D832C834A895B89C416D50609F09A
:101C2000B5CF5FEF451A550A8A819B81880D991DB2
:101C30009B838A83AE85BF854A165B0609F09BCFDE
:101C4000EE81FF81E615F70509F4F4C0EA8DFB8DFE
:101C5000A081B181F981F13079F4B5016B5F7F4FDB
:101C60005096ED91FC915197830128E030E0A1015D
:101C70008A8D9B8D0995DEC06A857B8568197909F7
:101C80001E96ED91FC911F9773010C851D859401A3
:101C9000A1018A8D9B8D0995CDC0F9013496E491FF
:101CA000DE1AF901329685919491B7E0DB9E800DA2
:101CB000911D1124F901259134913B8B2A8BFC0154
:101CC000259134912901FC013296C49031963491CA
:101CD0003E87329614913196D4904981423058F023
:101CE000612E012E000C77088D2D0D2C000C990B08
:101CF0009987888704C019861886612C712CAA8D53
:101D0000BB8DED91FC9111970284F385E02DCD01FF
:101D10000995B9818B2E912C689CC001699C900D0E
:101D2000789C900D1124FC01EA0DFB1DFD87EC87CA
:101D30001A82712C612CE12F110FFF0B95012E0FD0
:101D40003F1F3B872A87AC0CB11CA5014E0F5F1FBC
:101D50005F8B4E8BC1018D0D911DD7FC9A95998F8C
:101D6000888F9E85691608F065C0862D90E04885AD
:101D70005985480F591F489D9001499D300D589D28
:101D8000300D1124D101A20FB31FB98BA88BEC85A4
:101D9000FD85FD83EC83AA84BB84DA80FA85DF1A93
:101DA000288D398D280F391F3D8B2C8B8D2D8A0D59
:101DB0004E895F89A416B506C1F1877041F4C2014E
:101DC0000196EA89FB89E40DF51D74902C0177FEDC
:101DD00021C0AA8DBB8DED91FC91B981B13061F428
:101DE0000484F585E02D2E813F814C895D89B50104
:101DF0008A8D9B8D09950EC00684F785E02DEE80B7
:101E0000FF8084019401488959896C817D818A8D84
:101E10009B8D0995770CEFEFAE1ABE0A2C813D81A0
:101E2000280D391D3D832C83C1CF3A813C0D3A8367
:101E3000639497CFAA8DBB8DED91FC911197068885
:101E4000F789E02DCD016B960FB6F894DEBF0FBE7B
:101E5000CDBFDF91CF911F910F91FF90EF90DF9059
:101E6000CF90BF90AF909F908F907F906F905F903A
:101E70004F903F902F9009946B960FB6F894DEBF69
:101E80000FBECDBFDF91CF911F910F91FF90EF90CB
:101E9000DF90CF90BF90AF909F908F907F906F908A
:101EA0005F904F903F902F900895FC01848DDF014B
:101EB000A80FB11DA35ABF4F2C91848D90E00196BD
:101EC0008F739927848FA689B7892C93A089B189AC
:101ED0008C91837080648C93938D848D981306C04D
:101EE0000288F389E02D80818F7D80830895EF92B1
:101EF000FF920F931F93CF93DF93EC0181E0888FC4
:101F00009B8D8C8D981305C0E889F989808185FDAA
:101F100026C0F62E0B8D10E00F5F1F4F0F73112799
:101F2000E02E8C8DE8120CC00FB607FCFACFE889C2
:101F3000F989808185FFF5CFCE010E94550FF1CF41
:101F40008B8DFE01E80FF11DE35AFF4FF0829FB722
:101F5000F8940B8FEA89FB89808180620AC09FB761
:101F6000F894EE89FF896083E889F989808183701C
:101F7000806480839FBF81E090E0DF91CF911F91CB
:101F80000F91FF90EF900895CF93DF93EC01888D30
:101F90008823C9F0EA89FB89808185FD05C0A8896D
:101FA000B9898C9186FD0FC00FB607FCF5CF8081F3
:101FB00085FFF2CFA889B9898C9185FFEDCFCE013D
:101FC0000E94550FE7CFDF91CF910895EF92FF92D6
:101FD0000F931F93CF93DF93EC01198218821B821A
:101FE0001A821D821C8261157105B9F17B01FB010A
:101FF00001900020E9F731978F01061B170BB801FC
:102000006F5F7F4F80E090E00E941828009759F0A2
:10201000998388831B830A832C813D81232B81F440
:10202000FC0110820DC088819981009711F00E94F7
:102030008F27198218821D821C821B821A820DC072
:102040001D830C83B70188819981DF91CF911F9106
:102050000F91FF90EF900C94EC28DF91CF911F919E
:102060000F91FF90EF90089585ED8093BC008091D3
:10207000BC0084FDFCCF1092A80408954091DC03BD
:10208000262F30E0240F311D21323105DCF4209160
:10209000A8042430C9F4FC0180E090E0861758F4CD
:1020A0003091DC032191DC01A454BC4FA30FB11D7E
:1020B0002C930196F3CF8091DC03680F6093DC03CF
:1020C00080E0089581E0089582E0089508950895DC
:1020D000E091530480915204E81730F4F0E0EC5A98
:1020E000FB4F808190E008958FEF9FEF08959091CE
:1020F000530480915204981750F4E92FF0E0EC5A01
:10210000FB4F208130E09F5F9093530402C02FEF7C
:102110003FEFC90108958091520490E0209153044B
:10212000821B91090895CF92DF92EF92FF920F9355
:102130001F93CF93DF937C01CB018A012091A904E7
:10214000222389F0EB016B01C40ED51ECC15DD05F1
:1021500069F06991D701ED91FC910190F081E02D3A
:10216000C7010995F3CF642F0E943E10C801DF918B
:10217000CF911F910F91FF90EF90DF90CF90089536
:10218000CF93DF931F92CDB7DEB769832091A90467
:102190002223D1F02091CC04203240F021E030E025
:1021A000FC013383228380E090E015C08091AA0473
:1021B000E82FF0E0E555FB4F998190838F5F809386
:1021C000AA048093CC0405C061E0CE0101960E9470
:1021D0003E1081E090E00F90DF91CF910895089537
:1021E00080E090E008954F925F926F927F928F927D
:1021F0009F92AF92BF92CF92DF92EF92FF920F9396
:102200001F93CF93DF935C01FB01E9014701DC01E0
:1022100018962D913C911997621773070CF063C0C3
:102220001A968D919C911B97481759070CF05BC02B
:102230006B01CC0EDD1ED60111977A01E00EF11E66
:10224000B70161507109B7FD4EC077FD4CC0F7FF73
:1022500003C0E601E0E0F0E057FF03C0870140E083
:1022600050E0A217B3071CF0E901CE1BDF0B681783
:1022700079071CF08C01041B150B9E01D8010E94EC
:10228000E2266B017C01BF01C5010E948A0C260178
:102290003701F50181A187FF13C041145104610486
:1022A000710409F19EBC0DB407FEFDCF8EBC0DB4C8
:1022B00007FEFDCFF1E04F1A510861087108EDCF1C
:1022C000411451046104710471F0692DC5010E942B
:1022D0004C0A682DC5010E944C0A81E0481A510839
:1022E00061087108EDCFDF91CF911F910F91FF90A1
:1022F000EF90DF90CF90BF90AF909F908F907F90A6
:102300006F905F904F900895EF92FF920F931F93FD
:10231000CF93DF93EC0177FD2FC0888599856817EF
:10232000790754F557FD28C08A859B8548175907BA
:102330001CF5E32EF22E01E010E021E030E0CE01AA
:102340000E948A0C89A187FF09C0EEBC0DB407FE6C
:10235000FDCFFEBC0DB407FEFDCF0EC06E2DCE012D
:102360000E944C0A6F2DCE01DF91CF911F910F91EA
:10237000FF90EF900C944C0ADF91CF911F910F9139
:10238000FF90EF9008951F93CF93DF93EC01162FEA
:10239000E881F9810284F385E02D0995111102C0CD
:1023A00060E201C061E2CE010E94770AE881F98112
:1023B0000688F789E02DCE01DF91CF911F91099416
:1023C0001F93CF93DF93EC0163706D8B6230C1F08C
:1023D000633001F1613051F080EF90E09987888798
:1023E00080E491E09B878A8718E41DC080E491E037
:1023F0009987888780EF90E09B878A8718E213C0CF
:1024000080EF90E09987888780E491E09B878A87B6
:1024100018E809C080E491E09987888780EF90E010
:102420009B878A8718EEE881F9810284F385E02D85
:10243000CE01099566E3CE010E94770A612FCE0195
:102440000E944C0AE881F9810688F789E02DCE01C7
:10245000DF91CF911F9109941F920F920FB60F92A7
:1024600011242F933F934F935F936F937F938F9399
:102470009F93AF93BF93EF93FF938091B900887FB1
:10248000803609F49CC068F5883209F45BC090F48A
:10249000803109F454C038F4882309F4F6C0883038
:1024A00009F44DC0F6C0883109F44CC0803209F4FB
:1024B0005DC0EFC0803409F468C048F4803309F48B
:1024C00055C0883309F0E5C08093A604D8C0803594
:1024D00009F44FC0883509F45DC0883409F0D9C0CB
:1024E000D6C0883909F4C7C0A8F4883709F467C092
:1024F00038F4883609F463C0803709F460C0C9C075
:10250000883809F4B8C0803909F45FC0803809F010
:10251000C0C05BC0803B09F486C038F4803A09F43F
:1025200066C0883A09F47FC0B4C0803C09F4A7C0F3
:10253000883C09F4A4C0883B09F48AC0AAC08091F1
:10254000830410C09091A5048091A404981770F59D
:10255000E091A50481E08E0F8093A504F0E0EC5794
:10256000FB4F80818093BB0085EC86C08093A604DE
:102570008EC0E091A50481E08E0F8093A504809128
:10258000BB00F0E0EC57FB4F80839091A504809155
:10259000A4046EC0E091A50481E08E0F8093A50491
:1025A0008091BB00F0E0EC57FB4F80838091A70443
:1025B00081116DC081E08093820484EA61C083E070
:1025C0008093A8041092FE03CFCF8091FE03803247
:1025D00008F051C0E091FE0381E08E0F8093FE036E
:1025E0008091BB00F0E0E252FC4F8083BDCF85ECD0
:1025F0008093BC001092A8048091FE03803230F4D6
:10260000E091FE03F0E0E252FC4F10826091FE0385
:1026100070E0E091B803F091B9038EED93E0099575
:102620001092FE0336C084E08093A8041092DD036C
:102630001092DC03E091BA03F091BB0309958091FD
:10264000DC03811105C081E08093DC031092BC03A0
:10265000E091DD0381E08E0F8093DD03F0E0E45430
:10266000FC4F80818093BB009091DD038091DC035F
:10267000981708F479CF85E88093BC000AC085ECF0
:102680008093BC001092A80404C01092A6040E947B
:102690003410FF91EF91BF91AF919F918F917F91F6
:1026A0006F915F914F913F912F910F900FBE0F90BF
:1026B0001F90189508958CBD9DBD0895EF92FF92CF
:1026C0000F931F9380915B0290915C0201962FE023
:1026D000289FF001299FF00D1124809159029091BB
:1026E0005A02E80FF91FEE0FFF1FE15FFE4F8081D6
:1026F00091819C012B7F232B19F0079709F04FC084
:1027000040910D0150910E014C5E5F4F60910B01A5
:1027100070910C018FE1E82EF12C04E110E024E12E
:1027200030E081E895E00E94C90580915B029091BC
:102730005C022FE0289FF001299FF00D1124809169
:10274000590290915A02E80FF91FEE0FFF1FE15F47
:10275000FE4F80819181039781F040910D0150914E
:102760000E0160910B0170910C01E12CF12C24E120
:1027700030E081E895E00E94C90580910D019091BB
:102780000E01449690930E0180930D0180915B029F
:1027900090915C02019690935C0280935B021F9182
:1027A0000F91FF90EF900895EF92FF920F931F9378
:1027B00080915B0290915C0201972FE0289FF001CD
:1027C000299FF00D11248091590290915A02E80F2F
:1027D000F91FEE0FFF1FE15FFE4F808191819C0189
:1027E0002B7F232B19F0079709F04FC040910D0163
:1027F00050910E014451510960910B0170910C01EF
:102800008FE1E82EF12C04E110E024E130E081E8D2
:1028100095E00E94C90580915B0290915C022FE0D7
:10282000289FF001299FF00D112480915902909169
:102830005A02E80FF91FEE0FFF1FE15FFE4F808184
:102840009181039781F040910D0150910E016091AB
:102850000B0170910C01E12CF12C24E130E081E8B6
:1028600095E00E94C90580910D0190910E01449759
:1028700090930E0180930D0180915B0290915C0218
:10288000019790935C0280935B021F910F91FF90E0
:10289000EF900895EF92FF920F931F9320915B02A8
:1028A00030915C024FE0429FC001439F900D112484
:1028B000E0915902F0915A023196E80FF91FEE0F9C
:1028C000FF1FE15FFE4F808191819C012B7F232BB5
:1028D00019F0079709F04FC040910D0150910E017A
:1028E00060910B0170910C016C5E7F4F8FE1E82EBF
:1028F000F12C04E110E024E130E081E895E00E9451
:10290000C90580915B0290915C022FE0289FF00145
:10291000299FF00D11248091590290915A02E80FDD
:10292000F91FEE0FFF1FE15FFE4F8081918103973A
:1029300081F040910D0150910E0160910B01709159
:102940000C01E12CF12C24E130E081E895E00E94BB
:10295000C90580910B0190910C01449690930C0154
:1029600080930B018091590290915A0201969093A5
:102970005A02809359021F910F91FF90EF90089592
:10298000EF92FF920F931F9320915B0230915C02B4
:102990004FE0429FC001439F900D1124E0915902E6
:1029A000F0915A023197E80FF91FEE0FFF1FE15F18
:1029B000FE4F808191819C012B7F232B19F007977B
:1029C00009F04FC040910D0150910E0160910B0133
:1029D00070910C01645171098FE1E82EF12C04E132
:1029E00010E024E130E081E895E00E94C905809183
:1029F0005B0290915C022FE0289FF001299FF00D6F
:102A000011248091590290915A02E80FF91FEE0F9C
:102A1000FF1FE15FFE4F80819181039781F040911C
:102A20000D0150910E0160910B0170910C01E12C90
:102A3000F12C24E130E081E895E00E94C905809105
:102A40000B0190910C01449790930C0180930B0122
:102A50008091590290915A02019790935A02809363
:102A600059021F910F91FF90EF900895EF92FF92FE
:102A70000F931F93CF930E940C18809102019091A5
:102A800003010196CFE0C89FF001C99FF00D11240A
:102A90008091000190910101E80FF91FEE0FFF1FD7
:102AA000E15FFE4F808191818B7F892B09F04FC0C0
:102AB0004091090150910A014C5E5F4F60910701FE
:102AC0007091080180EEE82E87E0F82E04E110E016
:102AD00024E130E081E895E00E94C905809102017F
:102AE00090910301C89FF001C99FF00D11248091BE
:102AF000000190910101E80FF91FEE0FFF1FE15F48
:102B0000FE4F80819181039781F04091090150919E
:102B10000A016091070170910801E12CF12C24E178
:102B200030E081E895E00E94C9058091090190910B
:102B30000A01449690930A01809309018091020151
:102B4000909103010196909303018093020184E028
:102B500090E09093050180930401CF911F910F9114
:102B6000FF90EF900895EF92FF920F931F93CF93F2
:102B70000E940C1880910201909103010197CFE00F
:102B8000C89FF001C99FF00D112480910001909120
:102B90000101E80FF91FEE0FFF1FE15FFE4F80817B
:102BA00091818B7F892B09F04FC040910901509191
:102BB0000A0144515109609107017091080180EEAA
:102BC000E82E87E0F82E04E110E024E130E081E80F
:102BD00095E00E94C9058091020190910301C89F70
:102BE000F001C99FF00D1124809100019091010125
:102BF000E80FF91FEE0FFF1FE15FFE4F808191810B
:102C0000039781F04091090150910A0160910701F9
:102C100070910801E12CF12C24E130E081E895E08D
:102C20000E94C9058091090190910A0144979093EF
:102C30000A0180930901809102019091030101979B
:102C4000909303018093020184E090E0909305014A
:102C500080930401CF911F910F91FF90EF90089501
:102C6000EF92FF920F931F93CF930E940C18209125
:102C7000020130910301CFE0C29FC001C39F900DBC
:102C80001124E0910001F09101013196E80FF91F44
:102C9000EE0FFF1FE15FFE4F808191818B7F892BBB
:102CA00009F04FC04091090150910A01609107015C
:102CB000709108016C5E7F4F80EEE82E87E0F82E61
:102CC00004E110E024E130E081E895E00E94C905CC
:102CD0008091020190910301C89FF001C99FF00DFE
:102CE00011248091000190910101E80FF91FEE0F6E
:102CF000FF1FE15FFE4F80819181039781F040913A
:102D0000090150910A016091070170910801E12CBD
:102D1000F12C24E130E081E895E00E94C905809122
:102D20000701909108014496909308018093070150
:102D3000809100019091010101969093010180938F
:102D4000000184E090E09093050180930401CF910D
:102D50001F910F91FF90EF900895EF92FF920F93C4
:102D60001F93CF930E940C18209102013091030110
:102D7000CFE0C29FC001C39F900D1124E0910001DC
:102D8000F09101013197E80FF91FEE0FFF1FE15F8E
:102D9000FE4F808191818B7F892B09F04FC040913C
:102DA000090150910A016091070170910801645175
:102DB000710980EEE82E87E0F82E04E110E024E1AE
:102DC00030E081E895E00E94C90580910201909170
:102DD0000301C89FF001C99FF00D112480910001EB
:102DE00090910101E80FF91FEE0FFF1FE15FFE4F09
:102DF00080819181039781F04091090150910A01EE
:102E00006091070170910801E12CF12C24E130E080
:102E100081E895E00E94C905809107019091080121
:102E2000449790930801809307018091000190914D
:102E300001010197909301018093000184E090E0EB
:102E40009093050180930401CF911F910F91FF9002
:102E5000EF90089590938E0580938D057093900563
:102E600060938F051092940510929305109292052D
:102E700010929105411101C041E040939505F9017F
:102E8000448155816081718181E895E00E94D40A76
:102E900042E050E06BEE72E081E895E00C94D40AD9
:102EA0003091CC04313208F04BC08091A8048111DC
:102EB000FCCF9091CB0422E02093A80421E0209342
:102EC000A7042FEF2093A6041092A5043093A40426
:102ED000EBEAF4E0A4E8B4E020E0321721F04191FD
:102EE0004D932F5FFACF1092830420918304990FA2
:102EF000922B9093830490918204913061F410920C
:102F00008204909183049093BB009091BC0093FD48
:102F1000F8CF95EC01C095EE9093BC009091A80479
:102F20009230E1F39091A6049F3F79F08091A6043E
:102F3000803241F08091A604803331F084E005C0F6
:102F400081E003C082E001C083E01092AA041092E5
:102F5000CC041092A9040895CF93C82F81E08093E8
:102F6000A90482E58093CB041092AA041092CC04A9
:102F70008AE695E00E94C0106C2F8AE695E00E94D8
:102F8000C0100E9450176AE070E080E090E0CF919E
:102F90000C94B8089091A8049111FCCF91E0909303
:102FA000A8049093A7042FEF2093A6041092A504E1
:102FB000260F2093A4049093830490918304880F98
:102FC000892B8093830480918204813061F4109274
:102FD0008204809183048093BB008091BC0083FDB8
:102FE000F8CF85EC01C085EE8093BC008091A804E9
:102FF0008130E1F38091A504861710F46091A50457
:10300000A4E8B4E0E4E5F4E080E0861721F09D91C7
:1030100091938F5FFACF0895FF920F931F93CF93F1
:10302000DF93CDB7DEB72C970FB6F894DEBF0FBE97
:10303000CDBF66E082E50E94CA17F82E10925304B5
:10304000809352048E010F5F1F4F80915304F81636
:1030500049F08AE695E00E947710F80181939193F8
:103060008F01F3CF89819A819093750480937404C2
:103070008B819C8190937704809376048B859C85CB
:103080002D813E81A901440F551F440F551F9C01FE
:10309000359527953595279523703327242B352B88
:1030A00030937904209378042F813885A901440F47
:1030B000551F440F551F9C01E4E035952795EA956F
:1030C000E1F723703327242B352B30937B04209397
:1030D0007A0429853A85A901440F551F440F551FCD
:1030E0009C01A6E035952795AA95E1F72370332733
:1030F000242B352B30937D0420937C049C0121707C
:103100003327F1E02F2730937F0420937E0421E0C2
:1031100030E081FF02C020E030E030938104209352
:10312000800460E080E02C960FB6F894DEBF0FBEFE
:10313000CDBFDF91CF911F910F91FF900C94AC17F1
:103140002F923F924F925F926F927F928F929F92B7
:10315000AF92BF92CF92DF92EF92FF920F931F93A5
:10316000CF93DF930E94F2082B013C01812C912C1C
:103170005401839459E1252E312C6FE0C62ED12CB9
:103180000E94F208DC01CB0184199509A609B70950
:1031900084369105A105B10508F060C18091510404
:1031A0008111FCCFE12CF12C40E050E0BA01C0E0ED
:1031B000E8E7F5E013E0D0E0D701AA0FBB1FA35F5B
:1031C000BB4F2D913C91119782819381281739072C
:1031D00048F42D913C91119780819181821793073A
:1031E00008F41D2FDF5F3296D33059F7112389F091
:1031F000113011F5D501C4010C2E04C0880F991FA0
:10320000AA1FBB1F0A94D2F7482B592B6A2B7B2B82
:1032100012C0D501C4010C2E04C0880F991FAA1F2B
:10322000BB1F0A94D2F780959095A095B09548233E
:1032300059236A237B23CF5F8FEFE81AF80A92E2C3
:10324000E916F10409F0B4CF872F9927AA27BB27E5
:103250004095509560957095861303C08093BC058A
:1032600010C04DE050E06EEE72E08DEC94E00E94F4
:10327000D40A42E050E06BEE72E08DEC94E00E94E4
:10328000D40A8091BC058E3109F453C058F48F30B4
:1032900029F118F48A30A9F073CF843171F18931A2
:1032A000C9F16ECF883209F45EC020F4833209F48C
:1032B0004BC066CF8D3209F461C0823309F46DC012
:1032C0005FCF80916302909164020A9711F40E948B
:1032D000C014D0926402C092630252CF8091630204
:1032E000909164020F9711F40E94C0148AE090E05C
:1032F000909364028093630243CF80916102909126
:103300006202449711F40E944A14309262022092A1
:10331000610236CF8091610290916202499711F467
:103320000E944A1484E190E09093620280936102CB
:1033300027CF80915F02909160024E9711F40E9416
:10334000D41383E290E00AC080915F029091600202
:10335000839711F40E94D4138EE190E09093600261
:1033600080935F020DCF80915D0290915E028897FD
:1033700011F40E945E138DE290E00AC080915D021C
:1033800090915E028D9711F40E945E1388E290E0A6
:1033900090935E0280935D02F3CE80910C048111C4
:1033A000EFCE80915B0290915C024FE0489F9001CC
:1033B000499F300D11248091590290915A02F901D0
:1033C000E80FF91FEE0FFF1FE15FFE4F86E090E070
:1033D0009183808340910D0150910E0160910B010A
:1033E00070910C0190EEE92EFF24FA9404E110E0B4
:1033F00024E130E081E895E00E94C9050E94F208CE
:10340000609308047093090480930A0490930B045A
:1034100021E02093070480915B0290915C029093DD
:103420000604809305048091590290915A0290936A
:1034300004048093030480910D0190910E019093F8
:1034400002048093010480910B0190910C019093F0
:1034500000048093FF0320930C0492CEDF91CF9160
:103460001F910F91FF90EF90DF90CF90BF90AF90A2
:103470009F908F907F906F905F904F903F902F9094
:103480000895EF92FF920F931F93CF93DF93F090E5
:10349000B7059FEFF91207C08EBD00000DB407FEFF
:1034A000FDCF8EB51CC0E090B50507E010E0C82F39
:1034B000D0E0BE01002E02C0759567950A94E2F730
:1034C00061708E2D0E944D0861E08F2D0E944D0885
:1034D00060E08F2D0E944D080150110950F7DF91D7
:1034E000CF911F910F91FF90EF900895CF93DF93AD
:1034F00000D000D000D0CDB7DEB7789484B582601C
:1035000084BD84B5816084BD85B5826085BD85B587
:10351000816085BD80916E00816080936E00109205
:103520008100809181008260809381008091810080
:103530008160809381008091800081608093800011
:103540008091B10084608093B1008091B00081606F
:103550008093B00080917A00846080937A0080919B
:103560007A00826080937A0080917A0081608093F3
:103570007A0080917A00806880937A001092C1006E
:10358000529A5D9852985A98E89A809169008260A0
:10359000809369007894539A8091B0008E7F8093D5
:1035A000B0008091B0008D7F8093B0008091B10019
:1035B000877F8093B1008091B10081608093B100DA
:1035C0008091B1008D7F8093B1008091B1008B7F9D
:1035D0008093B10080918005882311F088E701C0B5
:1035E00089EB8093B40080917000846080937000B8
:1035F00078948091B0008F7E8093B0008091B0006D
:103600008F7D8093B0006BEF74E08FEF90E00E94AD
:103610003C0C80E092E1AAE7B0E080939B05909398
:103620009C05A0939D05B0939E0561E08091A00547
:103630000E947C0860E08091A0050E944D0861E036
:1036400080919F050E947C0861E080919F050E9407
:103650004D088091A20587FD1EC061E08091A30501
:103660000E947C0860E08091A3050E944D0861E003
:103670008091A2050E947C0861E08091A2050E94D1
:103680004D088091A40587FD03C060E00E947C087E
:103690008091A20587FD0E94160A8091A10587FDF1
:1036A00024C061E00E947C0861E08091A1050E9435
:1036B0004D0864E670E080E090E00E94B80860E0A9
:1036C0008091A1050E944D0864E670E080E090E0E2
:1036D0000E94B80861E08091A1050E944D0868EC45
:1036E00070E080E090E00E94B80881E895E00E94D8
:1036F0009A076FEE81E895E00E94770A63E081E81F
:1037000095E00E944C0A60E881E895E00E944C0A2E
:1037100062E081E895E00E944C0A6FEC81E895E058
:103720000E94770A60E081E895E00E944C0A61EC13
:1037300081E895E00E944C0A60E381E895E00E94F0
:103740004C0A6DEE81E895E00E94770A64E681E814
:1037500095E00E944C0A63E081E895E00E944C0AE3
:1037600062E181E895E00E944C0A61E881E895E019
:103770000E944C0A68EE81E895E00E94770A65E8AD
:1037800081E895E00E944C0A60E081E895E00E94A3
:103790004C0A68E781E895E00E944C0A6BEC81E8EE
:1037A00095E00E94770A69E381E895E00E944C0A5F
:1037B0006CE281E895E00E944C0A60E081E895E0C7
:1037C0000E944C0A64E381E895E00E944C0A62E0A2
:1037D00081E895E00E944C0A67EF81E895E00E943D
:1037E000770A60E281E895E00E944C0A6AEE81E87F
:1037F00095E00E94770A60E081E895E00E944C0A1B
:1038000060E081E895E00E944C0A60EC81E895E078
:103810000E94770A63E281E895E00E944C0A61EC1D
:1038200081E895E00E94770A60E181E895E00E94D6
:103830004C0A65EC81E895E00E94770A6EE381E826
:1038400095E00E944C0A68E281E895E00E944C0AEB
:1038500067EC81E895E00E94770A66E881E895E0E8
:103860000E944C0A66E381E895E00E94770A68E4CA
:1038700081E895E00E944C0A67E381E895E00E94A8
:10388000770A8091A20587FF09C01EBC0DB407FE10
:10389000FDCF1EBC0DB407FEFDCF0AC060E081E87D
:1038A00095E00E944C0A60E081E895E00E944C0A95
:1038B0006AE381E895E00E94770A65E581E895E092
:1038C0000E944C0A61EB81E895E00E94770A60E073
:1038D00081E895E00E944C0A68E181E895E00E9449
:1038E0004C0A66EB81E895E00E94770A68E081E87F
:1038F00095E00E944C0A62E881E895E00E944C0A3B
:1039000067E281E895E00E944C0A62EF81E895E069
:103910000E94770A60E081E895E00E944C0A66E226
:1039200081E895E00E94770A61E081E895E00E94D5
:103930004C0A60EE81E895E00E94770A6FE081E82A
:1039400095E00E944C0A61E381E895E00E944C0AF0
:103950006BE281E895E00E944C0A6CE081E895E01A
:103960000E944C0A6EE081E895E00E944C0A68E0F3
:1039700081E895E00E944C0A6EE481E895E00E949F
:103980004C0A61EF81E895E00E944C0A67E381E808
:1039900095E00E944C0A67E081E895E00E944C0A9D
:1039A00060E181E895E00E944C0A63E081E895E0DF
:1039B0000E944C0A6EE081E895E00E944C0A69E0A2
:1039C00081E895E00E944C0A60E081E895E00E9461
:1039D0004C0A61EE81E895E00E94770A60E081E898
:1039E00095E00E944C0A6EE081E895E00E944C0A46
:1039F00064E181E895E00E944C0A63E081E895E08B
:103A00000E944C0A61E181E895E00E944C0A67E05F
:103A100081E895E00E944C0A61E381E895E00E940C
:103A20004C0A61EC81E895E00E944C0A68E481E868
:103A300095E00E944C0A68E081E895E00E944C0AFB
:103A40006FE081E895E00E944C0A6CE081E895E027
:103A50000E944C0A61E381E895E00E944C0A66E30B
:103A600081E895E00E944C0A6FE081E895E00E94B1
:103A70004C0A61E181E895E00E94770A68E770E00E
:103A800080E090E00E94B80869E281E895E00E9439
:103A9000770A68E770E080E090E00E94B80881E86B
:103AA00095E00E948E0780EF90E090938A058093C6
:103AB000890580E491E090938C0580938B0561E00B
:103AC00081E895E00E94E0113A9A3B9A439A0E945D
:103AD000A0180E940A0C60EF85E50E94AC176BEFFE
:103AE00080E00E94AC170E940C189091B4059F3F93
:103AF00059F18091B70561E08F3FA1F4892F0E94B1
:103B00007C0861E08091B4050E944D080E94160A6D
:103B100081E580937605109277051092BA05109290
:103B2000B90517C00E947C0861E08091B4050E942D
:103B30007C0861E08091B5050E947C0860E080917E
:103B4000B6050E947C0805C00E940A0C81E480939F
:103B5000B8050E94F80B8131984061F462E083E07F
:103B60000E94FE0A6AE070E080E090E00E94B808DF
:103B700010E01CC08091B4058F3F09F459C08091BA
:103B8000B7058F3F09F054C085E580937605109204
:103B9000770584E090E09093BA058093B9050E9480
:103BA000F80B8131984009F043C0D8CF812F0E9493
:103BB000440B1F5F1134D1F760E084E00E94FE0ADD
:103BC00061E080E40E94FE0A61E08AE00E94FE0A51
:103BD00060E680E20E94FE0A62E081E20E94FE0A44
:103BE00064EA81E40E94FE0A66E086E50E94FE0A1D
:103BF00061E08AE40E94FE0A61E08BE40E94FE0A12
:103C000060E08BE40E94FE0A61E088E50E94FE0A03
:103C10006FEF8BE00E94FE0A65E089E00E94FE0AD9
:103C20001092190310921803A4E02A2E312C6FC0B1
:103C3000FFCF87ED0E94440BF80181938F01CE16D0
:103C4000DF06B9F7A980F0E1AF9EA00111248A81B7
:103C5000A82EB12CE4E0B594A794EA95E1F7A42A44
:103C6000B52A8F70C82ED12CDC2CCC248B81C82A8D
:103C70001C818BE40E94440B85FF04C06FEF8BE036
:103C80000E94FE0A812F90E00B978D3D934060F5D6
:103C9000A0918905B0918A05A50160E070E09A01C4
:103CA000AB0126593109410951090E94722622E4CB
:103CB0003EE040E050E00E9448265901A0918B056B
:103CC000B0918C05A60160E070E09A01AB0122582A
:103CD0003109410951090E9472262EE13FE040E07E
:103CE00050E00E94482669010091180310911903C1
:103CF0000230110509F43CC1C0F40115110509F4A5
:103D000056C00130110509F4B8C00E94CA0A8BE4FC
:103D10000E94440B85FDF9CF8E010F5F1F4F6E018E
:103D200055E0C50ED11C480184CF0430110509F4BB
:103D300024C508F492C10530110539F760E078EF29
:103D400081E895E00E941304B0EEEB2EFF24FA9474
:103D500000E210E02CE430E046EB50E06CE070E074
:103D600081E895E00E94C90566ED72E0C4010E94F9
:103D7000E60F940141E050E063EC70E088E290E0EF
:103D80000E942A17C4010E94850C62EE72E0C401F1
:103D90000E94E60F940144E050E060E570E08CE39F
:103DA00090E00E942A17C4010E94850CC8C080912F
:103DB000160390911703892B61F460E070E081E8AD
:103DC00095E00E94130481E090E0909317038093A4
:103DD000160370EEE72EFF24FA9408E210E02AE5BD
:103DE00030E042E650E066E470E081E895E00E9451
:103DF000C9056BEB72E0C4010E94E60F940141E03B
:103E000050E063E770E085E590E00E942A17C40166
:103E10000E94850C25E530E042E650E065EA70E05E
:103E200081E895E00E94C90567EC72E0C4010E9438
:103E3000E60F940141E050E063E770E082EB90E030
:103E40000E942A17C4010E94850C4CE8A41AB108EC
:103E50005EE2A516B10408F058CFC601C297CD970F
:103E600008F0D4C481E090E0909319038093180384
:103E70001092170310921603C9C4809116039091F3
:103E80001703892B51F460E070E081E895E00E940F
:103E90001304109317030093160360EEE62EFF241D
:103EA000FA940EE510E02CE430E045E550E06CE0DB
:103EB00070E081E895E00E94C90562ED72E0C401FE
:103EC0000E94E60F940143E050E068E770E08EE165
:103ED00090E00E942A17C4010E94850C00E210E0C5
:103EE0002CE430E046EB50E06CE070E081E895E0D7
:103EF0000E94C90566ED72E0C4010E94E60F9401BC
:103F000041E050E063EC70E088E290E00E942A1704
:103F1000C4010E94850CC5018A5591098F3691050F
:103F200070F4C6010F978E9750F4109217031092F9
:103F3000160383E090E090931903809318039DE2A9
:103F4000A91AB108EAE1AE16B10408F0DECEFFE02E
:103F5000CF1AD1082EE2C216D10408F0D6CE1092A4
:103F60001703109216031092190310921803CDCE66
:103F70008091160390911703892B61F460E070E043
:103F800081E895E00E94130481E090E0909317038C
:103F90008093160350EEE52EFF24FA940EE510E010
:103FA0002CE430E045E550E06CE070E081E895E01D
:103FB0000E94C90562ED72E0C4010E94E60F9401FF
:103FC00043E050E068E770E08EE190E00E942A173D
:103FD000C4010E94850C00E210E02CE430E046EBC6
:103FE00050E06CE070E081E895E00E94C90566ED64
:103FF00072E0C4010E94E60F940141E050E063ECDE
:1040000070E088E290E00E942A17C4010E94850CAB
:10401000C5018A5591098F36910570F4C6010F9735
:104020008E9750F4109217031092160383E090E0DD
:1040300090931903809318034DE2A41AB1085AE132
:10404000A516B10408F061CE8FE0C81AD1089EE22F
:10405000C916D10408F483CF58CE60E070E081E83F
:1040600095E00E9413044091090150910A0160916A
:1040700007017091080190EEE92E97E0F92E04E116
:1040800010E024E130E081E895E00E94C90540910C
:104090000D0150910E0160910B0170910C012FE107
:1040A000E22EF12C24E130E081E895E00E94C90580
:1040B0003FE0432E31E0532E44E1C42ED12C420187
:1040C0008AE0A82EB12C3401F401808191810197FE
:1040D00069F4E12C08EFF02E04E110E024E130E077
:1040E000A601B50181E895E00E94C905F2E08F0EB6
:1040F000911CF30180819181029771F4EE24EA947E
:1041000017E0F12E04E110E024E130E0A601B50152
:1041100081E895E00E94C905F4E1AF0EB11C26E3E9
:10412000A21621E0B20679F644E1C40ED11C5EE18C
:10413000450E511C80EFC816D10409F6552453943E
:10414000BFE04B2E80910601882309F4DECD0E944A
:10415000A0180E940C188091760490917704209109
:10416000740430917504853B91055CF0A9014556B6
:1041700051094F345105A8F4109205011092040121
:104180002DC0813491056CF4A901455651094F3475
:10419000510538F4E2E0F0E0F0930501E09304010A
:1041A0001DC0253B310564F0855691098F3491057A
:1041B000A8F441E050E050930501409304010EC083
:1041C000213431055CF4855691098F34910530F422
:1041D00083E090E0909305018093040180910401B5
:1041E00090910501892BE9F480911503882369F0EA
:1041F0006FEF70E08CED93E20E943C0C5092B7039D
:104200000E94B315109215030CC06FEF70E081EEA1
:104210009EE10E943C0C5092B7030E94B31550924D
:10422000150380910401909105010297E9F48091B2
:104230001403882369F06FEF70E082ED9DE20E9425
:104240003C0C5092B7030E943615109214030CC018
:104250006FEF70E087ED98E20E943C0C5092B7033C
:104260000E9436155092140380910401909105012B
:104270000197E9F480911303882369F06FEF70E0F0
:1042800086EE99E10E943C0C5092B7030E943016D2
:10429000109213030CC06FEF70E08BEE94E10E945C
:1042A0003C0C5092B7030E94301650921303809139
:1042B0000401909105010397E9F48091120388238A
:1042C00069F06FEF70E080EF9FE00E943C0C50922D
:1042D000B7030E94AD16109212030CC06FEF70E08E
:1042E00085EF9AE00E943C0C5092B7030E94AD16F5
:1042F0005092120380900D0390900E03A0900F0334
:10430000B090100390ED890E97E0991EA11CB11C8E
:104310000E94F208681579058A059B0508F42FC1EB
:1043200080910C03882309F42AC120910A0330915B
:104330000B038091080390910903429EF001439E74
:10434000F00D1124E80FF91FEE0FFF1FE15FFE4F84
:104350003182208221503109429EF001439EF00DAE
:104360001124E80FF91FEE0FFF1FE15FFE4F808160
:104370009181019761F140910603509107034451E7
:1043800051096091040370910503E0EEEE2EFF24C5
:10439000FA9404E110E024E130E081E895E00E9425
:1043A000C90580910A0390910B030197489EF00183
:1043B000499EF00D11248091080390910903E80FA4
:1043C000F91FEE0FFF1FE15FFE4F31822082209127
:1043D0000A0330910B03429EC001439E900D1124AD
:1043E000E0910803F09109033196E80FF91FEE0FF1
:1043F000FF1FE15FFE4F80819181019761F1409144
:1044000006035091070360910403709105036C5EED
:104410007F4F30EEE32EFF24FA9404E110E024E114
:1044200030E081E895E00E94C90520910A033091AF
:104430000B03429EC001439E900D1124E09108039E
:10444000F09109033196E80FF91FEE0FFF1FE15FAE
:10445000FE4F3182208280910A0390910B030196D6
:10446000489EF001499EF00D11248091080390911F
:104470000903E80FF91FEE0FFF1FE15FFE4F808178
:104480009181019761F140910603509107034C5EC1
:104490005F4F609104037091050380EEE82EFF24C6
:1044A000FA9404E110E024E130E081E895E00E9414
:1044B000C90580910A0390910B030196489EF00173
:1044C000499EF00D11248091080390910903E80F93
:1044D000F91FEE0FFF1FE15FFE4F31822082209116
:1044E0000A0330910B03429EC001439E900D11249C
:1044F000E0910803F09109033197E80FF91FEE0FDF
:10450000FF1FE15FFE4F80819181019761F1409132
:1045100006035091070360910403709105036451F1
:104520007109B0EEEB2EFF24FA9404E110E024E1CF
:1045300030E081E895E00E94C90520910A0330919E
:104540000B03429EC001439E900D1124E09108038D
:10455000F09109033197E80FF91FEE0FFF1FE15F9C
:10456000FE4F3182208210920C030E94F208609369
:1045700000037093010380930203909303038091DF
:10458000020190910301489EF001499EF00D112413
:104590008091000190910101E80FF91FEE0FFF1FBC
:1045A000E15FFE4F808191818430910511F0079782
:1045B00041F4E5E0F0E0F0931903E0931803109262
:1045C00006018090000390900103A0900203B09038
:1045D0000303FCED8F0EF5E09F1EA11CB11C0E9491
:1045E000F208681579058A059B05D0F180910C03C6
:1045F000811136C06FE0662E61E0762E74E1C72E21
:10460000D12C43015AE0A52EB12CF4018081918177
:104610000397029770F411821082E12CF12C04E1CF
:1046200010E024E130E0A601B50181E895E00E94A8
:10463000C905F2E08F0E911C24E1A20EB11C46E3E5
:10464000A41641E0B40609F75EE1650E711C84E131
:10465000C80ED11C90EFC916D10499F6109211031F
:104660008090FC029090FD02A090FE02B090FF02AC
:10467000ECED8E0EE5E09E1EA11CB11C0E94F2081E
:10468000681579058A059B05D0F180910704811191
:1046900036C03FE0832E31E0932E44E1C42ED12C6E
:1046A00034012AE0A22EB12CF3018081918106977A
:1046B000029770F411821082E12CF12C04E110E0D9
:1046C00024E130E0A601B50181E895E00E94C9052A
:1046D000F2E06F0E711C24E1A20EB11C46E3A41699
:1046E00041E0B40609F75EE1850E911C84E1C80E35
:1046F000D11C90EFC916D10499F610920C04809148
:104700005B0290915C02489EF001499EF00D1124DD
:104710008091590290915A02E80FF91FEE0FFF1F86
:10472000E15FFE4F808191818430910511F0079700
:1047300041F4E4E0F0E0F0931903E09318031092E1
:1047400006018090080490900904A0900A04B0909B
:104750000B04F0ED8F0EF7E09F1EA11CB11C0E9410
:10476000F208681579058A059B0508F4EBCC809161
:104770000704882309F4E6CC5CC06FE178EF81E898
:1047800095E00E94130410EEE12EFF24FA9400E25B
:1047900010E02CE430E046EB50E06CE070E081E8A3
:1047A00095E00E94C90566ED72E0C4010E94E60F23
:1047B000940141E050E063EC70E088E290E00E94F8
:1047C0002A17C4010E94850C6BED72E0C4010E949F
:1047D000E60F940144E050E060E570E08AE590E087
:1047E0000E942A17C4010E94850C2DE2A21AB1086A
:1047F0004AE1A416B10408F088CA5FE0C51AD108DE
:104800008EE2C816D10408F4AACB7FCA48E7C41ABE
:10481000D1085DE3C516D10408F077CA82E090E0C4
:1048200090931903809318031092170310921603A4
:104830006CCA209105043091060480910304909184
:1048400004044FE0D42ED29EF001D39EF00D11242B
:10485000E80FF91FEE0FFF1FE15FFE4F46E050E04B
:104860005183408321503109D29EF001D39EF00D37
:104870001124E80FF91FEE0FFF1FE15FFE4F80814B
:104880009181019771F140910104509102044451CA
:1048900051096091FF037091000400EEE02EFF24A7
:1048A000FA9404E110E024E130E081E895E00E9410
:1048B000C90580910504909106040197D89EF001E6
:1048C000D99EF00D11248091030490910404E80F07
:1048D000F91FEE0FFF1FE15FFE4F87E090E091832D
:1048E00080832091050430910604BFE0DB2ED29E28
:1048F000C001D39E900D1124E0910304F0910404B3
:104900003196E80FF91FEE0FFF1FE15FFE4F808128
:104910009181019771F140910104509102046091DD
:10492000FF03709100046C5E7F4FE0EEEE2EFF24DB
:10493000FA9404E110E024E130E081E895E00E947F
:10494000C9052091050430910604D29EC001D39E72
:10495000900D1124E0910304F09104043196E80FC6
:10496000F91FEE0FFF1FE15FFE4F87E090E091839C
:104970008083809105049091060401965FE0D52E16
:10498000D89EF001D99EF00D1124809103049091DE
:104990000404E80FF91FEE0FFF1FE15FFE4F808157
:1049A0009181019771F140910104509102044C5E94
:1049B0005F4F6091FF037091000430EEE32EFF24FF
:1049C000FA9404E110E024E130E081E895E00E94EF
:1049D000C90580910504909106040196D89EF001C6
:1049E000D99EF00D11248091030490910404E80FE6
:1049F000F91FEE0FFF1FE15FFE4F87E090E091830C
:104A0000808320910504309106049FE0D92ED29E28
:104A1000C001D39E900D1124E0910304F091040491
:104A20003197E80FF91FEE0FFF1FE15FFE4F808106
:104A30009181019771F140910104509102046091BC
:104A4000FF03709100046451710900EEE02EFF2411
:104A5000FA9404E110E024E130E081E895E00E945E
:104A6000C9052091050430910604D29EC001D39E51
:104A7000900D1124E0910304F09104043197E80FA4
:104A8000F91FEE0FFF1FE15FFE4F87E090E091837B
:104A90008083109207040E94F2086093FC027093D6
:104AA000FD028093FE029093FF024ACBEDECF4E00E
:104AB0001382128288EE93E0A0E0B0E084839583B5
:104AC000A683B7832FE632E03183208325EC30E0E4
:104AD0003587248724EC30E03787268720EC30E0C8
:104AE000318B208B21EC30E0338B228B22EC30E0B9
:104AF000358B248B26EC30E0378B268B118E128E73
:104B0000138E148EEAE6F5E0138212828483958375
:104B1000A683B78381E892E091838083E6E7F5E09E
:104B200080E58083118210928005E8E7F5E084E655
:104B300090E0918380838EE591E09383828384EF7C
:104B400091E0958384838CED95E097838683E4EBF5
:104B5000F5E088E080838FEF838382838183A1E8FF
:104B6000B5E013961C921E92129740EF50E01596F6
:104B70005C934E93149720E431E017963C932E9368
:104B8000169719965C934E9318971B963C932E9309
:104B90001A9755961C9255971D961C921E921C971B
:104BA0001F961C921E921E9791E054969C935497C8
:104BB0002FEF3FEF53963C932E93529751963C9391
:104BC0002E93509756969C93569757961C925797AC
:104BD00059961C921E92589723E932E011963C9305
:104BE0002E939AE05E969C935E9799E05F969C93D5
:104BF0005F9790968C93909791968C9391979296BD
:104C00008C93929793968C9393975A961D921D929C
:104C10001D921C925D97E8EBF5E0E491F0E0EE0F59
:104C2000FF1FEC55FA4F859194919D969C938E931E
:104C30009C97EAE9F5E0E491D196EC93D197E7EB04
:104C4000F5E0E491F0E0EE0FFF1FEC55FA4F85918F
:104C500094919B969C938E939A97E9E9F5E0E49161
:104C6000D296EC93D29799961C921E929897D096D2
:104C70001C92D09795961C921E9294979E961C9289
:104C80009E9797961C921E9296979F961C920895B7
:104C9000052E97FB1EF400940E945F2657FD07D057
:104CA0000E94B12607FC03D04EF40C945F26509569
:104CB0004095309521953F4F4F4F5F4F0895909508
:104CC0008095709561957F4F8F4F9F4F08950E94FB
:104CD000D326A59F900DB49F900DA49F800D911D8C
:104CE00011240895B7FF0C9467260E946726821B43
:104CF000930B08952F923F924F925F926F927F9203
:104D00008F929F92AF92BF92CF92DF92EF92FF92DB
:104D10000F931F93CF93DF93CDB7DEB7CA1BDB0B87
:104D20000FB6F894DEBF0FBECDBF09942A8839882C
:104D300048885F846E847D848C849B84AA84B98433
:104D4000C884DF80EE80FD800C811B81AA81B9813F
:104D5000CE0FD11D0FB6F894DEBF0FBECDBFED0153
:104D60000895A1E21A2EAA1BBB1BFD010DC0AA1FAC
:104D7000BB1FEE1FFF1FA217B307E407F50720F0C4
:104D8000A21BB30BE40BF50B661F771F881F991F3F
:104D90001A9469F760957095809590959B01AC0188
:104DA000BD01CF010895A29FB001B39FC001A39F91
:104DB000700D811D1124911DB29F700D811D112454
:104DC000911D08950E94D326332312F48A1B9B0B56
:104DD0000C94EC260E94D326B7FF0895821B930BF8
:104DE0000895EE0FFF1F0590F491E02D09940F93A5
:104DF0001F93CF93DF938230910510F482E090E00F
:104E0000E091BF05F091C00520E030E0A0E0B0E007
:104E1000309719F140815181028113814817590758
:104E2000C8F08417950769F4109731F012960C9327
:104E3000129713961C9327C00093BF051093C005CB
:104E400022C02115310519F04217530718F49A01B1
:104E5000BD01EF01DF01F801DBCF21153105F9F0CC
:104E6000281B390B2430310580F48A819B81611520
:104E7000710521F0FB019383828304C09093C005E8
:104E80008093BF05FE01329644C0FE01E20FF31F7E
:104E90008193919322503109398328833AC020911C
:104EA000BD053091BE05232B41F42091670230915E
:104EB00068023093BE052093BD05209165023091B4
:104EC00066022115310541F42DB73EB740916902C4
:104ED00050916A02241B350BE091BD05F091BE058F
:104EE000E217F307A0F42E1B3F0B2817390778F0C1
:104EF000AC014E5F5F4F2417350748F04E0F5F1F20
:104F00005093BE054093BD058193919302C0E0E0AC
:104F1000F0E0CF01DF91CF911F910F910895CF93D2
:104F2000DF93009709F481C0FC013297138212824B
:104F3000A091BF05B091C005109781F42081318107
:104F4000820F931F2091BD053091BE0528173907A8
:104F500051F5F093BE05E093BD0567C0ED0120E07B
:104F600030E0CE17DF0740F44A815B819E01411596
:104F70005105F1F0EA01F5CFD383C283408151811D
:104F8000840F951FC817D90759F488819981840F18
:104F9000951F0296918380838A819B81938382836C
:104FA0002115310529F4F093C005E093BF053DC0FC
:104FB000E901FB83EA8349915991C40FD51FEC178E
:104FC000FD0761F480819181840F951F0296E901AC
:104FD00099838883828193819B838A83E0E0F0E0D8
:104FE00012968D919C911397009719F0FD01DC01A9
:104FF000F7CF8D919C9111979D012E5F3F4F820FAE
:10500000931F2091BD053091BE052817390769F41B
:10501000309729F41092C0051092BF0502C0138288
:105020001282B093BE05A093BD05DF91CF91089584
:10503000A0E0B0E0EEE1F8E20C947E26EC010097EF
:1050400021F4CB010E94F726B4C0FC01E60FF71F44
:105050009C0122503109E217F30708F4A8C0D901D6
:105060000D911C91119706171707B0F00530110527
:1050700008F49BC0C80104978617970708F495C0E9
:1050800002501109061B170B019311936D937C932A
:10509000CF010E948F2789C05B01A01AB10A4C0181
:1050A000800E911EA091BF05B091C005612C712C9E
:1050B000E12CF12C109709F446C08D919C91119729
:1050C000A815B905B1F56C0142E0C40ED11CCA1493
:1050D000DB0478F14C018A189B08640142E0C40E9D
:1050E000D11C1296BC9012971396AC91B5E0CB16DA
:1050F000D10440F0B282A38391828082D9016D9362
:105100007C9309C00E5F1F4F800F911FF90191839F
:105110008083EB2DFA2FE114F10431F0D7011396BF
:10512000FC93EE93129741C0F093C005E093BF0546
:105130003CC06816790608F43C017D0112960D907A
:10514000BC91A02DB7CF8091BD059091BE0588166A
:105150009906E1F466167706C8F48091650290918D
:105160006602009741F48DB79EB740916902509155
:105170006A02841B950BE817F907C8F4F093BE0583
:10518000E093BD05F901718360830FC0CB010E94DC
:10519000F7267C01009759F0A801BE010E94E32880
:1051A000CE010E948F27C70104C0CE0102C080E05B
:1051B00090E0CDB7DEB7EEE00C949A2681E090E067
:1051C000F8940C94F328FB01DC0102C001900D92CD
:1051D00041505040D8F70895FB01DC0101900D9239
:0A51E0000020E1F70895F894FFCFD6
:1051EA000D0009000400010E01C8001E002800017C
:1051FA00000100010001000100010001000100019D
:10520A00000100010001000100010001000100008D
:10521A000000000000000000000000000000000084
:10522A000000000000000000000100010000000171
:10523A000000000100000001000000010000000160
:10524A00000000010000000100010002000000024D
:10525A00000000020000000200000002000000023C
:10526A000000000000010001000000010000000130
:10527A000000000100000001000000010000000120
:10528A00000000010001000200000002000000020C
:10529A0000000002000000020000000200000000FE
:1052AA0000010001000000010000000100000001EF
:1052BA0000000001000000010000000100000001E0
:1052CA0000010002000000020000000200000002CB
:1052DA0000000002000000020000000200010001BC
:1052EA0000000001000000010000000100000001B0
:1052FA0000000001000000010000000100010000A0
:10530A00000000020000000200000002000000028B
:10531A00000000020000000000010001000100017D
:10532A00000100010001000100010001000100016B
:10533A000001000100010001000100010028001E17
:10534A000014000A000000C1058000000000007778
:10535A000FD40A8D0AC40FBE0A9C0AB00A000000C4
:10536A0000C0109310F010E7048B1077106810003B
:10537A00000000B806D40AF010EF105A069A078403
:10538A0011F3109806850617058E07E011C3112B35
:10539A0006FC05C9051304A6034703537461727416
:1053AA00204C6F626279004A6F696E204C6F6262AC
:1053BA007900474F21004261636B0057494E4E45C1
:1053CA005200594F55204C4F5345000D0A00726543
:0C53DA006369657665206661696C2100DE
:00000001FF
